{
  "address": "0xfe234843099107B0Bb85d20836EA74e16295A878",
  "abi": [
    {
      "inputs": [
        {
          "internalType": "uint256",
          "name": "optimalUsageRatio",
          "type": "uint256"
        },
        {
          "internalType": "uint256",
          "name": "baseBorrowRate",
          "type": "uint256"
        },
        {
          "internalType": "uint256",
          "name": "debtSlope1",
          "type": "uint256"
        },
        {
          "internalType": "uint256",
          "name": "debtSlope2",
          "type": "uint256"
        }
      ],
      "stateMutability": "nonpayable",
      "type": "constructor"
    },
    {
      "inputs": [],
      "name": "MAX_EXCESS_USAGE_RATIO",
      "outputs": [
        {
          "internalType": "uint256",
          "name": "",
          "type": "uint256"
        }
      ],
      "stateMutability": "view",
      "type": "function"
    },
    {
      "inputs": [],
      "name": "OPTIMAL_USAGE_RATIO",
      "outputs": [
        {
          "internalType": "uint256",
          "name": "",
          "type": "uint256"
        }
      ],
      "stateMutability": "view",
      "type": "function"
    },
    {
      "inputs": [
        {
          "internalType": "bytes32",
          "name": "",
          "type": "bytes32"
        },
        {
          "internalType": "bytes",
          "name": "",
          "type": "bytes"
        },
        {
          "components": [
            {
              "internalType": "address",
              "name": "reserve",
              "type": "address"
            },
            {
              "internalType": "uint256",
              "name": "liquidityAdded",
              "type": "uint256"
            },
            {
              "internalType": "uint256",
              "name": "liquidityTaken",
              "type": "uint256"
            },
            {
              "internalType": "uint256",
              "name": "reserveFactor",
              "type": "uint256"
            },
            {
              "internalType": "uint256",
              "name": "totalDebt",
              "type": "uint256"
            }
          ],
          "internalType": "struct DataTypes.CalculateInterestRatesParams",
          "name": "params",
          "type": "tuple"
        }
      ],
      "name": "calculateInterestRates",
      "outputs": [
        {
          "internalType": "uint256",
          "name": "",
          "type": "uint256"
        },
        {
          "internalType": "uint256",
          "name": "",
          "type": "uint256"
        }
      ],
      "stateMutability": "view",
      "type": "function"
    },
    {
      "inputs": [],
      "name": "getBaseBorrowRate",
      "outputs": [
        {
          "internalType": "uint256",
          "name": "",
          "type": "uint256"
        }
      ],
      "stateMutability": "view",
      "type": "function"
    },
    {
      "inputs": [],
      "name": "getDebtSlope1",
      "outputs": [
        {
          "internalType": "uint256",
          "name": "",
          "type": "uint256"
        }
      ],
      "stateMutability": "view",
      "type": "function"
    },
    {
      "inputs": [],
      "name": "getDebtSlope2",
      "outputs": [
        {
          "internalType": "uint256",
          "name": "",
          "type": "uint256"
        }
      ],
      "stateMutability": "view",
      "type": "function"
    },
    {
      "inputs": [],
      "name": "getMaxBorrowRate",
      "outputs": [
        {
          "internalType": "uint256",
          "name": "",
          "type": "uint256"
        }
      ],
      "stateMutability": "view",
      "type": "function"
    }
  ],
  "transactionHash": "0xa159c2fbebbea00823d70305d8705d80a2e9cf9b50467ae6631f120544002997",
  "args": [
    "450000000000000000000000000",
    "0",
    "70000000000000000000000000",
    "300000000000000000000000000"
  ],
  "numDeployments": 1,
  "solcInputHash": "2834fe7fbbb1af748140962d71f4d6ce",
  "bytecode": "0x61012060405234801561001157600080fd5b50604051610a24380380610a24833981016040819052610030916100cf565b836b033b2e3c9fd0803ce800000010156040518060400160405280601b81526020017f494e56414c49445f4f5054494d414c5f55534147455f524154494f00000000008152509061009d5760405162461bcd60e51b81526004016100949190610105565b60405180910390fd5b5060808490526100b9846b033b2e3c9fd0803ce8000000610153565b60a05260c09290925260e052610100525061017a565b600080600080608085870312156100e557600080fd5b505082516020840151604085015160609095015191969095509092509050565b600060208083528351808285015260005b8181101561013257858101830151858201604001528201610116565b506000604082860101526040601f19601f8301168501019250505092915050565b8181038181111561017457634e487b7160e01b600052601160045260246000fd5b92915050565b60805160a05160c05160e0516101005161081b610209600039600081816101610152818161018901526103e201526000818161013b015281816101ad0152818161040d015261047a015260008181610115015281816101ce015261025901526000818160f1015261038601526000818160a201528181610355015281816103a70152610451015261081b6000f3fe608060405234801561001057600080fd5b506004361061007d5760003560e01c8063a9c622f81161005b578063a9c622f8146100ec578063ca6389f314610113578063cfa56b4314610139578063f32877851461015f57600080fd5b80632d7d8a4f1461008257806354c365c61461009d5780636e483cb6146100c4575b600080fd5b61008a610185565b6040519081526020015b60405180910390f35b61008a7f000000000000000000000000000000000000000000000000000000000000000081565b6100d76100d23660046106e0565b610201565b60408051928352602083019190915201610094565b61008a7f000000000000000000000000000000000000000000000000000000000000000081565b7f000000000000000000000000000000000000000000000000000000000000000061008a565b7f000000000000000000000000000000000000000000000000000000000000000061008a565b7f000000000000000000000000000000000000000000000000000000000000000061008a565b60007f00000000000000000000000000000000000000000000000000000000000000006101f27f00000000000000000000000000000000000000000000000000000000000000007f00000000000000000000000000000000000000000000000000000000000000006107a6565b6101fc91906107a6565b905090565b6000806102446040518060e00160405280600081526020016000815260200160008152602001600081526020016000815260200160008152602001600081525090565b608084015160208201819052600060608301527f0000000000000000000000000000000000000000000000000000000000000000604083015215610353576040808501516020860151865192516370a0823160e01b8152336004820152919290916001600160a01b03909116906370a0823190602401602060405180830381865afa1580156102d7573d6000803e3d6000fd5b505050506040513d601f19601f820116820180604052508101906102fb91906107b9565b61030591906107a6565b61030f91906107d2565b8082526020820151610320916107a6565b60c08201819052602082015161033591610510565b608082015260c0810151602082015161034d91610510565b60a08201525b7f00000000000000000000000000000000000000000000000000000000000000008160800151111561044c5760006103db7f00000000000000000000000000000000000000000000000000000000000000007f000000000000000000000000000000000000000000000000000000000000000084608001516103d591906107d2565b90610510565b90506104077f00000000000000000000000000000000000000000000000000000000000000008261054f565b610431907f00000000000000000000000000000000000000000000000000000000000000006107a6565b8260400181815161044291906107a6565b9052506104bc9050565b6104a77f00000000000000000000000000000000000000000000000000000000000000006103d583608001517f000000000000000000000000000000000000000000000000000000000000000061054f90919063ffffffff16565b816040018181516104b891906107a6565b9052505b6104f784606001516127106104d191906107d2565b6104f18360a001516104eb88608001518660400151610593565b9061054f565b906105d3565b6060820181905260409091015190969095509350505050565b600081156b033b2e3c9fd0803ce80000006002840419048411171561053457600080fd5b506b033b2e3c9fd0803ce80000009190910260028204010490565b600081156b019d971e4fe8401e74000000198390048411151761057157600080fd5b506b033b2e3c9fd0803ce800000091026b019d971e4fe8401e74000000010490565b6000826000036105a5575060006105cd565b60006105b4836104eb866105f9565b90506105c96105c2856105f9565b8290610510565b9150505b92915050565b6000811561138819839004841115176105eb57600080fd5b506127109102611388010490565b633b9aca00818102908104821461060f57600080fd5b919050565b634e487b7160e01b600052604160045260246000fd5b604051601f8201601f1916810167ffffffffffffffff8111828210171561065357610653610614565b604052919050565b600060a0828403121561066d57600080fd5b60405160a0810181811067ffffffffffffffff8211171561069057610690610614565b60405290508082356001600160a01b03811681146106ad57600080fd5b80825250602083013560208201526040830135604082015260608301356060820152608083013560808201525092915050565b600080600060e084860312156106f557600080fd5b8335925060208085013567ffffffffffffffff8082111561071557600080fd5b818701915087601f83011261072957600080fd5b81358181111561073b5761073b610614565b61074d601f8201601f1916850161062a565b9150808252888482850101111561076357600080fd5b8084840185840137600084828401015250809450505050610787856040860161065b565b90509250925092565b634e487b7160e01b600052601160045260246000fd5b808201808211156105cd576105cd610790565b6000602082840312156107cb57600080fd5b5051919050565b818103818111156105cd576105cd61079056fea2646970667358221220a89e05610fa0b4b5b921040e29cb0151b69d766290cafa7bd9203213de0ce2f464736f6c63430008130033",
  "devdoc": {
    "details": "The model of interest rate is based on 2 slopes, one before the `OPTIMAL_USAGE_RATIO` point of usage and another from that one to 100%. - An instance of this same contract, can't be used across different markets, due to the caching   of the PoolAddressesProvider",
    "kind": "dev",
    "methods": {
      "calculateInterestRates(bytes32,bytes,(address,uint256,uint256,uint256,uint256))": {
        "params": {
          "params": "The parameters needed to calculate interest rates"
        },
        "returns": {
          "_0": "liquidityRate The liquidity rate expressed in rays",
          "_1": "variableBorrowRate The variable borrow rate expressed in rays"
        }
      },
      "constructor": {
        "details": "Constructor.",
        "params": {
          "baseBorrowRate": "The base borrow rate",
          "debtSlope1": "The debt rate slope below optimal usage ratio",
          "debtSlope2": "The debt rate slope above optimal usage ratio",
          "optimalUsageRatio": "The optimal usage ratio"
        }
      },
      "getBaseBorrowRate()": {
        "returns": {
          "_0": "The base variable borrow rate, expressed in ray"
        }
      },
      "getDebtSlope1()": {
        "details": "It's the variable rate when usage ratio > 0 and <= OPTIMAL_USAGE_RATIO",
        "returns": {
          "_0": "The variable rate slope, expressed in ray"
        }
      },
      "getDebtSlope2()": {
        "details": "It's the variable rate when usage ratio > OPTIMAL_USAGE_RATIO",
        "returns": {
          "_0": "The variable rate slope, expressed in ray"
        }
      },
      "getMaxBorrowRate()": {
        "returns": {
          "_0": "The maximum variable borrow rate, expressed in ray"
        }
      }
    },
    "stateVariables": {
      "MAX_EXCESS_USAGE_RATIO": {
        "details": "It's always equal to 1-optimal usage ratio (added as constant for gas optimizations)",
        "return": "The max excess usage ratio, expressed in ray.",
        "returns": {
          "_0": "The max excess usage ratio, expressed in ray."
        }
      },
      "OPTIMAL_USAGE_RATIO": {
        "return": "The optimal usage ratio, expressed in ray.",
        "returns": {
          "_0": "The optimal usage ratio, expressed in ray."
        }
      }
    },
    "title": "DefaultReserveInterestRateStrategy contract",
    "version": 1
  },
  "userdoc": {
    "kind": "user",
    "methods": {
      "MAX_EXCESS_USAGE_RATIO()": {
        "notice": "Returns the excess usage ratio above the optimal."
      },
      "OPTIMAL_USAGE_RATIO()": {
        "notice": "Returns the usage ratio at which the pool aims to obtain most competitive borrow rates."
      },
      "calculateInterestRates(bytes32,bytes,(address,uint256,uint256,uint256,uint256))": {
        "notice": "Calculates the interest rates depending on the reserve's state and configurations"
      },
      "getBaseBorrowRate()": {
        "notice": "Returns the base variable borrow rate"
      },
      "getDebtSlope1()": {
        "notice": "Returns the variable rate slope below optimal usage ratio"
      },
      "getDebtSlope2()": {
        "notice": "Returns the variable rate slope above optimal usage ratio"
      },
      "getMaxBorrowRate()": {
        "notice": "Returns the maximum variable borrow rate"
      }
    },
    "notice": "Implements the calculation of the interest rates depending on the reserve state",
    "version": 1
  },
  "storageLayout": {
    "storage": [],
    "types": null
  }
}