{
  "address": "0x5ea73c4C88f78FC9dd2F1b67dFACE2F1A25047D8",
  "abi": [
    {
      "inputs": [],
      "name": "CLOSE_FACTOR_HF_THRESHOLD",
      "outputs": [
        {
          "internalType": "uint256",
          "name": "",
          "type": "uint256"
        }
      ],
      "stateMutability": "view",
      "type": "function"
    },
    {
      "inputs": [],
      "name": "MAX_LIQUIDATION_CLOSE_FACTOR",
      "outputs": [
        {
          "internalType": "uint256",
          "name": "",
          "type": "uint256"
        }
      ],
      "stateMutability": "view",
      "type": "function"
    }
  ],
  "transactionHash": "0xc3565d8e81f96eb10fa05fb7cba95f5c20dd15b02a4c13a3c18084a1a579915b",
  "args": [],
  "numDeployments": 1,
  "solcInputHash": "95d84748b454ba387ab3866b78066cba",
  "bytecode": "0x6127e461003a600b82828239805160001a60731461002d57634e487b7160e01b600052600060045260246000fd5b30600052607381538281f3fe730000000000000000000000000000000000000000301460806040526004361061004b5760003560e01c80639406fcf714610050578063a18964a514610072578063d246754414610093575b600080fd5b81801561005c57600080fd5b5061007061006b366004612445565b61009c565b005b610081670d2f13f7789f000081565b60405190815260200160405180910390f35b61008161271081565b6100a46121f1565b81516001600160a01b0390811660009081526020898152604080832082870180518616855282852060608901518652898552838620915190961685529289905292209192916100f490839061084a565b610140850181905260c086015161010d918491906108e4565b610159888b8b60405180606001604052808a604001516001600160a01b031681526020018a6060015181526020018660405180602001604052908160008201548152505081525061092f565b5060a08901819052610173945089935091508b9050610e0a565b8560200186604001828152508281525050506101b78184604051806060016040528088610140015181526020018860a0015181526020018860200151815250610e8e565b604080516020808201835285549182905287518882015192821c61ffff16608089019081526001600160a01b039384166101008a015290831660e0890152610120880151831660009081528c835284812060608b015182528352849020600201548089526101408901518986015192518b8701518c51885163b3596f0760e01b8152908816600482015297516103dc988c9894979394929092169263b3596f0792602480820193918290030181865afa158015610278573d6000803e3d6000fd5b505050506040513d601f19601f8201168201806040525081019061029c919061253f565b6040808d015160208e0151915163b3596f0760e01b81526001600160a01b03928316600482015291169063b3596f0790602401602060405180830381865afa1580156102ec573d6000803e3d6000fd5b505050506040513d601f19601f82011682018060405250810190610310919061253f565b8c604001516001600160a01b031663c45a01556040518163ffffffff1660e01b8152600401602060405180830381865afa158015610352573d6000803e3d6000fd5b505050506040513d601f19601f820116820180604052508101906103769190612558565b6001600160a01b031663211a94ea6040518163ffffffff1660e01b8152600401602060405180830381865afa1580156103b3573d6000803e3d6000fd5b505050506040513d601f19601f820116820180604052508101906103d7919061253f565b610ff7565b60c087015260408601819052606086019190915260208501510361041957600382015461041990829065010000000000900461ffff166000611206565b835160c0850151606086015161042f919061258b565b0361049057600383015461045390829065010000000000900461ffff16600061122b565b606085015185516040516001600160a01b03909116907f2cf07af192e82fe22fb422c0caceb1886a59ab11f20d05fdf63a9f46a6769a4c90600090a35b602080860180516001600160a01b0390811660009081528b8452604080822093519092168152928a90529091206104cb918791879190611292565b61058887600087602001516001600160a01b03166001600160a01b03168152602001908152602001600020856101400151876020015188604001516001600160a01b0316635f558e536040518163ffffffff1660e01b8152600401602060405180830381865afa158015610543573d6000803e3d6000fd5b505050506040513d601f19601f82011682018060405250810190610567919061253f565b6040808a0151815160208101909252600080835289969594939281906112e2565b84516001600160a01b03908116600090815260208a8152604080832060608a01518452825280832089519094168352908a905290206105cc9185918891889161155a565b60c0840151156107945760006105e1846116a9565b905060006105fc828760c0015161170690919063ffffffff16565b87516001600160a01b0316600090815260208c8152604080832060608c01518452909152902060020154909150808211156106415761063b8184611745565b60c08801525b87600001516001600160a01b031663a9059cbb89604001516001600160a01b031663c45a01556040518163ffffffff1660e01b8152600401602060405180830381865afa158015610696573d6000803e3d6000fd5b505050506040513d601f19601f820116820180604052508101906106ba9190612558565b6001600160a01b03166361d027b36040518163ffffffff1660e01b8152600401602060405180830381865afa1580156106f7573d6000803e3d6000fd5b505050506040513d601f19601f8201168201806040525081019061071b9190612558565b60c08a01516040516001600160e01b031960e085901b1681526001600160a01b03909216600483015260248201526044016020604051808303816000875af115801561076b573d6000803e3d6000fd5b505050506040513d601f19601f8201168201806040525081019061078f919061259e565b505050505b6107c0338660400151866040015188602001516001600160a01b0316611789909392919063ffffffff16565b846060015185602001516001600160a01b031686600001516001600160a01b03167f66db5d302e287996180a27fb42151ff667275929aafd3acf426da7369b7c0eeb87604001518860600151336040516108369392919092835260208301919091526001600160a01b0316604082015260600190565b60405180910390a450505050505050505050565b61085261226b565b61085a61226b565b60018401546001600160801b0380821660808401819052604080850191909152600160801b92839004821660e085015260028701548083166060860181905260208087019190915293900490911660a084015280519182019052845481528152600384015464ffffffffff166101208201528254610100820181905260c082015290505b92915050565b600383015464ffffffffff4281169116036108fe57505050565b61090883826117e3565b6109138284836118c2565b5050600301805464ffffffffff19164264ffffffffff16179055565b6000806000806000806109458760400151511590565b15610963575060009450849350839250829150600019905081610dfd565b610a056040518061026001604052806000815260200160008152602001600081526020016000815260200160008152602001600081526020016000815260200160008152602001600081526020016000815260200160008152602001600081526020016000815260200160008152602001600081526020016000815260200160006001600160a01b031681526020016000151581526020016000151581525090565b600088600001516001600160a01b03166372218d046040518163ffffffff1660e01b8152600401602060405180830381865afa158015610a49573d6000803e3d6000fd5b505050506040513d601f19601f82011682018060405250810190610a6d919061253f565b90505b808260c001511015610d1b5760c082015160408a0151610a8f916119b1565b610aa35760c0820180516001019052610a70565b60c0820151600090815260208b905260409020546001600160a01b03166102008301819052610adc5760c0820180516001019052610a70565b610200820180516001600160a01b03908116600090815260208e81526040918290208251808301845281549081905260ff603082901c166060890181905261ffff601083901c811660a08b01529091166080890152600a0a828801528d519451835163b3596f0760e01b81529085166004820152925190949093169263b3596f079260248082019392918290030181865afa158015610b7f573d6000803e3d6000fd5b505050506040513d601f19601f82011682018060405250810190610ba3919061253f565b835260a083015115801590610bc6575060c083015160408b0151610bc691611a14565b15610ca2576102008301516001600160a01b0316600090815260208e815260408083208d83015184528252909120845191850151610c05928491611a76565b6040840181905261010084018051610c1e90839061258b565b905250608083015115610c595782608001518360400151610c3f91906125c0565b8361014001818151610c51919061258b565b905250610c62565b60016102208401525b826102400151610c76578260a00151610c7d565b826101c001515b8360400151610c8c91906125c0565b8361016001818151610c9e919061258b565b9052505b60c083015160408b0151610cb591611ac7565b15610d0a576102008301516001600160a01b0316600090815260208e815260408083208d83015184528252909120845191850151610cf4928491611b27565b8361012001818151610d06919061258b565b9052505b5060c0820180516001019052610a70565b816101000151600003610d2f576000610d4a565b81610100015182610140015181610d4857610d486125d7565b045b610140830152610100820151600003610d64576000610d7f565b81610100015182610160015181610d7d57610d7d6125d7565b045b61016083015261012082015115610dc157610dbc826101200151610db6846101600151856101000151611b7190919063ffffffff16565b90611b97565b610dc5565b6000195b60e0830181905261010083015161012084015161014085015161016086015161022090960151929b5090995097509295509350909150505b9499939850945094509450565b6020808401516001600160a01b0316600090815282825260408082206060870151835290925290812060010154819081670d2f13f7789f00008611610e5157612710610e55565b6113885b90506000610e638383611b71565b90506000818960a0015111610e7c578860a00151610e7e565b815b9399939850929650505050505050565b6040805160a081018252600080825260208201819052918101829052606081018290526080810191909152670de0b6b3a764000082602001511060405180606001604052806021815260200161278e6021913990610f085760405162461bcd60e51b8152600401610eff919061263d565b60405180910390fd5b50604080516020810190915283549081905260101c61ffff1615801590610f5457506003830154604080516020810190915285548152610f549165010000000000900461ffff16611a14565b15156080820181905260408051808201909152601f81527f434f4c4c41544552414c5f43414e4e4f545f42455f4c49515549444154454400602082015290610faf5760405162461bcd60e51b8152600401610eff919061263d565b508160400151600014156040518060600160405280602781526020016127676027913990610ff05760405162461bcd60e51b8152600401610eff919061263d565b5050505050565b6000806000611067604051806101a00160405280600081526020016000815260200160008152602001600081526020016000815260200160008152602001600081526020016000815260200160008152602001600081526020016000815260200160008152602001600081525090565b86815260208082018790526040805191820190528c549081905260301c60ff1660c08201528a515160301c60ff1660a0820181905260c0820151600a90810a60e08401520a610100820181905281516110c091906125c0565b8160e001518b83602001516110d591906125c0565b6110df91906125c0565b6110e99190612650565b606082018190526110fa9089611b71565b6040820181905289101561116757610120810189905260e0810151602082015161115c918a9161112a91906125c0565b610100840151610120850151855161114291906125c0565b61114c91906125c0565b6111569190612650565b90611bce565b61014082015261117b565b604081015161012082015261014081018a90525b84156111e2576101208101516111919089611bce565b8161012001516111a19190612672565b608082018190526111b29086611b71565b61018082018190526101208201516111ca9190612672565b816101400151826101800151935093509350506111f8565b8061012001518161014001516000935093509350505b985098509895505050505050565b600182811b1b811561121d57835481178455611225565b835481191684555b50505050565b6040805180820190915260158152740929cac82989288bea48aa68aa4ac8abe929c888ab605b1b6020820152608083106112785760405162461bcd60e51b8152600401610eff919061263d565b50600182811b81011b811561121d57835481178455611225565b60006112cd828560400151866101400151606001518660008a606001518152602001908152602001600020611bf9909392919063ffffffff16565b61014090940151610100019390935250505050565b61130660405180606001604052806000815260200160008152602001600081525090565b6060880151610100890151611323916001600160801b0316611745565b604082810191825260038c0154815160a0810183526001600160a01b038b81168252602082018a9052818401899052606082018b90529351608082015291516337241e5b60e11b815267010000000000000090910490921691636e483cb6916113929187918791600401612685565b6040805180830381865afa1580156113ae573d6000803e3d6000fd5b505050506040513d601f19601f820116820180604052508101906113d291906126df565b60208301528082526113e390611cb1565b60018b0180546001600160801b03928316600160801b029216919091179055602081015161141090611cb1565b60028b0180546001600160801b03928316600160801b02921691909117905584156114845761143e85611cb1565b60028a01805460009061145b9084906001600160801b0316612703565b92506101000a8154816001600160801b0302191690836001600160801b031602179055506114d5565b83156114d55761149384611cb1565b60028a0180546000906114b09084906001600160801b031661272a565b92506101000a8154816001600160801b0302191690836001600160801b031602179055505b866001600160a01b03167f4063a2df84b66bb796eb32622851d833e57b2c4292900c18f963af8808b13e35826000015183602001518b608001518c60600151604051611546949392919093845260208401929092526001600160801b03908116604084015216606082015260800190565b60405180910390a250505050505050505050565b6000611566868361084a565b60c086015190915061157a908790836108e4565b61160d82828760000151600089604001516001600160a01b0316635f558e536040518163ffffffff1660e01b8152600401602060405180830381865afa1580156115c8573d6000803e3d6000fd5b505050506040513d601f19601f820116820180604052508101906115ec919061253f565b6060808b0151908c015160808d0151602001518e97969594939291906112e2565b60608401516080820151611625918591859190611d1e565b508451606085015160405163a9059cbb60e01b815233600482015260248101919091526001600160a01b039091169063a9059cbb906044016020604051808303816000875af115801561167c573d6000803e3d6000fd5b505050506040513d601f19601f820116820180604052508101906116a0919061259e565b50505050505050565b600381015460009064ffffffffff164281036116d1575050600101546001600160801b031690565b60018301546116ff906001600160801b03808216916116f991600160801b9091041684611dc9565b90611745565b9392505050565b600081156b033b2e3c9fd0803ce80000006002840419048411171561172a57600080fd5b506b033b2e3c9fd0803ce80000009190910260028204010490565b600081156b019d971e4fe8401e74000000198390048411151761176757600080fd5b506b033b2e3c9fd0803ce800000091026b019d971e4fe8401e74000000010490565b604080516001600160a01b0385811660248301528416604482015260648082018490528251808303909101815260849091019091526020810180516001600160e01b03166323b872dd60e01b179052611225908590611e06565b60e0810151156118535760006118028260e00151836101200151611dc9565b905061182c61182783604001516001600160801b03168361174590919063ffffffff16565b611cb1565b6001600160801b0316608083018190526001840180546001600160801b0319169091179055505b60c0810151156118be5760006118728260a00151836101200151611ee0565b905061189761182783602001516001600160801b03168361174590919063ffffffff16565b6001600160801b0316606083018190526002840180546001600160801b0319169091179055505b5050565b826000036118cf57505050565b6118fa6040518060800160405280600081526020016000815260200160008152602001600081525090565b602082015160c0830151611916916001600160801b0316611745565b8152606082015160c0830151611934916001600160801b0316611745565b60208201819052815161194691612672565b604082018190526119579085611b71565b60608201819052156112255761198a61182783608001516001600160801b0316836060015161170690919063ffffffff16565b6001600160801b03168360050160008282546119a6919061258b565b909155505050505050565b6040805180820190915260158152740929cac82989288bea48aa68aa4ac8abe929c888ab605b1b602082015260009060808310611a015760405162461bcd60e51b8152600401610eff919061263d565b5050905160019190911b1c600316151590565b6040805180820190915260158152740929cac82989288bea48aa68aa4ac8abe929c888ab605b1b602082015260009060808310611a645760405162461bcd60e51b8152600401610eff919061263d565b50509051600191821b82011c16151590565b600080611a82856116a9565b9050600084611a9e83896002015461174590919063ffffffff16565b611aa891906125c0565b9050838181611ab957611ab96125d7565b04925050505b949350505050565b6040805180820190915260158152740929cac82989288bea48aa68aa4ac8abe929c888ab605b1b602082015260009060808310611b175760405162461bcd60e51b8152600401610eff919061263d565b50509051600191821b1c16151590565b60018401546000908015611b4b57611b48611b4186611eed565b8290611745565b90505b611b5581856125c0565b9050828181611b6657611b666125d7565b049695505050505050565b600081156113881983900484111517611b8957600080fd5b506127109102611388010490565b60008115670de0b6b3a764000060028404190484111715611bb757600080fd5b50670de0b6b3a76400009190910260028204010490565b6000811561271060028404190484111715611be857600080fd5b506127109190910260028204010490565b6000611c0e836001600160801b038416611706565b6040805180820190915260138152721253959053125117d095549397d05353d55395606a1b602082015290915081611c595760405162461bcd60e51b8152600401610eff919061263d565b5084546001600160801b0319166001600160801b038316178555600185018054829190600090611c8a908490612672565b9091555050835481908590600090611ca3908490612672565b909155509095945050505050565b60006001600160801b03821115611d1a5760405162461bcd60e51b815260206004820152602760248201527f53616665436173743a2076616c756520646f65736e27742066697420696e20316044820152663238206269747360c81b6064820152608401610eff565b5090565b6000611d33836001600160801b038416611706565b6040805180820190915260138152721253959053125117d095549397d05353d55395606a1b602082015290915081611d7e5760405162461bcd60e51b8152600401610eff919061263d565b5084546001600160801b03808416600160801b029116178555600285018054829190600090611dae908490612672565b9250508190555080846001016000828254611ca39190612672565b600080611ddd64ffffffffff841642612672565b611de790856125c0565b6301e1338090049050611abf816b033b2e3c9fd0803ce800000061258b565b6000611e5b826040518060400160405280602081526020017f5361666545524332303a206c6f772d6c6576656c2063616c6c206661696c6564815250856001600160a01b0316611f3d9092919063ffffffff16565b9050805160001480611e7c575080806020019051810190611e7c919061259e565b611edb5760405162461bcd60e51b815260206004820152602a60248201527f5361666545524332303a204552433230206f7065726174696f6e20646964206e6044820152691bdd081cdd58d8d9595960b21b6064820152608401610eff565b505050565b60006116ff838342611f4c565b600381015460009064ffffffffff16428103611f15575050600201546001600160801b031690565b60028301546116ff906001600160801b03808216916116f991600160801b9091041684611ee0565b6060611abf8484600085612078565b600080611f6064ffffffffff851684612672565b905080600003611f7f576b033b2e3c9fd0803ce80000009150506116ff565b60001981016000808060028511611f97576000611f9c565b600285035b925066038882915c4000611fb08a80611745565b81611fbd57611fbd6125d7565b0491506301e13380611fcf838b611745565b81611fdc57611fdc6125d7565b049050600082611fec86886125c0565b611ff691906125c0565b6002900490506000828561200a888a6125c0565b61201491906125c0565b61201e91906125c0565b60069004905080826301e133806120358a8f6125c0565b61203f9190612650565b612055906b033b2e3c9fd0803ce800000061258b565b61205f919061258b565b612069919061258b565b9b9a5050505050505050505050565b6060824710156120d95760405162461bcd60e51b815260206004820152602660248201527f416464726573733a20696e73756666696369656e742062616c616e636520666f6044820152651c8818d85b1b60d21b6064820152608401610eff565b600080866001600160a01b031685876040516120f5919061274a565b60006040518083038185875af1925050503d8060008114612132576040519150601f19603f3d011682016040523d82523d6000602084013e612137565b606091505b509150915061214887838387612153565b979650505050505050565b606083156121c25782516000036121bb576001600160a01b0385163b6121bb5760405162461bcd60e51b815260206004820152601d60248201527f416464726573733a2063616c6c20746f206e6f6e2d636f6e74726163740000006044820152606401610eff565b5081611abf565b611abf83838151156121d75781518083602001fd5b8060405162461bcd60e51b8152600401610eff919061263d565b6040518061016001604052806000815260200160008152602001600081526020016000815260200160008152602001600081526020016000815260200160006001600160a01b0316815260200160006001600160a01b0316815260200160006001600160a01b0316815260200161226661226b565b905290565b604080516101608101825260006101408201818152825260208201819052918101829052606081018290526080810182905260a0810182905260c0810182905260e08101829052610100810182905261012081019190915290565b634e487b7160e01b600052604160045260246000fd5b604051610100810167ffffffffffffffff81118282101715612300576123006122c6565b60405290565b6001600160a01b038116811461231b57600080fd5b50565b803561232981612306565b919050565b600082601f83011261233f57600080fd5b813567ffffffffffffffff8082111561235a5761235a6122c6565b604051601f8301601f19908116603f01168101908282118183101715612382576123826122c6565b8160405283815286602085880101111561239b57600080fd5b836020870160208301376000602085830101528094505050505092915050565b6000604082840312156123cd57600080fd5b6040516040810167ffffffffffffffff82821081831117156123f1576123f16122c6565b81604052829350843591508082111561240957600080fd5b6124158683870161232e565b8352602085013591508082111561242b57600080fd5b506124388582860161232e565b6020830152505092915050565b60008060008060008060c0878903121561245e57600080fd5b863595506020870135945060408701359350606087013592506080870135915060a087013567ffffffffffffffff8082111561249957600080fd5b90880190610100828b0312156124ae57600080fd5b6124b66122dc565b6124bf8361231e565b81526124cd6020840161231e565b60208201526124de6040840161231e565b6040820152606083013560608201526080830135828111156124ff57600080fd5b61250b8c8286016123bb565b60808301525060a083013560a082015260c083013560c082015260e083013560e08201528093505050509295509295509295565b60006020828403121561255157600080fd5b5051919050565b60006020828403121561256a57600080fd5b81516116ff81612306565b634e487b7160e01b600052601160045260246000fd5b808201808211156108de576108de612575565b6000602082840312156125b057600080fd5b815180151581146116ff57600080fd5b80820281158282048414176108de576108de612575565b634e487b7160e01b600052601260045260246000fd5b60005b838110156126085781810151838201526020016125f0565b50506000910152565b600081518084526126298160208601602086016125ed565b601f01601f19169290920160200192915050565b6020815260006116ff6020830184612611565b60008261266d57634e487b7160e01b600052601260045260246000fd5b500490565b818103818111156108de576108de612575565b83815260e06020820152600061269e60e0830185612611565b905060018060a01b0383511660408301526020830151606083015260408301516080830152606083015160a0830152608083015160c0830152949350505050565b600080604083850312156126f257600080fd5b505080516020909101519092909150565b6001600160801b0381811683821601908082111561272357612723612575565b5092915050565b6001600160801b0382811682821603908082111561272357612723612575565b6000825161275c8184602087016125ed565b919091019291505056fe5350454349464945445f43555252454e43595f4e4f545f424f52524f5745445f42595f555345524845414c54485f464143544f525f4e4f545f42454c4f575f5448524553484f4c44a26469706673582212201397f0e39f8fe13904987eab6c1e13d3850e59859cad6e32a8c4b0d0a9d2db6f64736f6c63430008130033",
  "devdoc": {
    "kind": "dev",
    "methods": {
      "executeLiquidationCall(mapping(address => DataTypes.ReserveData) storage,mapping(uint256 => address) storage,mapping(address => mapping(bytes32 => DataTypes.PositionBalance)) storage,mapping(address => DataTypes.ReserveSupplies) storage,mapping(bytes32 => DataTypes.UserConfigurationMap) storage,DataTypes.ExecuteLiquidationCallParams)": {
        "details": "Emits the `LiquidationCall()` event",
        "params": {
          "params": "The additional parameters needed to execute the liquidation function",
          "reservesData": "The state of all the reserves",
          "reservesList": "The addresses of all the active reserves",
          "usersConfig": "The users configuration mapping that track the supplied/borrowed assets"
        }
      }
    },
    "stateVariables": {
      "CLOSE_FACTOR_HF_THRESHOLD": {
        "details": "This constant represents below which health factor value it is possible to liquidate an amount of debt corresponding to `MAX_LIQUIDATION_CLOSE_FACTOR`. A value of 0.95e18 results in 0.95"
      },
      "DEFAULT_LIQUIDATION_CLOSE_FACTOR": {
        "details": "Default percentage of borrower's debt to be repaid in a liquidation.Percentage applied when the users health factor is above `CLOSE_FACTOR_HF_THRESHOLD` Expressed in bps, a value of 0.5e4 results in 50.00%"
      },
      "MAX_LIQUIDATION_CLOSE_FACTOR": {
        "details": "Maximum percentage of borrower's debt to be repaid in a liquidationPercentage applied when the users health factor is below `CLOSE_FACTOR_HF_THRESHOLD` Expressed in bps, a value of 1e4 results in 100.00%"
      }
    },
    "title": "LiquidationLogic library",
    "version": 1
  },
  "userdoc": {
    "kind": "user",
    "methods": {
      "executeLiquidationCall(mapping(address => DataTypes.ReserveData) storage,mapping(uint256 => address) storage,mapping(address => mapping(bytes32 => DataTypes.PositionBalance)) storage,mapping(address => DataTypes.ReserveSupplies) storage,mapping(bytes32 => DataTypes.UserConfigurationMap) storage,DataTypes.ExecuteLiquidationCallParams)": {
        "notice": "Function to liquidate a position if its Health Factor drops below 1. The caller (liquidator) covers `debtToCover` amount of debt of the user getting liquidated, and receives a proportional amount of the `collateralAsset` plus a bonus to cover market risk"
      }
    },
    "notice": "Implements actions involving management of collateral in the protocol, the main one being the liquidations",
    "version": 1
  },
  "storageLayout": {
    "storage": [],
    "types": null
  }
}