{
  "address": "0x0Ea15058bd042e0068d6fec5325e650EcB68A6b2",
  "abi": [
    {
      "inputs": [],
      "stateMutability": "nonpayable",
      "type": "constructor"
    },
    {
      "inputs": [],
      "name": "BalanceMisMatch",
      "type": "error"
    },
    {
      "inputs": [],
      "name": "NotPool",
      "type": "error"
    },
    {
      "inputs": [],
      "name": "NotTokenIdOwner",
      "type": "error"
    },
    {
      "inputs": [],
      "name": "PositionNotCleared",
      "type": "error"
    },
    {
      "inputs": [],
      "name": "ZeroAddressNotAllowed",
      "type": "error"
    },
    {
      "inputs": [],
      "name": "ZeroValueNotAllowed",
      "type": "error"
    },
    {
      "anonymous": false,
      "inputs": [
        {
          "indexed": true,
          "internalType": "address",
          "name": "owner",
          "type": "address"
        },
        {
          "indexed": true,
          "internalType": "address",
          "name": "approved",
          "type": "address"
        },
        {
          "indexed": true,
          "internalType": "uint256",
          "name": "tokenId",
          "type": "uint256"
        }
      ],
      "name": "Approval",
      "type": "event"
    },
    {
      "anonymous": false,
      "inputs": [
        {
          "indexed": true,
          "internalType": "address",
          "name": "owner",
          "type": "address"
        },
        {
          "indexed": true,
          "internalType": "address",
          "name": "operator",
          "type": "address"
        },
        {
          "indexed": false,
          "internalType": "bool",
          "name": "approved",
          "type": "bool"
        }
      ],
      "name": "ApprovalForAll",
      "type": "event"
    },
    {
      "anonymous": false,
      "inputs": [
        {
          "indexed": true,
          "internalType": "address",
          "name": "asset",
          "type": "address"
        },
        {
          "indexed": true,
          "internalType": "uint256",
          "name": "amount",
          "type": "uint256"
        },
        {
          "indexed": true,
          "internalType": "uint256",
          "name": "tokenId",
          "type": "uint256"
        }
      ],
      "name": "BorrowIncreased",
      "type": "event"
    },
    {
      "anonymous": false,
      "inputs": [
        {
          "indexed": false,
          "internalType": "uint8",
          "name": "version",
          "type": "uint8"
        }
      ],
      "name": "Initialized",
      "type": "event"
    },
    {
      "anonymous": false,
      "inputs": [
        {
          "indexed": true,
          "internalType": "address",
          "name": "asset",
          "type": "address"
        },
        {
          "indexed": true,
          "internalType": "uint256",
          "name": "tokenId",
          "type": "uint256"
        },
        {
          "indexed": true,
          "internalType": "uint256",
          "name": "amount",
          "type": "uint256"
        }
      ],
      "name": "LiquidityIncreased",
      "type": "event"
    },
    {
      "anonymous": false,
      "inputs": [
        {
          "indexed": false,
          "internalType": "address",
          "name": "token",
          "type": "address"
        },
        {
          "indexed": false,
          "internalType": "uint256",
          "name": "amount",
          "type": "uint256"
        }
      ],
      "name": "Recovered",
      "type": "event"
    },
    {
      "anonymous": false,
      "inputs": [
        {
          "indexed": true,
          "internalType": "address",
          "name": "asset",
          "type": "address"
        },
        {
          "indexed": true,
          "internalType": "uint256",
          "name": "tokenId",
          "type": "uint256"
        },
        {
          "indexed": true,
          "internalType": "uint256",
          "name": "amount",
          "type": "uint256"
        }
      ],
      "name": "Repay",
      "type": "event"
    },
    {
      "anonymous": false,
      "inputs": [
        {
          "indexed": true,
          "internalType": "bytes32",
          "name": "assetHash",
          "type": "bytes32"
        },
        {
          "indexed": true,
          "internalType": "uint256",
          "name": "reward",
          "type": "uint256"
        }
      ],
      "name": "RewardAdded",
      "type": "event"
    },
    {
      "anonymous": false,
      "inputs": [
        {
          "indexed": true,
          "internalType": "uint256",
          "name": "tokenId",
          "type": "uint256"
        },
        {
          "indexed": true,
          "internalType": "address",
          "name": "user",
          "type": "address"
        },
        {
          "indexed": false,
          "internalType": "uint256",
          "name": "reward",
          "type": "uint256"
        }
      ],
      "name": "RewardPaid",
      "type": "event"
    },
    {
      "anonymous": false,
      "inputs": [
        {
          "indexed": false,
          "internalType": "uint256",
          "name": "newDuration",
          "type": "uint256"
        }
      ],
      "name": "RewardsDurationUpdated",
      "type": "event"
    },
    {
      "anonymous": false,
      "inputs": [
        {
          "indexed": true,
          "internalType": "bytes32",
          "name": "role",
          "type": "bytes32"
        },
        {
          "indexed": true,
          "internalType": "bytes32",
          "name": "previousAdminRole",
          "type": "bytes32"
        },
        {
          "indexed": true,
          "internalType": "bytes32",
          "name": "newAdminRole",
          "type": "bytes32"
        }
      ],
      "name": "RoleAdminChanged",
      "type": "event"
    },
    {
      "anonymous": false,
      "inputs": [
        {
          "indexed": true,
          "internalType": "bytes32",
          "name": "role",
          "type": "bytes32"
        },
        {
          "indexed": true,
          "internalType": "address",
          "name": "account",
          "type": "address"
        },
        {
          "indexed": true,
          "internalType": "address",
          "name": "sender",
          "type": "address"
        }
      ],
      "name": "RoleGranted",
      "type": "event"
    },
    {
      "anonymous": false,
      "inputs": [
        {
          "indexed": true,
          "internalType": "bytes32",
          "name": "role",
          "type": "bytes32"
        },
        {
          "indexed": true,
          "internalType": "address",
          "name": "account",
          "type": "address"
        },
        {
          "indexed": true,
          "internalType": "address",
          "name": "sender",
          "type": "address"
        }
      ],
      "name": "RoleRevoked",
      "type": "event"
    },
    {
      "anonymous": false,
      "inputs": [
        {
          "indexed": true,
          "internalType": "address",
          "name": "user",
          "type": "address"
        },
        {
          "indexed": false,
          "internalType": "uint256",
          "name": "amount",
          "type": "uint256"
        }
      ],
      "name": "Staked",
      "type": "event"
    },
    {
      "anonymous": false,
      "inputs": [
        {
          "indexed": true,
          "internalType": "address",
          "name": "from",
          "type": "address"
        },
        {
          "indexed": true,
          "internalType": "address",
          "name": "to",
          "type": "address"
        },
        {
          "indexed": true,
          "internalType": "uint256",
          "name": "tokenId",
          "type": "uint256"
        }
      ],
      "name": "Transfer",
      "type": "event"
    },
    {
      "anonymous": false,
      "inputs": [
        {
          "indexed": true,
          "internalType": "address",
          "name": "asset",
          "type": "address"
        },
        {
          "indexed": true,
          "internalType": "uint256",
          "name": "amount",
          "type": "uint256"
        },
        {
          "indexed": false,
          "internalType": "uint256",
          "name": "tokenId",
          "type": "uint256"
        }
      ],
      "name": "Withdrawal",
      "type": "event"
    },
    {
      "anonymous": false,
      "inputs": [
        {
          "indexed": true,
          "internalType": "address",
          "name": "user",
          "type": "address"
        },
        {
          "indexed": false,
          "internalType": "uint256",
          "name": "amount",
          "type": "uint256"
        }
      ],
      "name": "Withdrawn",
      "type": "event"
    },
    {
      "inputs": [],
      "name": "DEFAULT_ADMIN_ROLE",
      "outputs": [
        {
          "internalType": "bytes32",
          "name": "",
          "type": "bytes32"
        }
      ],
      "stateMutability": "view",
      "type": "function"
    },
    {
      "inputs": [],
      "name": "REWARDS_ALLOCATOR_ROLE",
      "outputs": [
        {
          "internalType": "bytes32",
          "name": "",
          "type": "bytes32"
        }
      ],
      "stateMutability": "view",
      "type": "function"
    },
    {
      "inputs": [
        {
          "internalType": "address",
          "name": "to",
          "type": "address"
        },
        {
          "internalType": "uint256",
          "name": "tokenId",
          "type": "uint256"
        }
      ],
      "name": "approve",
      "outputs": [],
      "stateMutability": "nonpayable",
      "type": "function"
    },
    {
      "inputs": [
        {
          "internalType": "address",
          "name": "pool",
          "type": "address"
        },
        {
          "internalType": "address",
          "name": "asset",
          "type": "address"
        },
        {
          "internalType": "bool",
          "name": "isDebt",
          "type": "bool"
        }
      ],
      "name": "assetHash",
      "outputs": [
        {
          "internalType": "bytes32",
          "name": "",
          "type": "bytes32"
        }
      ],
      "stateMutability": "pure",
      "type": "function"
    },
    {
      "inputs": [
        {
          "internalType": "address",
          "name": "owner",
          "type": "address"
        }
      ],
      "name": "balanceOf",
      "outputs": [
        {
          "internalType": "uint256",
          "name": "",
          "type": "uint256"
        }
      ],
      "stateMutability": "view",
      "type": "function"
    },
    {
      "inputs": [
        {
          "internalType": "uint256",
          "name": "tokenId",
          "type": "uint256"
        },
        {
          "internalType": "bytes32",
          "name": "_assetHash",
          "type": "bytes32"
        }
      ],
      "name": "balanceOfByAssetHash",
      "outputs": [
        {
          "internalType": "uint256",
          "name": "",
          "type": "uint256"
        }
      ],
      "stateMutability": "view",
      "type": "function"
    },
    {
      "inputs": [
        {
          "internalType": "address",
          "name": "account",
          "type": "address"
        },
        {
          "internalType": "uint256",
          "name": "balance",
          "type": "uint256"
        }
      ],
      "name": "boostedBalance",
      "outputs": [
        {
          "internalType": "uint256",
          "name": "",
          "type": "uint256"
        }
      ],
      "stateMutability": "view",
      "type": "function"
    },
    {
      "inputs": [
        {
          "components": [
            {
              "internalType": "address",
              "name": "asset",
              "type": "address"
            },
            {
              "internalType": "address",
              "name": "target",
              "type": "address"
            },
            {
              "internalType": "uint256",
              "name": "amount",
              "type": "uint256"
            },
            {
              "internalType": "uint256",
              "name": "tokenId",
              "type": "uint256"
            },
            {
              "components": [
                {
                  "internalType": "bytes",
                  "name": "hookData",
                  "type": "bytes"
                },
                {
                  "internalType": "bytes",
                  "name": "interestRateData",
                  "type": "bytes"
                }
              ],
              "internalType": "struct DataTypes.ExtraData",
              "name": "data",
              "type": "tuple"
            }
          ],
          "internalType": "struct INFTPositionManager.AssetOperationParams",
          "name": "params",
          "type": "tuple"
        }
      ],
      "name": "borrow",
      "outputs": [],
      "stateMutability": "nonpayable",
      "type": "function"
    },
    {
      "inputs": [
        {
          "components": [
            {
              "internalType": "address",
              "name": "asset",
              "type": "address"
            },
            {
              "internalType": "address",
              "name": "target",
              "type": "address"
            },
            {
              "internalType": "uint256",
              "name": "amount",
              "type": "uint256"
            },
            {
              "internalType": "uint256",
              "name": "tokenId",
              "type": "uint256"
            },
            {
              "components": [
                {
                  "internalType": "bytes",
                  "name": "hookData",
                  "type": "bytes"
                },
                {
                  "internalType": "bytes",
                  "name": "interestRateData",
                  "type": "bytes"
                }
              ],
              "internalType": "struct DataTypes.ExtraData",
              "name": "data",
              "type": "tuple"
            }
          ],
          "internalType": "struct INFTPositionManager.AssetOperationParams",
          "name": "params",
          "type": "tuple"
        }
      ],
      "name": "borrowETH",
      "outputs": [],
      "stateMutability": "payable",
      "type": "function"
    },
    {
      "inputs": [
        {
          "internalType": "uint256",
          "name": "tokenId",
          "type": "uint256"
        },
        {
          "internalType": "bytes32",
          "name": "_assetHash",
          "type": "bytes32"
        }
      ],
      "name": "earned",
      "outputs": [
        {
          "internalType": "uint256",
          "name": "",
          "type": "uint256"
        }
      ],
      "stateMutability": "view",
      "type": "function"
    },
    {
      "inputs": [],
      "name": "factory",
      "outputs": [
        {
          "internalType": "contract IPoolFactory",
          "name": "",
          "type": "address"
        }
      ],
      "stateMutability": "view",
      "type": "function"
    },
    {
      "inputs": [
        {
          "internalType": "uint256",
          "name": "tokenId",
          "type": "uint256"
        }
      ],
      "name": "getApproved",
      "outputs": [
        {
          "internalType": "address",
          "name": "",
          "type": "address"
        }
      ],
      "stateMutability": "view",
      "type": "function"
    },
    {
      "inputs": [
        {
          "internalType": "uint256",
          "name": "tokenId",
          "type": "uint256"
        },
        {
          "internalType": "bytes32",
          "name": "_assetHash",
          "type": "bytes32"
        }
      ],
      "name": "getReward",
      "outputs": [],
      "stateMutability": "nonpayable",
      "type": "function"
    },
    {
      "inputs": [
        {
          "internalType": "bytes32",
          "name": "_assetHash",
          "type": "bytes32"
        }
      ],
      "name": "getRewardForDuration",
      "outputs": [
        {
          "internalType": "uint256",
          "name": "",
          "type": "uint256"
        }
      ],
      "stateMutability": "view",
      "type": "function"
    },
    {
      "inputs": [
        {
          "internalType": "bytes32",
          "name": "role",
          "type": "bytes32"
        }
      ],
      "name": "getRoleAdmin",
      "outputs": [
        {
          "internalType": "bytes32",
          "name": "",
          "type": "bytes32"
        }
      ],
      "stateMutability": "view",
      "type": "function"
    },
    {
      "inputs": [
        {
          "internalType": "bytes32",
          "name": "role",
          "type": "bytes32"
        },
        {
          "internalType": "uint256",
          "name": "index",
          "type": "uint256"
        }
      ],
      "name": "getRoleMember",
      "outputs": [
        {
          "internalType": "address",
          "name": "",
          "type": "address"
        }
      ],
      "stateMutability": "view",
      "type": "function"
    },
    {
      "inputs": [
        {
          "internalType": "bytes32",
          "name": "role",
          "type": "bytes32"
        }
      ],
      "name": "getRoleMemberCount",
      "outputs": [
        {
          "internalType": "uint256",
          "name": "",
          "type": "uint256"
        }
      ],
      "stateMutability": "view",
      "type": "function"
    },
    {
      "inputs": [
        {
          "internalType": "bytes32",
          "name": "role",
          "type": "bytes32"
        },
        {
          "internalType": "address",
          "name": "account",
          "type": "address"
        }
      ],
      "name": "grantRole",
      "outputs": [],
      "stateMutability": "nonpayable",
      "type": "function"
    },
    {
      "inputs": [
        {
          "internalType": "bytes32",
          "name": "role",
          "type": "bytes32"
        },
        {
          "internalType": "address",
          "name": "account",
          "type": "address"
        }
      ],
      "name": "hasRole",
      "outputs": [
        {
          "internalType": "bool",
          "name": "",
          "type": "bool"
        }
      ],
      "stateMutability": "view",
      "type": "function"
    },
    {
      "inputs": [
        {
          "internalType": "address",
          "name": "_factory",
          "type": "address"
        },
        {
          "internalType": "address",
          "name": "_staking",
          "type": "address"
        },
        {
          "internalType": "address",
          "name": "_owner",
          "type": "address"
        },
        {
          "internalType": "address",
          "name": "_zero",
          "type": "address"
        },
        {
          "internalType": "address",
          "name": "_weth",
          "type": "address"
        }
      ],
      "name": "initialize",
      "outputs": [],
      "stateMutability": "nonpayable",
      "type": "function"
    },
    {
      "inputs": [
        {
          "internalType": "address",
          "name": "owner",
          "type": "address"
        },
        {
          "internalType": "address",
          "name": "operator",
          "type": "address"
        }
      ],
      "name": "isApprovedForAll",
      "outputs": [
        {
          "internalType": "bool",
          "name": "",
          "type": "bool"
        }
      ],
      "stateMutability": "view",
      "type": "function"
    },
    {
      "inputs": [
        {
          "internalType": "bytes32",
          "name": "_assetHash",
          "type": "bytes32"
        }
      ],
      "name": "lastTimeRewardApplicable",
      "outputs": [
        {
          "internalType": "uint256",
          "name": "",
          "type": "uint256"
        }
      ],
      "stateMutability": "view",
      "type": "function"
    },
    {
      "inputs": [
        {
          "internalType": "bytes32",
          "name": "assetHash",
          "type": "bytes32"
        }
      ],
      "name": "lastUpdateTime",
      "outputs": [
        {
          "internalType": "uint256",
          "name": "",
          "type": "uint256"
        }
      ],
      "stateMutability": "view",
      "type": "function"
    },
    {
      "inputs": [],
      "name": "maxBoostRequirement",
      "outputs": [
        {
          "internalType": "uint256",
          "name": "",
          "type": "uint256"
        }
      ],
      "stateMutability": "view",
      "type": "function"
    },
    {
      "inputs": [
        {
          "internalType": "address",
          "name": "pool",
          "type": "address"
        }
      ],
      "name": "mint",
      "outputs": [
        {
          "internalType": "uint256",
          "name": "tokenId",
          "type": "uint256"
        }
      ],
      "stateMutability": "nonpayable",
      "type": "function"
    },
    {
      "inputs": [
        {
          "internalType": "bytes[]",
          "name": "data",
          "type": "bytes[]"
        }
      ],
      "name": "multicall",
      "outputs": [
        {
          "internalType": "bytes[]",
          "name": "results",
          "type": "bytes[]"
        }
      ],
      "stateMutability": "nonpayable",
      "type": "function"
    },
    {
      "inputs": [],
      "name": "name",
      "outputs": [
        {
          "internalType": "string",
          "name": "",
          "type": "string"
        }
      ],
      "stateMutability": "view",
      "type": "function"
    },
    {
      "inputs": [
        {
          "internalType": "uint256",
          "name": "reward",
          "type": "uint256"
        },
        {
          "internalType": "address",
          "name": "pool",
          "type": "address"
        },
        {
          "internalType": "address",
          "name": "asset",
          "type": "address"
        },
        {
          "internalType": "bool",
          "name": "isDebt",
          "type": "bool"
        }
      ],
      "name": "notifyRewardAmount",
      "outputs": [],
      "stateMutability": "nonpayable",
      "type": "function"
    },
    {
      "inputs": [
        {
          "internalType": "uint256",
          "name": "tokenId",
          "type": "uint256"
        }
      ],
      "name": "ownerOf",
      "outputs": [
        {
          "internalType": "address",
          "name": "",
          "type": "address"
        }
      ],
      "stateMutability": "view",
      "type": "function"
    },
    {
      "inputs": [
        {
          "internalType": "bytes32",
          "name": "assetHash",
          "type": "bytes32"
        }
      ],
      "name": "periodFinish",
      "outputs": [
        {
          "internalType": "uint256",
          "name": "",
          "type": "uint256"
        }
      ],
      "stateMutability": "view",
      "type": "function"
    },
    {
      "inputs": [
        {
          "internalType": "uint256",
          "name": "tokenId",
          "type": "uint256"
        }
      ],
      "name": "positions",
      "outputs": [
        {
          "components": [
            {
              "internalType": "address",
              "name": "pool",
              "type": "address"
            },
            {
              "internalType": "address",
              "name": "operator",
              "type": "address"
            }
          ],
          "internalType": "struct INFTPositionManager.Position",
          "name": "",
          "type": "tuple"
        }
      ],
      "stateMutability": "view",
      "type": "function"
    },
    {
      "inputs": [
        {
          "internalType": "bytes32",
          "name": "role",
          "type": "bytes32"
        },
        {
          "internalType": "address",
          "name": "account",
          "type": "address"
        }
      ],
      "name": "renounceRole",
      "outputs": [],
      "stateMutability": "nonpayable",
      "type": "function"
    },
    {
      "inputs": [
        {
          "components": [
            {
              "internalType": "address",
              "name": "asset",
              "type": "address"
            },
            {
              "internalType": "address",
              "name": "target",
              "type": "address"
            },
            {
              "internalType": "uint256",
              "name": "amount",
              "type": "uint256"
            },
            {
              "internalType": "uint256",
              "name": "tokenId",
              "type": "uint256"
            },
            {
              "components": [
                {
                  "internalType": "bytes",
                  "name": "hookData",
                  "type": "bytes"
                },
                {
                  "internalType": "bytes",
                  "name": "interestRateData",
                  "type": "bytes"
                }
              ],
              "internalType": "struct DataTypes.ExtraData",
              "name": "data",
              "type": "tuple"
            }
          ],
          "internalType": "struct INFTPositionManager.AssetOperationParams",
          "name": "params",
          "type": "tuple"
        }
      ],
      "name": "repay",
      "outputs": [],
      "stateMutability": "nonpayable",
      "type": "function"
    },
    {
      "inputs": [
        {
          "components": [
            {
              "internalType": "address",
              "name": "asset",
              "type": "address"
            },
            {
              "internalType": "address",
              "name": "target",
              "type": "address"
            },
            {
              "internalType": "uint256",
              "name": "amount",
              "type": "uint256"
            },
            {
              "internalType": "uint256",
              "name": "tokenId",
              "type": "uint256"
            },
            {
              "components": [
                {
                  "internalType": "bytes",
                  "name": "hookData",
                  "type": "bytes"
                },
                {
                  "internalType": "bytes",
                  "name": "interestRateData",
                  "type": "bytes"
                }
              ],
              "internalType": "struct DataTypes.ExtraData",
              "name": "data",
              "type": "tuple"
            }
          ],
          "internalType": "struct INFTPositionManager.AssetOperationParams",
          "name": "params",
          "type": "tuple"
        }
      ],
      "name": "repayETH",
      "outputs": [],
      "stateMutability": "payable",
      "type": "function"
    },
    {
      "inputs": [
        {
          "internalType": "bytes32",
          "name": "role",
          "type": "bytes32"
        },
        {
          "internalType": "address",
          "name": "account",
          "type": "address"
        }
      ],
      "name": "revokeRole",
      "outputs": [],
      "stateMutability": "nonpayable",
      "type": "function"
    },
    {
      "inputs": [
        {
          "internalType": "bytes32",
          "name": "_assetHash",
          "type": "bytes32"
        }
      ],
      "name": "rewardPerToken",
      "outputs": [
        {
          "internalType": "uint256",
          "name": "",
          "type": "uint256"
        }
      ],
      "stateMutability": "view",
      "type": "function"
    },
    {
      "inputs": [
        {
          "internalType": "bytes32",
          "name": "assetHash",
          "type": "bytes32"
        }
      ],
      "name": "rewardPerTokenStored",
      "outputs": [
        {
          "internalType": "uint256",
          "name": "",
          "type": "uint256"
        }
      ],
      "stateMutability": "view",
      "type": "function"
    },
    {
      "inputs": [
        {
          "internalType": "bytes32",
          "name": "assetHash",
          "type": "bytes32"
        }
      ],
      "name": "rewardRate",
      "outputs": [
        {
          "internalType": "uint256",
          "name": "",
          "type": "uint256"
        }
      ],
      "stateMutability": "view",
      "type": "function"
    },
    {
      "inputs": [
        {
          "internalType": "uint256",
          "name": "tokenId",
          "type": "uint256"
        },
        {
          "internalType": "bytes32",
          "name": "assetHash",
          "type": "bytes32"
        }
      ],
      "name": "rewards",
      "outputs": [
        {
          "internalType": "uint256",
          "name": "",
          "type": "uint256"
        }
      ],
      "stateMutability": "view",
      "type": "function"
    },
    {
      "inputs": [],
      "name": "rewardsDuration",
      "outputs": [
        {
          "internalType": "uint256",
          "name": "",
          "type": "uint256"
        }
      ],
      "stateMutability": "view",
      "type": "function"
    },
    {
      "inputs": [],
      "name": "rewardsToken",
      "outputs": [
        {
          "internalType": "contract IERC20",
          "name": "",
          "type": "address"
        }
      ],
      "stateMutability": "view",
      "type": "function"
    },
    {
      "inputs": [
        {
          "internalType": "address",
          "name": "from",
          "type": "address"
        },
        {
          "internalType": "address",
          "name": "to",
          "type": "address"
        },
        {
          "internalType": "uint256",
          "name": "tokenId",
          "type": "uint256"
        }
      ],
      "name": "safeTransferFrom",
      "outputs": [],
      "stateMutability": "nonpayable",
      "type": "function"
    },
    {
      "inputs": [
        {
          "internalType": "address",
          "name": "from",
          "type": "address"
        },
        {
          "internalType": "address",
          "name": "to",
          "type": "address"
        },
        {
          "internalType": "uint256",
          "name": "tokenId",
          "type": "uint256"
        },
        {
          "internalType": "bytes",
          "name": "data",
          "type": "bytes"
        }
      ],
      "name": "safeTransferFrom",
      "outputs": [],
      "stateMutability": "nonpayable",
      "type": "function"
    },
    {
      "inputs": [
        {
          "internalType": "address",
          "name": "operator",
          "type": "address"
        },
        {
          "internalType": "bool",
          "name": "approved",
          "type": "bool"
        }
      ],
      "name": "setApprovalForAll",
      "outputs": [],
      "stateMutability": "nonpayable",
      "type": "function"
    },
    {
      "inputs": [
        {
          "components": [
            {
              "internalType": "address",
              "name": "asset",
              "type": "address"
            },
            {
              "internalType": "address",
              "name": "target",
              "type": "address"
            },
            {
              "internalType": "uint256",
              "name": "amount",
              "type": "uint256"
            },
            {
              "internalType": "uint256",
              "name": "tokenId",
              "type": "uint256"
            },
            {
              "components": [
                {
                  "internalType": "bytes",
                  "name": "hookData",
                  "type": "bytes"
                },
                {
                  "internalType": "bytes",
                  "name": "interestRateData",
                  "type": "bytes"
                }
              ],
              "internalType": "struct DataTypes.ExtraData",
              "name": "data",
              "type": "tuple"
            }
          ],
          "internalType": "struct INFTPositionManager.AssetOperationParams",
          "name": "params",
          "type": "tuple"
        }
      ],
      "name": "supply",
      "outputs": [],
      "stateMutability": "nonpayable",
      "type": "function"
    },
    {
      "inputs": [
        {
          "components": [
            {
              "internalType": "address",
              "name": "asset",
              "type": "address"
            },
            {
              "internalType": "address",
              "name": "target",
              "type": "address"
            },
            {
              "internalType": "uint256",
              "name": "amount",
              "type": "uint256"
            },
            {
              "internalType": "uint256",
              "name": "tokenId",
              "type": "uint256"
            },
            {
              "components": [
                {
                  "internalType": "bytes",
                  "name": "hookData",
                  "type": "bytes"
                },
                {
                  "internalType": "bytes",
                  "name": "interestRateData",
                  "type": "bytes"
                }
              ],
              "internalType": "struct DataTypes.ExtraData",
              "name": "data",
              "type": "tuple"
            }
          ],
          "internalType": "struct INFTPositionManager.AssetOperationParams",
          "name": "params",
          "type": "tuple"
        }
      ],
      "name": "supplyETH",
      "outputs": [],
      "stateMutability": "payable",
      "type": "function"
    },
    {
      "inputs": [
        {
          "internalType": "bytes4",
          "name": "interfaceId",
          "type": "bytes4"
        }
      ],
      "name": "supportsInterface",
      "outputs": [
        {
          "internalType": "bool",
          "name": "",
          "type": "bool"
        }
      ],
      "stateMutability": "view",
      "type": "function"
    },
    {
      "inputs": [
        {
          "internalType": "address",
          "name": "token",
          "type": "address"
        }
      ],
      "name": "sweep",
      "outputs": [],
      "stateMutability": "nonpayable",
      "type": "function"
    },
    {
      "inputs": [],
      "name": "symbol",
      "outputs": [
        {
          "internalType": "string",
          "name": "",
          "type": "string"
        }
      ],
      "stateMutability": "view",
      "type": "function"
    },
    {
      "inputs": [
        {
          "internalType": "uint256",
          "name": "index",
          "type": "uint256"
        }
      ],
      "name": "tokenByIndex",
      "outputs": [
        {
          "internalType": "uint256",
          "name": "",
          "type": "uint256"
        }
      ],
      "stateMutability": "view",
      "type": "function"
    },
    {
      "inputs": [
        {
          "internalType": "address",
          "name": "owner",
          "type": "address"
        },
        {
          "internalType": "uint256",
          "name": "index",
          "type": "uint256"
        }
      ],
      "name": "tokenOfOwnerByIndex",
      "outputs": [
        {
          "internalType": "uint256",
          "name": "",
          "type": "uint256"
        }
      ],
      "stateMutability": "view",
      "type": "function"
    },
    {
      "inputs": [
        {
          "internalType": "uint256",
          "name": "tokenId",
          "type": "uint256"
        }
      ],
      "name": "tokenURI",
      "outputs": [
        {
          "internalType": "string",
          "name": "",
          "type": "string"
        }
      ],
      "stateMutability": "view",
      "type": "function"
    },
    {
      "inputs": [],
      "name": "totalSupply",
      "outputs": [
        {
          "internalType": "uint256",
          "name": "",
          "type": "uint256"
        }
      ],
      "stateMutability": "view",
      "type": "function"
    },
    {
      "inputs": [
        {
          "internalType": "bytes32",
          "name": "_assetHash",
          "type": "bytes32"
        }
      ],
      "name": "totalSupplyAssetForRewards",
      "outputs": [
        {
          "internalType": "uint256",
          "name": "",
          "type": "uint256"
        }
      ],
      "stateMutability": "view",
      "type": "function"
    },
    {
      "inputs": [
        {
          "internalType": "address",
          "name": "from",
          "type": "address"
        },
        {
          "internalType": "address",
          "name": "to",
          "type": "address"
        },
        {
          "internalType": "uint256",
          "name": "tokenId",
          "type": "uint256"
        }
      ],
      "name": "transferFrom",
      "outputs": [],
      "stateMutability": "nonpayable",
      "type": "function"
    },
    {
      "inputs": [
        {
          "internalType": "uint256",
          "name": "tokenId",
          "type": "uint256"
        },
        {
          "internalType": "bytes32",
          "name": "assetHash",
          "type": "bytes32"
        }
      ],
      "name": "userRewardPerTokenPaid",
      "outputs": [
        {
          "internalType": "uint256",
          "name": "",
          "type": "uint256"
        }
      ],
      "stateMutability": "view",
      "type": "function"
    },
    {
      "inputs": [],
      "name": "weth",
      "outputs": [
        {
          "internalType": "contract IWETH",
          "name": "",
          "type": "address"
        }
      ],
      "stateMutability": "view",
      "type": "function"
    },
    {
      "inputs": [
        {
          "components": [
            {
              "internalType": "address",
              "name": "asset",
              "type": "address"
            },
            {
              "internalType": "address",
              "name": "target",
              "type": "address"
            },
            {
              "internalType": "uint256",
              "name": "amount",
              "type": "uint256"
            },
            {
              "internalType": "uint256",
              "name": "tokenId",
              "type": "uint256"
            },
            {
              "components": [
                {
                  "internalType": "bytes",
                  "name": "hookData",
                  "type": "bytes"
                },
                {
                  "internalType": "bytes",
                  "name": "interestRateData",
                  "type": "bytes"
                }
              ],
              "internalType": "struct DataTypes.ExtraData",
              "name": "data",
              "type": "tuple"
            }
          ],
          "internalType": "struct INFTPositionManager.AssetOperationParams",
          "name": "params",
          "type": "tuple"
        }
      ],
      "name": "withdraw",
      "outputs": [],
      "stateMutability": "nonpayable",
      "type": "function"
    },
    {
      "inputs": [
        {
          "components": [
            {
              "internalType": "address",
              "name": "asset",
              "type": "address"
            },
            {
              "internalType": "address",
              "name": "target",
              "type": "address"
            },
            {
              "internalType": "uint256",
              "name": "amount",
              "type": "uint256"
            },
            {
              "internalType": "uint256",
              "name": "tokenId",
              "type": "uint256"
            },
            {
              "components": [
                {
                  "internalType": "bytes",
                  "name": "hookData",
                  "type": "bytes"
                },
                {
                  "internalType": "bytes",
                  "name": "interestRateData",
                  "type": "bytes"
                }
              ],
              "internalType": "struct DataTypes.ExtraData",
              "name": "data",
              "type": "tuple"
            }
          ],
          "internalType": "struct INFTPositionManager.AssetOperationParams",
          "name": "params",
          "type": "tuple"
        }
      ],
      "name": "withdrawETH",
      "outputs": [],
      "stateMutability": "payable",
      "type": "function"
    },
    {
      "stateMutability": "payable",
      "type": "receive"
    }
  ],
  "transactionHash": "0x68b6e045e2e3a882dbb1aa21df42cb42a60f1c600169e48db7f5fc51d5ca99bf",
  "args": [],
  "numDeployments": 1,
  "solcInputHash": "95d84748b454ba387ab3866b78066cba",
  "bytecode": "0x60a06040527f4c716a0ebd1cfd3e93ca0db9b9f8a0a9cb7c1d4cc18b52950e1f5528cc73cb5d6080523480156200003557600080fd5b506200004062000046565b62000107565b600054610100900460ff1615620000b35760405162461bcd60e51b815260206004820152602760248201527f496e697469616c697a61626c653a20636f6e747261637420697320696e697469604482015266616c697a696e6760c81b606482015260840160405180910390fd5b60005460ff9081161462000105576000805460ff191660ff9081179091556040519081527f7f26b83ff96e1f2b6a682f133852f6798a09c465da95921460cefb38474024989060200160405180910390a15b565b608051614d736200012a600039600081816107250152611d180152614d736000f3fe6080604052600436106103905760003560e01c80636a627842116101dc578063ac9650d811610102578063d1af0c7d116100a0578063e6fd50051161006f578063e6fd500514610b88578063e985e9c514610bb6578063ee1cd5fd14610bff578063f1d88e5c14610c1f57600080fd5b8063d1af0c7d14610afb578063d25c3e9114610b1c578063d547741f14610b55578063e169040814610b7557600080fd5b8063c45a0155116100dc578063c45a015514610a87578063c7cc7dc214610aa8578063c87b56dd14610abb578063ca15c87314610adb57600080fd5b8063ac9650d814610a1a578063b88d4fde14610a47578063bb2747d814610a6757600080fd5b8063922c88951161017a578063a217fddf11610149578063a217fddf14610989578063a22cb4651461099e578063a2b1ae3f146109be578063a65b1381146109ec57600080fd5b8063922c88951461089757806395d89b41146108b7578063995121b5146108cc57806399fbab88146108fa57600080fd5b80637d8741f1116101b65780637d8741f11461081757806385084e16146108375780639010d07c1461085757806391d148541461087757600080fd5b80636a6278421461079e5780636d165502146107be57806370a08231146107f757600080fd5b80632f2ff15d116102c15780633fc8cef31161025f57806358a13b3a1161022e57806358a13b3a146107135780636352211e1461074757806367838c241461076757806369db8b271461078757600080fd5b80633fc8cef31461069257806342842e0e146106b3578063477d66a9146106d35780634f6ccce7146106f357600080fd5b806336568abe1161029b57806336568abe14610602578063386a95251461062257806339a247cd1461063957806339dbfbc11461065957600080fd5b80632f2ff15d146105a25780632f745c59146105c257806333c52a3f146105e257600080fd5b8063136b0da61161032e57806318160ddd1161030857806318160ddd146105295780631afdcc8f1461053e57806323b872dd14610551578063248a9ca31461057157600080fd5b8063136b0da6146104bb57806313b4132f146104db5780631459457a1461050957600080fd5b806306fdde031161036a57806306fdde0314610421578063081812fc14610443578063095ea7b31461047b5780630d1aae351461049b57600080fd5b806301681a621461039c57806301ffc9a7146103be57806305da2082146103f357600080fd5b3661039757005b600080fd5b3480156103a857600080fd5b506103bc6103b7366004614125565b610c32565b005b3480156103ca57600080fd5b506103de6103d9366004614156565b610d67565b60405190151581526020015b60405180910390f35b3480156103ff57600080fd5b5061041361040e366004614181565b610d78565b6040519081526020016103ea565b34801561042d57600080fd5b50610436610dc2565b6040516103ea9190614218565b34801561044f57600080fd5b5061046361045e36600461422b565b610e54565b6040516001600160a01b0390911681526020016103ea565b34801561048757600080fd5b506103bc610496366004614244565b610e7b565b3480156104a757600080fd5b506104136104b636600461426e565b610f95565b3480156104c757600080fd5b506104136104d636600461422b565b611022565b3480156104e757600080fd5b506104136104f636600461422b565b61019b6020526000908152604090205481565b34801561051557600080fd5b506103bc610524366004614290565b611042565b34801561053557600080fd5b5060fd54610413565b6103bc61054c3660046143e4565b61120f565b34801561055d57600080fd5b506103bc61056c3660046144d9565b6112d6565b34801561057d57600080fd5b5061041361058c36600461422b565b600090815261012d602052604090206001015490565b3480156105ae57600080fd5b506103bc6105bd366004614515565b611307565b3480156105ce57600080fd5b506104136105dd366004614244565b61132d565b3480156105ee57600080fd5b506104136105fd36600461422b565b6113c3565b34801561060e57600080fd5b506103bc61061d366004614515565b611456565b34801561062e57600080fd5b506104136101a15481565b34801561064557600080fd5b506103bc6106543660046143e4565b6114d0565b34801561066557600080fd5b5061041361067436600461426e565b600091825261019d6020908152604080842092845291905290205490565b34801561069e57600080fd5b5061019454610463906001600160a01b031681565b3480156106bf57600080fd5b506103bc6106ce3660046144d9565b6114d9565b3480156106df57600080fd5b506103bc6106ee3660046143e4565b6114f4565b3480156106ff57600080fd5b5061041361070e36600461422b565b611514565b34801561071f57600080fd5b506104137f000000000000000000000000000000000000000000000000000000000000000081565b34801561075357600080fd5b5061046361076236600461422b565b6115a7565b34801561077357600080fd5b506103bc61078236600461426e565b611607565b34801561079357600080fd5b506104136101a05481565b3480156107aa57600080fd5b506104136107b9366004614125565b611739565b3480156107ca57600080fd5b506104136107d936600461426e565b61019e60209081526000928352604080842090915290825290205481565b34801561080357600080fd5b50610413610812366004614125565b611840565b34801561082357600080fd5b5061041361083236600461422b565b6118c6565b34801561084357600080fd5b50610413610852366004614244565b6118f8565b34801561086357600080fd5b5061046361087236600461426e565b6119e6565b34801561088357600080fd5b506103de610892366004614515565b6119ff565b3480156108a357600080fd5b506103bc6108b23660046143e4565b611a2b565b3480156108c357600080fd5b50610436611a54565b3480156108d857600080fd5b506104136108e736600461422b565b6101996020526000908152604090205481565b34801561090657600080fd5b5061096261091536600461422b565b60408051808201909152600080825260208201525060009081526101936020908152604091829020825180840190935280546001600160a01b039081168452600190910154169082015290565b6040805182516001600160a01b0390811682526020938401511692810192909252016103ea565b34801561099557600080fd5b50610413600081565b3480156109aa57600080fd5b506103bc6109b9366004614541565b611a63565b3480156109ca57600080fd5b506104136109d936600461422b565b61019a6020526000908152604090205481565b3480156109f857600080fd5b50610413610a0736600461422b565b6000908152610198602052604090205490565b348015610a2657600080fd5b50610a3a610a35366004614578565b611a6e565b6040516103ea91906145ed565b348015610a5357600080fd5b506103bc610a6236600461464f565b611b61565b348015610a7357600080fd5b506103bc610a823660046143e4565b611b93565b348015610a9357600080fd5b5061019154610463906001600160a01b031681565b6103bc610ab63660046143e4565b611b9c565b348015610ac757600080fd5b50610436610ad636600461422b565b611c52565b348015610ae757600080fd5b50610413610af636600461422b565b611cc5565b348015610b0757600080fd5b5061019554610463906001600160a01b031681565b348015610b2857600080fd5b50610413610b3736600461426e565b61019f60209081526000928352604080842090915290825290205481565b348015610b6157600080fd5b506103bc610b70366004614515565b611cdd565b6103bc610b833660046143e4565b611d03565b348015610b9457600080fd5b50610413610ba336600461422b565b61019c6020526000908152604090205481565b348015610bc257600080fd5b506103de610bd13660046146b7565b6001600160a01b03918216600090815260ce6020908152604080832093909416825291909152205460ff1690565b348015610c0b57600080fd5b506103bc610c1a3660046146e1565b611d16565b6103bc610c2d3660046143e4565b611fbb565b6000610c3d81612076565b6001600160a01b038216610c80576040514790339082156108fc029083906000818181858888f19350505050158015610c7a573d6000803e3d6000fd5b50505050565b6040516370a0823160e01b815230600482015282906001600160a01b0382169063a9059cbb90339083906370a0823190602401602060405180830381865afa158015610cd0573d6000803e3d6000fd5b505050506040513d601f19601f82011682018060405250810190610cf49190614730565b6040516001600160e01b031960e085901b1681526001600160a01b03909216600483015260248201526044016020604051808303816000875af1158015610d3f573d6000803e3d6000fd5b505050506040513d601f19601f82011682018060405250810190610c7a9190614749565b5050565b6000610d7282612080565b92915050565b604080516001600160a01b03808616602083015284169181019190915281151560608201526000906080016040516020818303038152906040528051906020012090509392505050565b606060c98054610dd190614766565b80601f0160208091040260200160405190810160405280929190818152602001828054610dfd90614766565b8015610e4a5780601f10610e1f57610100808354040283529160200191610e4a565b820191906000526020600020905b815481529060010190602001808311610e2d57829003601f168201915b5050505050905090565b6000610e5f826120a5565b50600090815260cd60205260409020546001600160a01b031690565b6000610e86826115a7565b9050806001600160a01b0316836001600160a01b031603610ef85760405162461bcd60e51b815260206004820152602160248201527f4552433732313a20617070726f76616c20746f2063757272656e74206f776e656044820152603960f91b60648201526084015b60405180910390fd5b336001600160a01b0382161480610f145750610f148133610bd1565b610f865760405162461bcd60e51b815260206004820152603d60248201527f4552433732313a20617070726f76652063616c6c6572206973206e6f7420746f60448201527f6b656e206f776e6572206f7220617070726f76656420666f7220616c6c0000006064820152608401610eef565b610f908383612104565b505050565b600082815261019f6020908152604080832084845282528083205485845261019e835281842085855290925282205461101b919061101590670de0b6b3a76400009061100f90610fee90610fe8896113c3565b90612176565b600089815261019d602090815260408083208b845290915290205490612182565b9061218e565b9061219a565b9392505050565b6101a154600082815261019c60205260408120549091610d729190612182565b600054610100900460ff16158080156110625750600054600160ff909116105b8061107c5750303b15801561107c575060005460ff166001145b6110df5760405162461bcd60e51b815260206004820152602e60248201527f496e697469616c697a61626c653a20636f6e747261637420697320616c72656160448201526d191e481a5b9a5d1a585b1a5e995960921b6064820152608401610eef565b6000805460ff191660011790558015611102576000805461ff0019166101001790555b61110a6121a6565b611163604051806040016040528060158152602001742d32b937a632b7321027b732902837b9b4ba34b7b760591b8152506040518060400160405280600a8152602001695a4c2d504f532d4f4e4560b01b8152506121cf565b61116b6121a6565b61117e6302faf080866212750086612200565b611189600085612265565b61019180546001600160a01b038089166001600160a01b0319928316179092556101948054928516929091169190911790556001610192558015611207576000805461ff0019169055604051600181527f7f26b83ff96e1f2b6a682f133852f6798a09c465da95921460cefb38474024989060200160405180910390a15b505050505050565b61019460009054906101000a90046001600160a01b03166001600160a01b031663d0e30db082604001516040518263ffffffff1660e01b81526004016000604051808303818588803b15801561126457600080fd5b505af1158015611278573d6000803e3d6000fd5b50506101945484516001600160a01b0390811691161492506112ca9150505760405162461bcd60e51b81526020600482015260086024820152670dcdee840eecae8d60c31b6044820152606401610eef565b6112d381612288565b50565b6112e033826124ac565b6112fc5760405162461bcd60e51b8152600401610eef906147a0565b610f9083838361252b565b600082815261012d602052604090206001015461132381612076565b610f908383612265565b600061133883611840565b821061139a5760405162461bcd60e51b815260206004820152602b60248201527f455243373231456e756d657261626c653a206f776e657220696e646578206f7560448201526a74206f6620626f756e647360a81b6064820152608401610eef565b506001600160a01b0391909116600090815260fb60209081526040808320938352929052205490565b6000818152610198602052604081205481036113ed5750600090815261019b602052604090205490565b6000828152610198602090815260408083205461019c835281842054610199909352922054610d729261144092909161100f91670de0b6b3a76400009161143a91908290610fe88b6118c6565b90612182565b600084815261019b60205260409020549061219a565b6001600160a01b03811633146114c65760405162461bcd60e51b815260206004820152602f60248201527f416363657373436f6e74726f6c3a2063616e206f6e6c792072656e6f756e636560448201526e103937b632b9903337b91039b2b63360891b6064820152608401610eef565b610d63828261269c565b6112d3816126bf565b610f9083838360405180602001604052806000815250611b61565b604081015181516112ca916001600160a01b039091169033903090612869565b600061151f60fd5490565b82106115825760405162461bcd60e51b815260206004820152602c60248201527f455243373231456e756d657261626c653a20676c6f62616c20696e646578206f60448201526b7574206f6620626f756e647360a01b6064820152608401610eef565b60fd8281548110611595576115956147ed565b90600052602060002001549050919050565b600081815260cb60205260408120546001600160a01b031680610d725760405162461bcd60e51b8152602060048201526018602482015277115490cdcc8c4e881a5b9d985b1a59081d1bdad95b88125160421b6044820152606401610eef565b61160f6128c1565b611619828261291a565b600082815261019f60209081526040808320848452909152902054801561172f57600083815261019f60209081526040808320858452909152812055610195546001600160a01b031663a9059cbb611670856115a7565b6040516001600160e01b031960e084901b1681526001600160a01b039091166004820152602481018490526044016020604051808303816000875af11580156116bd573d6000803e3d6000fd5b505050506040513d601f19601f820116820180604052508101906116e19190614749565b506116eb836115a7565b6001600160a01b0316837f04492fab062412e7e4e5f46c9e919f1640652946a5e163ad6e6c1c03d87954d28360405161172691815260200190565b60405180910390a35b50610d6360018055565b61019154604051635b16ebb760e01b81526001600160a01b0383811660048301526000921690635b16ebb790602401602060405180830381865afa158015611785573d6000803e3d6000fd5b505050506040513d601f19601f820116820180604052508101906117a99190614749565b6117e25760405162461bcd60e51b815260206004820152600a6024820152691b9bdd0818481c1bdbdb60b21b6044820152606401610eef565b50610192805490819060006117f683614819565b909155505060008181526101936020526040902080546001600160a01b0384166001600160a01b031991821617825560019091018054909116905561183b338261299a565b919050565b60006001600160a01b0382166118aa5760405162461bcd60e51b815260206004820152602960248201527f4552433732313a2061646472657373207a65726f206973206e6f7420612076616044820152683634b21037bbb732b960b91b6064820152608401610eef565b506001600160a01b0316600090815260cc602052604090205490565b600081815261019a602052604081205442106118f157600082815261019a6020526040902054610d72565b4292915050565b6000806064611908846014614832565b6119129190614849565b610196546040516309ab24eb60e41b81526001600160a01b03878116600483015292935060009290911690639ab24eb090602401602060405180830381865afa158015611963573d6000803e3d6000fd5b505050506040513d601f19601f820116820180604052508101906119879190614730565b9050600060646101a054838761199d9190614832565b6119a8906050614832565b6119b29190614849565b6119bc9190614849565b905060006119ca828561486b565b90508581116119d957806119db565b855b979650505050505050565b600082815261015f6020526040812061101b9083612b33565b600091825261012d602090815260408084206001600160a01b0393909316845291905290205460ff1690565b60408101518151611a4b916001600160a01b039091169033903090612869565b6112d381612b3f565b606060ca8054610dd190614766565b610d63338383612e5e565b6040805160008152602081019091526060908267ffffffffffffffff811115611a9957611a996142f5565b604051908082528060200260200182016040528015611acc57816020015b6060815260200190600190039081611ab75790505b50915060005b83811015611b5957611b2930868684818110611af057611af06147ed565b9050602002810190611b029190614891565b85604051602001611b15939291906148df565b604051602081830303815290604052612f2c565b838281518110611b3b57611b3b6147ed565b60200260200101819052508080611b5190614819565b915050611ad2565b505092915050565b611b6b33836124ac565b611b875760405162461bcd60e51b8152600401610eef906147a0565b610c7a84848484612f51565b6112d381612f84565b60208101805130909152611baf826126bf565b610194546040808401519051632e1a7d4d60e01b81526001600160a01b0390921691632e1a7d4d91611be79160040190815260200190565b600060405180830381600087803b158015611c0157600080fd5b505af1158015611c15573d6000803e3d6000fd5b5050505060408281015190516001600160a01b038316916108fc811502916000818181858888f19350505050158015610f90573d6000803e3d6000fd5b6060611c5d826120a5565b6000611c7460408051602081019091526000815290565b90506000815111611c94576040518060200160405280600081525061101b565b80611c9e84613176565b604051602001611caf929190614906565b6040516020818303038152906040529392505050565b600081815261015f60205260408120610d7290613209565b600082815261012d6020526040902060010154611cf981612076565b610f90838361269c565b60208101805130909152611baf82612f84565b7f0000000000000000000000000000000000000000000000000000000000000000611d4081612076565b610195546040516323b872dd60e01b81526001600160a01b03909116906323b872dd90611d7590339030908a90600401614935565b6020604051808303816000875af1158015611d94573d6000803e3d6000fd5b505050506040513d601f19601f82011682018060405250810190611db89190614749565b506000611dc6858585610d78565b9050611dd360008261291a565b600081815261019a60205260409020544210611e0d576101a154611df890879061218e565b600082815261019c6020526040902055611e6e565b600081815261019a6020526040812054611e279042612176565b600083815261019c602052604081205491925090611e46908390612182565b6101a154909150611e5b9061100f8a8461219a565b600084815261019c602052604090205550505b610195546040516370a0823160e01b81523060048201526000916001600160a01b0316906370a0823190602401602060405180830381865afa158015611eb8573d6000803e3d6000fd5b505050506040513d601f19601f82011682018060405250810190611edc9190614730565b9050611ef46101a1548261218e90919063ffffffff16565b600083815261019c60205260409020541115611f525760405162461bcd60e51b815260206004820152601860248201527f50726f76696465642072657761726420746f6f206869676800000000000000006044820152606401610eef565b60008281526101996020526040902042908190556101a154611f74919061219a565b600083815261019a6020526040808220929092559051889184917fea7c7e575572148397ff12fda8fd9ceece9a89735ca952bbbabf5893b8da6bcd9190a350505050505050565b61019460009054906101000a90046001600160a01b03166001600160a01b031663d0e30db082604001516040518263ffffffff1660e01b81526004016000604051808303818588803b15801561201057600080fd5b505af1158015612024573d6000803e3d6000fd5b50506101945484516001600160a01b039081169116149250611a4b9150505760405162461bcd60e51b81526020600482015260086024820152670dcdee840eecae8d60c31b6044820152606401610eef565b6112d38133613213565b60006001600160e01b03198216635a05180f60e01b1480610d725750610d728261326c565b600081815260cb60205260409020546001600160a01b03166112d35760405162461bcd60e51b8152602060048201526018602482015277115490cdcc8c4e881a5b9d985b1a59081d1bdad95b88125160421b6044820152606401610eef565b60008181526101936020526040902060010180546001600160a01b0319166001600160a01b038416908117909155819061213d826115a7565b6001600160a01b03167f8c5be1e5ebec7d5bd14f71427d1e84f3dd0314c0f7b2291e5b200ac8c7c3b92560405160405180910390a45050565b600061101b828461487e565b600061101b8284614832565b600061101b8284614849565b600061101b828461486b565b600054610100900460ff166121cd5760405162461bcd60e51b8152600401610eef90614959565b565b600054610100900460ff166121f65760405162461bcd60e51b8152600401610eef90614959565b610d638282613291565b600054610100900460ff166122275760405162461bcd60e51b8152600401610eef90614959565b6101a09390935561019680546001600160a01b039384166001600160a01b03199182161790915561019580549490931693169290921790556101a155565b61226f82826132d1565b600082815261015f60205260409020610f909082613358565b6122906128c1565b80516001600160a01b03166122b8576040516342bcdf7f60e11b815260040160405180910390fd5b80604001516000036122dd5760405163273e150360e21b815260040160405180910390fd5b80606001516000036122ff576001610192546122f9919061487e565b60608201525b6060810180516000908152610193602052604090205490516001600160a01b039091169061232c9061336d565b6040820151825161234a916001600160a01b03909116908390613394565b8151604080840151606085015160808601519251630b4fc83960e31b81526001600160a01b03861694635a7e41c89461238c94919330939091906004016149d2565b60408051808303816000875af11580156123aa573d6000803e3d6000fd5b505050506040513d601f19601f820116820180604052508101906123ce9190614a0c565b508160400151826060015183600001516001600160a01b03167f10b5ecdcd8987bf6a244bc36c939cce51024c18c0d371cb8e3e4a2bca78ba17260405160405180910390a4815160608301516040516318797cd560e21b81526000926001600160a01b038516926361e5f3549261244a92913091600401614935565b602060405180830381865afa158015612467573d6000803e3d6000fd5b505050506040513d601f19601f8201168201806040525081019061248b9190614730565b90506124a1828460000151856060015184613423565b50506112d360018055565b6000806124b8836115a7565b9050806001600160a01b0316846001600160a01b031614806124ff57506001600160a01b03808216600090815260ce602090815260408083209388168352929052205460ff165b806125235750836001600160a01b031661251884610e54565b6001600160a01b0316145b949350505050565b826001600160a01b031661253e826115a7565b6001600160a01b0316146125645760405162461bcd60e51b8152600401610eef90614a3e565b6001600160a01b0382166125c65760405162461bcd60e51b8152602060048201526024808201527f4552433732313a207472616e7366657220746f20746865207a65726f206164646044820152637265737360e01b6064820152608401610eef565b6125d383838360016134b1565b826001600160a01b03166125e6826115a7565b6001600160a01b03161461260c5760405162461bcd60e51b8152600401610eef90614a3e565b600081815260cd6020908152604080832080546001600160a01b03199081169091556001600160a01b0387811680865260cc855283862080546000190190559087168086528386208054600101905586865260cb90945282852080549092168417909155905184937fddf252ad1be2c89b69c2b068fc378daa952ba7f163c4a11628f55a4df523b3ef91a4505050565b6126a682826135e5565b600082815261015f60205260409020610f90908261364d565b6126c76128c1565b80516001600160a01b03166126ef576040516342bcdf7f60e11b815260040160405180910390fd5b80604001516000036127145760405163273e150360e21b815260040160405180910390fd5b806060015160000361273657600161019254612730919061487e565b60608201525b612743816060015161336d565b60608101805160009081526101936020908152604091829020548451918501518386015194516080870151945163fbabb91b60e01b81526001600160a01b0390931695869563fbabb91b9561279f9590949391906004016149d2565b60408051808303816000875af11580156127bd573d6000803e3d6000fd5b505050506040513d601f19601f820116820180604052508101906127e19190614a0c565b50816040015182600001516001600160a01b03167fdf273cb619d95419a9cd0ec88123a0538c85064229baa6363788f743fff90deb846060015160405161282a91815260200190565b60405180910390a3815160608301516040516318797cd560e21b81526000926001600160a01b038516926361e5f3549261244a92913091600401614935565b610c7a846323b872dd60e01b85858560405160240161288a93929190614935565b60408051601f198184030181529190526020810180516001600160e01b03166001600160e01b031990931692909217909152613662565b6002600154036129135760405162461bcd60e51b815260206004820152601f60248201527f5265656e7472616e637947756172643a207265656e7472616e742063616c6c006044820152606401610eef565b6002600155565b612923816113c3565b600082815261019b602052604090205561293c816118c6565b600082815261019960205260409020558115610d635761295c8282610f95565b600083815261019f6020908152604080832085845282528083209390935561019b81528282205494825261019e815282822093825292909252902055565b6001600160a01b0382166129f05760405162461bcd60e51b815260206004820181905260248201527f4552433732313a206d696e7420746f20746865207a65726f20616464726573736044820152606401610eef565b600081815260cb60205260409020546001600160a01b031615612a555760405162461bcd60e51b815260206004820152601c60248201527f4552433732313a20746f6b656e20616c7265616479206d696e746564000000006044820152606401610eef565b612a636000838360016134b1565b600081815260cb60205260409020546001600160a01b031615612ac85760405162461bcd60e51b815260206004820152601c60248201527f4552433732313a20746f6b656e20616c7265616479206d696e746564000000006044820152606401610eef565b6001600160a01b038216600081815260cc602090815260408083208054600101905584835260cb90915280822080546001600160a01b0319168417905551839291907fddf252ad1be2c89b69c2b068fc378daa952ba7f163c4a11628f55a4df523b3ef908290a45050565b600061101b8383613737565b612b476128c1565b80516001600160a01b0316612b6f576040516342bcdf7f60e11b815260040160405180910390fd5b8060400151600003612b945760405163273e150360e21b815260040160405180910390fd5b8060600151600003612bb657600161019254612bb0919061487e565b60608201525b6060810151600090815261019360209081526040918290208251808401845281546001600160a01b0390811680835260019093015481169382019390935284519385015190939192612c0d91908316908490613394565b83516060850151604051632c626df160e21b81526000926001600160a01b0386169263b189b7c492612c4492913091600401614935565b602060405180830381865afa158015612c61573d6000803e3d6000fd5b505050506040513d601f19601f82011682018060405250810190612c859190614730565b8551604080880151606089015160808a01519251631e2e87f960e11b81529495506000946001600160a01b03891694633c5d0ff294612cca9491939192600401614a83565b60408051808303816000875af1158015612ce8573d6000803e3d6000fd5b505050506040513d601f19601f82011682018060405250810190612d0c9190614a0c565b86516060880151604051632c626df160e21b81529293506000926001600160a01b0388169263b189b7c492612d4692309190600401614935565b602060405180830381865afa158015612d63573d6000803e3d6000fd5b505050506040513d601f19601f82011682018060405250810190612d879190614730565b6020830151909150612d99828561487e565b14612db757604051635269286b60e01b815260040160405180910390fd5b80158015612dcc575086604001518260200151105b15612dfa57612dfa3383602001518960400151612de9919061487e565b6001600160a01b0387169190613761565b612e0e858860000151896060015184613791565b60608701516040808901518951915190916001600160a01b0316907f77c6871227e5d2dec8dadd5354f78453203e22e669cd0ec4c19d9a8c5edb31d090600090a45050505050506112d360018055565b816001600160a01b0316836001600160a01b031603612ebf5760405162461bcd60e51b815260206004820152601960248201527f4552433732313a20617070726f766520746f2063616c6c6572000000000000006044820152606401610eef565b6001600160a01b03838116600081815260ce6020908152604080832094871680845294825291829020805460ff191686151590811790915591519182527f17307eab39ab6107e8899845ad3d59bd9653f200f220920489ca2b5937696c31910160405180910390a3505050565b606061101b8383604051806060016040528060278152602001614d176027913961379f565b612f5c84848461252b565b612f6884848484613817565b610c7a5760405162461bcd60e51b8152600401610eef90614ab0565b612f8c6128c1565b80516001600160a01b0316612fb4576040516342bcdf7f60e11b815260040160405180910390fd5b8060400151600003612fd95760405163273e150360e21b815260040160405180910390fd5b8060600151600003612ffb57600161019254612ff5919061487e565b60608201525b613008816060015161336d565b6060810180516000908152610193602090815260409182902054845191850151838601519451608087015194516344b8037d60e01b81526001600160a01b039093169586956344b8037d956130649590949391906004016149d2565b60408051808303816000875af1158015613082573d6000803e3d6000fd5b505050506040513d601f19601f820116820180604052508101906130a69190614a0c565b5060608201516040808401518451915190916001600160a01b0316907fafab7fde92fcd9937a096c80b493e9b6ed4a30553631901a9df416810da3246490600090a481516060830151604051632c626df160e21b81526000926001600160a01b0385169263b189b7c49261311f92913091600401614935565b602060405180830381865afa15801561313c573d6000803e3d6000fd5b505050506040513d601f19601f820116820180604052508101906131609190614730565b90506124a1828460000151856060015184613791565b6060600061318383613918565b600101905060008167ffffffffffffffff8111156131a3576131a36142f5565b6040519080825280601f01601f1916602001820160405280156131cd576020820181803683370190505b5090508181016020015b600019016f181899199a1a9b1b9c1cb0b131b232b360811b600a86061a8153600a85049450846131d757509392505050565b6000610d72825490565b61321d82826119ff565b610d635761322a816139f0565b613235836020613a02565b604051602001613246929190614b02565b60408051601f198184030181529082905262461bcd60e51b8252610eef91600401614218565b60006001600160e01b03198216637965db0b60e01b1480610d725750610d7282613b9e565b600054610100900460ff166132b85760405162461bcd60e51b8152600401610eef90614959565b60c96132c48382614bbd565b5060ca610f908282614bbd565b6132db82826119ff565b610d6357600082815261012d602090815260408083206001600160a01b03851684529091529020805460ff191660011790556133143390565b6001600160a01b0316816001600160a01b0316837f2f8788117e7eff1d82e926ec794901d17c78024a50270940304540a733656f0d60405160405180910390a45050565b600061101b836001600160a01b038416613bc3565b61337733826124ac565b6112d357604051632d20000f60e01b815260040160405180910390fd5b604080516001600160a01b038416602482015260448082018490528251808303909101815260649091019091526020810180516001600160e01b031663095ea7b360e01b1790526133e58482613c12565b610c7a576040516001600160a01b03841660248201526000604482015261341990859063095ea7b360e01b9060640161288a565b610c7a8482613662565b600061343185856000610d78565b600084815261019d60209081526040808320848452909152902054909150613459848361291a565b600084815261019d602090815260408083208584528252808320869055610198909152902054839061348c90839061487e565b613496919061486b565b60009283526101986020526040909220919091555050505050565b60018111156135205760405162461bcd60e51b815260206004820152603560248201527f455243373231456e756d657261626c653a20636f6e7365637574697665207472604482015274185b9cd9995c9cc81b9bdd081cdd5c1c1bdc9d1959605a1b6064820152608401610eef565b816001600160a01b03851661357c576135778160fd8054600083815260fe60205260408120829055600182018355919091527f9346ac6dd7de6b96975fec380d4d994c4c12e6a8897544f22915316cc6cca2800155565b61359f565b836001600160a01b0316856001600160a01b03161461359f5761359f8582613cb9565b6001600160a01b0384166135bb576135b681613d56565b6135de565b846001600160a01b0316846001600160a01b0316146135de576135de8482613e05565b5050505050565b6135ef82826119ff565b15610d6357600082815261012d602090815260408083206001600160a01b0385168085529252808320805460ff1916905551339285917ff6391f5c32d9c69d2a47ea670b442974b53935d1edc7fd64eb21e047a839171b9190a45050565b600061101b836001600160a01b038416613e49565b60006136b7826040518060400160405280602081526020017f5361666545524332303a206c6f772d6c6576656c2063616c6c206661696c6564815250856001600160a01b0316613f3c9092919063ffffffff16565b90508051600014806136d85750808060200190518101906136d89190614749565b610f905760405162461bcd60e51b815260206004820152602a60248201527f5361666545524332303a204552433230206f7065726174696f6e20646964206e6044820152691bdd081cdd58d8d9595960b21b6064820152608401610eef565b600082600001828154811061374e5761374e6147ed565b9060005260206000200154905092915050565b6040516001600160a01b038316602482015260448101829052610f9090849063a9059cbb60e01b9060640161288a565b600061343185856001610d78565b6060600080856001600160a01b0316856040516137bc9190614c7d565b600060405180830381855af49150503d80600081146137f7576040519150601f19603f3d011682016040523d82523d6000602084013e6137fc565b606091505b509150915061380d86838387613f4b565b9695505050505050565b60006001600160a01b0384163b1561390d57604051630a85bd0160e11b81526001600160a01b0385169063150b7a029061385b903390899088908890600401614c99565b6020604051808303816000875af1925050508015613896575060408051601f3d908101601f1916820190925261389391810190614ccc565b60015b6138f3573d8080156138c4576040519150601f19603f3d011682016040523d82523d6000602084013e6138c9565b606091505b5080516000036138eb5760405162461bcd60e51b8152600401610eef90614ab0565b805181602001fd5b6001600160e01b031916630a85bd0160e11b149050612523565b506001949350505050565b60008072184f03e93ff9f4daa797ed6e38ed64bf6a1f0160401b83106139575772184f03e93ff9f4daa797ed6e38ed64bf6a1f0160401b830492506040015b6d04ee2d6d415b85acef81000000008310613983576d04ee2d6d415b85acef8100000000830492506020015b662386f26fc1000083106139a157662386f26fc10000830492506010015b6305f5e10083106139b9576305f5e100830492506008015b61271083106139cd57612710830492506004015b606483106139df576064830492506002015b600a8310610d725760010192915050565b6060610d726001600160a01b03831660145b60606000613a11836002614832565b613a1c90600261486b565b67ffffffffffffffff811115613a3457613a346142f5565b6040519080825280601f01601f191660200182016040528015613a5e576020820181803683370190505b509050600360fc1b81600081518110613a7957613a796147ed565b60200101906001600160f81b031916908160001a905350600f60fb1b81600181518110613aa857613aa86147ed565b60200101906001600160f81b031916908160001a9053506000613acc846002614832565b613ad790600161486b565b90505b6001811115613b4f576f181899199a1a9b1b9c1cb0b131b232b360811b85600f1660108110613b0b57613b0b6147ed565b1a60f81b828281518110613b2157613b216147ed565b60200101906001600160f81b031916908160001a90535060049490941c93613b4881614ce9565b9050613ada565b50831561101b5760405162461bcd60e51b815260206004820181905260248201527f537472696e67733a20686578206c656e67746820696e73756666696369656e746044820152606401610eef565b60006001600160e01b0319821663780e9d6360e01b1480610d725750610d7282613fc4565b6000818152600183016020526040812054613c0a57508154600181810184556000848152602080822090930184905584548482528286019093526040902091909155610d72565b506000610d72565b6000806000846001600160a01b031684604051613c2f9190614c7d565b6000604051808303816000865af19150503d8060008114613c6c576040519150601f19603f3d011682016040523d82523d6000602084013e613c71565b606091505b5091509150818015613c9b575080511580613c9b575080806020019051810190613c9b9190614749565b8015613cb057506001600160a01b0385163b15155b95945050505050565b60006001613cc684611840565b613cd0919061487e565b600083815260fc6020526040902054909150808214613d23576001600160a01b038416600090815260fb60209081526040808320858452825280832054848452818420819055835260fc90915290208190555b50600091825260fc602090815260408084208490556001600160a01b03909416835260fb81528383209183525290812055565b60fd54600090613d689060019061487e565b600083815260fe602052604081205460fd8054939450909284908110613d9057613d906147ed565b906000526020600020015490508060fd8381548110613db157613db16147ed565b600091825260208083209091019290925582815260fe909152604080822084905585825281205560fd805480613de957613de9614d00565b6001900381819060005260206000200160009055905550505050565b6000613e1083611840565b6001600160a01b03909316600090815260fb60209081526040808320868452825280832085905593825260fc9052919091209190915550565b60008181526001830160205260408120548015613f32576000613e6d60018361487e565b8554909150600090613e819060019061487e565b9050818114613ee6576000866000018281548110613ea157613ea16147ed565b9060005260206000200154905080876000018481548110613ec457613ec46147ed565b6000918252602080832090910192909255918252600188019052604090208390555b8554869080613ef757613ef7614d00565b600190038181906000526020600020016000905590558560010160008681526020019081526020016000206000905560019350505050610d72565b6000915050610d72565b60606125238484600085614014565b60608315613fba578251600003613fb3576001600160a01b0385163b613fb35760405162461bcd60e51b815260206004820152601d60248201527f416464726573733a2063616c6c20746f206e6f6e2d636f6e74726163740000006044820152606401610eef565b5081612523565b61252383836140e4565b60006001600160e01b031982166380ac58cd60e01b1480613ff557506001600160e01b03198216635b5e139f60e01b145b80610d7257506301ffc9a760e01b6001600160e01b0319831614610d72565b6060824710156140755760405162461bcd60e51b815260206004820152602660248201527f416464726573733a20696e73756666696369656e742062616c616e636520666f6044820152651c8818d85b1b60d21b6064820152608401610eef565b600080866001600160a01b031685876040516140919190614c7d565b60006040518083038185875af1925050503d80600081146140ce576040519150601f19603f3d011682016040523d82523d6000602084013e6140d3565b606091505b50915091506119db87838387613f4b565b8151156140f45781518083602001fd5b8060405162461bcd60e51b8152600401610eef9190614218565b80356001600160a01b038116811461183b57600080fd5b60006020828403121561413757600080fd5b61101b8261410e565b6001600160e01b0319811681146112d357600080fd5b60006020828403121561416857600080fd5b813561101b81614140565b80151581146112d357600080fd5b60008060006060848603121561419657600080fd5b61419f8461410e565b92506141ad6020850161410e565b915060408401356141bd81614173565b809150509250925092565b60005b838110156141e35781810151838201526020016141cb565b50506000910152565b600081518084526142048160208601602086016141c8565b601f01601f19169290920160200192915050565b60208152600061101b60208301846141ec565b60006020828403121561423d57600080fd5b5035919050565b6000806040838503121561425757600080fd5b6142608361410e565b946020939093013593505050565b6000806040838503121561428157600080fd5b50508035926020909101359150565b600080600080600060a086880312156142a857600080fd5b6142b18661410e565b94506142bf6020870161410e565b93506142cd6040870161410e565b92506142db6060870161410e565b91506142e96080870161410e565b90509295509295909350565b634e487b7160e01b600052604160045260246000fd5b60405160a0810167ffffffffffffffff8111828210171561432e5761432e6142f5565b60405290565b6040805190810167ffffffffffffffff8111828210171561432e5761432e6142f5565b600082601f83011261436857600080fd5b813567ffffffffffffffff80821115614383576143836142f5565b604051601f8301601f19908116603f011681019082821181831017156143ab576143ab6142f5565b816040528381528660208588010111156143c457600080fd5b836020870160208301376000602085830101528094505050505092915050565b6000602082840312156143f657600080fd5b813567ffffffffffffffff8082111561440e57600080fd5b9083019060a0828603121561442257600080fd5b61442a61430b565b6144338361410e565b81526144416020840161410e565b6020820152604083013560408201526060830135606082015260808301358281111561446c57600080fd5b92909201916040838703121561448157600080fd5b614489614334565b83358381111561449857600080fd5b6144a488828701614357565b8252506020840135838111156144b957600080fd5b6144c588828701614357565b602083015250608082015295945050505050565b6000806000606084860312156144ee57600080fd5b6144f78461410e565b92506145056020850161410e565b9150604084013590509250925092565b6000806040838503121561452857600080fd5b823591506145386020840161410e565b90509250929050565b6000806040838503121561455457600080fd5b61455d8361410e565b9150602083013561456d81614173565b809150509250929050565b6000806020838503121561458b57600080fd5b823567ffffffffffffffff808211156145a357600080fd5b818501915085601f8301126145b757600080fd5b8135818111156145c657600080fd5b8660208260051b85010111156145db57600080fd5b60209290920196919550909350505050565b6000602080830181845280855180835260408601915060408160051b870101925083870160005b8281101561464257603f198886030184526146308583516141ec565b94509285019290850190600101614614565b5092979650505050505050565b6000806000806080858703121561466557600080fd5b61466e8561410e565b935061467c6020860161410e565b925060408501359150606085013567ffffffffffffffff81111561469f57600080fd5b6146ab87828801614357565b91505092959194509250565b600080604083850312156146ca57600080fd5b6146d38361410e565b91506145386020840161410e565b600080600080608085870312156146f757600080fd5b843593506147076020860161410e565b92506147156040860161410e565b9150606085013561472581614173565b939692955090935050565b60006020828403121561474257600080fd5b5051919050565b60006020828403121561475b57600080fd5b815161101b81614173565b600181811c9082168061477a57607f821691505b60208210810361479a57634e487b7160e01b600052602260045260246000fd5b50919050565b6020808252602d908201527f4552433732313a2063616c6c6572206973206e6f7420746f6b656e206f776e6560408201526c1c881bdc88185c1c1c9bdd9959609a1b606082015260800190565b634e487b7160e01b600052603260045260246000fd5b634e487b7160e01b600052601160045260246000fd5b60006001820161482b5761482b614803565b5060010190565b8082028115828204841417610d7257610d72614803565b60008261486657634e487b7160e01b600052601260045260246000fd5b500490565b80820180821115610d7257610d72614803565b81810381811115610d7257610d72614803565b6000808335601e198436030181126148a857600080fd5b83018035915067ffffffffffffffff8211156148c357600080fd5b6020019150368190038213156148d857600080fd5b9250929050565b8284823760008382016000815283516148fc8183602088016141c8565b0195945050505050565b600083516149188184602088016141c8565b83519083019061492c8183602088016141c8565b01949350505050565b6001600160a01b039384168152919092166020820152604081019190915260600190565b6020808252602b908201527f496e697469616c697a61626c653a20636f6e7472616374206973206e6f74206960408201526a6e697469616c697a696e6760a81b606082015260800190565b60008151604084526149b960408501826141ec565b905060208301518482036020860152613cb082826141ec565b6001600160a01b03868116825285166020820152604081018490526060810183905260a0608082018190526000906119db908301846149a4565b600060408284031215614a1e57600080fd5b614a26614334565b82518152602083015160208201528091505092915050565b60208082526025908201527f4552433732313a207472616e736665722066726f6d20696e636f72726563742060408201526437bbb732b960d91b606082015260800190565b60018060a01b038516815283602082015282604082015260806060820152600061380d60808301846149a4565b60208082526032908201527f4552433732313a207472616e7366657220746f206e6f6e20455243373231526560408201527131b2b4bb32b91034b6b83632b6b2b73a32b960711b606082015260800190565b7f416363657373436f6e74726f6c3a206163636f756e7420000000000000000000815260008351614b3a8160178501602088016141c8565b7001034b99036b4b9b9b4b733903937b6329607d1b6017918401918201528351614b6b8160288401602088016141c8565b01602801949350505050565b601f821115610f9057600081815260208120601f850160051c81016020861015614b9e5750805b601f850160051c820191505b8181101561120757828155600101614baa565b815167ffffffffffffffff811115614bd757614bd76142f5565b614beb81614be58454614766565b84614b77565b602080601f831160018114614c205760008415614c085750858301515b600019600386901b1c1916600185901b178555611207565b600085815260208120601f198616915b82811015614c4f57888601518255948401946001909101908401614c30565b5085821015614c6d5787850151600019600388901b60f8161c191681555b5050505050600190811b01905550565b60008251614c8f8184602087016141c8565b9190910192915050565b6001600160a01b038581168252841660208201526040810183905260806060820181905260009061380d908301846141ec565b600060208284031215614cde57600080fd5b815161101b81614140565b600081614cf857614cf8614803565b506000190190565b634e487b7160e01b600052603160045260246000fdfe416464726573733a206c6f772d6c6576656c2064656c65676174652063616c6c206661696c6564a2646970667358221220356b9dd3da48895914df41696757e3650aef70aad784581311a5161041c82acf64736f6c63430008130033",
  "devdoc": {
    "author": "ZeroLend",
    "details": "Manages the minting and burning of NFT positions, which represent liquidity positions in a pool.",
    "events": {
      "Approval(address,address,uint256)": {
        "details": "Emitted when `owner` enables `approved` to manage the `tokenId` token."
      },
      "ApprovalForAll(address,address,bool)": {
        "details": "Emitted when `owner` enables or disables (`approved`) `operator` to manage all of its assets."
      },
      "BorrowIncreased(address,uint256,uint256)": {
        "params": {
          "amount": "The amount of the asset that we want to borrow.",
          "asset": "The address of the asset that we want to borrow.",
          "tokenId": "The ID of the position token."
        }
      },
      "Initialized(uint8)": {
        "details": "Triggered when the contract has been initialized or reinitialized."
      },
      "LiquidityIncreased(address,uint256,uint256)": {
        "params": {
          "amount": "The amount of the asset that was added to the position.",
          "asset": "The address of the asset for which liquidity was increased.",
          "tokenId": "The ID of the position token."
        }
      },
      "Repay(address,uint256,uint256)": {
        "params": {
          "amount": "The amount of asset that we want to repay",
          "asset": "The address of the asset that we want to repay.",
          "tokenId": "The ID of the NFT."
        }
      },
      "RoleAdminChanged(bytes32,bytes32,bytes32)": {
        "details": "Emitted when `newAdminRole` is set as ``role``'s admin role, replacing `previousAdminRole` `DEFAULT_ADMIN_ROLE` is the starting admin for all roles, despite {RoleAdminChanged} not being emitted signaling this. _Available since v3.1._"
      },
      "RoleGranted(bytes32,address,address)": {
        "details": "Emitted when `account` is granted `role`. `sender` is the account that originated the contract call, an admin role bearer except when using {AccessControl-_setupRole}."
      },
      "RoleRevoked(bytes32,address,address)": {
        "details": "Emitted when `account` is revoked `role`. `sender` is the account that originated the contract call:   - if using `revokeRole`, it is the admin role bearer   - if using `renounceRole`, it is the role bearer (i.e. `account`)"
      },
      "Transfer(address,address,uint256)": {
        "details": "Emitted when `tokenId` token is transferred from `from` to `to`."
      },
      "Withdrawal(address,uint256,uint256)": {
        "params": {
          "amount": "The amount of asset that we want to withdraw",
          "asset": "The address of the asset that we want to withdraw",
          "tokenId": "The ID of the NFT."
        }
      }
    },
    "kind": "dev",
    "methods": {
      "approve(address,uint256)": {
        "details": "See {IERC721-approve}."
      },
      "balanceOf(address)": {
        "details": "See {IERC721-balanceOf}."
      },
      "boostedBalance(address,uint256)": {
        "details": "Calculates the boosted balance for an account.",
        "params": {
          "account": "The address of the account for which to calculate the boosted balance.",
          "balance": "The amount to boost."
        },
        "returns": {
          "_0": "The boosted balance of the account."
        }
      },
      "borrow((address,address,uint256,uint256,(bytes,bytes)))": {
        "params": {
          "params": "The params required for borrow the position which includes tokenId, market and amount"
        }
      },
      "constructor": {
        "custom:oz-upgrades-unsafe-allow": "constructor"
      },
      "getApproved(uint256)": {
        "details": "See {IERC721-getApproved}."
      },
      "getRoleAdmin(bytes32)": {
        "details": "Returns the admin role that controls `role`. See {grantRole} and {revokeRole}. To change a role's admin, use {_setRoleAdmin}."
      },
      "getRoleMember(bytes32,uint256)": {
        "details": "Returns one of the accounts that have `role`. `index` must be a value between 0 and {getRoleMemberCount}, non-inclusive. Role bearers are not sorted in any particular way, and their ordering may change at any point. WARNING: When using {getRoleMember} and {getRoleMemberCount}, make sure you perform all queries on the same block. See the following https://forum.openzeppelin.com/t/iterating-over-elements-on-enumerableset-in-openzeppelin-contracts/2296[forum post] for more information."
      },
      "getRoleMemberCount(bytes32)": {
        "details": "Returns the number of accounts that have `role`. Can be used together with {getRoleMember} to enumerate all bearers of a role."
      },
      "grantRole(bytes32,address)": {
        "details": "Grants `role` to `account`. If `account` had not been already granted `role`, emits a {RoleGranted} event. Requirements: - the caller must have ``role``'s admin role. May emit a {RoleGranted} event."
      },
      "hasRole(bytes32,address)": {
        "details": "Returns `true` if `account` has been granted `role`."
      },
      "isApprovedForAll(address,address)": {
        "details": "See {IERC721-isApprovedForAll}."
      },
      "mint(address)": {
        "params": {
          "pool": "The pool to mint a position ID for"
        },
        "returns": {
          "tokenId": "The ID of the newly minted token."
        }
      },
      "multicall(bytes[])": {
        "custom:oz-upgrades-unsafe-allow-reachable": "delegatecall",
        "details": "Receives and executes a batch of function calls on this contract."
      },
      "name()": {
        "details": "See {IERC721Metadata-name}."
      },
      "ownerOf(uint256)": {
        "details": "See {IERC721-ownerOf}."
      },
      "renounceRole(bytes32,address)": {
        "details": "Revokes `role` from the calling account. Roles are often managed via {grantRole} and {revokeRole}: this function's purpose is to provide a mechanism for accounts to lose their privileges if they are compromised (such as when a trusted device is misplaced). If the calling account had been revoked `role`, emits a {RoleRevoked} event. Requirements: - the caller must be `account`. May emit a {RoleRevoked} event."
      },
      "repay((address,address,uint256,uint256,(bytes,bytes)))": {
        "params": {
          "params": "The params required for repaying the position which includes tokenId, asset and amount."
        }
      },
      "revokeRole(bytes32,address)": {
        "details": "Revokes `role` from `account`. If `account` had been granted `role`, emits a {RoleRevoked} event. Requirements: - the caller must have ``role``'s admin role. May emit a {RoleRevoked} event."
      },
      "safeTransferFrom(address,address,uint256)": {
        "details": "See {IERC721-safeTransferFrom}."
      },
      "safeTransferFrom(address,address,uint256,bytes)": {
        "details": "See {IERC721-safeTransferFrom}."
      },
      "setApprovalForAll(address,bool)": {
        "details": "See {IERC721-setApprovalForAll}."
      },
      "supply((address,address,uint256,uint256,(bytes,bytes)))": {
        "params": {
          "params": "The parameters required for increase liquidity the position, including the token, pool, amount and asset."
        }
      },
      "symbol()": {
        "details": "See {IERC721Metadata-symbol}."
      },
      "tokenByIndex(uint256)": {
        "details": "See {IERC721Enumerable-tokenByIndex}."
      },
      "tokenOfOwnerByIndex(address,uint256)": {
        "details": "See {IERC721Enumerable-tokenOfOwnerByIndex}."
      },
      "tokenURI(uint256)": {
        "details": "See {IERC721Metadata-tokenURI}."
      },
      "totalSupply()": {
        "details": "See {IERC721Enumerable-totalSupply}."
      },
      "transferFrom(address,address,uint256)": {
        "details": "See {IERC721-transferFrom}."
      },
      "withdraw((address,address,uint256,uint256,(bytes,bytes)))": {
        "params": {
          "params": "The parameters required for withdrawing from the position, including tokenId, asset, and amount."
        }
      }
    },
    "title": "NFTPositionManager",
    "version": 1
  },
  "userdoc": {
    "errors": {
      "BalanceMisMatch()": [
        {
          "notice": "Error indicating a mismatch in balance."
        }
      ],
      "NotPool()": [
        {
          "notice": "Error indicating that pool is not register in pool factory."
        }
      ],
      "NotTokenIdOwner()": [
        {
          "notice": "Error indicating that the caller is not the owner or approved operator of the token ID."
        }
      ],
      "PositionNotCleared()": [
        {
          "notice": "Error indicating that the position is not cleared."
        }
      ],
      "ZeroAddressNotAllowed()": [
        {
          "notice": "Error indicating that a zero address was provided, which is not allowed."
        }
      ],
      "ZeroValueNotAllowed()": [
        {
          "notice": "Error indicating that a zero value was provided, which is not allowed."
        }
      ]
    },
    "events": {
      "LiquidityIncreased(address,uint256,uint256)": {
        "notice": "Emitted when liquidity is increased for a specific position token."
      }
    },
    "kind": "user",
    "methods": {
      "borrow((address,address,uint256,uint256,(bytes,bytes)))": {
        "notice": "Allow user to borrow the underlying assets"
      },
      "factory()": {
        "notice": "The pool factory contract that is used to create pools."
      },
      "initialize(address,address,address,address,address)": {
        "notice": "Initializes the NFTPositionManager contract."
      },
      "mint(address)": {
        "notice": "Mints a new NFT representing a liquidity position."
      },
      "repay((address,address,uint256,uint256,(bytes,bytes)))": {
        "notice": "Allow user to repay thier debt."
      },
      "rewardsToken()": {
        "notice": "The ERC20 token used for rewards."
      },
      "supply((address,address,uint256,uint256,(bytes,bytes)))": {
        "notice": "Allow User to increase liquidity in the postion"
      },
      "weth()": {
        "notice": "Address for the wrapped ether"
      },
      "withdraw((address,address,uint256,uint256,(bytes,bytes)))": {
        "notice": "Allow user to withdraw their underlying assets."
      }
    },
    "version": 1
  },
  "storageLayout": {
    "storage": [
      {
        "astId": 780,
        "contract": "contracts/core/positions/NFTPositionManager.sol:NFTPositionManager",
        "label": "_initialized",
        "offset": 0,
        "slot": "0",
        "type": "t_uint8"
      },
      {
        "astId": 783,
        "contract": "contracts/core/positions/NFTPositionManager.sol:NFTPositionManager",
        "label": "_initializing",
        "offset": 1,
        "slot": "0",
        "type": "t_bool"
      },
      {
        "astId": 957,
        "contract": "contracts/core/positions/NFTPositionManager.sol:NFTPositionManager",
        "label": "_status",
        "offset": 0,
        "slot": "1",
        "type": "t_uint256"
      },
      {
        "astId": 1026,
        "contract": "contracts/core/positions/NFTPositionManager.sol:NFTPositionManager",
        "label": "__gap",
        "offset": 0,
        "slot": "2",
        "type": "t_array(t_uint256)49_storage"
      },
      {
        "astId": 4898,
        "contract": "contracts/core/positions/NFTPositionManager.sol:NFTPositionManager",
        "label": "__gap",
        "offset": 0,
        "slot": "51",
        "type": "t_array(t_uint256)50_storage"
      },
      {
        "astId": 5078,
        "contract": "contracts/core/positions/NFTPositionManager.sol:NFTPositionManager",
        "label": "__gap",
        "offset": 0,
        "slot": "101",
        "type": "t_array(t_uint256)50_storage"
      },
      {
        "astId": 6003,
        "contract": "contracts/core/positions/NFTPositionManager.sol:NFTPositionManager",
        "label": "__gap",
        "offset": 0,
        "slot": "151",
        "type": "t_array(t_uint256)50_storage"
      },
      {
        "astId": 3028,
        "contract": "contracts/core/positions/NFTPositionManager.sol:NFTPositionManager",
        "label": "_name",
        "offset": 0,
        "slot": "201",
        "type": "t_string_storage"
      },
      {
        "astId": 3030,
        "contract": "contracts/core/positions/NFTPositionManager.sol:NFTPositionManager",
        "label": "_symbol",
        "offset": 0,
        "slot": "202",
        "type": "t_string_storage"
      },
      {
        "astId": 3034,
        "contract": "contracts/core/positions/NFTPositionManager.sol:NFTPositionManager",
        "label": "_owners",
        "offset": 0,
        "slot": "203",
        "type": "t_mapping(t_uint256,t_address)"
      },
      {
        "astId": 3038,
        "contract": "contracts/core/positions/NFTPositionManager.sol:NFTPositionManager",
        "label": "_balances",
        "offset": 0,
        "slot": "204",
        "type": "t_mapping(t_address,t_uint256)"
      },
      {
        "astId": 3042,
        "contract": "contracts/core/positions/NFTPositionManager.sol:NFTPositionManager",
        "label": "_tokenApprovals",
        "offset": 0,
        "slot": "205",
        "type": "t_mapping(t_uint256,t_address)"
      },
      {
        "astId": 3048,
        "contract": "contracts/core/positions/NFTPositionManager.sol:NFTPositionManager",
        "label": "_operatorApprovals",
        "offset": 0,
        "slot": "206",
        "type": "t_mapping(t_address,t_mapping(t_address,t_bool))"
      },
      {
        "astId": 3950,
        "contract": "contracts/core/positions/NFTPositionManager.sol:NFTPositionManager",
        "label": "__gap",
        "offset": 0,
        "slot": "207",
        "type": "t_array(t_uint256)44_storage"
      },
      {
        "astId": 4104,
        "contract": "contracts/core/positions/NFTPositionManager.sol:NFTPositionManager",
        "label": "_ownedTokens",
        "offset": 0,
        "slot": "251",
        "type": "t_mapping(t_address,t_mapping(t_uint256,t_uint256))"
      },
      {
        "astId": 4108,
        "contract": "contracts/core/positions/NFTPositionManager.sol:NFTPositionManager",
        "label": "_ownedTokensIndex",
        "offset": 0,
        "slot": "252",
        "type": "t_mapping(t_uint256,t_uint256)"
      },
      {
        "astId": 4111,
        "contract": "contracts/core/positions/NFTPositionManager.sol:NFTPositionManager",
        "label": "_allTokens",
        "offset": 0,
        "slot": "253",
        "type": "t_array(t_uint256)dyn_storage"
      },
      {
        "astId": 4115,
        "contract": "contracts/core/positions/NFTPositionManager.sol:NFTPositionManager",
        "label": "_allTokensIndex",
        "offset": 0,
        "slot": "254",
        "type": "t_mapping(t_uint256,t_uint256)"
      },
      {
        "astId": 4459,
        "contract": "contracts/core/positions/NFTPositionManager.sol:NFTPositionManager",
        "label": "__gap",
        "offset": 0,
        "slot": "255",
        "type": "t_array(t_uint256)46_storage"
      },
      {
        "astId": 174,
        "contract": "contracts/core/positions/NFTPositionManager.sol:NFTPositionManager",
        "label": "_roles",
        "offset": 0,
        "slot": "301",
        "type": "t_mapping(t_bytes32,t_struct(RoleData)169_storage)"
      },
      {
        "astId": 481,
        "contract": "contracts/core/positions/NFTPositionManager.sol:NFTPositionManager",
        "label": "__gap",
        "offset": 0,
        "slot": "302",
        "type": "t_array(t_uint256)49_storage"
      },
      {
        "astId": 22,
        "contract": "contracts/core/positions/NFTPositionManager.sol:NFTPositionManager",
        "label": "_roleMembers",
        "offset": 0,
        "slot": "351",
        "type": "t_mapping(t_bytes32,t_struct(AddressSet)7313_storage)"
      },
      {
        "astId": 144,
        "contract": "contracts/core/positions/NFTPositionManager.sol:NFTPositionManager",
        "label": "__gap",
        "offset": 0,
        "slot": "352",
        "type": "t_array(t_uint256)49_storage"
      },
      {
        "astId": 33291,
        "contract": "contracts/core/positions/NFTPositionManager.sol:NFTPositionManager",
        "label": "factory",
        "offset": 0,
        "slot": "401",
        "type": "t_contract(IPoolFactory)39100"
      },
      {
        "astId": 33294,
        "contract": "contracts/core/positions/NFTPositionManager.sol:NFTPositionManager",
        "label": "_nextId",
        "offset": 0,
        "slot": "402",
        "type": "t_uint256"
      },
      {
        "astId": 33300,
        "contract": "contracts/core/positions/NFTPositionManager.sol:NFTPositionManager",
        "label": "_positions",
        "offset": 0,
        "slot": "403",
        "type": "t_mapping(t_uint256,t_struct(Position)38448_storage)"
      },
      {
        "astId": 33304,
        "contract": "contracts/core/positions/NFTPositionManager.sol:NFTPositionManager",
        "label": "weth",
        "offset": 0,
        "slot": "404",
        "type": "t_contract(IWETH)39458"
      },
      {
        "astId": 33308,
        "contract": "contracts/core/positions/NFTPositionManager.sol:NFTPositionManager",
        "label": "rewardsToken",
        "offset": 0,
        "slot": "405",
        "type": "t_contract(IERC20)14102"
      },
      {
        "astId": 33312,
        "contract": "contracts/core/positions/NFTPositionManager.sol:NFTPositionManager",
        "label": "stakingToken",
        "offset": 0,
        "slot": "406",
        "type": "t_contract(IVotes)12331"
      },
      {
        "astId": 33318,
        "contract": "contracts/core/positions/NFTPositionManager.sol:NFTPositionManager",
        "label": "_poolAssetList",
        "offset": 0,
        "slot": "407",
        "type": "t_mapping(t_address,t_array(t_address)dyn_storage)"
      },
      {
        "astId": 33322,
        "contract": "contracts/core/positions/NFTPositionManager.sol:NFTPositionManager",
        "label": "_totalSupply",
        "offset": 0,
        "slot": "408",
        "type": "t_mapping(t_bytes32,t_uint256)"
      },
      {
        "astId": 33326,
        "contract": "contracts/core/positions/NFTPositionManager.sol:NFTPositionManager",
        "label": "lastUpdateTime",
        "offset": 0,
        "slot": "409",
        "type": "t_mapping(t_bytes32,t_uint256)"
      },
      {
        "astId": 33330,
        "contract": "contracts/core/positions/NFTPositionManager.sol:NFTPositionManager",
        "label": "periodFinish",
        "offset": 0,
        "slot": "410",
        "type": "t_mapping(t_bytes32,t_uint256)"
      },
      {
        "astId": 33334,
        "contract": "contracts/core/positions/NFTPositionManager.sol:NFTPositionManager",
        "label": "rewardPerTokenStored",
        "offset": 0,
        "slot": "411",
        "type": "t_mapping(t_bytes32,t_uint256)"
      },
      {
        "astId": 33338,
        "contract": "contracts/core/positions/NFTPositionManager.sol:NFTPositionManager",
        "label": "rewardRate",
        "offset": 0,
        "slot": "412",
        "type": "t_mapping(t_bytes32,t_uint256)"
      },
      {
        "astId": 33344,
        "contract": "contracts/core/positions/NFTPositionManager.sol:NFTPositionManager",
        "label": "_balances",
        "offset": 0,
        "slot": "413",
        "type": "t_mapping(t_uint256,t_mapping(t_bytes32,t_uint256))"
      },
      {
        "astId": 33350,
        "contract": "contracts/core/positions/NFTPositionManager.sol:NFTPositionManager",
        "label": "userRewardPerTokenPaid",
        "offset": 0,
        "slot": "414",
        "type": "t_mapping(t_uint256,t_mapping(t_bytes32,t_uint256))"
      },
      {
        "astId": 33356,
        "contract": "contracts/core/positions/NFTPositionManager.sol:NFTPositionManager",
        "label": "rewards",
        "offset": 0,
        "slot": "415",
        "type": "t_mapping(t_uint256,t_mapping(t_bytes32,t_uint256))"
      },
      {
        "astId": 33358,
        "contract": "contracts/core/positions/NFTPositionManager.sol:NFTPositionManager",
        "label": "maxBoostRequirement",
        "offset": 0,
        "slot": "416",
        "type": "t_uint256"
      },
      {
        "astId": 33360,
        "contract": "contracts/core/positions/NFTPositionManager.sol:NFTPositionManager",
        "label": "rewardsDuration",
        "offset": 0,
        "slot": "417",
        "type": "t_uint256"
      }
    ],
    "types": {
      "t_address": {
        "encoding": "inplace",
        "label": "address",
        "numberOfBytes": "20"
      },
      "t_array(t_address)dyn_storage": {
        "base": "t_address",
        "encoding": "dynamic_array",
        "label": "address[]",
        "numberOfBytes": "32"
      },
      "t_array(t_bytes32)dyn_storage": {
        "base": "t_bytes32",
        "encoding": "dynamic_array",
        "label": "bytes32[]",
        "numberOfBytes": "32"
      },
      "t_array(t_uint256)44_storage": {
        "base": "t_uint256",
        "encoding": "inplace",
        "label": "uint256[44]",
        "numberOfBytes": "1408"
      },
      "t_array(t_uint256)46_storage": {
        "base": "t_uint256",
        "encoding": "inplace",
        "label": "uint256[46]",
        "numberOfBytes": "1472"
      },
      "t_array(t_uint256)49_storage": {
        "base": "t_uint256",
        "encoding": "inplace",
        "label": "uint256[49]",
        "numberOfBytes": "1568"
      },
      "t_array(t_uint256)50_storage": {
        "base": "t_uint256",
        "encoding": "inplace",
        "label": "uint256[50]",
        "numberOfBytes": "1600"
      },
      "t_array(t_uint256)dyn_storage": {
        "base": "t_uint256",
        "encoding": "dynamic_array",
        "label": "uint256[]",
        "numberOfBytes": "32"
      },
      "t_bool": {
        "encoding": "inplace",
        "label": "bool",
        "numberOfBytes": "1"
      },
      "t_bytes32": {
        "encoding": "inplace",
        "label": "bytes32",
        "numberOfBytes": "32"
      },
      "t_contract(IERC20)14102": {
        "encoding": "inplace",
        "label": "contract IERC20",
        "numberOfBytes": "20"
      },
      "t_contract(IPoolFactory)39100": {
        "encoding": "inplace",
        "label": "contract IPoolFactory",
        "numberOfBytes": "20"
      },
      "t_contract(IVotes)12331": {
        "encoding": "inplace",
        "label": "contract IVotes",
        "numberOfBytes": "20"
      },
      "t_contract(IWETH)39458": {
        "encoding": "inplace",
        "label": "contract IWETH",
        "numberOfBytes": "20"
      },
      "t_mapping(t_address,t_array(t_address)dyn_storage)": {
        "encoding": "mapping",
        "key": "t_address",
        "label": "mapping(address => address[])",
        "numberOfBytes": "32",
        "value": "t_array(t_address)dyn_storage"
      },
      "t_mapping(t_address,t_bool)": {
        "encoding": "mapping",
        "key": "t_address",
        "label": "mapping(address => bool)",
        "numberOfBytes": "32",
        "value": "t_bool"
      },
      "t_mapping(t_address,t_mapping(t_address,t_bool))": {
        "encoding": "mapping",
        "key": "t_address",
        "label": "mapping(address => mapping(address => bool))",
        "numberOfBytes": "32",
        "value": "t_mapping(t_address,t_bool)"
      },
      "t_mapping(t_address,t_mapping(t_uint256,t_uint256))": {
        "encoding": "mapping",
        "key": "t_address",
        "label": "mapping(address => mapping(uint256 => uint256))",
        "numberOfBytes": "32",
        "value": "t_mapping(t_uint256,t_uint256)"
      },
      "t_mapping(t_address,t_uint256)": {
        "encoding": "mapping",
        "key": "t_address",
        "label": "mapping(address => uint256)",
        "numberOfBytes": "32",
        "value": "t_uint256"
      },
      "t_mapping(t_bytes32,t_struct(AddressSet)7313_storage)": {
        "encoding": "mapping",
        "key": "t_bytes32",
        "label": "mapping(bytes32 => struct EnumerableSetUpgradeable.AddressSet)",
        "numberOfBytes": "32",
        "value": "t_struct(AddressSet)7313_storage"
      },
      "t_mapping(t_bytes32,t_struct(RoleData)169_storage)": {
        "encoding": "mapping",
        "key": "t_bytes32",
        "label": "mapping(bytes32 => struct AccessControlUpgradeable.RoleData)",
        "numberOfBytes": "32",
        "value": "t_struct(RoleData)169_storage"
      },
      "t_mapping(t_bytes32,t_uint256)": {
        "encoding": "mapping",
        "key": "t_bytes32",
        "label": "mapping(bytes32 => uint256)",
        "numberOfBytes": "32",
        "value": "t_uint256"
      },
      "t_mapping(t_uint256,t_address)": {
        "encoding": "mapping",
        "key": "t_uint256",
        "label": "mapping(uint256 => address)",
        "numberOfBytes": "32",
        "value": "t_address"
      },
      "t_mapping(t_uint256,t_mapping(t_bytes32,t_uint256))": {
        "encoding": "mapping",
        "key": "t_uint256",
        "label": "mapping(uint256 => mapping(bytes32 => uint256))",
        "numberOfBytes": "32",
        "value": "t_mapping(t_bytes32,t_uint256)"
      },
      "t_mapping(t_uint256,t_struct(Position)38448_storage)": {
        "encoding": "mapping",
        "key": "t_uint256",
        "label": "mapping(uint256 => struct INFTPositionManager.Position)",
        "numberOfBytes": "32",
        "value": "t_struct(Position)38448_storage"
      },
      "t_mapping(t_uint256,t_uint256)": {
        "encoding": "mapping",
        "key": "t_uint256",
        "label": "mapping(uint256 => uint256)",
        "numberOfBytes": "32",
        "value": "t_uint256"
      },
      "t_string_storage": {
        "encoding": "bytes",
        "label": "string",
        "numberOfBytes": "32"
      },
      "t_struct(AddressSet)7313_storage": {
        "encoding": "inplace",
        "label": "struct EnumerableSetUpgradeable.AddressSet",
        "members": [
          {
            "astId": 7312,
            "contract": "contracts/core/positions/NFTPositionManager.sol:NFTPositionManager",
            "label": "_inner",
            "offset": 0,
            "slot": "0",
            "type": "t_struct(Set)6998_storage"
          }
        ],
        "numberOfBytes": "64"
      },
      "t_struct(Position)38448_storage": {
        "encoding": "inplace",
        "label": "struct INFTPositionManager.Position",
        "members": [
          {
            "astId": 38445,
            "contract": "contracts/core/positions/NFTPositionManager.sol:NFTPositionManager",
            "label": "pool",
            "offset": 0,
            "slot": "0",
            "type": "t_address"
          },
          {
            "astId": 38447,
            "contract": "contracts/core/positions/NFTPositionManager.sol:NFTPositionManager",
            "label": "operator",
            "offset": 0,
            "slot": "1",
            "type": "t_address"
          }
        ],
        "numberOfBytes": "64"
      },
      "t_struct(RoleData)169_storage": {
        "encoding": "inplace",
        "label": "struct AccessControlUpgradeable.RoleData",
        "members": [
          {
            "astId": 166,
            "contract": "contracts/core/positions/NFTPositionManager.sol:NFTPositionManager",
            "label": "members",
            "offset": 0,
            "slot": "0",
            "type": "t_mapping(t_address,t_bool)"
          },
          {
            "astId": 168,
            "contract": "contracts/core/positions/NFTPositionManager.sol:NFTPositionManager",
            "label": "adminRole",
            "offset": 0,
            "slot": "1",
            "type": "t_bytes32"
          }
        ],
        "numberOfBytes": "64"
      },
      "t_struct(Set)6998_storage": {
        "encoding": "inplace",
        "label": "struct EnumerableSetUpgradeable.Set",
        "members": [
          {
            "astId": 6993,
            "contract": "contracts/core/positions/NFTPositionManager.sol:NFTPositionManager",
            "label": "_values",
            "offset": 0,
            "slot": "0",
            "type": "t_array(t_bytes32)dyn_storage"
          },
          {
            "astId": 6997,
            "contract": "contracts/core/positions/NFTPositionManager.sol:NFTPositionManager",
            "label": "_indexes",
            "offset": 0,
            "slot": "1",
            "type": "t_mapping(t_bytes32,t_uint256)"
          }
        ],
        "numberOfBytes": "64"
      },
      "t_uint256": {
        "encoding": "inplace",
        "label": "uint256",
        "numberOfBytes": "32"
      },
      "t_uint8": {
        "encoding": "inplace",
        "label": "uint8",
        "numberOfBytes": "1"
      }
    }
  }
}