{
  "address": "0x9Af7c311e60FA7B981130cbA2b6626639a490811",
  "abi": [
    {
      "inputs": [],
      "stateMutability": "nonpayable",
      "type": "constructor"
    },
    {
      "inputs": [],
      "name": "BalanceMisMatch",
      "type": "error"
    },
    {
      "inputs": [],
      "name": "NotPool",
      "type": "error"
    },
    {
      "inputs": [],
      "name": "NotTokenIdOwner",
      "type": "error"
    },
    {
      "inputs": [],
      "name": "PositionNotCleared",
      "type": "error"
    },
    {
      "inputs": [],
      "name": "ZeroAddressNotAllowed",
      "type": "error"
    },
    {
      "inputs": [],
      "name": "ZeroValueNotAllowed",
      "type": "error"
    },
    {
      "anonymous": false,
      "inputs": [
        {
          "indexed": true,
          "internalType": "address",
          "name": "owner",
          "type": "address"
        },
        {
          "indexed": true,
          "internalType": "address",
          "name": "approved",
          "type": "address"
        },
        {
          "indexed": true,
          "internalType": "uint256",
          "name": "tokenId",
          "type": "uint256"
        }
      ],
      "name": "Approval",
      "type": "event"
    },
    {
      "anonymous": false,
      "inputs": [
        {
          "indexed": true,
          "internalType": "address",
          "name": "owner",
          "type": "address"
        },
        {
          "indexed": true,
          "internalType": "address",
          "name": "operator",
          "type": "address"
        },
        {
          "indexed": false,
          "internalType": "bool",
          "name": "approved",
          "type": "bool"
        }
      ],
      "name": "ApprovalForAll",
      "type": "event"
    },
    {
      "anonymous": false,
      "inputs": [
        {
          "indexed": true,
          "internalType": "address",
          "name": "asset",
          "type": "address"
        },
        {
          "indexed": true,
          "internalType": "uint256",
          "name": "amount",
          "type": "uint256"
        },
        {
          "indexed": true,
          "internalType": "uint256",
          "name": "tokenId",
          "type": "uint256"
        }
      ],
      "name": "BorrowIncreased",
      "type": "event"
    },
    {
      "anonymous": false,
      "inputs": [
        {
          "indexed": false,
          "internalType": "uint8",
          "name": "version",
          "type": "uint8"
        }
      ],
      "name": "Initialized",
      "type": "event"
    },
    {
      "anonymous": false,
      "inputs": [
        {
          "indexed": true,
          "internalType": "address",
          "name": "asset",
          "type": "address"
        },
        {
          "indexed": true,
          "internalType": "uint256",
          "name": "tokenId",
          "type": "uint256"
        },
        {
          "indexed": true,
          "internalType": "uint256",
          "name": "amount",
          "type": "uint256"
        }
      ],
      "name": "LiquidityIncreased",
      "type": "event"
    },
    {
      "anonymous": false,
      "inputs": [
        {
          "indexed": true,
          "internalType": "address",
          "name": "previousOwner",
          "type": "address"
        },
        {
          "indexed": true,
          "internalType": "address",
          "name": "newOwner",
          "type": "address"
        }
      ],
      "name": "OwnershipTransferred",
      "type": "event"
    },
    {
      "anonymous": false,
      "inputs": [
        {
          "indexed": false,
          "internalType": "address",
          "name": "token",
          "type": "address"
        },
        {
          "indexed": false,
          "internalType": "uint256",
          "name": "amount",
          "type": "uint256"
        }
      ],
      "name": "Recovered",
      "type": "event"
    },
    {
      "anonymous": false,
      "inputs": [
        {
          "indexed": true,
          "internalType": "address",
          "name": "asset",
          "type": "address"
        },
        {
          "indexed": true,
          "internalType": "uint256",
          "name": "tokenId",
          "type": "uint256"
        },
        {
          "indexed": true,
          "internalType": "uint256",
          "name": "amount",
          "type": "uint256"
        }
      ],
      "name": "Repay",
      "type": "event"
    },
    {
      "anonymous": false,
      "inputs": [
        {
          "indexed": true,
          "internalType": "bytes32",
          "name": "assetHash",
          "type": "bytes32"
        },
        {
          "indexed": true,
          "internalType": "uint256",
          "name": "reward",
          "type": "uint256"
        }
      ],
      "name": "RewardAdded",
      "type": "event"
    },
    {
      "anonymous": false,
      "inputs": [
        {
          "indexed": true,
          "internalType": "uint256",
          "name": "tokenId",
          "type": "uint256"
        },
        {
          "indexed": true,
          "internalType": "address",
          "name": "user",
          "type": "address"
        },
        {
          "indexed": false,
          "internalType": "uint256",
          "name": "reward",
          "type": "uint256"
        }
      ],
      "name": "RewardPaid",
      "type": "event"
    },
    {
      "anonymous": false,
      "inputs": [
        {
          "indexed": false,
          "internalType": "uint256",
          "name": "newDuration",
          "type": "uint256"
        }
      ],
      "name": "RewardsDurationUpdated",
      "type": "event"
    },
    {
      "anonymous": false,
      "inputs": [
        {
          "indexed": true,
          "internalType": "address",
          "name": "user",
          "type": "address"
        },
        {
          "indexed": false,
          "internalType": "uint256",
          "name": "amount",
          "type": "uint256"
        }
      ],
      "name": "Staked",
      "type": "event"
    },
    {
      "anonymous": false,
      "inputs": [
        {
          "indexed": true,
          "internalType": "address",
          "name": "from",
          "type": "address"
        },
        {
          "indexed": true,
          "internalType": "address",
          "name": "to",
          "type": "address"
        },
        {
          "indexed": true,
          "internalType": "uint256",
          "name": "tokenId",
          "type": "uint256"
        }
      ],
      "name": "Transfer",
      "type": "event"
    },
    {
      "anonymous": false,
      "inputs": [
        {
          "indexed": true,
          "internalType": "address",
          "name": "asset",
          "type": "address"
        },
        {
          "indexed": true,
          "internalType": "uint256",
          "name": "amount",
          "type": "uint256"
        },
        {
          "indexed": false,
          "internalType": "uint256",
          "name": "tokenId",
          "type": "uint256"
        }
      ],
      "name": "Withdrawal",
      "type": "event"
    },
    {
      "anonymous": false,
      "inputs": [
        {
          "indexed": true,
          "internalType": "address",
          "name": "user",
          "type": "address"
        },
        {
          "indexed": false,
          "internalType": "uint256",
          "name": "amount",
          "type": "uint256"
        }
      ],
      "name": "Withdrawn",
      "type": "event"
    },
    {
      "inputs": [
        {
          "internalType": "address",
          "name": "to",
          "type": "address"
        },
        {
          "internalType": "uint256",
          "name": "tokenId",
          "type": "uint256"
        }
      ],
      "name": "approve",
      "outputs": [],
      "stateMutability": "nonpayable",
      "type": "function"
    },
    {
      "inputs": [
        {
          "internalType": "address",
          "name": "pool",
          "type": "address"
        },
        {
          "internalType": "address",
          "name": "asset",
          "type": "address"
        },
        {
          "internalType": "bool",
          "name": "isDebt",
          "type": "bool"
        }
      ],
      "name": "assetHash",
      "outputs": [
        {
          "internalType": "bytes32",
          "name": "",
          "type": "bytes32"
        }
      ],
      "stateMutability": "pure",
      "type": "function"
    },
    {
      "inputs": [
        {
          "internalType": "address",
          "name": "owner",
          "type": "address"
        }
      ],
      "name": "balanceOf",
      "outputs": [
        {
          "internalType": "uint256",
          "name": "",
          "type": "uint256"
        }
      ],
      "stateMutability": "view",
      "type": "function"
    },
    {
      "inputs": [
        {
          "internalType": "uint256",
          "name": "tokenId",
          "type": "uint256"
        },
        {
          "internalType": "bytes32",
          "name": "_assetHash",
          "type": "bytes32"
        }
      ],
      "name": "balanceOfByAssetHash",
      "outputs": [
        {
          "internalType": "uint256",
          "name": "",
          "type": "uint256"
        }
      ],
      "stateMutability": "view",
      "type": "function"
    },
    {
      "inputs": [
        {
          "internalType": "address",
          "name": "account",
          "type": "address"
        },
        {
          "internalType": "uint256",
          "name": "balance",
          "type": "uint256"
        }
      ],
      "name": "boostedBalance",
      "outputs": [
        {
          "internalType": "uint256",
          "name": "",
          "type": "uint256"
        }
      ],
      "stateMutability": "view",
      "type": "function"
    },
    {
      "inputs": [
        {
          "components": [
            {
              "internalType": "address",
              "name": "asset",
              "type": "address"
            },
            {
              "internalType": "uint256",
              "name": "amount",
              "type": "uint256"
            },
            {
              "internalType": "uint256",
              "name": "tokenId",
              "type": "uint256"
            },
            {
              "components": [
                {
                  "internalType": "bytes",
                  "name": "hookData",
                  "type": "bytes"
                },
                {
                  "internalType": "bytes",
                  "name": "interestRateData",
                  "type": "bytes"
                }
              ],
              "internalType": "struct DataTypes.ExtraData",
              "name": "data",
              "type": "tuple"
            }
          ],
          "internalType": "struct INFTPositionManager.AssetOperationParams",
          "name": "params",
          "type": "tuple"
        }
      ],
      "name": "borrow",
      "outputs": [],
      "stateMutability": "nonpayable",
      "type": "function"
    },
    {
      "inputs": [
        {
          "internalType": "uint256",
          "name": "tokenId",
          "type": "uint256"
        }
      ],
      "name": "burn",
      "outputs": [],
      "stateMutability": "nonpayable",
      "type": "function"
    },
    {
      "inputs": [
        {
          "internalType": "uint256",
          "name": "tokenId",
          "type": "uint256"
        },
        {
          "internalType": "bytes32",
          "name": "_assetHash",
          "type": "bytes32"
        }
      ],
      "name": "earned",
      "outputs": [
        {
          "internalType": "uint256",
          "name": "",
          "type": "uint256"
        }
      ],
      "stateMutability": "view",
      "type": "function"
    },
    {
      "inputs": [
        {
          "internalType": "uint256",
          "name": "tokenId",
          "type": "uint256"
        }
      ],
      "name": "getApproved",
      "outputs": [
        {
          "internalType": "address",
          "name": "",
          "type": "address"
        }
      ],
      "stateMutability": "view",
      "type": "function"
    },
    {
      "inputs": [
        {
          "internalType": "uint256",
          "name": "tokenId",
          "type": "uint256"
        }
      ],
      "name": "getPosition",
      "outputs": [
        {
          "components": [
            {
              "internalType": "address",
              "name": "asset",
              "type": "address"
            },
            {
              "internalType": "uint256",
              "name": "balance",
              "type": "uint256"
            },
            {
              "internalType": "uint256",
              "name": "debt",
              "type": "uint256"
            }
          ],
          "internalType": "struct INFTPositionManager.Asset[]",
          "name": "assets",
          "type": "tuple[]"
        },
        {
          "internalType": "bool",
          "name": "isBurnAllowed",
          "type": "bool"
        }
      ],
      "stateMutability": "view",
      "type": "function"
    },
    {
      "inputs": [
        {
          "internalType": "uint256",
          "name": "tokenId",
          "type": "uint256"
        },
        {
          "internalType": "bytes32",
          "name": "_assetHash",
          "type": "bytes32"
        }
      ],
      "name": "getReward",
      "outputs": [],
      "stateMutability": "nonpayable",
      "type": "function"
    },
    {
      "inputs": [
        {
          "internalType": "bytes32",
          "name": "_assetHash",
          "type": "bytes32"
        }
      ],
      "name": "getRewardForDuration",
      "outputs": [
        {
          "internalType": "uint256",
          "name": "",
          "type": "uint256"
        }
      ],
      "stateMutability": "view",
      "type": "function"
    },
    {
      "inputs": [
        {
          "components": [
            {
              "internalType": "address",
              "name": "asset",
              "type": "address"
            },
            {
              "internalType": "address",
              "name": "pool",
              "type": "address"
            },
            {
              "internalType": "uint256",
              "name": "amount",
              "type": "uint256"
            },
            {
              "internalType": "uint256",
              "name": "tokenId",
              "type": "uint256"
            },
            {
              "components": [
                {
                  "internalType": "bytes",
                  "name": "hookData",
                  "type": "bytes"
                },
                {
                  "internalType": "bytes",
                  "name": "interestRateData",
                  "type": "bytes"
                }
              ],
              "internalType": "struct DataTypes.ExtraData",
              "name": "data",
              "type": "tuple"
            }
          ],
          "internalType": "struct INFTPositionManager.LiquidityParams",
          "name": "params",
          "type": "tuple"
        }
      ],
      "name": "increaseLiquidity",
      "outputs": [],
      "stateMutability": "nonpayable",
      "type": "function"
    },
    {
      "inputs": [
        {
          "internalType": "address",
          "name": "_factory",
          "type": "address"
        },
        {
          "internalType": "address",
          "name": "_staking",
          "type": "address"
        },
        {
          "internalType": "address",
          "name": "_owner",
          "type": "address"
        },
        {
          "internalType": "address",
          "name": "_zero",
          "type": "address"
        }
      ],
      "name": "initialize",
      "outputs": [],
      "stateMutability": "nonpayable",
      "type": "function"
    },
    {
      "inputs": [
        {
          "internalType": "address",
          "name": "owner",
          "type": "address"
        },
        {
          "internalType": "address",
          "name": "operator",
          "type": "address"
        }
      ],
      "name": "isApprovedForAll",
      "outputs": [
        {
          "internalType": "bool",
          "name": "",
          "type": "bool"
        }
      ],
      "stateMutability": "view",
      "type": "function"
    },
    {
      "inputs": [
        {
          "internalType": "bytes32",
          "name": "_assetHash",
          "type": "bytes32"
        }
      ],
      "name": "lastTimeRewardApplicable",
      "outputs": [
        {
          "internalType": "uint256",
          "name": "",
          "type": "uint256"
        }
      ],
      "stateMutability": "view",
      "type": "function"
    },
    {
      "inputs": [
        {
          "internalType": "bytes32",
          "name": "assetHash",
          "type": "bytes32"
        }
      ],
      "name": "lastUpdateTime",
      "outputs": [
        {
          "internalType": "uint256",
          "name": "",
          "type": "uint256"
        }
      ],
      "stateMutability": "view",
      "type": "function"
    },
    {
      "inputs": [
        {
          "components": [
            {
              "internalType": "address",
              "name": "asset",
              "type": "address"
            },
            {
              "internalType": "address",
              "name": "pool",
              "type": "address"
            },
            {
              "internalType": "uint256",
              "name": "amount",
              "type": "uint256"
            },
            {
              "components": [
                {
                  "internalType": "bytes",
                  "name": "hookData",
                  "type": "bytes"
                },
                {
                  "internalType": "bytes",
                  "name": "interestRateData",
                  "type": "bytes"
                }
              ],
              "internalType": "struct DataTypes.ExtraData",
              "name": "data",
              "type": "tuple"
            }
          ],
          "internalType": "struct INFTPositionManager.MintParams",
          "name": "params",
          "type": "tuple"
        }
      ],
      "name": "mint",
      "outputs": [
        {
          "internalType": "uint256",
          "name": "tokenId",
          "type": "uint256"
        }
      ],
      "stateMutability": "nonpayable",
      "type": "function"
    },
    {
      "inputs": [
        {
          "internalType": "bytes[]",
          "name": "data",
          "type": "bytes[]"
        }
      ],
      "name": "multicall",
      "outputs": [
        {
          "internalType": "bytes[]",
          "name": "results",
          "type": "bytes[]"
        }
      ],
      "stateMutability": "nonpayable",
      "type": "function"
    },
    {
      "inputs": [],
      "name": "name",
      "outputs": [
        {
          "internalType": "string",
          "name": "",
          "type": "string"
        }
      ],
      "stateMutability": "view",
      "type": "function"
    },
    {
      "inputs": [
        {
          "internalType": "uint256",
          "name": "reward",
          "type": "uint256"
        },
        {
          "internalType": "address",
          "name": "pool",
          "type": "address"
        },
        {
          "internalType": "address",
          "name": "asset",
          "type": "address"
        },
        {
          "internalType": "bool",
          "name": "isDebt",
          "type": "bool"
        }
      ],
      "name": "notifyRewardAmount",
      "outputs": [],
      "stateMutability": "nonpayable",
      "type": "function"
    },
    {
      "inputs": [],
      "name": "owner",
      "outputs": [
        {
          "internalType": "address",
          "name": "",
          "type": "address"
        }
      ],
      "stateMutability": "view",
      "type": "function"
    },
    {
      "inputs": [
        {
          "internalType": "uint256",
          "name": "tokenId",
          "type": "uint256"
        }
      ],
      "name": "ownerOf",
      "outputs": [
        {
          "internalType": "address",
          "name": "",
          "type": "address"
        }
      ],
      "stateMutability": "view",
      "type": "function"
    },
    {
      "inputs": [
        {
          "internalType": "bytes32",
          "name": "assetHash",
          "type": "bytes32"
        }
      ],
      "name": "periodFinish",
      "outputs": [
        {
          "internalType": "uint256",
          "name": "",
          "type": "uint256"
        }
      ],
      "stateMutability": "view",
      "type": "function"
    },
    {
      "inputs": [
        {
          "internalType": "uint256",
          "name": "tokenId",
          "type": "uint256"
        }
      ],
      "name": "positions",
      "outputs": [
        {
          "internalType": "address",
          "name": "pool",
          "type": "address"
        },
        {
          "internalType": "address",
          "name": "operator",
          "type": "address"
        }
      ],
      "stateMutability": "view",
      "type": "function"
    },
    {
      "inputs": [],
      "name": "renounceOwnership",
      "outputs": [],
      "stateMutability": "nonpayable",
      "type": "function"
    },
    {
      "inputs": [
        {
          "components": [
            {
              "internalType": "address",
              "name": "asset",
              "type": "address"
            },
            {
              "internalType": "uint256",
              "name": "amount",
              "type": "uint256"
            },
            {
              "internalType": "uint256",
              "name": "tokenId",
              "type": "uint256"
            },
            {
              "components": [
                {
                  "internalType": "bytes",
                  "name": "hookData",
                  "type": "bytes"
                },
                {
                  "internalType": "bytes",
                  "name": "interestRateData",
                  "type": "bytes"
                }
              ],
              "internalType": "struct DataTypes.ExtraData",
              "name": "data",
              "type": "tuple"
            }
          ],
          "internalType": "struct INFTPositionManager.AssetOperationParams",
          "name": "params",
          "type": "tuple"
        }
      ],
      "name": "repay",
      "outputs": [],
      "stateMutability": "nonpayable",
      "type": "function"
    },
    {
      "inputs": [
        {
          "internalType": "bytes32",
          "name": "_assetHash",
          "type": "bytes32"
        }
      ],
      "name": "rewardPerToken",
      "outputs": [
        {
          "internalType": "uint256",
          "name": "",
          "type": "uint256"
        }
      ],
      "stateMutability": "view",
      "type": "function"
    },
    {
      "inputs": [
        {
          "internalType": "bytes32",
          "name": "assetHash",
          "type": "bytes32"
        }
      ],
      "name": "rewardPerTokenStored",
      "outputs": [
        {
          "internalType": "uint256",
          "name": "",
          "type": "uint256"
        }
      ],
      "stateMutability": "view",
      "type": "function"
    },
    {
      "inputs": [
        {
          "internalType": "bytes32",
          "name": "assetHash",
          "type": "bytes32"
        }
      ],
      "name": "rewardRate",
      "outputs": [
        {
          "internalType": "uint256",
          "name": "",
          "type": "uint256"
        }
      ],
      "stateMutability": "view",
      "type": "function"
    },
    {
      "inputs": [
        {
          "internalType": "uint256",
          "name": "tokenId",
          "type": "uint256"
        },
        {
          "internalType": "bytes32",
          "name": "assetHash",
          "type": "bytes32"
        }
      ],
      "name": "rewards",
      "outputs": [
        {
          "internalType": "uint256",
          "name": "rewards",
          "type": "uint256"
        }
      ],
      "stateMutability": "view",
      "type": "function"
    },
    {
      "inputs": [],
      "name": "rewardsDuration",
      "outputs": [
        {
          "internalType": "uint256",
          "name": "",
          "type": "uint256"
        }
      ],
      "stateMutability": "view",
      "type": "function"
    },
    {
      "inputs": [],
      "name": "rewardsToken",
      "outputs": [
        {
          "internalType": "contract IERC20",
          "name": "",
          "type": "address"
        }
      ],
      "stateMutability": "view",
      "type": "function"
    },
    {
      "inputs": [
        {
          "internalType": "address",
          "name": "from",
          "type": "address"
        },
        {
          "internalType": "address",
          "name": "to",
          "type": "address"
        },
        {
          "internalType": "uint256",
          "name": "tokenId",
          "type": "uint256"
        }
      ],
      "name": "safeTransferFrom",
      "outputs": [],
      "stateMutability": "nonpayable",
      "type": "function"
    },
    {
      "inputs": [
        {
          "internalType": "address",
          "name": "from",
          "type": "address"
        },
        {
          "internalType": "address",
          "name": "to",
          "type": "address"
        },
        {
          "internalType": "uint256",
          "name": "tokenId",
          "type": "uint256"
        },
        {
          "internalType": "bytes",
          "name": "data",
          "type": "bytes"
        }
      ],
      "name": "safeTransferFrom",
      "outputs": [],
      "stateMutability": "nonpayable",
      "type": "function"
    },
    {
      "inputs": [
        {
          "internalType": "address",
          "name": "operator",
          "type": "address"
        },
        {
          "internalType": "bool",
          "name": "approved",
          "type": "bool"
        }
      ],
      "name": "setApprovalForAll",
      "outputs": [],
      "stateMutability": "nonpayable",
      "type": "function"
    },
    {
      "inputs": [
        {
          "internalType": "bytes4",
          "name": "interfaceId",
          "type": "bytes4"
        }
      ],
      "name": "supportsInterface",
      "outputs": [
        {
          "internalType": "bool",
          "name": "",
          "type": "bool"
        }
      ],
      "stateMutability": "view",
      "type": "function"
    },
    {
      "inputs": [],
      "name": "symbol",
      "outputs": [
        {
          "internalType": "string",
          "name": "",
          "type": "string"
        }
      ],
      "stateMutability": "view",
      "type": "function"
    },
    {
      "inputs": [
        {
          "internalType": "uint256",
          "name": "index",
          "type": "uint256"
        }
      ],
      "name": "tokenByIndex",
      "outputs": [
        {
          "internalType": "uint256",
          "name": "",
          "type": "uint256"
        }
      ],
      "stateMutability": "view",
      "type": "function"
    },
    {
      "inputs": [
        {
          "internalType": "address",
          "name": "owner",
          "type": "address"
        },
        {
          "internalType": "uint256",
          "name": "index",
          "type": "uint256"
        }
      ],
      "name": "tokenOfOwnerByIndex",
      "outputs": [
        {
          "internalType": "uint256",
          "name": "",
          "type": "uint256"
        }
      ],
      "stateMutability": "view",
      "type": "function"
    },
    {
      "inputs": [
        {
          "internalType": "uint256",
          "name": "tokenId",
          "type": "uint256"
        }
      ],
      "name": "tokenURI",
      "outputs": [
        {
          "internalType": "string",
          "name": "",
          "type": "string"
        }
      ],
      "stateMutability": "view",
      "type": "function"
    },
    {
      "inputs": [],
      "name": "totalSupply",
      "outputs": [
        {
          "internalType": "uint256",
          "name": "",
          "type": "uint256"
        }
      ],
      "stateMutability": "view",
      "type": "function"
    },
    {
      "inputs": [
        {
          "internalType": "bytes32",
          "name": "_assetHash",
          "type": "bytes32"
        }
      ],
      "name": "totalSupplyAssetForRewards",
      "outputs": [
        {
          "internalType": "uint256",
          "name": "",
          "type": "uint256"
        }
      ],
      "stateMutability": "view",
      "type": "function"
    },
    {
      "inputs": [
        {
          "internalType": "address",
          "name": "from",
          "type": "address"
        },
        {
          "internalType": "address",
          "name": "to",
          "type": "address"
        },
        {
          "internalType": "uint256",
          "name": "tokenId",
          "type": "uint256"
        }
      ],
      "name": "transferFrom",
      "outputs": [],
      "stateMutability": "nonpayable",
      "type": "function"
    },
    {
      "inputs": [
        {
          "internalType": "address",
          "name": "newOwner",
          "type": "address"
        }
      ],
      "name": "transferOwnership",
      "outputs": [],
      "stateMutability": "nonpayable",
      "type": "function"
    },
    {
      "inputs": [
        {
          "internalType": "uint256",
          "name": "tokenId",
          "type": "uint256"
        },
        {
          "internalType": "bytes32",
          "name": "assetHash",
          "type": "bytes32"
        }
      ],
      "name": "userRewardPerTokenPaid",
      "outputs": [
        {
          "internalType": "uint256",
          "name": "rewardPerTokenStored",
          "type": "uint256"
        }
      ],
      "stateMutability": "view",
      "type": "function"
    },
    {
      "inputs": [],
      "name": "weth",
      "outputs": [
        {
          "internalType": "contract IWETH",
          "name": "",
          "type": "address"
        }
      ],
      "stateMutability": "view",
      "type": "function"
    },
    {
      "inputs": [
        {
          "components": [
            {
              "internalType": "address",
              "name": "asset",
              "type": "address"
            },
            {
              "internalType": "uint256",
              "name": "amount",
              "type": "uint256"
            },
            {
              "internalType": "uint256",
              "name": "tokenId",
              "type": "uint256"
            },
            {
              "components": [
                {
                  "internalType": "bytes",
                  "name": "hookData",
                  "type": "bytes"
                },
                {
                  "internalType": "bytes",
                  "name": "interestRateData",
                  "type": "bytes"
                }
              ],
              "internalType": "struct DataTypes.ExtraData",
              "name": "data",
              "type": "tuple"
            }
          ],
          "internalType": "struct INFTPositionManager.AssetOperationParams",
          "name": "params",
          "type": "tuple"
        }
      ],
      "name": "withdraw",
      "outputs": [],
      "stateMutability": "nonpayable",
      "type": "function"
    },
    {
      "inputs": [],
      "name": "wrapEther",
      "outputs": [],
      "stateMutability": "payable",
      "type": "function"
    }
  ],
  "transactionHash": "0xee689760e3d1ed23a2389dcb465e0cc1ca74a2a3b4cc7071ce159925d6bbcd1e",
  "args": [],
  "numDeployments": 1,
  "solcInputHash": "38122f867a691c794c7562349c814654",
  "bytecode": "0x60806040523480156200001157600080fd5b506200001c62000022565b620000e3565b600054610100900460ff16156200008f5760405162461bcd60e51b815260206004820152602760248201527f496e697469616c697a61626c653a20636f6e747261637420697320696e697469604482015266616c697a696e6760c81b606482015260840160405180910390fd5b60005460ff90811614620000e1576000805460ff191660ff9081179091556040519081527f7f26b83ff96e1f2b6a682f133852f6798a09c465da95921460cefb38474024989060200160405180910390a15b565b61477980620000f36000396000f3fe6080604052600436106102ae5760003560e01c80636f1296d211610175578063a65b1381116100dc578063d25c3e9111610095578063eb02c3011161006f578063eb02c30114610956578063ee1cd5fd14610984578063f2fde38b146109a4578063f8c8765e146109c457600080fd5b8063d25c3e91146108a6578063e6fd5005146108df578063e985e9c51461090d57600080fd5b8063a65b1381146107cc578063ac9650d8146107f9578063b88d4fde14610826578063c061435714610846578063c87b56dd14610866578063d1af0c7d1461088657600080fd5b80638da5cb5b1161012e5780638da5cb5b146106bc57806395d89b41146106da578063995121b5146106ef57806399fbab881461071c578063a22cb4651461077e578063a2b1ae3f1461079e57600080fd5b80636f1296d21461061f57806370a0823114610627578063715018a6146106475780637d8741f11461065c5780637e39f7571461067c57806385084e161461069c57600080fd5b806333c52a3f1161021957806342966c68116101d257806342966c68146105465780634f6ccce7146105665780636352211e1461058657806367838c24146105a65780636d165502146105c65780636dbcb7f4146105ff57600080fd5b806333c52a3f14610475578063386a95251461049557806339d1ad41146104ac57806339dbfbc1146104cc5780633fc8cef31461050557806342842e0e1461052657600080fd5b8063136b0da61161026b578063136b0da6146103b257806313b4132f146103d257806318160ddd1461040057806323b872dd146104155780632f745c591461043557806332f12f801461045557600080fd5b806301ffc9a7146102b357806305da2082146102e857806306fdde0314610316578063081812fc14610338578063095ea7b3146103705780630d1aae3514610392575b600080fd5b3480156102bf57600080fd5b506102d36102ce3660046139cc565b6109e4565b60405190151581526020015b60405180910390f35b3480156102f457600080fd5b50610308610303366004613a0c565b610a0f565b6040519081526020016102df565b34801561032257600080fd5b5061032b610a59565b6040516102df9190613aa7565b34801561034457600080fd5b50610358610353366004613aba565b610aeb565b6040516001600160a01b0390911681526020016102df565b34801561037c57600080fd5b5061039061038b366004613ad3565b610b89565b005b34801561039e57600080fd5b506103086103ad366004613aff565b610c9e565b3480156103be57600080fd5b506103086103cd366004613aba565b610d2b565b3480156103de57600080fd5b506103086103ed366004613aba565b6101016020526000908152604090205481565b34801561040c57600080fd5b50609954610308565b34801561042157600080fd5b50610390610430366004613b21565b610d4b565b34801561044157600080fd5b50610308610450366004613ad3565b610d7c565b34801561046157600080fd5b50610390610470366004613ccf565b610e12565b34801561048157600080fd5b50610308610490366004613aba565b610fab565b3480156104a157600080fd5b506103086101075481565b3480156104b857600080fd5b506103906104c7366004613ccf565b61103b565b3480156104d857600080fd5b506103086104e7366004613aff565b60009182526101036020908152604080842092845291905290205490565b34801561051157600080fd5b5061013d54610358906001600160a01b031681565b34801561053257600080fd5b50610390610541366004613b21565b611345565b34801561055257600080fd5b50610390610561366004613aba565b611360565b34801561057257600080fd5b50610308610581366004613aba565b6113e8565b34801561059257600080fd5b506103586105a1366004613aba565b61147b565b3480156105b257600080fd5b506103906105c1366004613aff565b6114db565b3480156105d257600080fd5b506103086105e1366004613aff565b61010460209081526000928352604080842090915290825290205481565b34801561060b57600080fd5b5061039061061a366004613ccf565b6115fe565b610390611785565b34801561063357600080fd5b50610308610642366004613d7a565b6117f1565b34801561065357600080fd5b50610390611877565b34801561066857600080fd5b50610308610677366004613aba565b61188b565b34801561068857600080fd5b50610308610697366004613d97565b6118bd565b3480156106a857600080fd5b506103086106b7366004613ad3565b611aa5565b3480156106c857600080fd5b5060c9546001600160a01b0316610358565b3480156106e657600080fd5b5061032b611b92565b3480156106fb57600080fd5b5061030861070a366004613aba565b60ff6020526000908152604090205481565b34801561072857600080fd5b5061075e610737366004613aba565b61013c60205260009081526040902080546001909101546001600160a01b03918216911682565b604080516001600160a01b039384168152929091166020830152016102df565b34801561078a57600080fd5b50610390610799366004613dd1565b611ba1565b3480156107aa57600080fd5b506103086107b9366004613aba565b6101006020526000908152604090205481565b3480156107d857600080fd5b506103086107e7366004613aba565b600090815260fe602052604090205490565b34801561080557600080fd5b50610819610814366004613e0a565b611bb0565b6040516102df9190613e7e565b34801561083257600080fd5b50610390610841366004613ee0565b611ca2565b34801561085257600080fd5b50610390610861366004613f4b565b611cd4565b34801561087257600080fd5b5061032b610881366004613aba565b611da8565b34801561089257600080fd5b5060fb54610358906001600160a01b031681565b3480156108b257600080fd5b506103086108c1366004613aff565b61010560209081526000928352604080842090915290825290205481565b3480156108eb57600080fd5b506103086108fa366004613aba565b6101026020526000908152604090205481565b34801561091957600080fd5b506102d3610928366004613ff3565b6001600160a01b039182166000908152606a6020908152604080832093909416825291909152205460ff1690565b34801561096257600080fd5b50610976610971366004613aba565b611e1b565b6040516102df929190614021565b34801561099057600080fd5b5061039061099f36600461408d565b6120cb565b3480156109b057600080fd5b506103906109bf366004613d7a565b61234a565b3480156109d057600080fd5b506103906109df3660046140e0565b6123c0565b60006001600160e01b0319821663780e9d6360e01b1480610a095750610a0982612573565b92915050565b604080516001600160a01b03808616602083015284169181019190915281151560608201526000906080016040516020818303038152906040528051906020012090509392505050565b606060658054610a6890614131565b80601f0160208091040260200160405190810160405280929190818152602001828054610a9490614131565b8015610ae15780601f10610ab657610100808354040283529160200191610ae1565b820191906000526020600020905b815481529060010190602001808311610ac457829003601f168201915b5050505050905090565b6000818152606760205260408120546001600160a01b0316610b695760405162461bcd60e51b815260206004820152602c60248201527f4552433732313a20617070726f76656420717565727920666f72206e6f6e657860448201526b34b9ba32b73a103a37b5b2b760a11b60648201526084015b60405180910390fd5b50600090815261013c60205260409020600101546001600160a01b031690565b6000610b948261147b565b9050806001600160a01b0316836001600160a01b031603610c015760405162461bcd60e51b815260206004820152602160248201527f4552433732313a20617070726f76616c20746f2063757272656e74206f776e656044820152603960f91b6064820152608401610b60565b336001600160a01b0382161480610c1d5750610c1d8133610928565b610c8f5760405162461bcd60e51b815260206004820152603d60248201527f4552433732313a20617070726f76652063616c6c6572206973206e6f7420746f60448201527f6b656e206f776e6572206f7220617070726f76656420666f7220616c6c0000006064820152608401610b60565b610c9983836125c3565b505050565b6000828152610105602090815260408083208484528252808320548584526101048352818420858552909252822054610d249190610d1e90670de0b6b3a764000090610d1890610cf790610cf189610fab565b90612635565b6000898152610103602090815260408083208b845290915290205490612641565b9061264d565b90612659565b9392505050565b61010754600082815261010260205260408120549091610a099190612641565b610d553382612665565b610d715760405162461bcd60e51b8152600401610b6090614165565b610c998383836126e4565b6000610d87836117f1565b8210610de95760405162461bcd60e51b815260206004820152602b60248201527f455243373231456e756d657261626c653a206f776e657220696e646578206f7560448201526a74206f6620626f756e647360a81b6064820152608401610b60565b506001600160a01b03919091166000908152609760209081526040808320938352929052205490565b8060400151610e213382612665565b610e3e57604051632d20000f60e01b815260040160405180910390fd5b81516001600160a01b0316610e66576040516342bcdf7f60e11b815260040160405180910390fd5b8160200151600003610e8b5760405163273e150360e21b815260040160405180910390fd5b60408083018051600090815261013c6020908152908390205485519186015192516060870151945163526666f160e01b81526001600160a01b03909216949293859363526666f193610ee49387939290916004016141b2565b60408051808303816000875af1158015610f02573d6000803e3d6000fd5b505050506040513d601f19601f82011682018060405250810190610f269190614211565b506020840151610f42906001600160a01b038316903390612855565b836020015184600001516001600160a01b03167fdf273cb619d95419a9cd0ec88123a0538c85064229baa6363788f743fff90deb8660400151604051610f8a91815260200190565b60405180910390a3610fa582856000015186604001516128b8565b50505050565b600081815260fe60205260408120548103610fd457506000908152610101602052604090205490565b600082815260fe602090815260408083205461010283528184205460ff909352922054610a0992611025929091610d1891670de0b6b3a76400009161101f91908290610cf18b61188b565b90612641565b6000848152610101602052604090205490612659565b80516001600160a01b0316611063576040516342bcdf7f60e11b815260040160405180910390fd5b80602001516000036110885760405163273e150360e21b815260040160405180910390fd5b604080820151600090815261013c602090815290829020825180840190935280546001600160a01b039081168085526001909201548116848401528451928501519192916110dc91831690339030906128d2565b825160208501516110f7916001600160a01b038416916128f3565b83516040808601519051632c626df160e21b81526000926001600160a01b0386169263b189b7c49261112e92913091600401614243565b602060405180830381865afa15801561114b573d6000803e3d6000fd5b505050506040513d601f19601f8201168201806040525081019061116f9190614267565b90506000836001600160a01b0316633c5d0ff28760000151886020015189604001518a606001516040518563ffffffff1660e01b81526004016111b594939291906141b2565b60408051808303816000875af11580156111d3573d6000803e3d6000fd5b505050506040513d601f19601f820116820180604052508101906111f79190614211565b86516040808901519051632c626df160e21b81529293506000926001600160a01b0388169263b189b7c49261123192309190600401614243565b602060405180830381865afa15801561124e573d6000803e3d6000fd5b505050506040513d601f19601f820116820180604052508101906112729190614267565b60208301519091506112848285614296565b146112a257604051635269286b60e01b815260040160405180910390fd5b801580156112b7575086602001518260200151105b156112e5576112e533836020015189602001516112d49190614296565b6001600160a01b0387169190612855565b6112f88588600001518960400151612982565b8660400151876020015188600001516001600160a01b03167f77c6871227e5d2dec8dadd5354f78453203e22e669cd0ec4c19d9a8c5edb31d060405160405180910390a450505050505050565b610c9983838360405180602001604052806000815250611ca2565b8061136b3382612665565b61138857604051632d20000f60e01b815260040160405180910390fd5b600061139383611e1b565b915050806113b457604051636c4e633b60e11b815260040160405180910390fd5b600083815261013c6020526040902080546001600160a01b03199081168255600190910180549091169055610c9983612990565b60006113f360995490565b82106114565760405162461bcd60e51b815260206004820152602c60248201527f455243373231456e756d657261626c653a20676c6f62616c20696e646578206f60448201526b7574206f6620626f756e647360a01b6064820152608401610b60565b60998281548110611469576114696142a9565b90600052602060002001549050919050565b6000818152606760205260408120546001600160a01b031680610a095760405162461bcd60e51b8152602060048201526018602482015277115490cdcc8c4e881a5b9d985b1a59081d1bdad95b88125160421b6044820152606401610b60565b6114e58282612a33565b6000828152610105602090815260408083208484529091529020548015610c995760008381526101056020908152604080832085845290915281205560fb546001600160a01b031663a9059cbb61153b8561147b565b6040516001600160e01b031960e084901b1681526001600160a01b039091166004820152602481018490526044016020604051808303816000875af1158015611588573d6000803e3d6000fd5b505050506040513d601f19601f820116820180604052508101906115ac91906142bf565b506115b68361147b565b6001600160a01b0316837f04492fab062412e7e4e5f46c9e919f1640652946a5e163ad6e6c1c03d87954d2836040516115f191815260200190565b60405180910390a3505050565b806040015161160d3382612665565b61162a57604051632d20000f60e01b815260040160405180910390fd5b81516001600160a01b0316611652576040516342bcdf7f60e11b815260040160405180910390fd5b81602001516000036116775760405163273e150360e21b815260040160405180910390fd5b60408083018051600090815261013c60209081529083902054855191860151925160608701519451633aa7189760e11b81526001600160a01b03909216949293859363754e312e936116d09387939290916004016141b2565b60408051808303816000875af11580156116ee573d6000803e3d6000fd5b505050506040513d601f19601f820116820180604052508101906117129190614211565b50602084015161172e906001600160a01b038316903390612855565b8360400151846020015185600001516001600160a01b03167fafab7fde92fcd9937a096c80b493e9b6ed4a30553631901a9df416810da3246460405160405180910390a4610fa58285600001518660400151612982565b61013d60009054906101000a90046001600160a01b03166001600160a01b031663d0e30db0346040518263ffffffff1660e01b81526004016000604051808303818588803b1580156117d657600080fd5b505af11580156117ea573d6000803e3d6000fd5b5050505050565b60006001600160a01b03821661185b5760405162461bcd60e51b815260206004820152602960248201527f4552433732313a2061646472657373207a65726f206973206e6f7420612076616044820152683634b21037bbb732b960b91b6064820152608401610b60565b506001600160a01b031660009081526068602052604090205490565b61187f612ab2565b6118896000612b0c565b565b6000818152610100602052604081205442106118b65760008281526101006020526040902054610a09565b4292915050565b60006118cf6040830160208401613d7a565b61013a54604051635b16ebb760e01b81526001600160a01b03838116600483015290911690635b16ebb790602401602060405180830381865afa15801561191a573d6000803e3d6000fd5b505050506040513d601f19601f8201168201806040525081019061193e91906142bf565b61195b57604051636f61f64160e01b815260040160405180910390fd5b600061196a6020850185613d7a565b6001600160a01b031603611991576040516342bcdf7f60e11b815260040160405180910390fd5b82604001356000036119b65760405163273e150360e21b815260040160405180910390fd5b61013b80549250829060006119ca836142dc565b909155506119e090506040840160208501613d7a565b600083815261013c602090815260409182902080546001600160a01b03949094166001600160a01b03199485161781556001018054909316909255805160a08101909152611a95918190611a3690870187613d7a565b6001600160a01b03168152602001856020016020810190611a579190613d7a565b6001600160a01b0316815260200185604001358152602001848152602001858060600190611a8591906142f5565b611a8e90614315565b9052612b5e565b611a9f3383612c81565b50919050565b6000806064611ab5846014614321565b611abf9190614338565b60fc546040516309ab24eb60e41b81526001600160a01b03878116600483015292935060009290911690639ab24eb090602401602060405180830381865afa158015611b0f573d6000803e3d6000fd5b505050506040513d601f19601f82011682018060405250810190611b339190614267565b905060006064610106548387611b499190614321565b611b54906050614321565b611b5e9190614338565b611b689190614338565b90506000611b76828561435a565b9050858111611b855780611b87565b855b979650505050505050565b606060668054610a6890614131565b611bac338383612e1a565b5050565b604080516000815260208101909152606090826001600160401b03811115611bda57611bda613b62565b604051908082528060200260200182016040528015611c0d57816020015b6060815260200190600190039081611bf85790505b50915060005b83811015611c9a57611c6a30868684818110611c3157611c316142a9565b9050602002810190611c43919061436d565b85604051602001611c56939291906143ba565b604051602081830303815290604052612ee0565b838281518110611c7c57611c7c6142a9565b60200260200101819052508080611c92906142dc565b915050611c13565b505092915050565b611cac3383612665565b611cc85760405162461bcd60e51b8152600401610b6090614165565b610fa584848484612f05565b80516001600160a01b0316611cfc576040516342bcdf7f60e11b815260040160405180910390fd5b8060400151600003611d215760405163273e150360e21b815260040160405180910390fd5b8060600151600003611d4357600161013b54611d3d9190614296565b60608201525b611d508160600151612f38565b611da56040518060a0016040528083600001516001600160a01b0316815260200183602001516001600160a01b0316815260200183604001518152602001836060015181526020018360800151815250612b5e565b50565b6060611db382612f5f565b6000611dca60408051602081019091526000815290565b90506000815111611dea5760405180602001604052806000815250610d24565b80611df484612fbe565b604051602001611e059291906143e1565b6040516020818303038152906040529392505050565b600081815261013c602090815260408083208151808301835281546001600160a01b03908116808352600190930154169381019390935281516334651b6f60e21b8152915160609493928491839163d1946dbc91600480830192869291908290030181865afa158015611e92573d6000803e3d6000fd5b505050506040513d6000823e601f3d908101601f19168201604052611eba9190810190614410565b805160019550909150806001600160401b03811115611edb57611edb613b62565b604051908082528060200260200182016040528015611f3957816020015b611f26604051806060016040528060006001600160a01b0316815260200160008152602001600081525090565b815260200190600190039081611ef95790505b50955060005b818110156120c1576000838281518110611f5b57611f5b6142a9565b602002602001015190506000856001600160a01b03166361e5f35483308d6040518463ffffffff1660e01b8152600401611f9793929190614243565b602060405180830381865afa158015611fb4573d6000803e3d6000fd5b505050506040513d601f19601f82011682018060405250810190611fd89190614267565b898481518110611fea57611fea6142a9565b60200260200101516020018181525090506000866001600160a01b031663b189b7c484308e6040518463ffffffff1660e01b815260040161202d93929190614243565b602060405180830381865afa15801561204a573d6000803e3d6000fd5b505050506040513d601f19601f8201168201806040525081019061206e9190614267565b8a8581518110612080576120806142a9565b602002602001015160400181815250905060008211806120a05750600081115b80156120a95750885b156120b357600098505b836001019350505050611f3f565b5050505050915091565b6120d3612ab2565b60fb546040516323b872dd60e01b81526001600160a01b03909116906323b872dd9061210790339030908990600401614243565b6020604051808303816000875af1158015612126573d6000803e3d6000fd5b505050506040513d601f19601f8201168201806040525081019061214a91906142bf565b506000612158848484610a0f565b9050612165600082612a33565b60008181526101006020526040902054421061219f576101075461218a90869061264d565b60008281526101026020526040902055612200565b600081815261010060205260408120546121b99042612635565b60008381526101026020526040812054919250906121d8908390612641565b610107549091506121ed90610d188984612659565b6000848152610102602052604090205550505b60fb546040516370a0823160e01b81523060048201526000916001600160a01b0316906370a0823190602401602060405180830381865afa158015612249573d6000803e3d6000fd5b505050506040513d601f19601f8201168201806040525081019061226d9190614267565b9050612285610107548261264d90919063ffffffff16565b6000838152610102602052604090205411156122e35760405162461bcd60e51b815260206004820152601860248201527f50726f76696465642072657761726420746f6f206869676800000000000000006044820152606401610b60565b600082815260ff602052604090204290819055610107546123049190612659565b60008381526101006020526040808220929092559051879184917fea7c7e575572148397ff12fda8fd9ceece9a89735ca952bbbabf5893b8da6bcd9190a3505050505050565b612352612ab2565b6001600160a01b0381166123b75760405162461bcd60e51b815260206004820152602660248201527f4f776e61626c653a206e6577206f776e657220697320746865207a65726f206160448201526564647265737360d01b6064820152608401610b60565b611da581612b0c565b600054610100900460ff16158080156123e05750600054600160ff909116105b806123fa5750303b1580156123fa575060005460ff166001145b61245d5760405162461bcd60e51b815260206004820152602e60248201527f496e697469616c697a61626c653a20636f6e747261637420697320616c72656160448201526d191e481a5b9a5d1a585b1a5e995960921b6064820152608401610b60565b6000805460ff191660011790558015612480576000805461ff0019166101001790555b61013a80546001600160a01b0319166001600160a01b0387161790556124a4613050565b6124fd604051806040016040528060158152602001742d32b937a632b7321027b732902837b9b4ba34b7b760591b8152506040518060400160405280600a8152602001695a4c2d504f532d4f4e4560b01b815250613077565b6125056130a8565b6125186302faf0808562127500856130d7565b600161013b5561252783612b0c565b80156117ea576000805461ff0019169055604051600181527f7f26b83ff96e1f2b6a682f133852f6798a09c465da95921460cefb38474024989060200160405180910390a15050505050565b60006001600160e01b031982166380ac58cd60e01b14806125a457506001600160e01b03198216635b5e139f60e01b145b80610a0957506301ffc9a760e01b6001600160e01b0319831614610a09565b600081815261013c6020526040902060010180546001600160a01b0319166001600160a01b03841690811790915581906125fc8261147b565b6001600160a01b03167f8c5be1e5ebec7d5bd14f71427d1e84f3dd0314c0f7b2291e5b200ac8c7c3b92560405160405180910390a45050565b6000610d248284614296565b6000610d248284614321565b6000610d248284614338565b6000610d24828461435a565b6000806126718361147b565b9050806001600160a01b0316846001600160a01b031614806126b857506001600160a01b038082166000908152606a602090815260408083209388168352929052205460ff165b806126dc5750836001600160a01b03166126d184610aeb565b6001600160a01b0316145b949350505050565b826001600160a01b03166126f78261147b565b6001600160a01b03161461271d5760405162461bcd60e51b8152600401610b60906144b5565b6001600160a01b03821661277f5760405162461bcd60e51b8152602060048201526024808201527f4552433732313a207472616e7366657220746f20746865207a65726f206164646044820152637265737360e01b6064820152608401610b60565b61278c838383600161313a565b826001600160a01b031661279f8261147b565b6001600160a01b0316146127c55760405162461bcd60e51b8152600401610b60906144b5565b600081815260696020908152604080832080546001600160a01b03199081169091556001600160a01b0387811680865260688552838620805460001901905590871680865283862080546001019055868652606790945282852080549092168417909155905184937fddf252ad1be2c89b69c2b068fc378daa952ba7f163c4a11628f55a4df523b3ef91a4505050565b6040516001600160a01b038316602482015260448101829052610c9990849063a9059cbb60e01b906064015b60408051601f198184030181529190526020810180516001600160e01b03166001600160e01b031990931692909217909152613267565b60006128c684846000610a0f565b9050610fa58282612a33565b610fa5846323b872dd60e01b85858560405160240161288193929190614243565b604080516001600160a01b038416602482015260448082018490528251808303909101815260649091019091526020810180516001600160e01b031663095ea7b360e01b179052612944848261333c565b610fa5576040516001600160a01b03841660248201526000604482015261297890859063095ea7b360e01b90606401612881565b610fa58482613267565b60006128c684846001610a0f565b600061299b8261147b565b90506129ab81600084600161313a565b6129b48261147b565b600083815260696020908152604080832080546001600160a01b03199081169091556001600160a01b0385168085526068845282852080546000190190558785526067909352818420805490911690555192935084927fddf252ad1be2c89b69c2b068fc378daa952ba7f163c4a11628f55a4df523b3ef908390a45050565b612a3c81610fab565b60008281526101016020526040902055612a558161188b565b600082815260ff60205260409020558115611bac57612a748282610c9e565b600083815261010560209081526040808320858452825280832093909355610101815282822054948252610104815282822093825292909252902055565b60c9546001600160a01b031633146118895760405162461bcd60e51b815260206004820181905260248201527f4f776e61626c653a2063616c6c6572206973206e6f7420746865206f776e65726044820152606401610b60565b60c980546001600160a01b038381166001600160a01b0319831681179093556040519116919082907f8be0079c531659141344cd1fd0a4f28419497f9722a3daafe3b4186f6b6457e090600090a35050565b60408101518151612b7e916001600160a01b0390911690339030906128d2565b602081015160408201518251612b9f926001600160a01b03909116916128f3565b6020810151815160408084015160608501516080860151925163d466d68f60e01b81526001600160a01b0386169463d466d68f94612be394919391926004016141b2565b60408051808303816000875af1158015612c01573d6000803e3d6000fd5b505050506040513d601f19601f82011682018060405250810190612c259190614211565b508160400151826060015183600001516001600160a01b03167f10b5ecdcd8987bf6a244bc36c939cce51024c18c0d371cb8e3e4a2bca78ba17260405160405180910390a4611bac8260200151836000015184606001516128b8565b6001600160a01b038216612cd75760405162461bcd60e51b815260206004820181905260248201527f4552433732313a206d696e7420746f20746865207a65726f20616464726573736044820152606401610b60565b6000818152606760205260409020546001600160a01b031615612d3c5760405162461bcd60e51b815260206004820152601c60248201527f4552433732313a20746f6b656e20616c7265616479206d696e746564000000006044820152606401610b60565b612d4a60008383600161313a565b6000818152606760205260409020546001600160a01b031615612daf5760405162461bcd60e51b815260206004820152601c60248201527f4552433732313a20746f6b656e20616c7265616479206d696e746564000000006044820152606401610b60565b6001600160a01b038216600081815260686020908152604080832080546001019055848352606790915280822080546001600160a01b0319168417905551839291907fddf252ad1be2c89b69c2b068fc378daa952ba7f163c4a11628f55a4df523b3ef908290a45050565b816001600160a01b0316836001600160a01b031603612e7b5760405162461bcd60e51b815260206004820152601960248201527f4552433732313a20617070726f766520746f2063616c6c6572000000000000006044820152606401610b60565b6001600160a01b038381166000818152606a6020908152604080832094871680845294825291829020805460ff191686151590811790915591519182527f17307eab39ab6107e8899845ad3d59bd9653f200f220920489ca2b5937696c3191016115f1565b6060610d24838360405180606001604052806027815260200161471d602791396133e3565b612f108484846126e4565b612f1c8484848461345b565b610fa55760405162461bcd60e51b8152600401610b60906144fa565b612f423382612665565b611da557604051632d20000f60e01b815260040160405180910390fd5b6000818152606760205260409020546001600160a01b0316611da55760405162461bcd60e51b8152602060048201526018602482015277115490cdcc8c4e881a5b9d985b1a59081d1bdad95b88125160421b6044820152606401610b60565b60606000612fcb8361355c565b60010190506000816001600160401b03811115612fea57612fea613b62565b6040519080825280601f01601f191660200182016040528015613014576020820181803683370190505b5090508181016020015b600019016f181899199a1a9b1b9c1cb0b131b232b360811b600a86061a8153600a850494508461301e57509392505050565b600054610100900460ff166118895760405162461bcd60e51b8152600401610b609061454c565b600054610100900460ff1661309e5760405162461bcd60e51b8152600401610b609061454c565b611bac8282613634565b600054610100900460ff166130cf5760405162461bcd60e51b8152600401610b609061454c565b611889613674565b600054610100900460ff166130fe5760405162461bcd60e51b8152600401610b609061454c565b6101069390935560fc80546001600160a01b039384166001600160a01b03199182161790915560fb805494909316931692909217905561010755565b60018111156131a95760405162461bcd60e51b815260206004820152603560248201527f455243373231456e756d657261626c653a20636f6e7365637574697665207472604482015274185b9cd9995c9cc81b9bdd081cdd5c1c1bdc9d1959605a1b6064820152608401610b60565b816001600160a01b0385166132055761320081609980546000838152609a60205260408120829055600182018355919091527f72a152ddfb8e864297c917af52ea6c1c68aead0fee1a62673fcc7e0c94979d000155565b613228565b836001600160a01b0316856001600160a01b0316146132285761322885826136a4565b6001600160a01b0384166132445761323f81613741565b6117ea565b846001600160a01b0316846001600160a01b0316146117ea576117ea84826137f0565b60006132bc826040518060400160405280602081526020017f5361666545524332303a206c6f772d6c6576656c2063616c6c206661696c6564815250856001600160a01b03166138349092919063ffffffff16565b90508051600014806132dd5750808060200190518101906132dd91906142bf565b610c995760405162461bcd60e51b815260206004820152602a60248201527f5361666545524332303a204552433230206f7065726174696f6e20646964206e6044820152691bdd081cdd58d8d9595960b21b6064820152608401610b60565b6000806000846001600160a01b0316846040516133599190614597565b6000604051808303816000865af19150503d8060008114613396576040519150601f19603f3d011682016040523d82523d6000602084013e61339b565b606091505b50915091508180156133c55750805115806133c55750808060200190518101906133c591906142bf565b80156133da57506001600160a01b0385163b15155b95945050505050565b6060600080856001600160a01b0316856040516134009190614597565b600060405180830381855af49150503d806000811461343b576040519150601f19603f3d011682016040523d82523d6000602084013e613440565b606091505b509150915061345186838387613843565b9695505050505050565b60006001600160a01b0384163b1561355157604051630a85bd0160e11b81526001600160a01b0385169063150b7a029061349f9033908990889088906004016145a9565b6020604051808303816000875af19250505080156134da575060408051601f3d908101601f191682019092526134d7918101906145dc565b60015b613537573d808015613508576040519150601f19603f3d011682016040523d82523d6000602084013e61350d565b606091505b50805160000361352f5760405162461bcd60e51b8152600401610b60906144fa565b805181602001fd5b6001600160e01b031916630a85bd0160e11b1490506126dc565b506001949350505050565b60008072184f03e93ff9f4daa797ed6e38ed64bf6a1f0160401b831061359b5772184f03e93ff9f4daa797ed6e38ed64bf6a1f0160401b830492506040015b6d04ee2d6d415b85acef810000000083106135c7576d04ee2d6d415b85acef8100000000830492506020015b662386f26fc1000083106135e557662386f26fc10000830492506010015b6305f5e10083106135fd576305f5e100830492506008015b612710831061361157612710830492506004015b60648310613623576064830492506002015b600a8310610a095760010192915050565b600054610100900460ff1661365b5760405162461bcd60e51b8152600401610b609061454c565b60656136678382614647565b506066610c998282614647565b600054610100900460ff1661369b5760405162461bcd60e51b8152600401610b609061454c565b61188933612b0c565b600060016136b1846117f1565b6136bb9190614296565b60008381526098602052604090205490915080821461370e576001600160a01b03841660009081526097602090815260408083208584528252808320548484528184208190558352609890915290208190555b5060009182526098602090815260408084208490556001600160a01b039094168352609781528383209183525290812055565b60995460009061375390600190614296565b6000838152609a60205260408120546099805493945090928490811061377b5761377b6142a9565b90600052602060002001549050806099838154811061379c5761379c6142a9565b6000918252602080832090910192909255828152609a909152604080822084905585825281205560998054806137d4576137d4614706565b6001900381819060005260206000200160009055905550505050565b60006137fb836117f1565b6001600160a01b039093166000908152609760209081526040808320868452825280832085905593825260989052919091209190915550565b60606126dc84846000856138bc565b606083156138b25782516000036138ab576001600160a01b0385163b6138ab5760405162461bcd60e51b815260206004820152601d60248201527f416464726573733a2063616c6c20746f206e6f6e2d636f6e74726163740000006044820152606401610b60565b50816126dc565b6126dc838361398c565b60608247101561391d5760405162461bcd60e51b815260206004820152602660248201527f416464726573733a20696e73756666696369656e742062616c616e636520666f6044820152651c8818d85b1b60d21b6064820152608401610b60565b600080866001600160a01b031685876040516139399190614597565b60006040518083038185875af1925050503d8060008114613976576040519150601f19603f3d011682016040523d82523d6000602084013e61397b565b606091505b5091509150611b8787838387613843565b81511561399c5781518083602001fd5b8060405162461bcd60e51b8152600401610b609190613aa7565b6001600160e01b031981168114611da557600080fd5b6000602082840312156139de57600080fd5b8135610d24816139b6565b6001600160a01b0381168114611da557600080fd5b8015158114611da557600080fd5b600080600060608486031215613a2157600080fd5b8335613a2c816139e9565b92506020840135613a3c816139e9565b91506040840135613a4c816139fe565b809150509250925092565b60005b83811015613a72578181015183820152602001613a5a565b50506000910152565b60008151808452613a93816020860160208601613a57565b601f01601f19169290920160200192915050565b602081526000610d246020830184613a7b565b600060208284031215613acc57600080fd5b5035919050565b60008060408385031215613ae657600080fd5b8235613af1816139e9565b946020939093013593505050565b60008060408385031215613b1257600080fd5b50508035926020909101359150565b600080600060608486031215613b3657600080fd5b8335613b41816139e9565b92506020840135613b51816139e9565b929592945050506040919091013590565b634e487b7160e01b600052604160045260246000fd5b604080519081016001600160401b0381118282101715613b9a57613b9a613b62565b60405290565b60405160a081016001600160401b0381118282101715613b9a57613b9a613b62565b604051601f8201601f191681016001600160401b0381118282101715613bea57613bea613b62565b604052919050565b600082601f830112613c0357600080fd5b81356001600160401b03811115613c1c57613c1c613b62565b613c2f601f8201601f1916602001613bc2565b818152846020838601011115613c4457600080fd5b816020850160208301376000918101602001919091529392505050565b600060408284031215613c7357600080fd5b613c7b613b78565b905081356001600160401b0380821115613c9457600080fd5b613ca085838601613bf2565b83526020840135915080821115613cb657600080fd5b50613cc384828501613bf2565b60208301525092915050565b600060208284031215613ce157600080fd5b81356001600160401b0380821115613cf857600080fd5b9083019060808286031215613d0c57600080fd5b604051608081018181108382111715613d2757613d27613b62565b6040528235613d35816139e9565b808252506020830135602082015260408301356040820152606083013582811115613d5f57600080fd5b613d6b87828601613c61565b60608301525095945050505050565b600060208284031215613d8c57600080fd5b8135610d24816139e9565b600060208284031215613da957600080fd5b81356001600160401b03811115613dbf57600080fd5b820160808185031215610d2457600080fd5b60008060408385031215613de457600080fd5b8235613def816139e9565b91506020830135613dff816139fe565b809150509250929050565b60008060208385031215613e1d57600080fd5b82356001600160401b0380821115613e3457600080fd5b818501915085601f830112613e4857600080fd5b813581811115613e5757600080fd5b8660208260051b8501011115613e6c57600080fd5b60209290920196919550909350505050565b6000602080830181845280855180835260408601915060408160051b870101925083870160005b82811015613ed357603f19888603018452613ec1858351613a7b565b94509285019290850190600101613ea5565b5092979650505050505050565b60008060008060808587031215613ef657600080fd5b8435613f01816139e9565b93506020850135613f11816139e9565b92506040850135915060608501356001600160401b03811115613f3357600080fd5b613f3f87828801613bf2565b91505092959194509250565b600060208284031215613f5d57600080fd5b81356001600160401b0380821115613f7457600080fd5b9083019060a08286031215613f8857600080fd5b613f90613ba0565b8235613f9b816139e9565b81526020830135613fab816139e9565b806020830152506040830135604082015260608301356060820152608083013582811115613fd857600080fd5b613fe487828601613c61565b60808301525095945050505050565b6000806040838503121561400657600080fd5b8235614011816139e9565b91506020830135613dff816139e9565b6040808252835182820181905260009190606090818501906020808901865b8381101561407657815180516001600160a01b031686528381015184870152870151878601529385019390820190600101614040565b505096151595909601949094525091949350505050565b600080600080608085870312156140a357600080fd5b8435935060208501356140b5816139e9565b925060408501356140c5816139e9565b915060608501356140d5816139fe565b939692955090935050565b600080600080608085870312156140f657600080fd5b8435614101816139e9565b93506020850135614111816139e9565b92506040850135614121816139e9565b915060608501356140d5816139e9565b600181811c9082168061414557607f821691505b602082108103611a9f57634e487b7160e01b600052602260045260246000fd5b6020808252602d908201527f4552433732313a2063616c6c6572206973206e6f7420746f6b656e206f776e6560408201526c1c881bdc88185c1c1c9bdd9959609a1b606082015260800190565b60018060a01b03851681528360208201528260408201526080606082015260008251604060808401526141e860c0840182613a7b565b90506020840151607f198483030160a08501526142058282613a7b565b98975050505050505050565b60006040828403121561422357600080fd5b61422b613b78565b82518152602083015160208201528091505092915050565b6001600160a01b039384168152919092166020820152604081019190915260600190565b60006020828403121561427957600080fd5b5051919050565b634e487b7160e01b600052601160045260246000fd5b81810381811115610a0957610a09614280565b634e487b7160e01b600052603260045260246000fd5b6000602082840312156142d157600080fd5b8151610d24816139fe565b6000600182016142ee576142ee614280565b5060010190565b60008235603e1983360301811261430b57600080fd5b9190910192915050565b6000610a093683613c61565b8082028115828204841417610a0957610a09614280565b60008261435557634e487b7160e01b600052601260045260246000fd5b500490565b80820180821115610a0957610a09614280565b6000808335601e1984360301811261438457600080fd5b8301803591506001600160401b0382111561439e57600080fd5b6020019150368190038213156143b357600080fd5b9250929050565b8284823760008382016000815283516143d7818360208801613a57565b0195945050505050565b600083516143f3818460208801613a57565b835190830190614407818360208801613a57565b01949350505050565b6000602080838503121561442357600080fd5b82516001600160401b038082111561443a57600080fd5b818501915085601f83011261444e57600080fd5b81518181111561446057614460613b62565b8060051b9150614471848301613bc2565b818152918301840191848101908884111561448b57600080fd5b938501935b8385101561420557845192506144a5836139e9565b8282529385019390850190614490565b60208082526025908201527f4552433732313a207472616e736665722066726f6d20696e636f72726563742060408201526437bbb732b960d91b606082015260800190565b60208082526032908201527f4552433732313a207472616e7366657220746f206e6f6e20455243373231526560408201527131b2b4bb32b91034b6b83632b6b2b73a32b960711b606082015260800190565b6020808252602b908201527f496e697469616c697a61626c653a20636f6e7472616374206973206e6f74206960408201526a6e697469616c697a696e6760a81b606082015260800190565b6000825161430b818460208701613a57565b6001600160a01b038581168252841660208201526040810183905260806060820181905260009061345190830184613a7b565b6000602082840312156145ee57600080fd5b8151610d24816139b6565b601f821115610c9957600081815260208120601f850160051c810160208610156146205750805b601f850160051c820191505b8181101561463f5782815560010161462c565b505050505050565b81516001600160401b0381111561466057614660613b62565b6146748161466e8454614131565b846145f9565b602080601f8311600181146146a957600084156146915750858301515b600019600386901b1c1916600185901b17855561463f565b600085815260208120601f198616915b828110156146d8578886015182559484019460019091019084016146b9565b50858210156146f65787850151600019600388901b60f8161c191681555b5050505050600190811b01905550565b634e487b7160e01b600052603160045260246000fdfe416464726573733a206c6f772d6c6576656c2064656c65676174652063616c6c206661696c6564a2646970667358221220658764b27df6352a915868e5adfce39693db50157530708873ccec757edda52464736f6c63430008130033",
  "devdoc": {
    "details": "Manages the minting and burning of NFT positions, which represent liquidity positions in a pool.",
    "events": {
      "Approval(address,address,uint256)": {
        "details": "Emitted when `owner` enables `approved` to manage the `tokenId` token."
      },
      "ApprovalForAll(address,address,bool)": {
        "details": "Emitted when `owner` enables or disables (`approved`) `operator` to manage all of its assets."
      },
      "BorrowIncreased(address,uint256,uint256)": {
        "params": {
          "amount": "The amount of the asset that we want to borrow.",
          "asset": "The address of the asset that we want to borrow.",
          "tokenId": "The ID of the position token."
        }
      },
      "Initialized(uint8)": {
        "details": "Triggered when the contract has been initialized or reinitialized."
      },
      "LiquidityIncreased(address,uint256,uint256)": {
        "params": {
          "amount": "The amount of the asset that was added to the position.",
          "asset": "The address of the asset for which liquidity was increased.",
          "tokenId": "The ID of the position token."
        }
      },
      "Repay(address,uint256,uint256)": {
        "params": {
          "amount": "The amount of asset that we want to repay",
          "asset": "The address of the asset that we want to repay.",
          "tokenId": "The ID of the NFT."
        }
      },
      "Transfer(address,address,uint256)": {
        "details": "Emitted when `tokenId` token is transferred from `from` to `to`."
      },
      "Withdrawal(address,uint256,uint256)": {
        "params": {
          "amount": "The amount of asset that we want to withdraw",
          "asset": "The address of the asset that we want to withdraw",
          "tokenId": "The ID of the NFT."
        }
      }
    },
    "kind": "dev",
    "methods": {
      "approve(address,uint256)": {
        "details": "See {IERC721-approve}."
      },
      "balanceOf(address)": {
        "details": "See {IERC721-balanceOf}."
      },
      "boostedBalance(address,uint256)": {
        "details": "Calculates the boosted balance for an account.",
        "params": {
          "account": "The address of the account for which to calculate the boosted balance.",
          "balance": "The amount to boost."
        },
        "returns": {
          "_0": "The boosted balance of the account."
        }
      },
      "borrow((address,uint256,uint256,(bytes,bytes)))": {
        "custom:error": "ZeroAddressNotAllowed error thrown asset address is zero address.ZeroValueNotAllowed error thrown if the  amount is zero.BalanceMisMatch error thrown if difference of currentDebtBalance and previousDebtBalance is not equal to amount",
        "custom:event": "BorrowIncreased emitted whenever user borrows asset",
        "params": {
          "params": "The params required for borrow the position which includes tokenId, market and amount"
        }
      },
      "burn(uint256)": {
        "custom:error": "PositionNotCleared thrown if user postion is not cleared in the position map",
        "params": {
          "tokenId": "The ID of the token to burn."
        }
      },
      "constructor": {
        "custom:oz-upgrades-unsafe-allow": "constructor"
      },
      "getApproved(uint256)": {
        "details": "Returns the account approved for `tokenId` token. Requirements: - `tokenId` must exist."
      },
      "getPosition(uint256)": {
        "params": {
          "tokenId": "The ID of the position token."
        },
        "returns": {
          "assets": "An array of Asset structs representing the balances and debts of the position's assets."
        }
      },
      "increaseLiquidity((address,address,uint256,uint256,(bytes,bytes)))": {
        "custom:error": "ZeroAddressNotAllowed error thrown if asset address is zero address.ZeroValueNotAllowed error thrown if the  amount is zero.",
        "params": {
          "params": "The parameters required for increase liquidity the position, including the token, pool, amount and asset."
        }
      },
      "isApprovedForAll(address,address)": {
        "details": "See {IERC721-isApprovedForAll}."
      },
      "mint((address,address,uint256,(bytes,bytes)))": {
        "custom:error": "ZeroAddressNotAllowed error thrown if asset address is zero address.ZeroValueNotAllowed error thrown if the  amount is zero.",
        "params": {
          "params": "The parameters required for minting the position, including the pool,token and amount."
        },
        "returns": {
          "tokenId": "The ID of the newly minted token."
        }
      },
      "multicall(bytes[])": {
        "custom:oz-upgrades-unsafe-allow-reachable": "delegatecall",
        "details": "Receives and executes a batch of function calls on this contract."
      },
      "name()": {
        "details": "See {IERC721Metadata-name}."
      },
      "owner()": {
        "details": "Returns the address of the current owner."
      },
      "ownerOf(uint256)": {
        "details": "See {IERC721-ownerOf}."
      },
      "renounceOwnership()": {
        "details": "Leaves the contract without owner. It will not be possible to call `onlyOwner` functions. Can only be called by the current owner. NOTE: Renouncing ownership will leave the contract without an owner, thereby disabling any functionality that is only available to the owner."
      },
      "repay((address,uint256,uint256,(bytes,bytes)))": {
        "custom:error": "ZeroAddressNotAllowed error thrown if asset address is zero address.ZeroValueNotAllowed error thrown if the  amount is zero.BalanceMisMatch error thrown if difference of previousDebtBalance currentDebtBalance and is not equal to amount",
        "custom:event": "Repay emitted whenever user repays asset",
        "params": {
          "params": "The params required for repaying the position which includes tokenId, asset and amount."
        }
      },
      "safeTransferFrom(address,address,uint256)": {
        "details": "See {IERC721-safeTransferFrom}."
      },
      "safeTransferFrom(address,address,uint256,bytes)": {
        "details": "See {IERC721-safeTransferFrom}."
      },
      "setApprovalForAll(address,bool)": {
        "details": "See {IERC721-setApprovalForAll}."
      },
      "supportsInterface(bytes4)": {
        "details": "See {IERC165-supportsInterface}."
      },
      "symbol()": {
        "details": "See {IERC721Metadata-symbol}."
      },
      "tokenByIndex(uint256)": {
        "details": "See {IERC721Enumerable-tokenByIndex}."
      },
      "tokenOfOwnerByIndex(address,uint256)": {
        "details": "See {IERC721Enumerable-tokenOfOwnerByIndex}."
      },
      "tokenURI(uint256)": {
        "details": "See {IERC721Metadata-tokenURI}."
      },
      "totalSupply()": {
        "details": "See {IERC721Enumerable-totalSupply}."
      },
      "transferFrom(address,address,uint256)": {
        "details": "See {IERC721-transferFrom}."
      },
      "transferOwnership(address)": {
        "details": "Transfers ownership of the contract to a new account (`newOwner`). Can only be called by the current owner."
      },
      "withdraw((address,uint256,uint256,(bytes,bytes)))": {
        "custom:error": "ZeroAddressNotAllowed error thrown if asset or user address is zero address.ZeroValueNotAllowed error thrown if the  amount is zero.BalanceMisMatch error thrown if difference of previousSupplyBalance currentSupplyBalance and  is not equal to amount",
        "custom:event": "Withdrawal emitted whenever user withdraws asset",
        "params": {
          "params": "The parameters required for withdrawing from the position, including tokenId, asset, and amount."
        }
      }
    },
    "title": "NFTPositionManager",
    "version": 1
  },
  "userdoc": {
    "errors": {
      "BalanceMisMatch()": [
        {
          "notice": "Error indicating a mismatch in balance."
        }
      ],
      "NotPool()": [
        {
          "notice": "Error indicating that pool is not register in pool factory."
        }
      ],
      "NotTokenIdOwner()": [
        {
          "notice": "Error indicating that the caller is not the owner or approved operator of the token ID."
        }
      ],
      "PositionNotCleared()": [
        {
          "notice": "Error indicating that the position is not cleared."
        }
      ],
      "ZeroAddressNotAllowed()": [
        {
          "notice": "Error indicating that a zero address was provided, which is not allowed."
        }
      ],
      "ZeroValueNotAllowed()": [
        {
          "notice": "Error indicating that a zero value was provided, which is not allowed."
        }
      ]
    },
    "events": {
      "LiquidityIncreased(address,uint256,uint256)": {
        "notice": "Emitted when liquidity is increased for a specific position token."
      }
    },
    "kind": "user",
    "methods": {
      "borrow((address,uint256,uint256,(bytes,bytes)))": {
        "notice": "Allow user to borrow the underlying assets"
      },
      "burn(uint256)": {
        "notice": "Burns a token, removing it from existence."
      },
      "getPosition(uint256)": {
        "notice": "Retrieves the details of a position identified by the given token ID."
      },
      "increaseLiquidity((address,address,uint256,uint256,(bytes,bytes)))": {
        "notice": "Allow User to increase liquidity in the postion"
      },
      "initialize(address,address,address,address)": {
        "notice": "Initializes the NFTPositionManager contract."
      },
      "mint((address,address,uint256,(bytes,bytes)))": {
        "notice": "Mints a new NFT representing a liquidity position."
      },
      "positions(uint256)": {
        "notice": "Mapping from token ID to the Position struct representing the details of the liquidity position."
      },
      "repay((address,uint256,uint256,(bytes,bytes)))": {
        "notice": "Allow user to repay thier debt."
      },
      "weth()": {
        "notice": "Address for the wrapped ether"
      },
      "withdraw((address,uint256,uint256,(bytes,bytes)))": {
        "notice": "Allow user to withdraw their underlying assets."
      }
    },
    "version": 1
  },
  "storageLayout": {
    "storage": [
      {
        "astId": 913,
        "contract": "contracts/periphery/positions/NFTPositionManager.sol:NFTPositionManager",
        "label": "_initialized",
        "offset": 0,
        "slot": "0",
        "type": "t_uint8"
      },
      {
        "astId": 916,
        "contract": "contracts/periphery/positions/NFTPositionManager.sol:NFTPositionManager",
        "label": "_initializing",
        "offset": 1,
        "slot": "0",
        "type": "t_bool"
      },
      {
        "astId": 4946,
        "contract": "contracts/periphery/positions/NFTPositionManager.sol:NFTPositionManager",
        "label": "__gap",
        "offset": 0,
        "slot": "1",
        "type": "t_array(t_uint256)50_storage"
      },
      {
        "astId": 6051,
        "contract": "contracts/periphery/positions/NFTPositionManager.sol:NFTPositionManager",
        "label": "__gap",
        "offset": 0,
        "slot": "51",
        "type": "t_array(t_uint256)50_storage"
      },
      {
        "astId": 3076,
        "contract": "contracts/periphery/positions/NFTPositionManager.sol:NFTPositionManager",
        "label": "_name",
        "offset": 0,
        "slot": "101",
        "type": "t_string_storage"
      },
      {
        "astId": 3078,
        "contract": "contracts/periphery/positions/NFTPositionManager.sol:NFTPositionManager",
        "label": "_symbol",
        "offset": 0,
        "slot": "102",
        "type": "t_string_storage"
      },
      {
        "astId": 3082,
        "contract": "contracts/periphery/positions/NFTPositionManager.sol:NFTPositionManager",
        "label": "_owners",
        "offset": 0,
        "slot": "103",
        "type": "t_mapping(t_uint256,t_address)"
      },
      {
        "astId": 3086,
        "contract": "contracts/periphery/positions/NFTPositionManager.sol:NFTPositionManager",
        "label": "_balances",
        "offset": 0,
        "slot": "104",
        "type": "t_mapping(t_address,t_uint256)"
      },
      {
        "astId": 3090,
        "contract": "contracts/periphery/positions/NFTPositionManager.sol:NFTPositionManager",
        "label": "_tokenApprovals",
        "offset": 0,
        "slot": "105",
        "type": "t_mapping(t_uint256,t_address)"
      },
      {
        "astId": 3096,
        "contract": "contracts/periphery/positions/NFTPositionManager.sol:NFTPositionManager",
        "label": "_operatorApprovals",
        "offset": 0,
        "slot": "106",
        "type": "t_mapping(t_address,t_mapping(t_address,t_bool))"
      },
      {
        "astId": 3998,
        "contract": "contracts/periphery/positions/NFTPositionManager.sol:NFTPositionManager",
        "label": "__gap",
        "offset": 0,
        "slot": "107",
        "type": "t_array(t_uint256)44_storage"
      },
      {
        "astId": 4152,
        "contract": "contracts/periphery/positions/NFTPositionManager.sol:NFTPositionManager",
        "label": "_ownedTokens",
        "offset": 0,
        "slot": "151",
        "type": "t_mapping(t_address,t_mapping(t_uint256,t_uint256))"
      },
      {
        "astId": 4156,
        "contract": "contracts/periphery/positions/NFTPositionManager.sol:NFTPositionManager",
        "label": "_ownedTokensIndex",
        "offset": 0,
        "slot": "152",
        "type": "t_mapping(t_uint256,t_uint256)"
      },
      {
        "astId": 4159,
        "contract": "contracts/periphery/positions/NFTPositionManager.sol:NFTPositionManager",
        "label": "_allTokens",
        "offset": 0,
        "slot": "153",
        "type": "t_array(t_uint256)dyn_storage"
      },
      {
        "astId": 4163,
        "contract": "contracts/periphery/positions/NFTPositionManager.sol:NFTPositionManager",
        "label": "_allTokensIndex",
        "offset": 0,
        "slot": "154",
        "type": "t_mapping(t_uint256,t_uint256)"
      },
      {
        "astId": 4507,
        "contract": "contracts/periphery/positions/NFTPositionManager.sol:NFTPositionManager",
        "label": "__gap",
        "offset": 0,
        "slot": "155",
        "type": "t_array(t_uint256)46_storage"
      },
      {
        "astId": 592,
        "contract": "contracts/periphery/positions/NFTPositionManager.sol:NFTPositionManager",
        "label": "_owner",
        "offset": 0,
        "slot": "201",
        "type": "t_address"
      },
      {
        "astId": 712,
        "contract": "contracts/periphery/positions/NFTPositionManager.sol:NFTPositionManager",
        "label": "__gap",
        "offset": 0,
        "slot": "202",
        "type": "t_array(t_uint256)49_storage"
      },
      {
        "astId": 41719,
        "contract": "contracts/periphery/positions/NFTPositionManager.sol:NFTPositionManager",
        "label": "rewardsToken",
        "offset": 0,
        "slot": "251",
        "type": "t_contract(IERC20)14150"
      },
      {
        "astId": 41722,
        "contract": "contracts/periphery/positions/NFTPositionManager.sol:NFTPositionManager",
        "label": "_staking",
        "offset": 0,
        "slot": "252",
        "type": "t_contract(IVotes)12379"
      },
      {
        "astId": 41727,
        "contract": "contracts/periphery/positions/NFTPositionManager.sol:NFTPositionManager",
        "label": "_poolAssetList",
        "offset": 0,
        "slot": "253",
        "type": "t_mapping(t_address,t_array(t_address)dyn_storage)"
      },
      {
        "astId": 41731,
        "contract": "contracts/periphery/positions/NFTPositionManager.sol:NFTPositionManager",
        "label": "_totalSupply",
        "offset": 0,
        "slot": "254",
        "type": "t_mapping(t_bytes32,t_uint256)"
      },
      {
        "astId": 41735,
        "contract": "contracts/periphery/positions/NFTPositionManager.sol:NFTPositionManager",
        "label": "lastUpdateTime",
        "offset": 0,
        "slot": "255",
        "type": "t_mapping(t_bytes32,t_uint256)"
      },
      {
        "astId": 41739,
        "contract": "contracts/periphery/positions/NFTPositionManager.sol:NFTPositionManager",
        "label": "periodFinish",
        "offset": 0,
        "slot": "256",
        "type": "t_mapping(t_bytes32,t_uint256)"
      },
      {
        "astId": 41743,
        "contract": "contracts/periphery/positions/NFTPositionManager.sol:NFTPositionManager",
        "label": "rewardPerTokenStored",
        "offset": 0,
        "slot": "257",
        "type": "t_mapping(t_bytes32,t_uint256)"
      },
      {
        "astId": 41747,
        "contract": "contracts/periphery/positions/NFTPositionManager.sol:NFTPositionManager",
        "label": "rewardRate",
        "offset": 0,
        "slot": "258",
        "type": "t_mapping(t_bytes32,t_uint256)"
      },
      {
        "astId": 41753,
        "contract": "contracts/periphery/positions/NFTPositionManager.sol:NFTPositionManager",
        "label": "_balances",
        "offset": 0,
        "slot": "259",
        "type": "t_mapping(t_uint256,t_mapping(t_bytes32,t_uint256))"
      },
      {
        "astId": 41759,
        "contract": "contracts/periphery/positions/NFTPositionManager.sol:NFTPositionManager",
        "label": "userRewardPerTokenPaid",
        "offset": 0,
        "slot": "260",
        "type": "t_mapping(t_uint256,t_mapping(t_bytes32,t_uint256))"
      },
      {
        "astId": 41765,
        "contract": "contracts/periphery/positions/NFTPositionManager.sol:NFTPositionManager",
        "label": "rewards",
        "offset": 0,
        "slot": "261",
        "type": "t_mapping(t_uint256,t_mapping(t_bytes32,t_uint256))"
      },
      {
        "astId": 41767,
        "contract": "contracts/periphery/positions/NFTPositionManager.sol:NFTPositionManager",
        "label": "_maxBoostRequirement",
        "offset": 0,
        "slot": "262",
        "type": "t_uint256"
      },
      {
        "astId": 41769,
        "contract": "contracts/periphery/positions/NFTPositionManager.sol:NFTPositionManager",
        "label": "rewardsDuration",
        "offset": 0,
        "slot": "263",
        "type": "t_uint256"
      },
      {
        "astId": 5126,
        "contract": "contracts/periphery/positions/NFTPositionManager.sol:NFTPositionManager",
        "label": "__gap",
        "offset": 0,
        "slot": "264",
        "type": "t_array(t_uint256)50_storage"
      },
      {
        "astId": 40783,
        "contract": "contracts/periphery/positions/NFTPositionManager.sol:NFTPositionManager",
        "label": "factory",
        "offset": 0,
        "slot": "314",
        "type": "t_contract(IPoolFactory)37233"
      },
      {
        "astId": 40786,
        "contract": "contracts/periphery/positions/NFTPositionManager.sol:NFTPositionManager",
        "label": "_nextId",
        "offset": 0,
        "slot": "315",
        "type": "t_uint256"
      },
      {
        "astId": 40792,
        "contract": "contracts/periphery/positions/NFTPositionManager.sol:NFTPositionManager",
        "label": "positions",
        "offset": 0,
        "slot": "316",
        "type": "t_mapping(t_uint256,t_struct(Position)36681_storage)"
      },
      {
        "astId": 40796,
        "contract": "contracts/periphery/positions/NFTPositionManager.sol:NFTPositionManager",
        "label": "weth",
        "offset": 0,
        "slot": "317",
        "type": "t_contract(IWETH)37585"
      }
    ],
    "types": {
      "t_address": {
        "encoding": "inplace",
        "label": "address",
        "numberOfBytes": "20"
      },
      "t_array(t_address)dyn_storage": {
        "base": "t_address",
        "encoding": "dynamic_array",
        "label": "address[]",
        "numberOfBytes": "32"
      },
      "t_array(t_uint256)44_storage": {
        "base": "t_uint256",
        "encoding": "inplace",
        "label": "uint256[44]",
        "numberOfBytes": "1408"
      },
      "t_array(t_uint256)46_storage": {
        "base": "t_uint256",
        "encoding": "inplace",
        "label": "uint256[46]",
        "numberOfBytes": "1472"
      },
      "t_array(t_uint256)49_storage": {
        "base": "t_uint256",
        "encoding": "inplace",
        "label": "uint256[49]",
        "numberOfBytes": "1568"
      },
      "t_array(t_uint256)50_storage": {
        "base": "t_uint256",
        "encoding": "inplace",
        "label": "uint256[50]",
        "numberOfBytes": "1600"
      },
      "t_array(t_uint256)dyn_storage": {
        "base": "t_uint256",
        "encoding": "dynamic_array",
        "label": "uint256[]",
        "numberOfBytes": "32"
      },
      "t_bool": {
        "encoding": "inplace",
        "label": "bool",
        "numberOfBytes": "1"
      },
      "t_bytes32": {
        "encoding": "inplace",
        "label": "bytes32",
        "numberOfBytes": "32"
      },
      "t_contract(IERC20)14150": {
        "encoding": "inplace",
        "label": "contract IERC20",
        "numberOfBytes": "20"
      },
      "t_contract(IPoolFactory)37233": {
        "encoding": "inplace",
        "label": "contract IPoolFactory",
        "numberOfBytes": "20"
      },
      "t_contract(IVotes)12379": {
        "encoding": "inplace",
        "label": "contract IVotes",
        "numberOfBytes": "20"
      },
      "t_contract(IWETH)37585": {
        "encoding": "inplace",
        "label": "contract IWETH",
        "numberOfBytes": "20"
      },
      "t_mapping(t_address,t_array(t_address)dyn_storage)": {
        "encoding": "mapping",
        "key": "t_address",
        "label": "mapping(address => address[])",
        "numberOfBytes": "32",
        "value": "t_array(t_address)dyn_storage"
      },
      "t_mapping(t_address,t_bool)": {
        "encoding": "mapping",
        "key": "t_address",
        "label": "mapping(address => bool)",
        "numberOfBytes": "32",
        "value": "t_bool"
      },
      "t_mapping(t_address,t_mapping(t_address,t_bool))": {
        "encoding": "mapping",
        "key": "t_address",
        "label": "mapping(address => mapping(address => bool))",
        "numberOfBytes": "32",
        "value": "t_mapping(t_address,t_bool)"
      },
      "t_mapping(t_address,t_mapping(t_uint256,t_uint256))": {
        "encoding": "mapping",
        "key": "t_address",
        "label": "mapping(address => mapping(uint256 => uint256))",
        "numberOfBytes": "32",
        "value": "t_mapping(t_uint256,t_uint256)"
      },
      "t_mapping(t_address,t_uint256)": {
        "encoding": "mapping",
        "key": "t_address",
        "label": "mapping(address => uint256)",
        "numberOfBytes": "32",
        "value": "t_uint256"
      },
      "t_mapping(t_bytes32,t_uint256)": {
        "encoding": "mapping",
        "key": "t_bytes32",
        "label": "mapping(bytes32 => uint256)",
        "numberOfBytes": "32",
        "value": "t_uint256"
      },
      "t_mapping(t_uint256,t_address)": {
        "encoding": "mapping",
        "key": "t_uint256",
        "label": "mapping(uint256 => address)",
        "numberOfBytes": "32",
        "value": "t_address"
      },
      "t_mapping(t_uint256,t_mapping(t_bytes32,t_uint256))": {
        "encoding": "mapping",
        "key": "t_uint256",
        "label": "mapping(uint256 => mapping(bytes32 => uint256))",
        "numberOfBytes": "32",
        "value": "t_mapping(t_bytes32,t_uint256)"
      },
      "t_mapping(t_uint256,t_struct(Position)36681_storage)": {
        "encoding": "mapping",
        "key": "t_uint256",
        "label": "mapping(uint256 => struct INFTPositionManager.Position)",
        "numberOfBytes": "32",
        "value": "t_struct(Position)36681_storage"
      },
      "t_mapping(t_uint256,t_uint256)": {
        "encoding": "mapping",
        "key": "t_uint256",
        "label": "mapping(uint256 => uint256)",
        "numberOfBytes": "32",
        "value": "t_uint256"
      },
      "t_string_storage": {
        "encoding": "bytes",
        "label": "string",
        "numberOfBytes": "32"
      },
      "t_struct(Position)36681_storage": {
        "encoding": "inplace",
        "label": "struct INFTPositionManager.Position",
        "members": [
          {
            "astId": 36678,
            "contract": "contracts/periphery/positions/NFTPositionManager.sol:NFTPositionManager",
            "label": "pool",
            "offset": 0,
            "slot": "0",
            "type": "t_address"
          },
          {
            "astId": 36680,
            "contract": "contracts/periphery/positions/NFTPositionManager.sol:NFTPositionManager",
            "label": "operator",
            "offset": 0,
            "slot": "1",
            "type": "t_address"
          }
        ],
        "numberOfBytes": "64"
      },
      "t_uint256": {
        "encoding": "inplace",
        "label": "uint256",
        "numberOfBytes": "32"
      },
      "t_uint8": {
        "encoding": "inplace",
        "label": "uint8",
        "numberOfBytes": "1"
      }
    }
  }
}