{
  "address": "0x368eEBB67577Ec504F62FC41888b1578d2ef7B71",
  "abi": [
    {
      "inputs": [
        {
          "internalType": "address",
          "name": "_implementation",
          "type": "address"
        }
      ],
      "stateMutability": "nonpayable",
      "type": "constructor"
    },
    {
      "anonymous": false,
      "inputs": [
        {
          "indexed": true,
          "internalType": "address",
          "name": "old",
          "type": "address"
        },
        {
          "indexed": true,
          "internalType": "address",
          "name": "updated",
          "type": "address"
        },
        {
          "indexed": false,
          "internalType": "address",
          "name": "owner",
          "type": "address"
        }
      ],
      "name": "ConfiguratorUpdated",
      "type": "event"
    },
    {
      "anonymous": false,
      "inputs": [
        {
          "indexed": true,
          "internalType": "uint256",
          "name": "old",
          "type": "uint256"
        },
        {
          "indexed": true,
          "internalType": "uint256",
          "name": "updated",
          "type": "uint256"
        },
        {
          "indexed": false,
          "internalType": "address",
          "name": "owner",
          "type": "address"
        }
      ],
      "name": "FlashLoanPremiumToProtocolUpdated",
      "type": "event"
    },
    {
      "anonymous": false,
      "inputs": [
        {
          "indexed": true,
          "internalType": "address",
          "name": "old",
          "type": "address"
        },
        {
          "indexed": true,
          "internalType": "address",
          "name": "updated",
          "type": "address"
        },
        {
          "indexed": false,
          "internalType": "address",
          "name": "owner",
          "type": "address"
        }
      ],
      "name": "ImplementationUpdated",
      "type": "event"
    },
    {
      "anonymous": false,
      "inputs": [
        {
          "indexed": true,
          "internalType": "address",
          "name": "previousOwner",
          "type": "address"
        },
        {
          "indexed": true,
          "internalType": "address",
          "name": "newOwner",
          "type": "address"
        }
      ],
      "name": "OwnershipTransferred",
      "type": "event"
    },
    {
      "anonymous": false,
      "inputs": [
        {
          "indexed": true,
          "internalType": "contract IPool",
          "name": "pool",
          "type": "address"
        },
        {
          "indexed": true,
          "internalType": "uint256",
          "name": "index",
          "type": "uint256"
        },
        {
          "indexed": true,
          "internalType": "address",
          "name": "creator",
          "type": "address"
        },
        {
          "components": [
            {
              "internalType": "address",
              "name": "hook",
              "type": "address"
            },
            {
              "internalType": "address[]",
              "name": "assets",
              "type": "address[]"
            },
            {
              "internalType": "address[]",
              "name": "rateStrategyAddresses",
              "type": "address[]"
            },
            {
              "internalType": "address[]",
              "name": "sources",
              "type": "address[]"
            },
            {
              "components": [
                {
                  "internalType": "bool",
                  "name": "borrowable",
                  "type": "bool"
                },
                {
                  "internalType": "bool",
                  "name": "frozen",
                  "type": "bool"
                },
                {
                  "internalType": "uint256",
                  "name": "borrowCap",
                  "type": "uint256"
                },
                {
                  "internalType": "uint256",
                  "name": "decimals",
                  "type": "uint256"
                },
                {
                  "internalType": "uint256",
                  "name": "liquidationBonus",
                  "type": "uint256"
                },
                {
                  "internalType": "uint256",
                  "name": "liquidationThreshold",
                  "type": "uint256"
                },
                {
                  "internalType": "uint256",
                  "name": "ltv",
                  "type": "uint256"
                },
                {
                  "internalType": "uint256",
                  "name": "supplyCap",
                  "type": "uint256"
                }
              ],
              "internalType": "struct DataTypes.InitReserveConfig[]",
              "name": "configurations",
              "type": "tuple[]"
            }
          ],
          "indexed": false,
          "internalType": "struct DataTypes.InitPoolParams",
          "name": "params",
          "type": "tuple"
        }
      ],
      "name": "PoolCreated",
      "type": "event"
    },
    {
      "anonymous": false,
      "inputs": [
        {
          "indexed": true,
          "internalType": "uint256",
          "name": "old",
          "type": "uint256"
        },
        {
          "indexed": true,
          "internalType": "uint256",
          "name": "updated",
          "type": "uint256"
        },
        {
          "indexed": false,
          "internalType": "address",
          "name": "owner",
          "type": "address"
        }
      ],
      "name": "ReserveFactorUpdated",
      "type": "event"
    },
    {
      "anonymous": false,
      "inputs": [
        {
          "indexed": true,
          "internalType": "address",
          "name": "old",
          "type": "address"
        },
        {
          "indexed": true,
          "internalType": "address",
          "name": "updated",
          "type": "address"
        },
        {
          "indexed": false,
          "internalType": "address",
          "name": "owner",
          "type": "address"
        }
      ],
      "name": "TreasuryUpdated",
      "type": "event"
    },
    {
      "inputs": [],
      "name": "configurator",
      "outputs": [
        {
          "internalType": "contract IPoolConfigurator",
          "name": "",
          "type": "address"
        }
      ],
      "stateMutability": "view",
      "type": "function"
    },
    {
      "inputs": [
        {
          "components": [
            {
              "internalType": "address",
              "name": "hook",
              "type": "address"
            },
            {
              "internalType": "address[]",
              "name": "assets",
              "type": "address[]"
            },
            {
              "internalType": "address[]",
              "name": "rateStrategyAddresses",
              "type": "address[]"
            },
            {
              "internalType": "address[]",
              "name": "sources",
              "type": "address[]"
            },
            {
              "components": [
                {
                  "internalType": "bool",
                  "name": "borrowable",
                  "type": "bool"
                },
                {
                  "internalType": "bool",
                  "name": "frozen",
                  "type": "bool"
                },
                {
                  "internalType": "uint256",
                  "name": "borrowCap",
                  "type": "uint256"
                },
                {
                  "internalType": "uint256",
                  "name": "decimals",
                  "type": "uint256"
                },
                {
                  "internalType": "uint256",
                  "name": "liquidationBonus",
                  "type": "uint256"
                },
                {
                  "internalType": "uint256",
                  "name": "liquidationThreshold",
                  "type": "uint256"
                },
                {
                  "internalType": "uint256",
                  "name": "ltv",
                  "type": "uint256"
                },
                {
                  "internalType": "uint256",
                  "name": "supplyCap",
                  "type": "uint256"
                }
              ],
              "internalType": "struct DataTypes.InitReserveConfig[]",
              "name": "configurations",
              "type": "tuple[]"
            }
          ],
          "internalType": "struct DataTypes.InitPoolParams",
          "name": "params",
          "type": "tuple"
        }
      ],
      "name": "createPool",
      "outputs": [
        {
          "internalType": "contract IPool",
          "name": "pool",
          "type": "address"
        }
      ],
      "stateMutability": "nonpayable",
      "type": "function"
    },
    {
      "inputs": [],
      "name": "flashLoanPremiumToProtocol",
      "outputs": [
        {
          "internalType": "uint256",
          "name": "",
          "type": "uint256"
        }
      ],
      "stateMutability": "view",
      "type": "function"
    },
    {
      "inputs": [],
      "name": "implementation",
      "outputs": [
        {
          "internalType": "address",
          "name": "",
          "type": "address"
        }
      ],
      "stateMutability": "view",
      "type": "function"
    },
    {
      "inputs": [
        {
          "internalType": "address",
          "name": "",
          "type": "address"
        }
      ],
      "name": "isPool",
      "outputs": [
        {
          "internalType": "bool",
          "name": "",
          "type": "bool"
        }
      ],
      "stateMutability": "view",
      "type": "function"
    },
    {
      "inputs": [],
      "name": "liquidationProtocolFeePercentage",
      "outputs": [
        {
          "internalType": "uint256",
          "name": "",
          "type": "uint256"
        }
      ],
      "stateMutability": "view",
      "type": "function"
    },
    {
      "inputs": [],
      "name": "owner",
      "outputs": [
        {
          "internalType": "address",
          "name": "",
          "type": "address"
        }
      ],
      "stateMutability": "view",
      "type": "function"
    },
    {
      "inputs": [
        {
          "internalType": "uint256",
          "name": "",
          "type": "uint256"
        }
      ],
      "name": "pools",
      "outputs": [
        {
          "internalType": "contract IPool",
          "name": "",
          "type": "address"
        }
      ],
      "stateMutability": "view",
      "type": "function"
    },
    {
      "inputs": [],
      "name": "poolsLength",
      "outputs": [
        {
          "internalType": "uint256",
          "name": "",
          "type": "uint256"
        }
      ],
      "stateMutability": "view",
      "type": "function"
    },
    {
      "inputs": [],
      "name": "renounceOwnership",
      "outputs": [],
      "stateMutability": "nonpayable",
      "type": "function"
    },
    {
      "inputs": [],
      "name": "reserveFactor",
      "outputs": [
        {
          "internalType": "uint256",
          "name": "",
          "type": "uint256"
        }
      ],
      "stateMutability": "view",
      "type": "function"
    },
    {
      "inputs": [
        {
          "internalType": "address",
          "name": "impl",
          "type": "address"
        }
      ],
      "name": "setConfigurator",
      "outputs": [],
      "stateMutability": "nonpayable",
      "type": "function"
    },
    {
      "inputs": [
        {
          "internalType": "uint256",
          "name": "updated",
          "type": "uint256"
        }
      ],
      "name": "setFlashloanPremium",
      "outputs": [],
      "stateMutability": "nonpayable",
      "type": "function"
    },
    {
      "inputs": [
        {
          "internalType": "address",
          "name": "impl",
          "type": "address"
        }
      ],
      "name": "setImplementation",
      "outputs": [],
      "stateMutability": "nonpayable",
      "type": "function"
    },
    {
      "inputs": [
        {
          "internalType": "uint256",
          "name": "updated",
          "type": "uint256"
        }
      ],
      "name": "setReserveFactor",
      "outputs": [],
      "stateMutability": "nonpayable",
      "type": "function"
    },
    {
      "inputs": [
        {
          "internalType": "address",
          "name": "_treasury",
          "type": "address"
        }
      ],
      "name": "setTreasury",
      "outputs": [],
      "stateMutability": "nonpayable",
      "type": "function"
    },
    {
      "inputs": [
        {
          "internalType": "address",
          "name": "newOwner",
          "type": "address"
        }
      ],
      "name": "transferOwnership",
      "outputs": [],
      "stateMutability": "nonpayable",
      "type": "function"
    },
    {
      "inputs": [],
      "name": "treasury",
      "outputs": [
        {
          "internalType": "address",
          "name": "",
          "type": "address"
        }
      ],
      "stateMutability": "view",
      "type": "function"
    }
  ],
  "transactionHash": "0xb1c358203469425e31a6ffbd4a2581cf31eabe232beee6ae93d70b2fadb2b7f0",
  "args": [
    "0x0000000000000000000000000000000000000000"
  ],
  "numDeployments": 1,
  "solcInputHash": "95d84748b454ba387ab3866b78066cba",
  "bytecode": "0x608060405234801561001057600080fd5b506040516116b63803806116b683398101604081905261002f916100b6565b61003833610066565b600180546001600160a01b039092166001600160a01b031992831617905560028054909116331790556100e6565b600080546001600160a01b038381166001600160a01b0319831681178455604051919092169283917f8be0079c531659141344cd1fd0a4f28419497f9722a3daafe3b4186f6b6457e09190a35050565b6000602082840312156100c857600080fd5b81516001600160a01b03811681146100df57600080fd5b9392505050565b6115c1806100f56000396000f3fe60806040523480156200001157600080fd5b50600436106200012d5760003560e01c806361d027b311620000af5780639f5f86ae116200007a5780639f5f86ae146200025b578063ac4afa381462000272578063d784d4261462000289578063f0f4426014620002a0578063f2fde38b14620002b757600080fd5b806361d027b31462000214578063715018a614620002285780638aac89aa14620002325780638da5cb5b146200024957600080fd5b80632716ae6611620000fc5780632716ae6614620001a25780632b507df814620001ab5780634322b71414620001bf5780635b16ebb714620001c95780635c60da1b146200020057600080fd5b8063075650ba146200013257806309e8a6df14620001665780631c446983146200017f578063211a94ea1462000198575b600080fd5b620001496200014336600462000a73565b620002ce565b6040516001600160a01b0390911681526020015b60405180910390f35b6200017060075481565b6040519081526020016200015d565b620001966200019036600462000b70565b6200048b565b005b6200017060085481565b60035462000170565b60055462000149906001600160a01b031681565b6200017060065481565b620001ef620001da36600462000b8a565b60046020526000908152604090205460ff1681565b60405190151581526020016200015d565b60015462000149906001600160a01b031681565b60025462000149906001600160a01b031681565b62000196620004d9565b620001966200024336600462000b70565b620004f1565b6000546001600160a01b031662000149565b620001966200026c36600462000b8a565b62000538565b620001496200028336600462000b70565b62000604565b620001966200029a36600462000b8a565b6200062f565b62000196620002b136600462000b8a565b6200068f565b62000196620002c836600462000b8a565b620006ef565b60003033604051620002e0906200081e565b6001600160a01b03928316815291166020820152604001604051809103906000f08015801562000314573d6000803e3d6000fd5b5060035460405191925033916001600160a01b038416907f5a1d628f8dd4fd12dd7465ca13ae8956d7b91b78e291c64f0bcaceb6ac9ae1f4906200035a90879062000bf5565b60405180910390a46003805460018082019092557fc2575a0e9e593c00f959f8c92f12db2869c3395a3b0502d05e2516446f71f85b0180546001600160a01b0319166001600160a01b038416908117909155600081815260046020819052604091829020805460ff1916909417909355516310fdbb8f60e21b815290916343f6ee3c91620003eb9186910162000bf5565b600060405180830381600087803b1580156200040657600080fd5b505af11580156200041b573d6000803e3d6000fd5b505060055460405163e84d791f60e01b81526001600160a01b038581166004830152336024830152909116925063e84d791f9150604401600060405180830381600087803b1580156200046d57600080fd5b505af115801562000482573d6000803e3d6000fd5b50505050919050565b6200049562000772565b6006805490829055604051338152829082907ff06f772d539d838d36ff6aaa9d666491ad50c38493996f1d19acb07d6e492607906020015b60405180910390a35050565b620004e362000772565b620004ef6000620007ce565b565b620004fb62000772565b6007805490829055604051338152829082907f313b7326127247867bf91bd06c0adcf2a81d9401c7b29213a85a596e5673cbb390602001620004cd565b6200054262000772565b600580546001600160a01b038381166001600160a01b0319831681179093556040513381529116919082907ff89c18df20adf04a551f4399896aa5f6c66d8802f19edb2eb6dda0cc9b5c352b9060200160405180910390a360055460405163e84d791f60e01b8152600060048201523360248201526001600160a01b039091169063e84d791f90604401600060405180830381600087803b158015620005e757600080fd5b505af1158015620005fc573d6000803e3d6000fd5b505050505050565b600381815481106200061557600080fd5b6000918252602090912001546001600160a01b0316905081565b6200063962000772565b600180546001600160a01b038381166001600160a01b0319831681179093556040513381529116919082907f69ac7086f25179201a0cb39e4ffd8b5dd8224e2c7df939db65cb77311a0c030e90602001620004cd565b6200069962000772565b600280546001600160a01b038381166001600160a01b0319831681179093556040513381529116919082907f23c12d5579081c5f1077c04a6b1c114d0f3de239e81a436836d30ecb099ffa1390602001620004cd565b620006f962000772565b6001600160a01b038116620007645760405162461bcd60e51b815260206004820152602660248201527f4f776e61626c653a206e6577206f776e657220697320746865207a65726f206160448201526564647265737360d01b60648201526084015b60405180910390fd5b6200076f81620007ce565b50565b6000546001600160a01b03163314620004ef5760405162461bcd60e51b815260206004820181905260248201527f4f776e61626c653a2063616c6c6572206973206e6f7420746865206f776e657260448201526064016200075b565b600080546001600160a01b038381166001600160a01b0319831681178455604051919092169283917f8be0079c531659141344cd1fd0a4f28419497f9722a3daafe3b4186f6b6457e09190a35050565b61088f8062000cfd83390190565b634e487b7160e01b600052604160045260246000fd5b604051610100810167ffffffffffffffff811182821017156200086957620008696200082c565b60405290565b60405160a0810167ffffffffffffffff811182821017156200086957620008696200082c565b604051601f8201601f1916810167ffffffffffffffff81118282101715620008c157620008c16200082c565b604052919050565b80356001600160a01b0381168114620008e157600080fd5b919050565b600067ffffffffffffffff8211156200090357620009036200082c565b5060051b60200190565b600082601f8301126200091f57600080fd5b81356020620009386200093283620008e6565b62000895565b82815260059290921b840181019181810190868411156200095857600080fd5b8286015b848110156200097e576200097081620008c9565b83529183019183016200095c565b509695505050505050565b80358015158114620008e157600080fd5b600082601f830112620009ac57600080fd5b81356020620009bf6200093283620008e6565b82815260089290921b84018101918181019086841115620009df57600080fd5b8286015b848110156200097e576101008189031215620009ff5760008081fd5b62000a0962000842565b62000a148262000989565b815262000a2385830162000989565b8186015260408281013590820152606080830135908201526080808301359082015260a0808301359082015260c0808301359082015260e0808301359082015283529183019161010001620009e3565b60006020828403121562000a8657600080fd5b813567ffffffffffffffff8082111562000a9f57600080fd5b9083019060a0828603121562000ab457600080fd5b62000abe6200086f565b62000ac983620008c9565b815260208301358281111562000ade57600080fd5b62000aec878286016200090d565b60208301525060408301358281111562000b0557600080fd5b62000b13878286016200090d565b60408301525060608301358281111562000b2c57600080fd5b62000b3a878286016200090d565b60608301525060808301358281111562000b5357600080fd5b62000b61878286016200099a565b60808301525095945050505050565b60006020828403121562000b8357600080fd5b5035919050565b60006020828403121562000b9d57600080fd5b62000ba882620008c9565b9392505050565b600081518084526020808501945080840160005b8381101562000bea5781516001600160a01b03168752958201959082019060010162000bc3565b509495945050505050565b6000602080835260c060018060a01b03855116828501528185015160a06040818188015262000c278488018462000baf565b925080880151601f196060818a870301818b015262000c47868462000baf565b9550808b015192506080828b880301818c015262000c66878562000baf565b8c8201518c8203909401878d01528351808252938a019750600094508901925b8085101562000ceb5787518051151585528a81015115158b8601528681015187860152838101518486015282810151838601528781015188860152898101518a86015260e0908101519085015296890196600194909401936101009093019262000c86565b50919b9a505050505050505050505056fe60e06040527fe66c68ebcb04b4052987797348c2f105a854485da1807493a795dc2502ad5b006080527fa3f0ad74e5423aebfd80d3ef4346578335a9a72aeaee59ff6cb3582b35133d5160a0527fb53127684a568b3173ae13b9f8a6016e243e63b6e8ee1178d6a717850b5d610460c05234801561007c57600080fd5b5060405161088f38038061088f83398101604081905261009b91610179565b816100ad60a05161015a60201b60201c565b80546001600160a01b039283166001600160a01b03199182161790915560c05180549284169290911682179055604080513381529051600092917f9f6130d220a6021d90d78c7ed17b7cfb79f530974405b174fef75f671205513c919081900360200190a36040513381526000906001600160a01b038416907fe38a6c4c1fedf846d056ef0d8bb604b0742a879afaa3af32b2ba737fe88b80ad9060200160405180910390a350506101ac565b90565b80516001600160a01b038116811461017457600080fd5b919050565b6000806040838503121561018c57600080fd5b6101958361015d565b91506101a36020840161015d565b90509250929050565b60805160a05160c0516106916101fe600039600081816101ab0152818161027f01528181610420015261055a0152600081816102a2015261058d0152600081816102db01526105b501526106916000f3fe6080604052600436106100745760003560e01c806359659e901161004e57806359659e90146100df5780635c60da1b1461010c578063704b6c0214610121578063f851a4401461014157610083565b80630d6aef041461008b5780633dae9a9f146100a05780634b3c80cb146100ca57610083565b3661008357610081610156565b005b610081610156565b34801561009757600080fd5b50610081610168565b3480156100ac57600080fd5b506100b5610221565b60405190151581526020015b60405180910390f35b3480156100d657600080fd5b5061008161023b565b3480156100eb57600080fd5b506100f46103cd565b6040516001600160a01b0390911681526020016100c1565b34801561011857600080fd5b506100f46103dc565b34801561012d57600080fd5b5061008161013c3660046105f1565b6103e6565b34801561014d57600080fd5b506100f461049c565b6101666101616104a6565b610532565b565b610170610556565b6001600160a01b0316336001600160a01b0316146101a95760405162461bcd60e51b81526004016101a090610615565b60405180910390fd5b7f000000000000000000000000000000000000000000000000000000000000000080546001600160a01b031981169091556040805133815290516001600160a01b039092169182916000917f9f6130d220a6021d90d78c7ed17b7cfb79f530974405b174fef75f671205513c9181900360200190a350565b60008061022c610589565b6001600160a01b031614905090565b610243610556565b6001600160a01b0316336001600160a01b0316146102735760405162461bcd60e51b81526004016101a090610615565b600061027d6104a6565b7f000000000000000000000000000000000000000000000000000000000000000080547f000000000000000000000000000000000000000000000000000000000000000080546001600160a01b0319808216909255835482169093557f000000000000000000000000000000000000000000000000000000000000000080546001600160a01b03808716919093168117909155604051949550918116939216913391907f36bd5da0e202ac8d58bec67d15f3402457fc872056bff7f024c64eed8132e94090600090a36040513381526001600160a01b038216906000907fe38a6c4c1fedf846d056ef0d8bb604b0742a879afaa3af32b2ba737fe88b80ad9060200160405180910390a36040513381526001600160a01b038316906000907f9f6130d220a6021d90d78c7ed17b7cfb79f530974405b174fef75f671205513c9060200160405180910390a3505050565b60006103d7610589565b905090565b60006103d76104a6565b6103ee610556565b6001600160a01b0316336001600160a01b03161461041e5760405162461bcd60e51b81526004016101a090610615565b7f000000000000000000000000000000000000000000000000000000000000000080546001600160a01b038381166001600160a01b0319831681179093556040805133815290519190921692839290917f9f6130d220a6021d90d78c7ed17b7cfb79f530974405b174fef75f671205513c9181900360200190a35050565b60006103d7610556565b6000806104b1610589565b90506001600160a01b0381161561052a57806001600160a01b0316635c60da1b6040518163ffffffff1660e01b8152600401602060405180830381865afa158015610500573d6000803e3d6000fd5b505050506040513d601f19601f82011682018060405250810190610524919061063e565b91505090565b6105246105b1565b3660008037600080366000845af43d6000803e808015610551573d6000f35b3d6000fd5b60007f00000000000000000000000000000000000000000000000000000000000000005b546001600160a01b0316919050565b60007f000000000000000000000000000000000000000000000000000000000000000061057a565b60007f000000000000000000000000000000000000000000000000000000000000000061057a565b6001600160a01b03811681146105ee57600080fd5b50565b60006020828403121561060357600080fd5b813561060e816105d9565b9392505050565b6020808252600f908201526e3737ba10383937bc3c9030b236b4b760891b604082015260600190565b60006020828403121561065057600080fd5b815161060e816105d956fea26469706673582212206657bec574a18ec32eb59c1a667ff12b637fe7e70ae9ddcba2f6d0b344fb253d64736f6c63430008130033a2646970667358221220a9d5f9d13a30196e3ee938aa15e5264a5d70b39664d1132756a48d8a031d3b5f64736f6c63430008130033",
  "devdoc": {
    "author": "ZeroLend",
    "details": "This is a beacon contract that holds the latest implementation of a pool. Pools once created need to also have some deposit added into it else it will be vulnerable to a liquidity index manipulation attack.",
    "kind": "dev",
    "methods": {
      "constructor": {
        "details": "Sets the treasury as the `msg.sender`",
        "params": {
          "_implementation": "The latest implementation of the pool."
        }
      },
      "owner()": {
        "details": "Returns the address of the current owner."
      },
      "renounceOwnership()": {
        "details": "Leaves the contract without owner. It will not be possible to call `onlyOwner` functions. Can only be called by the current owner. NOTE: Renouncing ownership will leave the contract without an owner, thereby disabling any functionality that is only available to the owner."
      },
      "transferOwnership(address)": {
        "details": "Transfers ownership of the contract to a new account (`newOwner`). Can only be called by the current owner."
      }
    },
    "stateVariables": {
      "implementation": {
        "details": "Must return an address that can be used as a delegate call target. {BeaconProxy} will check that this address is a contract."
      }
    },
    "title": "Pool Factory Contract",
    "version": 1
  },
  "userdoc": {
    "kind": "user",
    "methods": {
      "constructor": {
        "notice": "Inits the factory with an implementation of the pool."
      }
    },
    "notice": "Creates new instances of a Pool",
    "version": 1
  },
  "storageLayout": {
    "storage": [
      {
        "astId": 8147,
        "contract": "contracts/core/pool/PoolFactory.sol:PoolFactory",
        "label": "_owner",
        "offset": 0,
        "slot": "0",
        "type": "t_address"
      },
      {
        "astId": 22302,
        "contract": "contracts/core/pool/PoolFactory.sol:PoolFactory",
        "label": "implementation",
        "offset": 0,
        "slot": "1",
        "type": "t_address"
      },
      {
        "astId": 22305,
        "contract": "contracts/core/pool/PoolFactory.sol:PoolFactory",
        "label": "treasury",
        "offset": 0,
        "slot": "2",
        "type": "t_address"
      },
      {
        "astId": 22310,
        "contract": "contracts/core/pool/PoolFactory.sol:PoolFactory",
        "label": "pools",
        "offset": 0,
        "slot": "3",
        "type": "t_array(t_contract(IPool)40178)dyn_storage"
      },
      {
        "astId": 22315,
        "contract": "contracts/core/pool/PoolFactory.sol:PoolFactory",
        "label": "isPool",
        "offset": 0,
        "slot": "4",
        "type": "t_mapping(t_address,t_bool)"
      },
      {
        "astId": 22319,
        "contract": "contracts/core/pool/PoolFactory.sol:PoolFactory",
        "label": "configurator",
        "offset": 0,
        "slot": "5",
        "type": "t_contract(IPoolConfigurator)38824"
      },
      {
        "astId": 22322,
        "contract": "contracts/core/pool/PoolFactory.sol:PoolFactory",
        "label": "reserveFactor",
        "offset": 0,
        "slot": "6",
        "type": "t_uint256"
      },
      {
        "astId": 22325,
        "contract": "contracts/core/pool/PoolFactory.sol:PoolFactory",
        "label": "flashLoanPremiumToProtocol",
        "offset": 0,
        "slot": "7",
        "type": "t_uint256"
      },
      {
        "astId": 22328,
        "contract": "contracts/core/pool/PoolFactory.sol:PoolFactory",
        "label": "liquidationProtocolFeePercentage",
        "offset": 0,
        "slot": "8",
        "type": "t_uint256"
      }
    ],
    "types": {
      "t_address": {
        "encoding": "inplace",
        "label": "address",
        "numberOfBytes": "20"
      },
      "t_array(t_contract(IPool)40178)dyn_storage": {
        "base": "t_contract(IPool)40178",
        "encoding": "dynamic_array",
        "label": "contract IPool[]",
        "numberOfBytes": "32"
      },
      "t_bool": {
        "encoding": "inplace",
        "label": "bool",
        "numberOfBytes": "1"
      },
      "t_contract(IPool)40178": {
        "encoding": "inplace",
        "label": "contract IPool",
        "numberOfBytes": "20"
      },
      "t_contract(IPoolConfigurator)38824": {
        "encoding": "inplace",
        "label": "contract IPoolConfigurator",
        "numberOfBytes": "20"
      },
      "t_mapping(t_address,t_bool)": {
        "encoding": "mapping",
        "key": "t_address",
        "label": "mapping(address => bool)",
        "numberOfBytes": "32",
        "value": "t_bool"
      },
      "t_uint256": {
        "encoding": "inplace",
        "label": "uint256",
        "numberOfBytes": "32"
      }
    }
  }
}