{
  "address": "0xf24A6d44e69949837111FF6f4339462534124679",
  "abi": [
    {
      "inputs": [
        {
          "internalType": "address",
          "name": "_implementation",
          "type": "address"
        }
      ],
      "stateMutability": "nonpayable",
      "type": "constructor"
    },
    {
      "anonymous": false,
      "inputs": [
        {
          "indexed": true,
          "internalType": "address",
          "name": "old",
          "type": "address"
        },
        {
          "indexed": true,
          "internalType": "address",
          "name": "updated",
          "type": "address"
        },
        {
          "indexed": false,
          "internalType": "address",
          "name": "owner",
          "type": "address"
        }
      ],
      "name": "ConfiguratorUpdated",
      "type": "event"
    },
    {
      "anonymous": false,
      "inputs": [
        {
          "indexed": true,
          "internalType": "uint256",
          "name": "old",
          "type": "uint256"
        },
        {
          "indexed": true,
          "internalType": "uint256",
          "name": "updated",
          "type": "uint256"
        },
        {
          "indexed": false,
          "internalType": "address",
          "name": "owner",
          "type": "address"
        }
      ],
      "name": "FlashLoanPremiumToProtocolUpdated",
      "type": "event"
    },
    {
      "anonymous": false,
      "inputs": [
        {
          "indexed": true,
          "internalType": "address",
          "name": "old",
          "type": "address"
        },
        {
          "indexed": true,
          "internalType": "address",
          "name": "updated",
          "type": "address"
        },
        {
          "indexed": false,
          "internalType": "address",
          "name": "owner",
          "type": "address"
        }
      ],
      "name": "ImplementationUpdated",
      "type": "event"
    },
    {
      "anonymous": false,
      "inputs": [
        {
          "indexed": true,
          "internalType": "address",
          "name": "previousOwner",
          "type": "address"
        },
        {
          "indexed": true,
          "internalType": "address",
          "name": "newOwner",
          "type": "address"
        }
      ],
      "name": "OwnershipTransferred",
      "type": "event"
    },
    {
      "anonymous": false,
      "inputs": [
        {
          "indexed": true,
          "internalType": "contract IPool",
          "name": "pool",
          "type": "address"
        },
        {
          "indexed": true,
          "internalType": "uint256",
          "name": "index",
          "type": "uint256"
        },
        {
          "indexed": false,
          "internalType": "address",
          "name": "creator",
          "type": "address"
        }
      ],
      "name": "PoolCreated",
      "type": "event"
    },
    {
      "anonymous": false,
      "inputs": [
        {
          "indexed": true,
          "internalType": "uint256",
          "name": "old",
          "type": "uint256"
        },
        {
          "indexed": true,
          "internalType": "uint256",
          "name": "updated",
          "type": "uint256"
        },
        {
          "indexed": false,
          "internalType": "address",
          "name": "owner",
          "type": "address"
        }
      ],
      "name": "ReserveFactorUpdated",
      "type": "event"
    },
    {
      "anonymous": false,
      "inputs": [
        {
          "indexed": true,
          "internalType": "address",
          "name": "old",
          "type": "address"
        },
        {
          "indexed": true,
          "internalType": "address",
          "name": "updated",
          "type": "address"
        },
        {
          "indexed": false,
          "internalType": "address",
          "name": "owner",
          "type": "address"
        }
      ],
      "name": "RewardsControllerUpdated",
      "type": "event"
    },
    {
      "anonymous": false,
      "inputs": [
        {
          "indexed": true,
          "internalType": "address",
          "name": "old",
          "type": "address"
        },
        {
          "indexed": true,
          "internalType": "address",
          "name": "updated",
          "type": "address"
        },
        {
          "indexed": false,
          "internalType": "address",
          "name": "owner",
          "type": "address"
        }
      ],
      "name": "TreasuryUpdated",
      "type": "event"
    },
    {
      "inputs": [],
      "name": "configurator",
      "outputs": [
        {
          "internalType": "contract IPoolConfigurator",
          "name": "",
          "type": "address"
        }
      ],
      "stateMutability": "view",
      "type": "function"
    },
    {
      "inputs": [
        {
          "components": [
            {
              "internalType": "address",
              "name": "hook",
              "type": "address"
            },
            {
              "internalType": "address[]",
              "name": "assets",
              "type": "address[]"
            },
            {
              "internalType": "address[]",
              "name": "rateStrategyAddresses",
              "type": "address[]"
            },
            {
              "internalType": "address[]",
              "name": "sources",
              "type": "address[]"
            },
            {
              "components": [
                {
                  "internalType": "bool",
                  "name": "borrowable",
                  "type": "bool"
                },
                {
                  "internalType": "bool",
                  "name": "frozen",
                  "type": "bool"
                },
                {
                  "internalType": "uint256",
                  "name": "borrowCap",
                  "type": "uint256"
                },
                {
                  "internalType": "uint256",
                  "name": "decimals",
                  "type": "uint256"
                },
                {
                  "internalType": "uint256",
                  "name": "liquidationBonus",
                  "type": "uint256"
                },
                {
                  "internalType": "uint256",
                  "name": "liquidationThreshold",
                  "type": "uint256"
                },
                {
                  "internalType": "uint256",
                  "name": "ltv",
                  "type": "uint256"
                },
                {
                  "internalType": "uint256",
                  "name": "supplyCap",
                  "type": "uint256"
                }
              ],
              "internalType": "struct DataTypes.InitReserveConfig[]",
              "name": "configurations",
              "type": "tuple[]"
            }
          ],
          "internalType": "struct DataTypes.InitPoolParams",
          "name": "params",
          "type": "tuple"
        }
      ],
      "name": "createPool",
      "outputs": [
        {
          "internalType": "contract IPool",
          "name": "pool",
          "type": "address"
        }
      ],
      "stateMutability": "nonpayable",
      "type": "function"
    },
    {
      "inputs": [],
      "name": "flashLoanPremiumToProtocol",
      "outputs": [
        {
          "internalType": "uint256",
          "name": "",
          "type": "uint256"
        }
      ],
      "stateMutability": "view",
      "type": "function"
    },
    {
      "inputs": [],
      "name": "implementation",
      "outputs": [
        {
          "internalType": "address",
          "name": "",
          "type": "address"
        }
      ],
      "stateMutability": "view",
      "type": "function"
    },
    {
      "inputs": [
        {
          "internalType": "address",
          "name": "",
          "type": "address"
        }
      ],
      "name": "isPool",
      "outputs": [
        {
          "internalType": "bool",
          "name": "",
          "type": "bool"
        }
      ],
      "stateMutability": "view",
      "type": "function"
    },
    {
      "inputs": [],
      "name": "liquidationProtocolFeePercentage",
      "outputs": [
        {
          "internalType": "uint256",
          "name": "",
          "type": "uint256"
        }
      ],
      "stateMutability": "view",
      "type": "function"
    },
    {
      "inputs": [],
      "name": "owner",
      "outputs": [
        {
          "internalType": "address",
          "name": "",
          "type": "address"
        }
      ],
      "stateMutability": "view",
      "type": "function"
    },
    {
      "inputs": [
        {
          "internalType": "uint256",
          "name": "",
          "type": "uint256"
        }
      ],
      "name": "pools",
      "outputs": [
        {
          "internalType": "contract IPool",
          "name": "",
          "type": "address"
        }
      ],
      "stateMutability": "view",
      "type": "function"
    },
    {
      "inputs": [],
      "name": "poolsLength",
      "outputs": [
        {
          "internalType": "uint256",
          "name": "",
          "type": "uint256"
        }
      ],
      "stateMutability": "view",
      "type": "function"
    },
    {
      "inputs": [],
      "name": "renounceOwnership",
      "outputs": [],
      "stateMutability": "nonpayable",
      "type": "function"
    },
    {
      "inputs": [],
      "name": "reserveFactor",
      "outputs": [
        {
          "internalType": "uint256",
          "name": "",
          "type": "uint256"
        }
      ],
      "stateMutability": "view",
      "type": "function"
    },
    {
      "inputs": [],
      "name": "rewardsController",
      "outputs": [
        {
          "internalType": "address",
          "name": "",
          "type": "address"
        }
      ],
      "stateMutability": "view",
      "type": "function"
    },
    {
      "inputs": [
        {
          "internalType": "address",
          "name": "impl",
          "type": "address"
        }
      ],
      "name": "setConfigurator",
      "outputs": [],
      "stateMutability": "nonpayable",
      "type": "function"
    },
    {
      "inputs": [
        {
          "internalType": "uint256",
          "name": "updated",
          "type": "uint256"
        }
      ],
      "name": "setFlashloanPremium",
      "outputs": [],
      "stateMutability": "nonpayable",
      "type": "function"
    },
    {
      "inputs": [
        {
          "internalType": "address",
          "name": "impl",
          "type": "address"
        }
      ],
      "name": "setImplementation",
      "outputs": [],
      "stateMutability": "nonpayable",
      "type": "function"
    },
    {
      "inputs": [
        {
          "internalType": "uint256",
          "name": "updated",
          "type": "uint256"
        }
      ],
      "name": "setReserveFactor",
      "outputs": [],
      "stateMutability": "nonpayable",
      "type": "function"
    },
    {
      "inputs": [
        {
          "internalType": "address",
          "name": "_controller",
          "type": "address"
        }
      ],
      "name": "setRewardsController",
      "outputs": [],
      "stateMutability": "nonpayable",
      "type": "function"
    },
    {
      "inputs": [
        {
          "internalType": "address",
          "name": "_treasury",
          "type": "address"
        }
      ],
      "name": "setTreasury",
      "outputs": [],
      "stateMutability": "nonpayable",
      "type": "function"
    },
    {
      "inputs": [
        {
          "internalType": "address",
          "name": "newOwner",
          "type": "address"
        }
      ],
      "name": "transferOwnership",
      "outputs": [],
      "stateMutability": "nonpayable",
      "type": "function"
    },
    {
      "inputs": [],
      "name": "treasury",
      "outputs": [
        {
          "internalType": "address",
          "name": "",
          "type": "address"
        }
      ],
      "stateMutability": "view",
      "type": "function"
    }
  ],
  "transactionHash": "0x4d6e73971357c24269cf82ce334faa4f5d166622c27b0414aa642e936c545236",
  "args": [
    "0x0000000000000000000000000000000000000000"
  ],
  "numDeployments": 1,
  "solcInputHash": "2834fe7fbbb1af748140962d71f4d6ce",
  "bytecode": "0x608060405234801561001057600080fd5b506040516114d73803806114d783398101604081905261002f916100b6565b61003833610066565b600180546001600160a01b039092166001600160a01b031992831617905560028054909116331790556100e6565b600080546001600160a01b038381166001600160a01b0319831681178455604051919092169283917f8be0079c531659141344cd1fd0a4f28419497f9722a3daafe3b4186f6b6457e09190a35050565b6000602082840312156100c857600080fd5b81516001600160a01b03811681146100df57600080fd5b9392505050565b6113e2806100f56000396000f3fe608060405234801561001057600080fd5b506004361061012c5760003560e01c80636bb65f53116100ad578063ac4afa3811610071578063ac4afa3814610265578063bee36bb314610278578063d784d4261461028b578063f0f442601461029e578063f2fde38b146102b157600080fd5b80636bb65f5314610213578063715018a6146102265780638aac89aa1461022e5780638da5cb5b146102415780639f5f86ae1461025257600080fd5b80632b507df8116100f45780632b507df81461019e5780634322b714146101b15780635b16ebb7146101ba5780635c60da1b146101ed57806361d027b31461020057600080fd5b8063075650ba1461013157806309e8a6df146101615780631c44698314610178578063211a94ea1461018d5780632716ae6614610196575b600080fd5b61014461013f366004610a74565b6102c4565b6040516001600160a01b0390911681526020015b60405180910390f35b61016a60085481565b604051908152602001610158565b61018b610186366004610b5e565b610471565b005b61016a60095481565b60045461016a565b600654610144906001600160a01b031681565b61016a60075481565b6101dd6101c8366004610b77565b60056020526000908152604090205460ff1681565b6040519015158152602001610158565b600154610144906001600160a01b031681565b600254610144906001600160a01b031681565b600354610144906001600160a01b031681565b61018b6104bd565b61018b61023c366004610b5e565b6104d1565b6000546001600160a01b0316610144565b61018b610260366004610b77565b610515565b610144610273366004610b5e565b6105dd565b61018b610286366004610b77565b610607565b61018b610299366004610b77565b610664565b61018b6102ac366004610b77565b6106c1565b61018b6102bf366004610b77565b61071e565b600030336040516102d490610846565b6001600160a01b03928316815291166020820152604001604051809103906000f080158015610307573d6000803e3d6000fd5b506040516310fdbb8f60e21b81529091506001600160a01b038216906343f6ee3c90610337908590600401610bdd565b600060405180830381600087803b15801561035157600080fd5b505af1158015610365573d6000803e3d6000fd5b505060065460405163e84d791f60e01b81526001600160a01b038581166004830152336024830152909116925063e84d791f9150604401600060405180830381600087803b1580156103b657600080fd5b505af11580156103ca573d6000803e3d6000fd5b505060048054600180820183557f8a35acfbc15ff81a39ae7d344fd709f28e8600b4aa8c65c6b64bfe7fe36bd19b90910180546001600160a01b0319166001600160a01b038716908117909155600081815260056020908152604091829020805460ff19169094179093559254925133815292945092507f9fc315656731a141d1f2c926494301654c255c9b0110b448530a6bb42e66eadf910160405180910390a3919050565b61047961079c565b6007805490829055604051338152829082907ff06f772d539d838d36ff6aaa9d666491ad50c38493996f1d19acb07d6e492607906020015b60405180910390a35050565b6104c561079c565b6104cf60006107f6565b565b6104d961079c565b6008805490829055604051338152829082907f313b7326127247867bf91bd06c0adcf2a81d9401c7b29213a85a596e5673cbb3906020016104b1565b61051d61079c565b600680546001600160a01b038381166001600160a01b0319831681179093556040513381529116919082907ff89c18df20adf04a551f4399896aa5f6c66d8802f19edb2eb6dda0cc9b5c352b9060200160405180910390a360065460405163e84d791f60e01b8152600060048201523360248201526001600160a01b039091169063e84d791f90604401600060405180830381600087803b1580156105c157600080fd5b505af11580156105d5573d6000803e3d6000fd5b505050505050565b600481815481106105ed57600080fd5b6000918252602090912001546001600160a01b0316905081565b61060f61079c565b600380546001600160a01b038381166001600160a01b0319831681179093556040513381529116919082907f2a33b95c3b4bffb881d4710c068b16cbddce8ab39ae87ecf9bfb18b66b132d54906020016104b1565b61066c61079c565b600180546001600160a01b038381166001600160a01b0319831681179093556040513381529116919082907f69ac7086f25179201a0cb39e4ffd8b5dd8224e2c7df939db65cb77311a0c030e906020016104b1565b6106c961079c565b600280546001600160a01b038381166001600160a01b0319831681179093556040513381529116919082907f23c12d5579081c5f1077c04a6b1c114d0f3de239e81a436836d30ecb099ffa13906020016104b1565b61072661079c565b6001600160a01b0381166107905760405162461bcd60e51b815260206004820152602660248201527f4f776e61626c653a206e6577206f776e657220697320746865207a65726f206160448201526564647265737360d01b60648201526084015b60405180910390fd5b610799816107f6565b50565b6000546001600160a01b031633146104cf5760405162461bcd60e51b815260206004820181905260248201527f4f776e61626c653a2063616c6c6572206973206e6f7420746865206f776e65726044820152606401610787565b600080546001600160a01b038381166001600160a01b0319831681178455604051919092169283917f8be0079c531659141344cd1fd0a4f28419497f9722a3daafe3b4186f6b6457e09190a35050565b6106d080610cdd83390190565b634e487b7160e01b600052604160045260246000fd5b604051610100810167ffffffffffffffff8111828210171561088d5761088d610853565b60405290565b60405160a0810167ffffffffffffffff8111828210171561088d5761088d610853565b604051601f8201601f1916810167ffffffffffffffff811182821017156108df576108df610853565b604052919050565b80356001600160a01b03811681146108fe57600080fd5b919050565b600067ffffffffffffffff82111561091d5761091d610853565b5060051b60200190565b600082601f83011261093857600080fd5b8135602061094d61094883610903565b6108b6565b82815260059290921b8401810191818101908684111561096c57600080fd5b8286015b8481101561098e57610981816108e7565b8352918301918301610970565b509695505050505050565b803580151581146108fe57600080fd5b600082601f8301126109ba57600080fd5b813560206109ca61094883610903565b82815260089290921b840181019181810190868411156109e957600080fd5b8286015b8481101561098e576101008189031215610a075760008081fd5b610a0f610869565b610a1882610999565b8152610a25858301610999565b8186015260408281013590820152606080830135908201526080808301359082015260a0808301359082015260c0808301359082015260e08083013590820152835291830191610100016109ed565b600060208284031215610a8657600080fd5b813567ffffffffffffffff80821115610a9e57600080fd5b9083019060a08286031215610ab257600080fd5b610aba610893565b610ac3836108e7565b8152602083013582811115610ad757600080fd5b610ae387828601610927565b602083015250604083013582811115610afb57600080fd5b610b0787828601610927565b604083015250606083013582811115610b1f57600080fd5b610b2b87828601610927565b606083015250608083013582811115610b4357600080fd5b610b4f878286016109a9565b60808301525095945050505050565b600060208284031215610b7057600080fd5b5035919050565b600060208284031215610b8957600080fd5b610b92826108e7565b9392505050565b600081518084526020808501945080840160005b83811015610bd25781516001600160a01b031687529582019590820190600101610bad565b509495945050505050565b6000602080835260c060018060a01b03855116828501528185015160a060408181880152610c0d84880184610b99565b925080880151601f196060818a870301818b0152610c2b8684610b99565b9550808b015192506080828b880301818c0152610c488785610b99565b8c8201518c8203909401878d01528351808252938a019750600094508901925b80851015610ccb5787518051151585528a81015115158b8601528681015187860152838101518486015282810151838601528781015188860152898101518a86015260e09081015190850152968901966001949094019361010090930192610c68565b50919b9a505050505050505050505056fe60e06040527fe66c68ebcb04b4052987797348c2f105a854485da1807493a795dc2502ad5b006080527fa3f0ad74e5423aebfd80d3ef4346578335a9a72aeaee59ff6cb3582b35133d5160a0527fb53127684a568b3173ae13b9f8a6016e243e63b6e8ee1178d6a717850b5d610460c05234801561007c57600080fd5b506040516106d03803806106d083398101604081905261009b91610100565b816100ad60a0516100e160201b60201c565b80546001600160a01b039283166001600160a01b03199182161790915560c051805493909216921691909117905550610133565b90565b80516001600160a01b03811681146100fb57600080fd5b919050565b6000806040838503121561011357600080fd5b61011c836100e4565b915061012a602084016100e4565b90509250929050565b60805160a05160c05161054b610185600039600081816101ab0152818161028801528181610387015261041c0152600081816103ba01526103ea015260008181610447015261046f015261054b6000f3fe6080604052600436106100745760003560e01c806359659e901161004e57806359659e90146100df5780635c60da1b1461010c578063704b6c0214610121578063f851a4401461014157610083565b80630d6aef041461008b5780633dae9a9f146100a05780634b3c80cb146100ca57610083565b3661008357610081610156565b005b610081610156565b34801561009757600080fd5b50610081610168565b3480156100ac57600080fd5b506100b56101da565b60405190151581526020015b60405180910390f35b3480156100d657600080fd5b506100816101f4565b3480156100eb57600080fd5b506100f4610234565b6040516001600160a01b0390911681526020016100c1565b34801561011857600080fd5b506100f4610243565b34801561012d57600080fd5b5061008161013c3660046104ab565b61024d565b34801561014d57600080fd5b506100f46102c9565b6101666101616102d3565b61035f565b565b610170610383565b6001600160a01b0316336001600160a01b0316146101a95760405162461bcd60e51b81526004016101a0906104cf565b60405180910390fd5b7f000000000000000000000000000000000000000000000000000000000000000080546001600160a01b0319169055565b6000806101e56103b6565b6001600160a01b031614905090565b6101fc610383565b6001600160a01b0316336001600160a01b03161461022c5760405162461bcd60e51b81526004016101a0906104cf565b6101666103de565b600061023e6103b6565b905090565b600061023e6102d3565b610255610383565b6001600160a01b0316336001600160a01b0316146102855760405162461bcd60e51b81526004016101a0906104cf565b807f00000000000000000000000000000000000000000000000000000000000000005b80546001600160a01b0319166001600160a01b039290921691909117905550565b600061023e610383565b6000806102de6103b6565b90506001600160a01b0381161561035757806001600160a01b0316635c60da1b6040518163ffffffff1660e01b8152600401602060405180830381865afa15801561032d573d6000803e3d6000fd5b505050506040513d601f19601f8201168201806040525081019061035191906104f8565b91505090565b61035161046b565b3660008037600080366000845af43d6000803e80801561037e573d6000f35b3d6000fd5b60007f00000000000000000000000000000000000000000000000000000000000000005b546001600160a01b0316919050565b60007f00000000000000000000000000000000000000000000000000000000000000006103a7565b60006103e86102d3565b7f000000000000000000000000000000000000000000000000000000000000000080546001600160a01b03199081169091557f0000000000000000000000000000000000000000000000000000000000000000805490911690559050807f00000000000000000000000000000000000000000000000000000000000000006102a8565b60007f00000000000000000000000000000000000000000000000000000000000000006103a7565b6001600160a01b03811681146104a857600080fd5b50565b6000602082840312156104bd57600080fd5b81356104c881610493565b9392505050565b6020808252600f908201526e3737ba10383937bc3c9030b236b4b760891b604082015260600190565b60006020828403121561050a57600080fd5b81516104c88161049356fea2646970667358221220f757750b485b0d137577a537c4388510a8cbde3252f36435e0c94dbaa33c35bd64736f6c63430008130033a264697066735822122066b06a5c6b13116a30a64e6b234a9bcd3dbd03f16593e37a84335d74e0eea4a864736f6c63430008130033",
  "devdoc": {
    "author": "ZeroLend",
    "details": "This is a beacon contract that holds the latest implementation of a pool. Pools once created need to also have some deposit added into it else it will be vulnerable to a liquidity index manipulation attack.",
    "kind": "dev",
    "methods": {
      "constructor": {
        "details": "Sets the treasury as the `msg.sender`",
        "params": {
          "_implementation": "The latest implementation of the pool."
        }
      },
      "owner()": {
        "details": "Returns the address of the current owner."
      },
      "renounceOwnership()": {
        "details": "Leaves the contract without owner. It will not be possible to call `onlyOwner` functions. Can only be called by the current owner. NOTE: Renouncing ownership will leave the contract without an owner, thereby disabling any functionality that is only available to the owner."
      },
      "transferOwnership(address)": {
        "details": "Transfers ownership of the contract to a new account (`newOwner`). Can only be called by the current owner."
      }
    },
    "stateVariables": {
      "implementation": {
        "details": "Must return an address that can be used as a delegate call target. {BeaconProxy} will check that this address is a contract."
      }
    },
    "title": "Pool Factory Contract",
    "version": 1
  },
  "userdoc": {
    "kind": "user",
    "methods": {
      "constructor": {
        "notice": "Inits the factory with an implementation of the pool."
      }
    },
    "notice": "Creates new instances of a Pool",
    "version": 1
  },
  "storageLayout": {
    "storage": [
      {
        "astId": 8195,
        "contract": "contracts/core/pool/PoolFactory.sol:PoolFactory",
        "label": "_owner",
        "offset": 0,
        "slot": "0",
        "type": "t_address"
      },
      {
        "astId": 22275,
        "contract": "contracts/core/pool/PoolFactory.sol:PoolFactory",
        "label": "implementation",
        "offset": 0,
        "slot": "1",
        "type": "t_address"
      },
      {
        "astId": 22278,
        "contract": "contracts/core/pool/PoolFactory.sol:PoolFactory",
        "label": "treasury",
        "offset": 0,
        "slot": "2",
        "type": "t_address"
      },
      {
        "astId": 22281,
        "contract": "contracts/core/pool/PoolFactory.sol:PoolFactory",
        "label": "rewardsController",
        "offset": 0,
        "slot": "3",
        "type": "t_address"
      },
      {
        "astId": 22286,
        "contract": "contracts/core/pool/PoolFactory.sol:PoolFactory",
        "label": "pools",
        "offset": 0,
        "slot": "4",
        "type": "t_array(t_contract(IPool)38082)dyn_storage"
      },
      {
        "astId": 22291,
        "contract": "contracts/core/pool/PoolFactory.sol:PoolFactory",
        "label": "isPool",
        "offset": 0,
        "slot": "5",
        "type": "t_mapping(t_address,t_bool)"
      },
      {
        "astId": 22295,
        "contract": "contracts/core/pool/PoolFactory.sol:PoolFactory",
        "label": "configurator",
        "offset": 0,
        "slot": "6",
        "type": "t_contract(IPoolConfigurator)36719"
      },
      {
        "astId": 22298,
        "contract": "contracts/core/pool/PoolFactory.sol:PoolFactory",
        "label": "reserveFactor",
        "offset": 0,
        "slot": "7",
        "type": "t_uint256"
      },
      {
        "astId": 22301,
        "contract": "contracts/core/pool/PoolFactory.sol:PoolFactory",
        "label": "flashLoanPremiumToProtocol",
        "offset": 0,
        "slot": "8",
        "type": "t_uint256"
      },
      {
        "astId": 22304,
        "contract": "contracts/core/pool/PoolFactory.sol:PoolFactory",
        "label": "liquidationProtocolFeePercentage",
        "offset": 0,
        "slot": "9",
        "type": "t_uint256"
      }
    ],
    "types": {
      "t_address": {
        "encoding": "inplace",
        "label": "address",
        "numberOfBytes": "20"
      },
      "t_array(t_contract(IPool)38082)dyn_storage": {
        "base": "t_contract(IPool)38082",
        "encoding": "dynamic_array",
        "label": "contract IPool[]",
        "numberOfBytes": "32"
      },
      "t_bool": {
        "encoding": "inplace",
        "label": "bool",
        "numberOfBytes": "1"
      },
      "t_contract(IPool)38082": {
        "encoding": "inplace",
        "label": "contract IPool",
        "numberOfBytes": "20"
      },
      "t_contract(IPoolConfigurator)36719": {
        "encoding": "inplace",
        "label": "contract IPoolConfigurator",
        "numberOfBytes": "20"
      },
      "t_mapping(t_address,t_bool)": {
        "encoding": "mapping",
        "key": "t_address",
        "label": "mapping(address => bool)",
        "numberOfBytes": "32",
        "value": "t_bool"
      },
      "t_uint256": {
        "encoding": "inplace",
        "label": "uint256",
        "numberOfBytes": "32"
      }
    }
  }
}