{
  "address": "0x81D61F4530fdC0b2788E298d640dB5981e6Fe0EF",
  "abi": [
    {
      "inputs": [
        {
          "internalType": "address",
          "name": "_factory",
          "type": "address"
        },
        {
          "internalType": "address",
          "name": "_governance",
          "type": "address"
        }
      ],
      "stateMutability": "nonpayable",
      "type": "constructor"
    },
    {
      "inputs": [
        {
          "internalType": "uint256",
          "name": "delay",
          "type": "uint256"
        },
        {
          "internalType": "uint256",
          "name": "minDelay",
          "type": "uint256"
        }
      ],
      "name": "TimelockInsufficientDelay",
      "type": "error"
    },
    {
      "inputs": [
        {
          "internalType": "uint256",
          "name": "targets",
          "type": "uint256"
        },
        {
          "internalType": "uint256",
          "name": "payloads",
          "type": "uint256"
        },
        {
          "internalType": "uint256",
          "name": "values",
          "type": "uint256"
        }
      ],
      "name": "TimelockInvalidOperationLength",
      "type": "error"
    },
    {
      "inputs": [
        {
          "internalType": "address",
          "name": "caller",
          "type": "address"
        }
      ],
      "name": "TimelockUnauthorizedCaller",
      "type": "error"
    },
    {
      "inputs": [
        {
          "internalType": "bytes32",
          "name": "operationId",
          "type": "bytes32"
        },
        {
          "internalType": "bytes32",
          "name": "expectedStates",
          "type": "bytes32"
        }
      ],
      "name": "TimelockUnexpectedOperationState",
      "type": "error"
    },
    {
      "anonymous": false,
      "inputs": [
        {
          "indexed": true,
          "internalType": "address",
          "name": "asset",
          "type": "address"
        },
        {
          "indexed": false,
          "internalType": "uint256",
          "name": "oldBorrowCap",
          "type": "uint256"
        },
        {
          "indexed": false,
          "internalType": "uint256",
          "name": "newBorrowCap",
          "type": "uint256"
        }
      ],
      "name": "BorrowCapChanged",
      "type": "event"
    },
    {
      "anonymous": false,
      "inputs": [
        {
          "indexed": true,
          "internalType": "bytes32",
          "name": "id",
          "type": "bytes32"
        },
        {
          "indexed": true,
          "internalType": "uint256",
          "name": "index",
          "type": "uint256"
        },
        {
          "indexed": false,
          "internalType": "address",
          "name": "target",
          "type": "address"
        },
        {
          "indexed": false,
          "internalType": "uint256",
          "name": "value",
          "type": "uint256"
        },
        {
          "indexed": false,
          "internalType": "bytes32",
          "name": "salt",
          "type": "bytes32"
        },
        {
          "indexed": false,
          "internalType": "bytes",
          "name": "data",
          "type": "bytes"
        }
      ],
      "name": "CallExecuted",
      "type": "event"
    },
    {
      "anonymous": false,
      "inputs": [
        {
          "indexed": true,
          "internalType": "bytes32",
          "name": "id",
          "type": "bytes32"
        },
        {
          "indexed": true,
          "internalType": "uint256",
          "name": "index",
          "type": "uint256"
        },
        {
          "indexed": false,
          "internalType": "address",
          "name": "target",
          "type": "address"
        },
        {
          "indexed": false,
          "internalType": "uint256",
          "name": "value",
          "type": "uint256"
        },
        {
          "indexed": false,
          "internalType": "bytes",
          "name": "data",
          "type": "bytes"
        },
        {
          "indexed": false,
          "internalType": "bytes32",
          "name": "salt",
          "type": "bytes32"
        },
        {
          "indexed": false,
          "internalType": "uint256",
          "name": "delay",
          "type": "uint256"
        }
      ],
      "name": "CallScheduled",
      "type": "event"
    },
    {
      "anonymous": false,
      "inputs": [
        {
          "indexed": true,
          "internalType": "bytes32",
          "name": "id",
          "type": "bytes32"
        }
      ],
      "name": "Cancelled",
      "type": "event"
    },
    {
      "anonymous": false,
      "inputs": [
        {
          "indexed": false,
          "internalType": "uint256",
          "name": "oldDuration",
          "type": "uint256"
        },
        {
          "indexed": false,
          "internalType": "uint256",
          "name": "newDuration",
          "type": "uint256"
        }
      ],
      "name": "MinDelayChange",
      "type": "event"
    },
    {
      "anonymous": false,
      "inputs": [
        {
          "indexed": true,
          "internalType": "address",
          "name": "asset",
          "type": "address"
        },
        {
          "indexed": false,
          "internalType": "bool",
          "name": "enabled",
          "type": "bool"
        }
      ],
      "name": "ReserveBorrowing",
      "type": "event"
    },
    {
      "anonymous": false,
      "inputs": [
        {
          "indexed": true,
          "internalType": "address",
          "name": "asset",
          "type": "address"
        },
        {
          "indexed": false,
          "internalType": "uint256",
          "name": "oldReserveFactor",
          "type": "uint256"
        },
        {
          "indexed": false,
          "internalType": "uint256",
          "name": "newReserveFactor",
          "type": "uint256"
        }
      ],
      "name": "ReserveFactorChanged",
      "type": "event"
    },
    {
      "anonymous": false,
      "inputs": [
        {
          "indexed": true,
          "internalType": "address",
          "name": "asset",
          "type": "address"
        },
        {
          "indexed": false,
          "internalType": "bool",
          "name": "frozen",
          "type": "bool"
        }
      ],
      "name": "ReserveFrozen",
      "type": "event"
    },
    {
      "anonymous": false,
      "inputs": [
        {
          "indexed": true,
          "internalType": "address",
          "name": "asset",
          "type": "address"
        },
        {
          "indexed": false,
          "internalType": "address",
          "name": "oldStrategy",
          "type": "address"
        },
        {
          "indexed": false,
          "internalType": "address",
          "name": "newStrategy",
          "type": "address"
        }
      ],
      "name": "ReserveInterestRateStrategyChanged",
      "type": "event"
    },
    {
      "anonymous": false,
      "inputs": [
        {
          "indexed": true,
          "internalType": "bytes32",
          "name": "role",
          "type": "bytes32"
        },
        {
          "indexed": true,
          "internalType": "bytes32",
          "name": "previousAdminRole",
          "type": "bytes32"
        },
        {
          "indexed": true,
          "internalType": "bytes32",
          "name": "newAdminRole",
          "type": "bytes32"
        }
      ],
      "name": "RoleAdminChanged",
      "type": "event"
    },
    {
      "anonymous": false,
      "inputs": [
        {
          "indexed": true,
          "internalType": "bytes32",
          "name": "role",
          "type": "bytes32"
        },
        {
          "indexed": true,
          "internalType": "address",
          "name": "account",
          "type": "address"
        },
        {
          "indexed": true,
          "internalType": "address",
          "name": "sender",
          "type": "address"
        }
      ],
      "name": "RoleGranted",
      "type": "event"
    },
    {
      "anonymous": false,
      "inputs": [
        {
          "indexed": true,
          "internalType": "bytes32",
          "name": "role",
          "type": "bytes32"
        },
        {
          "indexed": true,
          "internalType": "address",
          "name": "account",
          "type": "address"
        },
        {
          "indexed": true,
          "internalType": "address",
          "name": "sender",
          "type": "address"
        }
      ],
      "name": "RoleRevoked",
      "type": "event"
    },
    {
      "anonymous": false,
      "inputs": [
        {
          "indexed": true,
          "internalType": "address",
          "name": "asset",
          "type": "address"
        },
        {
          "indexed": false,
          "internalType": "uint256",
          "name": "oldSupplyCap",
          "type": "uint256"
        },
        {
          "indexed": false,
          "internalType": "uint256",
          "name": "newSupplyCap",
          "type": "uint256"
        }
      ],
      "name": "SupplyCapChanged",
      "type": "event"
    },
    {
      "inputs": [],
      "name": "DEFAULT_ADMIN_ROLE",
      "outputs": [
        {
          "internalType": "bytes32",
          "name": "",
          "type": "bytes32"
        }
      ],
      "stateMutability": "view",
      "type": "function"
    },
    {
      "inputs": [],
      "name": "EMERGENCY_ADMIN_ROLE",
      "outputs": [
        {
          "internalType": "bytes32",
          "name": "",
          "type": "bytes32"
        }
      ],
      "stateMutability": "view",
      "type": "function"
    },
    {
      "inputs": [],
      "name": "POOL_ADMIN_ROLE",
      "outputs": [
        {
          "internalType": "bytes32",
          "name": "",
          "type": "bytes32"
        }
      ],
      "stateMutability": "view",
      "type": "function"
    },
    {
      "inputs": [],
      "name": "RISK_ADMIN_ROLE",
      "outputs": [
        {
          "internalType": "bytes32",
          "name": "",
          "type": "bytes32"
        }
      ],
      "stateMutability": "view",
      "type": "function"
    },
    {
      "inputs": [
        {
          "internalType": "contract IPool",
          "name": "pool",
          "type": "address"
        },
        {
          "internalType": "address",
          "name": "admin",
          "type": "address"
        }
      ],
      "name": "addEmergencyAdmin",
      "outputs": [],
      "stateMutability": "nonpayable",
      "type": "function"
    },
    {
      "inputs": [
        {
          "internalType": "contract IPool",
          "name": "pool",
          "type": "address"
        },
        {
          "internalType": "address",
          "name": "admin",
          "type": "address"
        }
      ],
      "name": "addPoolAdmin",
      "outputs": [],
      "stateMutability": "nonpayable",
      "type": "function"
    },
    {
      "inputs": [
        {
          "internalType": "contract IPool",
          "name": "pool",
          "type": "address"
        },
        {
          "internalType": "address",
          "name": "admin",
          "type": "address"
        }
      ],
      "name": "addRiskAdmin",
      "outputs": [],
      "stateMutability": "nonpayable",
      "type": "function"
    },
    {
      "inputs": [
        {
          "internalType": "contract IPool",
          "name": "pool",
          "type": "address"
        },
        {
          "internalType": "bytes32",
          "name": "id",
          "type": "bytes32"
        }
      ],
      "name": "cancelAction",
      "outputs": [],
      "stateMutability": "nonpayable",
      "type": "function"
    },
    {
      "inputs": [
        {
          "internalType": "address",
          "name": "target",
          "type": "address"
        },
        {
          "internalType": "uint256",
          "name": "value",
          "type": "uint256"
        },
        {
          "internalType": "bytes",
          "name": "payload",
          "type": "bytes"
        },
        {
          "internalType": "bytes32",
          "name": "salt",
          "type": "bytes32"
        }
      ],
      "name": "execute",
      "outputs": [],
      "stateMutability": "payable",
      "type": "function"
    },
    {
      "inputs": [],
      "name": "factory",
      "outputs": [
        {
          "internalType": "address",
          "name": "",
          "type": "address"
        }
      ],
      "stateMutability": "view",
      "type": "function"
    },
    {
      "inputs": [],
      "name": "getMinDelay",
      "outputs": [
        {
          "internalType": "uint256",
          "name": "",
          "type": "uint256"
        }
      ],
      "stateMutability": "view",
      "type": "function"
    },
    {
      "inputs": [
        {
          "internalType": "bytes32",
          "name": "id",
          "type": "bytes32"
        }
      ],
      "name": "getOperationState",
      "outputs": [
        {
          "internalType": "enum ITimelock.OperationState",
          "name": "",
          "type": "uint8"
        }
      ],
      "stateMutability": "view",
      "type": "function"
    },
    {
      "inputs": [
        {
          "internalType": "contract IPool",
          "name": "pool",
          "type": "address"
        },
        {
          "internalType": "address",
          "name": "asset",
          "type": "address"
        }
      ],
      "name": "getPoolAssetConfiguration",
      "outputs": [
        {
          "components": [
            {
              "internalType": "bool",
              "name": "borrowable",
              "type": "bool"
            },
            {
              "internalType": "bool",
              "name": "frozen",
              "type": "bool"
            },
            {
              "internalType": "uint256",
              "name": "borrowCap",
              "type": "uint256"
            },
            {
              "internalType": "uint256",
              "name": "decimals",
              "type": "uint256"
            },
            {
              "internalType": "uint256",
              "name": "liquidationBonus",
              "type": "uint256"
            },
            {
              "internalType": "uint256",
              "name": "liquidationThreshold",
              "type": "uint256"
            },
            {
              "internalType": "uint256",
              "name": "ltv",
              "type": "uint256"
            },
            {
              "internalType": "uint256",
              "name": "supplyCap",
              "type": "uint256"
            }
          ],
          "internalType": "struct DataTypes.InitReserveConfig",
          "name": "config",
          "type": "tuple"
        }
      ],
      "stateMutability": "view",
      "type": "function"
    },
    {
      "inputs": [
        {
          "internalType": "contract IPool",
          "name": "pool",
          "type": "address"
        }
      ],
      "name": "getPoolFullConfig",
      "outputs": [
        {
          "components": [
            {
              "internalType": "address",
              "name": "hook",
              "type": "address"
            },
            {
              "internalType": "address[]",
              "name": "assets",
              "type": "address[]"
            },
            {
              "internalType": "address[]",
              "name": "rateStrategyAddresses",
              "type": "address[]"
            },
            {
              "internalType": "address[]",
              "name": "sources",
              "type": "address[]"
            },
            {
              "components": [
                {
                  "internalType": "bool",
                  "name": "borrowable",
                  "type": "bool"
                },
                {
                  "internalType": "bool",
                  "name": "frozen",
                  "type": "bool"
                },
                {
                  "internalType": "uint256",
                  "name": "borrowCap",
                  "type": "uint256"
                },
                {
                  "internalType": "uint256",
                  "name": "decimals",
                  "type": "uint256"
                },
                {
                  "internalType": "uint256",
                  "name": "liquidationBonus",
                  "type": "uint256"
                },
                {
                  "internalType": "uint256",
                  "name": "liquidationThreshold",
                  "type": "uint256"
                },
                {
                  "internalType": "uint256",
                  "name": "ltv",
                  "type": "uint256"
                },
                {
                  "internalType": "uint256",
                  "name": "supplyCap",
                  "type": "uint256"
                }
              ],
              "internalType": "struct DataTypes.InitReserveConfig[]",
              "name": "configurations",
              "type": "tuple[]"
            }
          ],
          "internalType": "struct DataTypes.InitPoolParams",
          "name": "config",
          "type": "tuple"
        }
      ],
      "stateMutability": "view",
      "type": "function"
    },
    {
      "inputs": [
        {
          "internalType": "bytes32",
          "name": "role",
          "type": "bytes32"
        }
      ],
      "name": "getRoleAdmin",
      "outputs": [
        {
          "internalType": "bytes32",
          "name": "",
          "type": "bytes32"
        }
      ],
      "stateMutability": "view",
      "type": "function"
    },
    {
      "inputs": [
        {
          "internalType": "contract IPool",
          "name": "pool",
          "type": "address"
        },
        {
          "internalType": "bytes32",
          "name": "role",
          "type": "bytes32"
        }
      ],
      "name": "getRoleFromPool",
      "outputs": [
        {
          "internalType": "bytes32",
          "name": "",
          "type": "bytes32"
        }
      ],
      "stateMutability": "pure",
      "type": "function"
    },
    {
      "inputs": [
        {
          "internalType": "bytes32",
          "name": "role",
          "type": "bytes32"
        },
        {
          "internalType": "uint256",
          "name": "index",
          "type": "uint256"
        }
      ],
      "name": "getRoleMember",
      "outputs": [
        {
          "internalType": "address",
          "name": "",
          "type": "address"
        }
      ],
      "stateMutability": "view",
      "type": "function"
    },
    {
      "inputs": [
        {
          "internalType": "bytes32",
          "name": "role",
          "type": "bytes32"
        }
      ],
      "name": "getRoleMemberCount",
      "outputs": [
        {
          "internalType": "uint256",
          "name": "",
          "type": "uint256"
        }
      ],
      "stateMutability": "view",
      "type": "function"
    },
    {
      "inputs": [
        {
          "internalType": "bytes32",
          "name": "id",
          "type": "bytes32"
        }
      ],
      "name": "getTimestamp",
      "outputs": [
        {
          "internalType": "uint256",
          "name": "",
          "type": "uint256"
        }
      ],
      "stateMutability": "view",
      "type": "function"
    },
    {
      "inputs": [],
      "name": "governance",
      "outputs": [
        {
          "internalType": "address",
          "name": "",
          "type": "address"
        }
      ],
      "stateMutability": "view",
      "type": "function"
    },
    {
      "inputs": [
        {
          "internalType": "bytes32",
          "name": "role",
          "type": "bytes32"
        },
        {
          "internalType": "address",
          "name": "account",
          "type": "address"
        }
      ],
      "name": "grantRole",
      "outputs": [],
      "stateMutability": "nonpayable",
      "type": "function"
    },
    {
      "inputs": [
        {
          "internalType": "bytes32",
          "name": "role",
          "type": "bytes32"
        },
        {
          "internalType": "address",
          "name": "account",
          "type": "address"
        }
      ],
      "name": "hasRole",
      "outputs": [
        {
          "internalType": "bool",
          "name": "",
          "type": "bool"
        }
      ],
      "stateMutability": "view",
      "type": "function"
    },
    {
      "inputs": [
        {
          "internalType": "address",
          "name": "target",
          "type": "address"
        },
        {
          "internalType": "uint256",
          "name": "value",
          "type": "uint256"
        },
        {
          "internalType": "bytes",
          "name": "data",
          "type": "bytes"
        },
        {
          "internalType": "bytes32",
          "name": "salt",
          "type": "bytes32"
        }
      ],
      "name": "hashOperation",
      "outputs": [
        {
          "internalType": "bytes32",
          "name": "",
          "type": "bytes32"
        }
      ],
      "stateMutability": "pure",
      "type": "function"
    },
    {
      "inputs": [
        {
          "internalType": "contract IPool",
          "name": "pool",
          "type": "address"
        },
        {
          "internalType": "address",
          "name": "admin",
          "type": "address"
        }
      ],
      "name": "initRoles",
      "outputs": [],
      "stateMutability": "nonpayable",
      "type": "function"
    },
    {
      "inputs": [
        {
          "internalType": "contract IPool",
          "name": "pool",
          "type": "address"
        },
        {
          "internalType": "address",
          "name": "admin",
          "type": "address"
        }
      ],
      "name": "isEmergencyAdmin",
      "outputs": [
        {
          "internalType": "bool",
          "name": "",
          "type": "bool"
        }
      ],
      "stateMutability": "view",
      "type": "function"
    },
    {
      "inputs": [
        {
          "internalType": "bytes32",
          "name": "id",
          "type": "bytes32"
        }
      ],
      "name": "isOperation",
      "outputs": [
        {
          "internalType": "bool",
          "name": "",
          "type": "bool"
        }
      ],
      "stateMutability": "view",
      "type": "function"
    },
    {
      "inputs": [
        {
          "internalType": "bytes32",
          "name": "id",
          "type": "bytes32"
        }
      ],
      "name": "isOperationDone",
      "outputs": [
        {
          "internalType": "bool",
          "name": "",
          "type": "bool"
        }
      ],
      "stateMutability": "view",
      "type": "function"
    },
    {
      "inputs": [
        {
          "internalType": "bytes32",
          "name": "id",
          "type": "bytes32"
        }
      ],
      "name": "isOperationPending",
      "outputs": [
        {
          "internalType": "bool",
          "name": "",
          "type": "bool"
        }
      ],
      "stateMutability": "view",
      "type": "function"
    },
    {
      "inputs": [
        {
          "internalType": "bytes32",
          "name": "id",
          "type": "bytes32"
        }
      ],
      "name": "isOperationReady",
      "outputs": [
        {
          "internalType": "bool",
          "name": "",
          "type": "bool"
        }
      ],
      "stateMutability": "view",
      "type": "function"
    },
    {
      "inputs": [
        {
          "internalType": "contract IPool",
          "name": "pool",
          "type": "address"
        },
        {
          "internalType": "address",
          "name": "admin",
          "type": "address"
        }
      ],
      "name": "isPoolAdmin",
      "outputs": [
        {
          "internalType": "bool",
          "name": "",
          "type": "bool"
        }
      ],
      "stateMutability": "view",
      "type": "function"
    },
    {
      "inputs": [
        {
          "internalType": "contract IPool",
          "name": "pool",
          "type": "address"
        },
        {
          "internalType": "address",
          "name": "admin",
          "type": "address"
        }
      ],
      "name": "isRiskAdmin",
      "outputs": [
        {
          "internalType": "bool",
          "name": "",
          "type": "bool"
        }
      ],
      "stateMutability": "view",
      "type": "function"
    },
    {
      "inputs": [
        {
          "internalType": "address",
          "name": "",
          "type": "address"
        },
        {
          "internalType": "address",
          "name": "",
          "type": "address"
        },
        {
          "internalType": "uint256[]",
          "name": "",
          "type": "uint256[]"
        },
        {
          "internalType": "uint256[]",
          "name": "",
          "type": "uint256[]"
        },
        {
          "internalType": "bytes",
          "name": "",
          "type": "bytes"
        }
      ],
      "name": "onERC1155BatchReceived",
      "outputs": [
        {
          "internalType": "bytes4",
          "name": "",
          "type": "bytes4"
        }
      ],
      "stateMutability": "nonpayable",
      "type": "function"
    },
    {
      "inputs": [
        {
          "internalType": "address",
          "name": "",
          "type": "address"
        },
        {
          "internalType": "address",
          "name": "",
          "type": "address"
        },
        {
          "internalType": "uint256",
          "name": "",
          "type": "uint256"
        },
        {
          "internalType": "uint256",
          "name": "",
          "type": "uint256"
        },
        {
          "internalType": "bytes",
          "name": "",
          "type": "bytes"
        }
      ],
      "name": "onERC1155Received",
      "outputs": [
        {
          "internalType": "bytes4",
          "name": "",
          "type": "bytes4"
        }
      ],
      "stateMutability": "nonpayable",
      "type": "function"
    },
    {
      "inputs": [
        {
          "internalType": "address",
          "name": "",
          "type": "address"
        },
        {
          "internalType": "address",
          "name": "",
          "type": "address"
        },
        {
          "internalType": "uint256",
          "name": "",
          "type": "uint256"
        },
        {
          "internalType": "bytes",
          "name": "",
          "type": "bytes"
        }
      ],
      "name": "onERC721Received",
      "outputs": [
        {
          "internalType": "bytes4",
          "name": "",
          "type": "bytes4"
        }
      ],
      "stateMutability": "nonpayable",
      "type": "function"
    },
    {
      "inputs": [
        {
          "internalType": "contract IPool",
          "name": "pool",
          "type": "address"
        },
        {
          "internalType": "address",
          "name": "admin",
          "type": "address"
        }
      ],
      "name": "removeEmergencyAdmin",
      "outputs": [],
      "stateMutability": "nonpayable",
      "type": "function"
    },
    {
      "inputs": [
        {
          "internalType": "contract IPool",
          "name": "pool",
          "type": "address"
        },
        {
          "internalType": "address",
          "name": "admin",
          "type": "address"
        }
      ],
      "name": "removePoolAdmin",
      "outputs": [],
      "stateMutability": "nonpayable",
      "type": "function"
    },
    {
      "inputs": [
        {
          "internalType": "contract IPool",
          "name": "pool",
          "type": "address"
        },
        {
          "internalType": "address",
          "name": "admin",
          "type": "address"
        }
      ],
      "name": "removeRiskAdmin",
      "outputs": [],
      "stateMutability": "nonpayable",
      "type": "function"
    },
    {
      "inputs": [
        {
          "internalType": "bytes32",
          "name": "role",
          "type": "bytes32"
        },
        {
          "internalType": "address",
          "name": "account",
          "type": "address"
        }
      ],
      "name": "renounceRole",
      "outputs": [],
      "stateMutability": "nonpayable",
      "type": "function"
    },
    {
      "inputs": [
        {
          "internalType": "bytes32",
          "name": "role",
          "type": "bytes32"
        },
        {
          "internalType": "address",
          "name": "account",
          "type": "address"
        }
      ],
      "name": "revokeRole",
      "outputs": [],
      "stateMutability": "nonpayable",
      "type": "function"
    },
    {
      "inputs": [
        {
          "internalType": "contract IPool",
          "name": "pool",
          "type": "address"
        },
        {
          "internalType": "address",
          "name": "asset",
          "type": "address"
        },
        {
          "internalType": "uint256",
          "name": "newBorrowCap",
          "type": "uint256"
        }
      ],
      "name": "setBorrowCap",
      "outputs": [],
      "stateMutability": "nonpayable",
      "type": "function"
    },
    {
      "inputs": [
        {
          "internalType": "contract IPool",
          "name": "pool",
          "type": "address"
        },
        {
          "internalType": "bool",
          "name": "freeze",
          "type": "bool"
        }
      ],
      "name": "setPoolFreeze",
      "outputs": [],
      "stateMutability": "nonpayable",
      "type": "function"
    },
    {
      "inputs": [
        {
          "internalType": "contract IPool",
          "name": "pool",
          "type": "address"
        },
        {
          "internalType": "address",
          "name": "asset",
          "type": "address"
        },
        {
          "internalType": "bool",
          "name": "enabled",
          "type": "bool"
        }
      ],
      "name": "setReserveBorrowing",
      "outputs": [],
      "stateMutability": "nonpayable",
      "type": "function"
    },
    {
      "inputs": [
        {
          "internalType": "contract IPool",
          "name": "pool",
          "type": "address"
        },
        {
          "internalType": "address",
          "name": "asset",
          "type": "address"
        },
        {
          "internalType": "bool",
          "name": "freeze",
          "type": "bool"
        }
      ],
      "name": "setReserveFreeze",
      "outputs": [],
      "stateMutability": "nonpayable",
      "type": "function"
    },
    {
      "inputs": [
        {
          "internalType": "contract IPool",
          "name": "pool",
          "type": "address"
        },
        {
          "internalType": "address",
          "name": "asset",
          "type": "address"
        },
        {
          "internalType": "address",
          "name": "newRateStrategyAddress",
          "type": "address"
        }
      ],
      "name": "setReserveInterestRateStrategyAddress",
      "outputs": [],
      "stateMutability": "nonpayable",
      "type": "function"
    },
    {
      "inputs": [
        {
          "internalType": "contract IPool",
          "name": "pool",
          "type": "address"
        },
        {
          "internalType": "address",
          "name": "asset",
          "type": "address"
        },
        {
          "internalType": "uint256",
          "name": "newSupplyCap",
          "type": "uint256"
        }
      ],
      "name": "setSupplyCap",
      "outputs": [],
      "stateMutability": "nonpayable",
      "type": "function"
    },
    {
      "inputs": [
        {
          "internalType": "bytes4",
          "name": "interfaceId",
          "type": "bytes4"
        }
      ],
      "name": "supportsInterface",
      "outputs": [
        {
          "internalType": "bool",
          "name": "",
          "type": "bool"
        }
      ],
      "stateMutability": "view",
      "type": "function"
    }
  ],
  "transactionHash": "0x2fe39cac432347db9580a7d16d40f4cbee60ce1157d56f763995a3c9e679d123",
  "args": [
    "0x368eEBB67577Ec504F62FC41888b1578d2ef7B71",
    "0xd6593B44597D90110abf5F75386f071AB9Fac605"
  ],
  "numDeployments": 1,
  "solcInputHash": "95d84748b454ba387ab3866b78066cba",
  "bytecode": "0x60806040523480156200001157600080fd5b50604051620035cd380380620035cd8339810160408190526200003491620001f6565b6203f480600355600480546001600160a01b0319166001600160a01b03831617905580620000646000826200008c565b5050600580546001600160a01b0319166001600160a01b03929092169190911790556200022e565b6200009882826200009c565b5050565b620000a88282620000c7565b6000828152600160205260409020620000c2908262000167565b505050565b6000828152602081815260408083206001600160a01b038516845290915290205460ff1662000098576000828152602081815260408083206001600160a01b03851684529091529020805460ff19166001179055620001233390565b6001600160a01b0316816001600160a01b0316837f2f8788117e7eff1d82e926ec794901d17c78024a50270940304540a733656f0d60405160405180910390a45050565b60006200017e836001600160a01b03841662000187565b90505b92915050565b6000818152600183016020526040812054620001d05750815460018181018455600084815260208082209093018490558454848252828601909352604090209190915562000181565b50600062000181565b80516001600160a01b0381168114620001f157600080fd5b919050565b600080604083850312156200020a57600080fd5b6200021583620001d9565b91506200022560208401620001d9565b90509250929050565b61338f806200023e6000396000f3fe60806040526004361061027d5760003560e01c806389f744c11161014f578063b8f6dba7116100c1578063d547741f1161007a578063d547741f14610821578063e84d791f14610841578063ec2a5b4514610861578063ed8d3f0414610881578063f23a6e61146108a1578063f27a0c92146108cd57600080fd5b8063b8f6dba714610746578063bc197c8114610768578063c45a015514610794578063c97a073e146107b4578063ca15c873146107d4578063d45c4435146107f457600080fd5b80639b98e5de116101135780639b98e5de146106845780639f44e015146106a4578063a217fddf146106d1578063a99ae7db146106e6578063b2a478d414610706578063b75a1fa11461072657600080fd5b806389f744c1146105e45780638b352e61146106045780638e12d637146106245780639010d07c1461064457806391d148541461066457600080fd5b80634f16b425116101f35780636e76fc8f116101ac5780636e76fc8f14610522578063785907f4146105445780637958004c146105645780637dc8e76c146105915780637fabe86f146105b157806388aa4c12146105d157600080fd5b80634f16b4251461043b578063574a3d971461045d578063584b153e1461047d5780635aa6e6751461049d5780635d90a21c146104d55780636ab3d6661461050257600080fd5b80632ab0f529116102455780632ab0f5291461037b5780632f2ff15d1461039b57806331d50750146103bb57806336568abe146103db5780634792ee63146103fb57806348fca5a61461041b57600080fd5b806301ffc9a71461028257806313bc9f20146102b7578063150b7a02146102d75780631944f68f1461031b578063248a9ca31461033d575b600080fd5b34801561028e57600080fd5b506102a261029d366004612707565b6108e2565b60405190151581526020015b60405180910390f35b3480156102c357600080fd5b506102a26102d2366004612731565b6108f3565b3480156102e357600080fd5b506103026102f236600461283d565b630a85bd0160e11b949350505050565b6040516001600160e01b031990911681526020016102ae565b34801561032757600080fd5b5061033b6103363660046128a8565b610919565b005b34801561034957600080fd5b5061036d610358366004612731565b60009081526020819052604090206001015490565b6040519081526020016102ae565b34801561038757600080fd5b506102a2610396366004612731565b61093e565b3480156103a757600080fd5b5061033b6103b63660046128e1565b610947565b3480156103c757600080fd5b506102a26103d6366004612731565b610971565b3480156103e757600080fd5b5061033b6103f63660046128e1565b610996565b34801561040757600080fd5b506102a26104163660046128a8565b610a15565b34801561042757600080fd5b5061033b610436366004612906565b610a3f565b34801561044757600080fd5b5061036d60008051602061331a83398151915281565b34801561046957600080fd5b5061033b610478366004612951565b610c1a565b34801561048957600080fd5b506102a2610498366004612731565b610dac565b3480156104a957600080fd5b506004546104bd906001600160a01b031681565b6040516001600160a01b0390911681526020016102ae565b3480156104e157600080fd5b506104f56104f03660046128a8565b610df1565b6040516102ae91906129e4565b34801561050e57600080fd5b5061033b61051d3660046128a8565b610ef2565b34801561052e57600080fd5b5061036d60008051602061333a83398151915281565b34801561055057600080fd5b5061033b61055f3660046128a8565b610f13565b34801561057057600080fd5b5061058461057f366004612731565b610f2e565b6040516102ae9190612a09565b34801561059d57600080fd5b5061033b6105ac366004612a46565b610f79565b3480156105bd57600080fd5b5061033b6105cc366004612a8d565b6110dc565b61033b6105df366004612ab9565b611155565b3480156105f057600080fd5b5061033b6105ff3660046128a8565b6111ce565b34801561061057600080fd5b5061033b61061f366004612951565b6111e9565b34801561063057600080fd5b506102a261063f3660046128a8565b61136f565b34801561065057600080fd5b506104bd61065f366004612b49565b61138c565b34801561067057600080fd5b506102a261067f3660046128e1565b6113a4565b34801561069057600080fd5b5061033b61069f366004612a46565b6113cd565b3480156106b057600080fd5b506106c46106bf366004612b6b565b611542565b6040516102ae9190612bcc565b3480156106dd57600080fd5b5061036d600081565b3480156106f257600080fd5b506102a26107013660046128a8565b611957565b34801561071257600080fd5b5061033b6107213660046128a8565b611974565b34801561073257600080fd5b5061036d610741366004612a8d565b61198b565b34801561075257600080fd5b5061036d6000805160206132fa83398151915281565b34801561077457600080fd5b50610302610783366004612d11565b63bc197c8160e01b95945050505050565b3480156107a057600080fd5b506005546104bd906001600160a01b031681565b3480156107c057600080fd5b5061033b6107cf3660046128a8565b6119c8565b3480156107e057600080fd5b5061036d6107ef366004612731565b6119e3565b34801561080057600080fd5b5061036d61080f366004612731565b60009081526002602052604090205490565b34801561082d57600080fd5b5061033b61083c3660046128e1565b6119fa565b34801561084d57600080fd5b5061033b61085c3660046128a8565b611a1f565b34801561086d57600080fd5b5061036d61087c366004612ab9565b611b1f565b34801561088d57600080fd5b5061033b61089c366004612dbe565b611b5b565b3480156108ad57600080fd5b506103026108bc366004612df3565b63f23a6e6160e01b95945050505050565b3480156108d957600080fd5b5060035461036d565b60006108ed82611dc4565b92915050565b600060025b61090183610f2e565b6003811115610912576109126129f3565b1492915050565b61093a610934836000805160206132fa83398151915261198b565b826119fa565b5050565b600060036108f8565b60008281526020819052604090206001015461096281611de9565b61096c8383611df6565b505050565b60008061097d83610f2e565b600381111561098e5761098e6129f3565b141592915050565b6001600160a01b0381163314610a0b5760405162461bcd60e51b815260206004820152602f60248201527f416363657373436f6e74726f6c3a2063616e206f6e6c792072656e6f756e636560448201526e103937b632b9903337b91039b2b63360891b60648201526084015b60405180910390fd5b61093a8282611e18565b6000610a38610a32846000805160206132fa83398151915261198b565b836113a4565b9392505050565b82610a61610a5b826000805160206132fa83398151915261198b565b336113a4565b610a7d5760405162461bcd60e51b8152600401610a0290612e5b565b6040516335ea6a7560e01b81526001600160a01b038481166004830152600091908616906335ea6a759060240161014060405180830381865afa158015610ac8573d6000803e3d6000fd5b505050506040513d601f19601f82011682018060405250810190610aec9190612f1e565b60405163c44b11f760e01b81526001600160a01b03868116600483015291925060009187169063c44b11f790602401602060405180830381865afa158015610b38573d6000803e3d6000fd5b505050506040513d601f19601f82011682018060405250810190610b5c9190612fe2565b60e083015160405163507b811560e11b8152919250906001600160a01b0388169063a0f7022a90610b9890899089906000908890600401612ffe565b600060405180830381600087803b158015610bb257600080fd5b505af1158015610bc6573d6000803e3d6000fd5b5050604080516001600160a01b03858116825289811660208301528a1693507fdb8dada53709ce4988154324196790c2e4a60c377e1256790946f83b87db3c3392500160405180910390a250505050505050565b82610c36610a5b8260008051602061331a83398151915261198b565b80610c575750610c57610a5b826000805160206132fa83398151915261198b565b610c735760405162461bcd60e51b8152600401610a0290612e5b565b60405163c44b11f760e01b81526001600160a01b0384811660048301526000919086169063c44b11f790602401602060405180830381865afa158015610cbd573d6000803e3d6000fd5b505050506040513d601f19601f82011682018060405250810190610ce19190612fe2565b805190915060741c640fffffffff16610cfa8285611e3a565b60405163507b811560e11b81526001600160a01b0387169063a0f7022a90610d2d90889060009081908890600401612ffe565b600060405180830381600087803b158015610d4757600080fd5b505af1158015610d5b573d6000803e3d6000fd5b505060408051848152602081018890526001600160a01b03891693507f0263602682188540a2d633561c0b4453b7d8566285e99f9f6018b8ef2facef499250015b60405180910390a2505050505050565b600080610db883610f2e565b90506001816003811115610dce57610dce6129f3565b1480610a3857506002816003811115610de957610de96129f3565b149392505050565b610df96126be565b60405163c44b11f760e01b81526001600160a01b0383811660048301526000919085169063c44b11f790602401602060405180830381865afa158015610e43573d6000803e3d6000fd5b505050506040513d601f19601f82011682018060405250810190610e679190612fe2565b9050610e7d815167040000000000000016151590565b151582528051600160391b16151515156020830152805160501c640fffffffff166040830152805160301c60ff166060830152805160201c61ffff166080830152805160101c61ffff1660a0830152610ed581611ea2565b60c0830152805160741c640fffffffff1660e08301525092915050565b61093a610f0d8360008051602061333a83398151915261198b565b82610947565b61093a6109348360008051602061333a83398151915261198b565b60008181526002602052604081205480600003610f4e5750600092915050565b60018103610f5f5750600392915050565b42811115610f705750600192915050565b50600292915050565b82610f95610a5b826000805160206132fa83398151915261198b565b610fb15760405162461bcd60e51b8152600401610a0290612e5b565b60405163c44b11f760e01b81526001600160a01b0384811660048301526000919086169063c44b11f790602401602060405180830381865afa158015610ffb573d6000803e3d6000fd5b505050506040513d601f19601f8201168201806040525081019061101f9190612fe2565b905061102b8184611ec8565b60405163507b811560e11b81526001600160a01b0386169063a0f7022a9061105e90879060009081908790600401612ffe565b600060405180830381600087803b15801561107857600080fd5b505af115801561108c573d6000803e3d6000fd5b50505050836001600160a01b03167f2443ba28e8d1d88d531a3d90b981816a4f3b3c7f1fd4085c6029e81d1b7a570d846040516110cd911515815260200190565b60405180910390a25050505050565b6110e68233610a15565b806110f657506110f6823361136f565b80611107575061110760003361136f565b61114c5760405162461bcd60e51b81526020600482015260166024820152753737ba103837b7b61037b9103934b9b59030b236b4b760511b6044820152606401610a02565b61093a81611ef6565b60006111648686868686611b1f565b905061116f81611f76565b61117b86868686611fb0565b6000817f4c791a3ff54e27964b9a9527e64fb66fb7d1eaacec7dd0420439e94f9d6aea3b88888689896040516111b5959493929190613050565b60405180910390a36111c68161204c565b505050505050565b61093a6109348360008051602061331a83398151915261198b565b82611205610a5b8260008051602061331a83398151915261198b565b806112265750611226610a5b826000805160206132fa83398151915261198b565b6112425760405162461bcd60e51b8152600401610a0290612e5b565b60405163c44b11f760e01b81526001600160a01b0384811660048301526000919086169063c44b11f790602401602060405180830381865afa15801561128c573d6000803e3d6000fd5b505050506040513d601f19601f820116820180604052508101906112b09190612fe2565b805190915060501c640fffffffff166112c98285612078565b60405163507b811560e11b81526001600160a01b0387169063a0f7022a906112fc90889060009081908890600401612ffe565b600060405180830381600087803b15801561131657600080fd5b505af115801561132a573d6000803e3d6000fd5b505060408051848152602081018890526001600160a01b03891693507fc51aca575985d521c5072ad11549bad77013bb786d57f30f94b40ed8f8dc9bc4925001610d9c565b6000610a38610a328460008051602061331a83398151915261198b565b6000828152600160205260408120610a3890836120e0565b6000918252602082815260408084206001600160a01b0393909316845291905290205460ff1690565b826113e9610a5b8260008051602061331a83398151915261198b565b8061140a575061140a610a5b826000805160206132fa83398151915261198b565b6114265760405162461bcd60e51b8152600401610a0290612e5b565b60405163c44b11f760e01b81526001600160a01b0384811660048301526000919086169063c44b11f790602401602060405180830381865afa158015611470573d6000803e3d6000fd5b505050506040513d601f19601f820116820180604052508101906114949190612fe2565b90506114a081846120ec565b60405163507b811560e11b81526001600160a01b0386169063a0f7022a906114d390879060009081908790600401612ffe565b600060405180830381600087803b1580156114ed57600080fd5b505af1158015611501573d6000803e3d6000fd5b50505050836001600160a01b03167f0c4443d258a350d27dc50c378b2ebf165e6469725f786d21b30cab16823f5587846040516110cd911515815260200190565b61157d6040518060a0016040528060006001600160a01b03168152602001606081526020016060815260200160608152602001606081525090565b6000826001600160a01b031663d1946dbc6040518163ffffffff1660e01b8152600401600060405180830381865afa1580156115bd573d6000803e3d6000fd5b505050506040513d6000823e601f3d908101601f191682016040526115e59190810190613089565b9050826001600160a01b031663b55bd84d6040518163ffffffff1660e01b8152600401602060405180830381865afa158015611625573d6000803e3d6000fd5b505050506040513d601f19601f820116820180604052508101906116499190613117565b6001600160a01b0316825280516000906001600160401b038111156116705761167061275f565b604051908082528060200260200182016040528015611699578160200160208202803683370190505b509050600082516001600160401b038111156116b7576116b761275f565b6040519080825280602002602001820160405280156116e0578160200160208202803683370190505b509050600083516001600160401b038111156116fe576116fe61275f565b604051908082528060200260200182016040528015611727578160200160208202803683370190505b509050600084516001600160401b038111156117455761174561275f565b60405190808252806020026020018201604052801561177e57816020015b61176b6126be565b8152602001906001900390816117635790505b50905060005b8551811015611936576000886001600160a01b03166335ea6a758884815181106117b0576117b0613134565b60200260200101516040518263ffffffff1660e01b81526004016117e391906001600160a01b0391909116815260200190565b61014060405180830381865afa158015611801573d6000803e3d6000fd5b505050506040513d601f19601f820116820180604052508101906118259190612f1e565b905086828151811061183957611839613134565b602002602001015186838151811061185357611853613134565b60200260200101906001600160a01b031690816001600160a01b0316815250508060e0015185838151811061188a5761188a613134565b60200260200101906001600160a01b031690816001600160a01b0316815250508061010001518483815181106118c2576118c2613134565b60200260200101906001600160a01b031690816001600160a01b031681525050611905898884815181106118f8576118f8613134565b6020026020010151610df1565b83838151811061191757611917613134565b602002602001018190525050808061192e90613160565b915050611784565b50602086019390935260408501919091526060840152608083015250919050565b6000610a38610a328460008051602061333a83398151915261198b565b61093a610f0d8360008051602061331a8339815191525b604080516001600160a01b038416602082015290810182905260009060600160405160208183030381529060405280519060200120905092915050565b61093a610f0d836000805160206132fa83398151915261198b565b60008181526001602052604081206108ed9061211a565b600082815260208190526040902060010154611a1581611de9565b61096c8383611e18565b6005546001600160a01b03163314611a645760405162461bcd60e51b815260206004820152600860248201526721666163746f727960c01b6044820152606401610a02565b611a85611a7f836000805160206132fa83398151915261198b565b82612124565b611ab1611aa0836000805160206132fa83398151915261198b565b6004546001600160a01b0316612124565b611ae9611acc836000805160206132fa83398151915261198b565b611ae4846000805160206132fa83398151915261198b565b61212e565b611b04611acc8360008051602061331a83398151915261198b565b61093a611acc8360008051602061333a83398151915261198b565b60008585858585604051602001611b3a959493929190613179565b60405160208183030381529060405280519060200120905095945050505050565b81611b77610a5b8260008051602061333a83398151915261198b565b80611b995750611b99610a5b600060008051602061333a83398151915261198b565b611bb55760405162461bcd60e51b8152600401610a0290612e5b565b6000836001600160a01b031663d1946dbc6040518163ffffffff1660e01b8152600401600060405180830381865afa158015611bf5573d6000803e3d6000fd5b505050506040513d6000823e601f3d908101601f19168201604052611c1d9190810190613089565b905060005b8151811015611dbd576000856001600160a01b031663c44b11f7848481518110611c4e57611c4e613134565b60200260200101516040518263ffffffff1660e01b8152600401611c8191906001600160a01b0391909116815260200190565b602060405180830381865afa158015611c9e573d6000803e3d6000fd5b505050506040513d601f19601f82011682018060405250810190611cc29190612fe2565b9050611cce81866120ec565b856001600160a01b031663a0f7022a848481518110611cef57611cef613134565b6020026020010151600080856040518563ffffffff1660e01b8152600401611d1a9493929190612ffe565b600060405180830381600087803b158015611d3457600080fd5b505af1158015611d48573d6000803e3d6000fd5b50505050828281518110611d5e57611d5e613134565b60200260200101516001600160a01b03167f0c4443d258a350d27dc50c378b2ebf165e6469725f786d21b30cab16823f558786604051611da2911515815260200190565b60405180910390a25080611db581613160565b915050611c22565b5050505050565b60006001600160e01b03198216630271189760e51b14806108ed57506108ed82612179565b611df3813361219e565b50565b611e0082826121f7565b600082815260016020526040902061096c908261227b565b611e228282612290565b600082815260016020526040902061096c90826122f5565b6040805180820190915260128152710494e56414c49445f535550504c595f4341560741b6020820152640fffffffff821115611e895760405162461bcd60e51b8152600401610a0291906131d7565b508151640fffffffff60741b191660749190911b179052565b8051600090600160391b16151580611ebf57825161ffff16610a38565b60009392505050565b603a81611ed6576000611ed9565b60015b8351670400000000000000191660ff9190911690911b1790915250565b611eff81610dac565b611f3b5780611f0e600261230a565b611f18600161230a565b604051635ead8eb560e01b81526004810193909352176024820152604401610a02565b6000818152600260205260408082208290555182917fbaa1eb22f2a492ba1a5fea61b8df4d27c6c8b5f3971e63bb58fa14ff72eedb7091a250565b611f7f816108f3565b611df35780611f8e600261230a565b604051635ead8eb560e01b815260048101929092526024820152604401610a02565b600080856001600160a01b0316858585604051611fce92919061320a565b60006040518083038185875af1925050503d806000811461200b576040519150601f19603f3d011682016040523d82523d6000602084013e612010565b606091505b509150915061204382826040518060400160405280600b81526020016a18d85b1b0819985a5b195960aa1b81525061232d565b50505050505050565b612055816108f3565b6120645780611f8e600261230a565b600090815260026020526040902060019055565b6040805180820190915260128152710494e56414c49445f424f52524f575f4341560741b6020820152640fffffffff8211156120c75760405162461bcd60e51b8152600401610a0291906131d7565b508151640fffffffff60501b191660509190911b179052565b6000610a388383612346565b6039816120fa5760006120fd565b60015b8351670200000000000000191660ff9190911690911b1790915250565b60006108ed825490565b61093a8282611df6565b600082815260208190526040808220600101805490849055905190918391839186917fbd79b86ffe0ab8e8776151514217cd7cacd52c909f66475c3af44e129f0b00ff9190a4505050565b60006001600160e01b03198216635a05180f60e01b14806108ed57506108ed82612370565b6121a882826113a4565b61093a576121b5816123a5565b6121c08360206123b7565b6040516020016121d192919061321a565b60408051601f198184030181529082905262461bcd60e51b8252610a02916004016131d7565b61220182826113a4565b61093a576000828152602081815260408083206001600160a01b03851684529091529020805460ff191660011790556122373390565b6001600160a01b0316816001600160a01b0316837f2f8788117e7eff1d82e926ec794901d17c78024a50270940304540a733656f0d60405160405180910390a45050565b6000610a38836001600160a01b038416612552565b61229a82826113a4565b1561093a576000828152602081815260408083206001600160a01b0385168085529252808320805460ff1916905551339285917ff6391f5c32d9c69d2a47ea670b442974b53935d1edc7fd64eb21e047a839171b9190a45050565b6000610a38836001600160a01b0384166125a1565b600081600381111561231e5761231e6129f3565b600160ff919091161b92915050565b6060831561233c575081610a38565b610a388383612694565b600082600001828154811061235d5761235d613134565b9060005260206000200154905092915050565b60006001600160e01b03198216637965db0b60e01b14806108ed57506301ffc9a760e01b6001600160e01b03198316146108ed565b60606108ed6001600160a01b03831660145b606060006123c683600261328f565b6123d19060026132a6565b6001600160401b038111156123e8576123e861275f565b6040519080825280601f01601f191660200182016040528015612412576020820181803683370190505b509050600360fc1b8160008151811061242d5761242d613134565b60200101906001600160f81b031916908160001a905350600f60fb1b8160018151811061245c5761245c613134565b60200101906001600160f81b031916908160001a905350600061248084600261328f565b61248b9060016132a6565b90505b6001811115612503576f181899199a1a9b1b9c1cb0b131b232b360811b85600f16601081106124bf576124bf613134565b1a60f81b8282815181106124d5576124d5613134565b60200101906001600160f81b031916908160001a90535060049490941c936124fc816132b9565b905061248e565b508315610a385760405162461bcd60e51b815260206004820181905260248201527f537472696e67733a20686578206c656e67746820696e73756666696369656e746044820152606401610a02565b6000818152600183016020526040812054612599575081546001818101845560008481526020808220909301849055845484825282860190935260409020919091556108ed565b5060006108ed565b6000818152600183016020526040812054801561268a5760006125c56001836132d0565b85549091506000906125d9906001906132d0565b905081811461263e5760008660000182815481106125f9576125f9613134565b906000526020600020015490508087600001848154811061261c5761261c613134565b6000918252602080832090910192909255918252600188019052604090208390555b855486908061264f5761264f6132e3565b6001900381819060005260206000200160009055905585600101600086815260200190815260200160002060009055600193505050506108ed565b60009150506108ed565b8151156126a45781518083602001fd5b8060405162461bcd60e51b8152600401610a0291906131d7565b6040518061010001604052806000151581526020016000151581526020016000815260200160008152602001600081526020016000815260200160008152602001600081525090565b60006020828403121561271957600080fd5b81356001600160e01b031981168114610a3857600080fd5b60006020828403121561274357600080fd5b5035919050565b6001600160a01b0381168114611df357600080fd5b634e487b7160e01b600052604160045260246000fd5b60405161014081016001600160401b03811182821017156127985761279861275f565b60405290565b604051601f8201601f191681016001600160401b03811182821017156127c6576127c661275f565b604052919050565b600082601f8301126127df57600080fd5b81356001600160401b038111156127f8576127f861275f565b61280b601f8201601f191660200161279e565b81815284602083860101111561282057600080fd5b816020850160208301376000918101602001919091529392505050565b6000806000806080858703121561285357600080fd5b843561285e8161274a565b9350602085013561286e8161274a565b92506040850135915060608501356001600160401b0381111561289057600080fd5b61289c878288016127ce565b91505092959194509250565b600080604083850312156128bb57600080fd5b82356128c68161274a565b915060208301356128d68161274a565b809150509250929050565b600080604083850312156128f457600080fd5b8235915060208301356128d68161274a565b60008060006060848603121561291b57600080fd5b83356129268161274a565b925060208401356129368161274a565b915060408401356129468161274a565b809150509250925092565b60008060006060848603121561296657600080fd5b83356129718161274a565b925060208401356129818161274a565b929592945050506040919091013590565b80511515825260208101511515602083015260408101516040830152606081015160608301526080810151608083015260a081015160a083015260c081015160c083015260e081015160e08301525050565b61010081016108ed8284612992565b634e487b7160e01b600052602160045260246000fd5b6020810160048310612a2b57634e487b7160e01b600052602160045260246000fd5b91905290565b80358015158114612a4157600080fd5b919050565b600080600060608486031215612a5b57600080fd5b8335612a668161274a565b92506020840135612a768161274a565b9150612a8460408501612a31565b90509250925092565b60008060408385031215612aa057600080fd5b8235612aab8161274a565b946020939093013593505050565b600080600080600060808688031215612ad157600080fd5b8535612adc8161274a565b94506020860135935060408601356001600160401b0380821115612aff57600080fd5b818801915088601f830112612b1357600080fd5b813581811115612b2257600080fd5b896020828501011115612b3457600080fd5b96999598505060200195606001359392505050565b60008060408385031215612b5c57600080fd5b50508035926020909101359150565b600060208284031215612b7d57600080fd5b8135610a388161274a565b600081518084526020808501945080840160005b83811015612bc15781516001600160a01b031687529582019590820190600101612b9c565b509495945050505050565b602080825282516001600160a01b0316828201528281015160a0604084015260009190612bfc60c0850182612b88565b90506040850151601f1980868403016060870152612c1a8383612b88565b92506060870151915080868403016080870152612c378383612b88565b608088015187820390920160a088015281518082529185019350600092508401905b80831015612c8357612c6c828551612992565b610100820191508484019350600183019250612c59565b509695505050505050565b60006001600160401b03821115612ca757612ca761275f565b5060051b60200190565b600082601f830112612cc257600080fd5b81356020612cd7612cd283612c8e565b61279e565b82815260059290921b84018101918181019086841115612cf657600080fd5b8286015b84811015612c835780358352918301918301612cfa565b600080600080600060a08688031215612d2957600080fd5b8535612d348161274a565b94506020860135612d448161274a565b935060408601356001600160401b0380821115612d6057600080fd5b612d6c89838a01612cb1565b94506060880135915080821115612d8257600080fd5b612d8e89838a01612cb1565b93506080880135915080821115612da457600080fd5b50612db1888289016127ce565b9150509295509295909350565b60008060408385031215612dd157600080fd5b8235612ddc8161274a565b9150612dea60208401612a31565b90509250929050565b600080600080600060a08688031215612e0b57600080fd5b8535612e168161274a565b94506020860135612e268161274a565b9350604086013592506060860135915060808601356001600160401b03811115612e4f57600080fd5b612db1888289016127ce565b6020808252601690820152753737ba103934b9b59037b9103837b7b61030b236b4b760511b604082015260600190565b600060208284031215612e9d57600080fd5b604051602081018181106001600160401b0382111715612ebf57612ebf61275f565b6040529151825250919050565b80516fffffffffffffffffffffffffffffffff81168114612a4157600080fd5b805164ffffffffff81168114612a4157600080fd5b805161ffff81168114612a4157600080fd5b8051612a418161274a565b60006101408284031215612f3157600080fd5b612f39612775565b612f438484612e8b565b8152612f5160208401612ecc565b6020820152612f6260408401612ecc565b6040820152612f7360608401612ecc565b6060820152612f8460808401612ecc565b6080820152612f9560a08401612eec565b60a0820152612fa660c08401612f01565b60c0820152612fb760e08401612f13565b60e0820152610100612fca818501612f13565b90820152610120928301519281019290925250919050565b600060208284031215612ff457600080fd5b610a388383612e8b565b6001600160a01b0394851681529284166020840152921660408201529051606082015260800190565b81835281816020850137506000828201602090810191909152601f909101601f19169091010190565b60018060a01b038616815284602082015283604082015260806060820152600061307e608083018486613027565b979650505050505050565b6000602080838503121561309c57600080fd5b82516001600160401b038111156130b257600080fd5b8301601f810185136130c357600080fd5b80516130d1612cd282612c8e565b81815260059190911b820183019083810190878311156130f057600080fd5b928401925b8284101561307e5783516131088161274a565b825292840192908401906130f5565b60006020828403121561312957600080fd5b8151610a388161274a565b634e487b7160e01b600052603260045260246000fd5b634e487b7160e01b600052601160045260246000fd5b6000600182016131725761317261314a565b5060010190565b60018060a01b03861681528460208201526080604082015260006131a1608083018587613027565b90508260608301529695505050505050565b60005b838110156131ce5781810151838201526020016131b6565b50506000910152565b60208152600082518060208401526131f68160408501602087016131b3565b601f01601f19169190910160400192915050565b8183823760009101908152919050565b7f416363657373436f6e74726f6c3a206163636f756e74200000000000000000008152600083516132528160178501602088016131b3565b7001034b99036b4b9b9b4b733903937b6329607d1b60179184019182015283516132838160288401602088016131b3565b01602801949350505050565b80820281158282048414176108ed576108ed61314a565b808201808211156108ed576108ed61314a565b6000816132c8576132c861314a565b506000190190565b818103818111156108ed576108ed61314a565b634e487b7160e01b600052603160045260246000fdfe12ad05bde78c5ab75238ce885307f96ecd482bb402ef831f99e7018a0f169b7b8aa855a911518ecfbe5bc3088c8f3dda7badf130faaf8ace33fdc33828e181675c91514091af31f62f596a314af7d5be40146b2f2355969392f055e12e0982fba26469706673582212201cc39e35e9c8317954d3edb4b72ef202c65764c7db5f7c6057d7686e8d841be664736f6c63430008130033",
  "devdoc": {
    "details": "Implements the configuration methods for the lending pools",
    "errors": {
      "TimelockInsufficientDelay(uint256,uint256)": [
        {
          "details": "The schedule operation doesn't meet the minimum delay."
        }
      ],
      "TimelockInvalidOperationLength(uint256,uint256,uint256)": [
        {
          "details": "Mismatch between the parameters length for an operation call."
        }
      ],
      "TimelockUnauthorizedCaller(address)": [
        {
          "details": "The caller account is not authorized."
        }
      ],
      "TimelockUnexpectedOperationState(bytes32,bytes32)": [
        {
          "details": "The current state of an operation is not as required. The `expectedStates` is a bitmap with the bits enabled for each OperationState enum position counting from right to left. See {_encodeStateBitmap}."
        }
      ]
    },
    "events": {
      "BorrowCapChanged(address,uint256,uint256)": {
        "details": "Emitted when the borrow cap of a reserve is updated.",
        "params": {
          "asset": "The address of the underlying asset of the reserve",
          "newBorrowCap": "The new borrow cap",
          "oldBorrowCap": "The old borrow cap"
        }
      },
      "CallExecuted(bytes32,uint256,address,uint256,bytes32,bytes)": {
        "details": "Emitted when a call is performed as part of operation `id`."
      },
      "CallScheduled(bytes32,uint256,address,uint256,bytes,bytes32,uint256)": {
        "details": "Emitted when a call is scheduled as part of operation `id`."
      },
      "Cancelled(bytes32)": {
        "details": "Emitted when operation `id` is cancelled."
      },
      "MinDelayChange(uint256,uint256)": {
        "details": "Emitted when the minimum delay for future operations is modified."
      },
      "ReserveBorrowing(address,bool)": {
        "details": "Emitted when borrowing is enabled or disabled on a reserve.",
        "params": {
          "asset": "The address of the underlying asset of the reserve",
          "enabled": "True if borrowing is enabled, false otherwise"
        }
      },
      "ReserveFactorChanged(address,uint256,uint256)": {
        "details": "Emitted when a reserve factor is updated.",
        "params": {
          "asset": "The address of the underlying asset of the reserve",
          "newReserveFactor": "The new reserve factor, expressed in bps",
          "oldReserveFactor": "The old reserve factor, expressed in bps"
        }
      },
      "ReserveFrozen(address,bool)": {
        "details": "Emitted when a reserve is frozen or unfrozen",
        "params": {
          "asset": "The address of the underlying asset of the reserve",
          "frozen": "True if reserve is frozen, false otherwise"
        }
      },
      "ReserveInterestRateStrategyChanged(address,address,address)": {
        "details": "Emitted when a reserve interest strategy contract is updated.",
        "params": {
          "asset": "The address of the underlying asset of the reserve",
          "newStrategy": "The address of the new interest strategy contract",
          "oldStrategy": "The address of the old interest strategy contract"
        }
      },
      "RoleAdminChanged(bytes32,bytes32,bytes32)": {
        "details": "Emitted when `newAdminRole` is set as ``role``'s admin role, replacing `previousAdminRole` `DEFAULT_ADMIN_ROLE` is the starting admin for all roles, despite {RoleAdminChanged} not being emitted signaling this. _Available since v3.1._"
      },
      "RoleGranted(bytes32,address,address)": {
        "details": "Emitted when `account` is granted `role`. `sender` is the account that originated the contract call, an admin role bearer except when using {AccessControl-_setupRole}."
      },
      "RoleRevoked(bytes32,address,address)": {
        "details": "Emitted when `account` is revoked `role`. `sender` is the account that originated the contract call:   - if using `revokeRole`, it is the admin role bearer   - if using `renounceRole`, it is the role bearer (i.e. `account`)"
      },
      "SupplyCapChanged(address,uint256,uint256)": {
        "details": "Emitted when the supply cap of a reserve is updated.",
        "params": {
          "asset": "The address of the underlying asset of the reserve",
          "newSupplyCap": "The new supply cap",
          "oldSupplyCap": "The old supply cap"
        }
      }
    },
    "kind": "dev",
    "methods": {
      "addEmergencyAdmin(address,address)": {
        "params": {
          "admin": "The address of the new admin"
        }
      },
      "addPoolAdmin(address,address)": {
        "params": {
          "admin": "The address of the new admin"
        }
      },
      "addRiskAdmin(address,address)": {
        "params": {
          "admin": "The address of the new admin"
        }
      },
      "execute(address,uint256,bytes,bytes32)": {
        "details": "Execute an (ready) operation containing a single transaction. Emits a {CallExecuted} event. Requirements: - the caller must have the 'executor' role."
      },
      "getMinDelay()": {
        "details": "Returns the minimum delay in seconds for an operation to become valid. This value can be changed by executing an operation that calls `updateDelay`."
      },
      "getOperationState(bytes32)": {
        "details": "Returns operation state."
      },
      "getRoleAdmin(bytes32)": {
        "details": "Returns the admin role that controls `role`. See {grantRole} and {revokeRole}. To change a role's admin, use {_setRoleAdmin}."
      },
      "getRoleMember(bytes32,uint256)": {
        "details": "Returns one of the accounts that have `role`. `index` must be a value between 0 and {getRoleMemberCount}, non-inclusive. Role bearers are not sorted in any particular way, and their ordering may change at any point. WARNING: When using {getRoleMember} and {getRoleMemberCount}, make sure you perform all queries on the same block. See the following https://forum.openzeppelin.com/t/iterating-over-elements-on-enumerableset-in-openzeppelin-contracts/2296[forum post] for more information."
      },
      "getRoleMemberCount(bytes32)": {
        "details": "Returns the number of accounts that have `role`. Can be used together with {getRoleMember} to enumerate all bearers of a role."
      },
      "getTimestamp(bytes32)": {
        "details": "Returns the timestamp at which an operation becomes ready (0 for unset operations, 1 for done operations)."
      },
      "grantRole(bytes32,address)": {
        "details": "Grants `role` to `account`. If `account` had not been already granted `role`, emits a {RoleGranted} event. Requirements: - the caller must have ``role``'s admin role. May emit a {RoleGranted} event."
      },
      "hasRole(bytes32,address)": {
        "details": "Returns `true` if `account` has been granted `role`."
      },
      "hashOperation(address,uint256,bytes,bytes32)": {
        "details": "Returns the identifier of an operation containing a single transaction."
      },
      "isEmergencyAdmin(address,address)": {
        "params": {
          "admin": "The address to check"
        },
        "returns": {
          "_0": "True if the given address is EmergencyAdmin, false otherwise"
        }
      },
      "isOperation(bytes32)": {
        "details": "Returns whether an id corresponds to a registered operation. This includes both Waiting, Ready, and Done operations."
      },
      "isOperationDone(bytes32)": {
        "details": "Returns whether an operation is done or not."
      },
      "isOperationPending(bytes32)": {
        "details": "Returns whether an operation is pending or not. Note that a \"pending\" operation may also be \"ready\"."
      },
      "isOperationReady(bytes32)": {
        "details": "Returns whether an operation is ready for execution. Note that a \"ready\" operation is also \"pending\"."
      },
      "isPoolAdmin(address,address)": {
        "params": {
          "admin": "The address to check"
        },
        "returns": {
          "_0": "True if the given address is PoolAdmin, false otherwise"
        }
      },
      "isRiskAdmin(address,address)": {
        "params": {
          "admin": "The address to check"
        },
        "returns": {
          "_0": "True if the given address is RiskAdmin, false otherwise"
        }
      },
      "onERC721Received(address,address,uint256,bytes)": {
        "details": "See {IERC721Receiver-onERC721Received}. Always returns `IERC721Receiver.onERC721Received.selector`."
      },
      "removeEmergencyAdmin(address,address)": {
        "params": {
          "admin": "The address of the admin to remove"
        }
      },
      "removePoolAdmin(address,address)": {
        "params": {
          "admin": "The address of the admin to remove"
        }
      },
      "removeRiskAdmin(address,address)": {
        "params": {
          "admin": "The address of the admin to remove"
        }
      },
      "renounceRole(bytes32,address)": {
        "details": "Revokes `role` from the calling account. Roles are often managed via {grantRole} and {revokeRole}: this function's purpose is to provide a mechanism for accounts to lose their privileges if they are compromised (such as when a trusted device is misplaced). If the calling account had been revoked `role`, emits a {RoleRevoked} event. Requirements: - the caller must be `account`. May emit a {RoleRevoked} event."
      },
      "revokeRole(bytes32,address)": {
        "details": "Revokes `role` from `account`. If `account` had been granted `role`, emits a {RoleRevoked} event. Requirements: - the caller must have ``role``'s admin role. May emit a {RoleRevoked} event."
      },
      "setBorrowCap(address,address,uint256)": {
        "params": {
          "asset": "The address of the underlying asset of the reserve",
          "newBorrowCap": "The new borrow cap of the reserve"
        }
      },
      "setPoolFreeze(address,bool)": {
        "params": {
          "freeze": "True if protocol needs to be frozen, false otherwise"
        }
      },
      "setReserveBorrowing(address,address,bool)": {
        "params": {
          "asset": "The address of the underlying asset of the reserve",
          "enabled": "True if borrowing needs to be enabled, false otherwise"
        }
      },
      "setReserveFreeze(address,address,bool)": {
        "params": {
          "asset": "The address of the underlying asset of the reserve",
          "freeze": "True if the reserve needs to be frozen, false otherwise"
        }
      },
      "setReserveInterestRateStrategyAddress(address,address,address)": {
        "params": {
          "asset": "The address of the underlying asset of the reserve",
          "newRateStrategyAddress": "The address of the new interest strategy contract"
        }
      },
      "setSupplyCap(address,address,uint256)": {
        "params": {
          "asset": "The address of the underlying asset of the reserve",
          "newSupplyCap": "The new supply cap of the reserve"
        }
      },
      "supportsInterface(bytes4)": {
        "details": "See {IERC165-supportsInterface}."
      }
    },
    "title": "PoolConfigurator",
    "version": 1
  },
  "userdoc": {
    "kind": "user",
    "methods": {
      "EMERGENCY_ADMIN_ROLE()": {
        "notice": "Returns the identifier of the EmergencyAdmin role"
      },
      "POOL_ADMIN_ROLE()": {
        "notice": "Returns the identifier of the PoolAdmin role"
      },
      "RISK_ADMIN_ROLE()": {
        "notice": "Returns the identifier of the RiskAdmin role"
      },
      "addEmergencyAdmin(address,address)": {
        "notice": "Adds a new admin as EmergencyAdmin"
      },
      "addPoolAdmin(address,address)": {
        "notice": "Adds a new admin as PoolAdmin"
      },
      "addRiskAdmin(address,address)": {
        "notice": "Adds a new admin as RiskAdmin"
      },
      "isEmergencyAdmin(address,address)": {
        "notice": "Returns true if the address is EmergencyAdmin, false otherwise"
      },
      "isPoolAdmin(address,address)": {
        "notice": "Returns true if the address is PoolAdmin, false otherwise"
      },
      "isRiskAdmin(address,address)": {
        "notice": "Returns true if the address is RiskAdmin, false otherwise"
      },
      "removeEmergencyAdmin(address,address)": {
        "notice": "Removes an admin as EmergencyAdmin"
      },
      "removePoolAdmin(address,address)": {
        "notice": "Removes an admin as PoolAdmin"
      },
      "removeRiskAdmin(address,address)": {
        "notice": "Removes an admin as RiskAdmin"
      },
      "setBorrowCap(address,address,uint256)": {
        "notice": "Updates the borrow cap of a reserve."
      },
      "setPoolFreeze(address,bool)": {
        "notice": "Freezes the pool reserves. In the frozen state only withdraw and repay can be done"
      },
      "setReserveBorrowing(address,address,bool)": {
        "notice": "Configures borrowing on a reserve."
      },
      "setReserveFreeze(address,address,bool)": {
        "notice": "Freeze or unfreeze a reserve. A frozen reserve doesn't allow any new supply, borrow or rate swap but allows repayments, liquidations, rate rebalances and withdrawals."
      },
      "setReserveInterestRateStrategyAddress(address,address,address)": {
        "notice": "Sets the interest rate strategy of a reserve."
      },
      "setSupplyCap(address,address,uint256)": {
        "notice": "Updates the supply cap of a reserve."
      }
    },
    "version": 1
  },
  "storageLayout": {
    "storage": [
      {
        "astId": 7625,
        "contract": "contracts/core/pool/manager/PoolConfigurator.sol:PoolConfigurator",
        "label": "_roles",
        "offset": 0,
        "slot": "0",
        "type": "t_mapping(t_bytes32,t_struct(RoleData)7620_storage)"
      },
      {
        "astId": 7935,
        "contract": "contracts/core/pool/manager/PoolConfigurator.sol:PoolConfigurator",
        "label": "_roleMembers",
        "offset": 0,
        "slot": "1",
        "type": "t_mapping(t_bytes32,t_struct(AddressSet)21386_storage)"
      },
      {
        "astId": 31466,
        "contract": "contracts/core/pool/manager/PoolConfigurator.sol:PoolConfigurator",
        "label": "_timestamps",
        "offset": 0,
        "slot": "2",
        "type": "t_mapping(t_bytes32,t_uint256)"
      },
      {
        "astId": 31468,
        "contract": "contracts/core/pool/manager/PoolConfigurator.sol:PoolConfigurator",
        "label": "_minDelay",
        "offset": 0,
        "slot": "3",
        "type": "t_uint256"
      },
      {
        "astId": 31038,
        "contract": "contracts/core/pool/manager/PoolConfigurator.sol:PoolConfigurator",
        "label": "governance",
        "offset": 0,
        "slot": "4",
        "type": "t_address"
      },
      {
        "astId": 30322,
        "contract": "contracts/core/pool/manager/PoolConfigurator.sol:PoolConfigurator",
        "label": "factory",
        "offset": 0,
        "slot": "5",
        "type": "t_address"
      }
    ],
    "types": {
      "t_address": {
        "encoding": "inplace",
        "label": "address",
        "numberOfBytes": "20"
      },
      "t_array(t_bytes32)dyn_storage": {
        "base": "t_bytes32",
        "encoding": "dynamic_array",
        "label": "bytes32[]",
        "numberOfBytes": "32"
      },
      "t_bool": {
        "encoding": "inplace",
        "label": "bool",
        "numberOfBytes": "1"
      },
      "t_bytes32": {
        "encoding": "inplace",
        "label": "bytes32",
        "numberOfBytes": "32"
      },
      "t_mapping(t_address,t_bool)": {
        "encoding": "mapping",
        "key": "t_address",
        "label": "mapping(address => bool)",
        "numberOfBytes": "32",
        "value": "t_bool"
      },
      "t_mapping(t_bytes32,t_struct(AddressSet)21386_storage)": {
        "encoding": "mapping",
        "key": "t_bytes32",
        "label": "mapping(bytes32 => struct EnumerableSet.AddressSet)",
        "numberOfBytes": "32",
        "value": "t_struct(AddressSet)21386_storage"
      },
      "t_mapping(t_bytes32,t_struct(RoleData)7620_storage)": {
        "encoding": "mapping",
        "key": "t_bytes32",
        "label": "mapping(bytes32 => struct AccessControl.RoleData)",
        "numberOfBytes": "32",
        "value": "t_struct(RoleData)7620_storage"
      },
      "t_mapping(t_bytes32,t_uint256)": {
        "encoding": "mapping",
        "key": "t_bytes32",
        "label": "mapping(bytes32 => uint256)",
        "numberOfBytes": "32",
        "value": "t_uint256"
      },
      "t_struct(AddressSet)21386_storage": {
        "encoding": "inplace",
        "label": "struct EnumerableSet.AddressSet",
        "members": [
          {
            "astId": 21385,
            "contract": "contracts/core/pool/manager/PoolConfigurator.sol:PoolConfigurator",
            "label": "_inner",
            "offset": 0,
            "slot": "0",
            "type": "t_struct(Set)21071_storage"
          }
        ],
        "numberOfBytes": "64"
      },
      "t_struct(RoleData)7620_storage": {
        "encoding": "inplace",
        "label": "struct AccessControl.RoleData",
        "members": [
          {
            "astId": 7617,
            "contract": "contracts/core/pool/manager/PoolConfigurator.sol:PoolConfigurator",
            "label": "members",
            "offset": 0,
            "slot": "0",
            "type": "t_mapping(t_address,t_bool)"
          },
          {
            "astId": 7619,
            "contract": "contracts/core/pool/manager/PoolConfigurator.sol:PoolConfigurator",
            "label": "adminRole",
            "offset": 0,
            "slot": "1",
            "type": "t_bytes32"
          }
        ],
        "numberOfBytes": "64"
      },
      "t_struct(Set)21071_storage": {
        "encoding": "inplace",
        "label": "struct EnumerableSet.Set",
        "members": [
          {
            "astId": 21066,
            "contract": "contracts/core/pool/manager/PoolConfigurator.sol:PoolConfigurator",
            "label": "_values",
            "offset": 0,
            "slot": "0",
            "type": "t_array(t_bytes32)dyn_storage"
          },
          {
            "astId": 21070,
            "contract": "contracts/core/pool/manager/PoolConfigurator.sol:PoolConfigurator",
            "label": "_indexes",
            "offset": 0,
            "slot": "1",
            "type": "t_mapping(t_bytes32,t_uint256)"
          }
        ],
        "numberOfBytes": "64"
      },
      "t_uint256": {
        "encoding": "inplace",
        "label": "uint256",
        "numberOfBytes": "32"
      }
    }
  }
}