{
  "address": "0x89f438932b4bD8942329Ec2d5eD825Cf3F11A7d0",
  "abi": [
    {
      "anonymous": false,
      "inputs": [
        {
          "indexed": false,
          "internalType": "uint8",
          "name": "version",
          "type": "uint8"
        }
      ],
      "name": "Initialized",
      "type": "event"
    },
    {
      "inputs": [
        {
          "internalType": "address",
          "name": "receiverAddress",
          "type": "address"
        },
        {
          "internalType": "address",
          "name": "asset",
          "type": "address"
        },
        {
          "internalType": "uint256",
          "name": "amount",
          "type": "uint256"
        },
        {
          "internalType": "bytes",
          "name": "params",
          "type": "bytes"
        },
        {
          "components": [
            {
              "internalType": "bytes",
              "name": "hookData",
              "type": "bytes"
            },
            {
              "internalType": "bytes",
              "name": "interestRateData",
              "type": "bytes"
            }
          ],
          "internalType": "struct DataTypes.ExtraData",
          "name": "data",
          "type": "tuple"
        }
      ],
      "name": "_flashLoan",
      "outputs": [],
      "stateMutability": "nonpayable",
      "type": "function"
    },
    {
      "inputs": [
        {
          "internalType": "address",
          "name": "asset",
          "type": "address"
        },
        {
          "internalType": "address",
          "name": "to",
          "type": "address"
        },
        {
          "internalType": "uint256",
          "name": "amount",
          "type": "uint256"
        },
        {
          "internalType": "uint256",
          "name": "index",
          "type": "uint256"
        },
        {
          "components": [
            {
              "internalType": "bytes",
              "name": "hookData",
              "type": "bytes"
            },
            {
              "internalType": "bytes",
              "name": "interestRateData",
              "type": "bytes"
            }
          ],
          "internalType": "struct DataTypes.ExtraData",
          "name": "data",
          "type": "tuple"
        }
      ],
      "name": "borrow",
      "outputs": [
        {
          "components": [
            {
              "internalType": "uint256",
              "name": "shares",
              "type": "uint256"
            },
            {
              "internalType": "uint256",
              "name": "assets",
              "type": "uint256"
            }
          ],
          "internalType": "struct DataTypes.SharesType",
          "name": "",
          "type": "tuple"
        }
      ],
      "stateMutability": "nonpayable",
      "type": "function"
    },
    {
      "inputs": [
        {
          "internalType": "address",
          "name": "asset",
          "type": "address"
        },
        {
          "internalType": "address",
          "name": "to",
          "type": "address"
        },
        {
          "internalType": "uint256",
          "name": "amount",
          "type": "uint256"
        },
        {
          "internalType": "uint256",
          "name": "index",
          "type": "uint256"
        }
      ],
      "name": "borrowSimple",
      "outputs": [
        {
          "components": [
            {
              "internalType": "uint256",
              "name": "shares",
              "type": "uint256"
            },
            {
              "internalType": "uint256",
              "name": "assets",
              "type": "uint256"
            }
          ],
          "internalType": "struct DataTypes.SharesType",
          "name": "",
          "type": "tuple"
        }
      ],
      "stateMutability": "nonpayable",
      "type": "function"
    },
    {
      "inputs": [],
      "name": "factory",
      "outputs": [
        {
          "internalType": "contract IPoolFactory",
          "name": "",
          "type": "address"
        }
      ],
      "stateMutability": "view",
      "type": "function"
    },
    {
      "inputs": [
        {
          "internalType": "address",
          "name": "receiverAddress",
          "type": "address"
        },
        {
          "internalType": "address",
          "name": "asset",
          "type": "address"
        },
        {
          "internalType": "uint256",
          "name": "amount",
          "type": "uint256"
        },
        {
          "internalType": "bytes",
          "name": "params",
          "type": "bytes"
        },
        {
          "components": [
            {
              "internalType": "bytes",
              "name": "hookData",
              "type": "bytes"
            },
            {
              "internalType": "bytes",
              "name": "interestRateData",
              "type": "bytes"
            }
          ],
          "internalType": "struct DataTypes.ExtraData",
          "name": "data",
          "type": "tuple"
        }
      ],
      "name": "flashLoan",
      "outputs": [],
      "stateMutability": "nonpayable",
      "type": "function"
    },
    {
      "inputs": [
        {
          "internalType": "address",
          "name": "receiverAddress",
          "type": "address"
        },
        {
          "internalType": "address",
          "name": "asset",
          "type": "address"
        },
        {
          "internalType": "uint256",
          "name": "amount",
          "type": "uint256"
        },
        {
          "internalType": "bytes",
          "name": "params",
          "type": "bytes"
        }
      ],
      "name": "flashLoanSimple",
      "outputs": [],
      "stateMutability": "nonpayable",
      "type": "function"
    },
    {
      "inputs": [
        {
          "internalType": "address",
          "name": "asset",
          "type": "address"
        }
      ],
      "name": "forceUpdateReserve",
      "outputs": [],
      "stateMutability": "nonpayable",
      "type": "function"
    },
    {
      "inputs": [],
      "name": "forceUpdateReserves",
      "outputs": [],
      "stateMutability": "nonpayable",
      "type": "function"
    },
    {
      "inputs": [
        {
          "internalType": "address",
          "name": "reserve",
          "type": "address"
        }
      ],
      "name": "getAssetPrice",
      "outputs": [
        {
          "internalType": "uint256",
          "name": "",
          "type": "uint256"
        }
      ],
      "stateMutability": "view",
      "type": "function"
    },
    {
      "inputs": [
        {
          "internalType": "address",
          "name": "asset",
          "type": "address"
        },
        {
          "internalType": "address",
          "name": "who",
          "type": "address"
        },
        {
          "internalType": "uint256",
          "name": "index",
          "type": "uint256"
        }
      ],
      "name": "getBalance",
      "outputs": [
        {
          "internalType": "uint256",
          "name": "balance",
          "type": "uint256"
        }
      ],
      "stateMutability": "view",
      "type": "function"
    },
    {
      "inputs": [
        {
          "internalType": "address",
          "name": "asset",
          "type": "address"
        },
        {
          "internalType": "bytes32",
          "name": "positionId",
          "type": "bytes32"
        }
      ],
      "name": "getBalanceByPosition",
      "outputs": [
        {
          "internalType": "uint256",
          "name": "balance",
          "type": "uint256"
        }
      ],
      "stateMutability": "view",
      "type": "function"
    },
    {
      "inputs": [
        {
          "internalType": "address",
          "name": "asset",
          "type": "address"
        },
        {
          "internalType": "address",
          "name": "who",
          "type": "address"
        },
        {
          "internalType": "uint256",
          "name": "index",
          "type": "uint256"
        }
      ],
      "name": "getBalanceRaw",
      "outputs": [
        {
          "components": [
            {
              "internalType": "uint128",
              "name": "lastDebtLiquidtyIndex",
              "type": "uint128"
            },
            {
              "internalType": "uint128",
              "name": "lastSupplyLiquidtyIndex",
              "type": "uint128"
            },
            {
              "internalType": "uint256",
              "name": "debtShares",
              "type": "uint256"
            },
            {
              "internalType": "uint256",
              "name": "supplyShares",
              "type": "uint256"
            }
          ],
          "internalType": "struct DataTypes.PositionBalance",
          "name": "",
          "type": "tuple"
        }
      ],
      "stateMutability": "view",
      "type": "function"
    },
    {
      "inputs": [
        {
          "internalType": "address",
          "name": "asset",
          "type": "address"
        },
        {
          "internalType": "bytes32",
          "name": "positionId",
          "type": "bytes32"
        }
      ],
      "name": "getBalanceRawByPositionId",
      "outputs": [
        {
          "components": [
            {
              "internalType": "uint128",
              "name": "lastDebtLiquidtyIndex",
              "type": "uint128"
            },
            {
              "internalType": "uint128",
              "name": "lastSupplyLiquidtyIndex",
              "type": "uint128"
            },
            {
              "internalType": "uint256",
              "name": "debtShares",
              "type": "uint256"
            },
            {
              "internalType": "uint256",
              "name": "supplyShares",
              "type": "uint256"
            }
          ],
          "internalType": "struct DataTypes.PositionBalance",
          "name": "",
          "type": "tuple"
        }
      ],
      "stateMutability": "view",
      "type": "function"
    },
    {
      "inputs": [
        {
          "internalType": "address",
          "name": "asset",
          "type": "address"
        }
      ],
      "name": "getConfiguration",
      "outputs": [
        {
          "components": [
            {
              "internalType": "uint256",
              "name": "data",
              "type": "uint256"
            }
          ],
          "internalType": "struct DataTypes.ReserveConfigurationMap",
          "name": "",
          "type": "tuple"
        }
      ],
      "stateMutability": "view",
      "type": "function"
    },
    {
      "inputs": [],
      "name": "getConfigurator",
      "outputs": [
        {
          "internalType": "address",
          "name": "",
          "type": "address"
        }
      ],
      "stateMutability": "view",
      "type": "function"
    },
    {
      "inputs": [
        {
          "internalType": "address",
          "name": "asset",
          "type": "address"
        },
        {
          "internalType": "address",
          "name": "who",
          "type": "address"
        },
        {
          "internalType": "uint256",
          "name": "index",
          "type": "uint256"
        }
      ],
      "name": "getDebt",
      "outputs": [
        {
          "internalType": "uint256",
          "name": "debt",
          "type": "uint256"
        }
      ],
      "stateMutability": "view",
      "type": "function"
    },
    {
      "inputs": [
        {
          "internalType": "address",
          "name": "asset",
          "type": "address"
        },
        {
          "internalType": "bytes32",
          "name": "positionId",
          "type": "bytes32"
        }
      ],
      "name": "getDebtByPosition",
      "outputs": [
        {
          "internalType": "uint256",
          "name": "debt",
          "type": "uint256"
        }
      ],
      "stateMutability": "view",
      "type": "function"
    },
    {
      "inputs": [],
      "name": "getHook",
      "outputs": [
        {
          "internalType": "contract IHook",
          "name": "",
          "type": "address"
        }
      ],
      "stateMutability": "view",
      "type": "function"
    },
    {
      "inputs": [
        {
          "internalType": "uint16",
          "name": "id",
          "type": "uint16"
        }
      ],
      "name": "getReserveAddressById",
      "outputs": [
        {
          "internalType": "address",
          "name": "",
          "type": "address"
        }
      ],
      "stateMutability": "view",
      "type": "function"
    },
    {
      "inputs": [
        {
          "internalType": "address",
          "name": "asset",
          "type": "address"
        }
      ],
      "name": "getReserveData",
      "outputs": [
        {
          "components": [
            {
              "components": [
                {
                  "internalType": "uint256",
                  "name": "data",
                  "type": "uint256"
                }
              ],
              "internalType": "struct DataTypes.ReserveConfigurationMap",
              "name": "configuration",
              "type": "tuple"
            },
            {
              "internalType": "uint128",
              "name": "liquidityIndex",
              "type": "uint128"
            },
            {
              "internalType": "uint128",
              "name": "liquidityRate",
              "type": "uint128"
            },
            {
              "internalType": "uint128",
              "name": "borrowIndex",
              "type": "uint128"
            },
            {
              "internalType": "uint128",
              "name": "borrowRate",
              "type": "uint128"
            },
            {
              "internalType": "uint40",
              "name": "lastUpdateTimestamp",
              "type": "uint40"
            },
            {
              "internalType": "uint16",
              "name": "id",
              "type": "uint16"
            },
            {
              "internalType": "address",
              "name": "interestRateStrategyAddress",
              "type": "address"
            },
            {
              "internalType": "address",
              "name": "oracle",
              "type": "address"
            },
            {
              "internalType": "uint256",
              "name": "accruedToTreasuryShares",
              "type": "uint256"
            }
          ],
          "internalType": "struct DataTypes.ReserveData",
          "name": "",
          "type": "tuple"
        }
      ],
      "stateMutability": "view",
      "type": "function"
    },
    {
      "inputs": [],
      "name": "getReserveFactor",
      "outputs": [
        {
          "internalType": "uint256",
          "name": "reseveFactor",
          "type": "uint256"
        }
      ],
      "stateMutability": "view",
      "type": "function"
    },
    {
      "inputs": [
        {
          "internalType": "address",
          "name": "reserve",
          "type": "address"
        }
      ],
      "name": "getReserveNormalizedIncome",
      "outputs": [
        {
          "internalType": "uint256",
          "name": "",
          "type": "uint256"
        }
      ],
      "stateMutability": "view",
      "type": "function"
    },
    {
      "inputs": [
        {
          "internalType": "address",
          "name": "reserve",
          "type": "address"
        }
      ],
      "name": "getReserveNormalizedVariableDebt",
      "outputs": [
        {
          "internalType": "uint256",
          "name": "",
          "type": "uint256"
        }
      ],
      "stateMutability": "view",
      "type": "function"
    },
    {
      "inputs": [],
      "name": "getReservesCount",
      "outputs": [
        {
          "internalType": "uint256",
          "name": "",
          "type": "uint256"
        }
      ],
      "stateMutability": "view",
      "type": "function"
    },
    {
      "inputs": [],
      "name": "getReservesList",
      "outputs": [
        {
          "internalType": "address[]",
          "name": "",
          "type": "address[]"
        }
      ],
      "stateMutability": "view",
      "type": "function"
    },
    {
      "inputs": [
        {
          "internalType": "address",
          "name": "asset",
          "type": "address"
        }
      ],
      "name": "getTotalSupplyRaw",
      "outputs": [
        {
          "components": [
            {
              "internalType": "uint256",
              "name": "debtShares",
              "type": "uint256"
            },
            {
              "internalType": "uint256",
              "name": "supplyShares",
              "type": "uint256"
            },
            {
              "internalType": "uint128",
              "name": "underlyingBalance",
              "type": "uint128"
            }
          ],
          "internalType": "struct DataTypes.ReserveSupplies",
          "name": "",
          "type": "tuple"
        }
      ],
      "stateMutability": "view",
      "type": "function"
    },
    {
      "inputs": [
        {
          "internalType": "address",
          "name": "user",
          "type": "address"
        },
        {
          "internalType": "uint256",
          "name": "index",
          "type": "uint256"
        }
      ],
      "name": "getUserAccountData",
      "outputs": [
        {
          "internalType": "uint256",
          "name": "",
          "type": "uint256"
        },
        {
          "internalType": "uint256",
          "name": "",
          "type": "uint256"
        },
        {
          "internalType": "uint256",
          "name": "",
          "type": "uint256"
        },
        {
          "internalType": "uint256",
          "name": "",
          "type": "uint256"
        },
        {
          "internalType": "uint256",
          "name": "",
          "type": "uint256"
        },
        {
          "internalType": "uint256",
          "name": "",
          "type": "uint256"
        }
      ],
      "stateMutability": "view",
      "type": "function"
    },
    {
      "inputs": [
        {
          "internalType": "address",
          "name": "user",
          "type": "address"
        },
        {
          "internalType": "uint256",
          "name": "index",
          "type": "uint256"
        }
      ],
      "name": "getUserConfiguration",
      "outputs": [
        {
          "components": [
            {
              "internalType": "uint256",
              "name": "data",
              "type": "uint256"
            }
          ],
          "internalType": "struct DataTypes.UserConfigurationMap",
          "name": "",
          "type": "tuple"
        }
      ],
      "stateMutability": "view",
      "type": "function"
    },
    {
      "inputs": [
        {
          "components": [
            {
              "internalType": "address",
              "name": "hook",
              "type": "address"
            },
            {
              "internalType": "address[]",
              "name": "assets",
              "type": "address[]"
            },
            {
              "internalType": "address[]",
              "name": "rateStrategyAddresses",
              "type": "address[]"
            },
            {
              "internalType": "address[]",
              "name": "sources",
              "type": "address[]"
            },
            {
              "components": [
                {
                  "internalType": "bool",
                  "name": "borrowable",
                  "type": "bool"
                },
                {
                  "internalType": "bool",
                  "name": "frozen",
                  "type": "bool"
                },
                {
                  "internalType": "uint256",
                  "name": "borrowCap",
                  "type": "uint256"
                },
                {
                  "internalType": "uint256",
                  "name": "decimals",
                  "type": "uint256"
                },
                {
                  "internalType": "uint256",
                  "name": "liquidationBonus",
                  "type": "uint256"
                },
                {
                  "internalType": "uint256",
                  "name": "liquidationThreshold",
                  "type": "uint256"
                },
                {
                  "internalType": "uint256",
                  "name": "ltv",
                  "type": "uint256"
                },
                {
                  "internalType": "uint256",
                  "name": "supplyCap",
                  "type": "uint256"
                }
              ],
              "internalType": "struct DataTypes.InitReserveConfig[]",
              "name": "configurations",
              "type": "tuple[]"
            }
          ],
          "internalType": "struct DataTypes.InitPoolParams",
          "name": "params",
          "type": "tuple"
        }
      ],
      "name": "initialize",
      "outputs": [],
      "stateMutability": "nonpayable",
      "type": "function"
    },
    {
      "inputs": [
        {
          "internalType": "address",
          "name": "collat",
          "type": "address"
        },
        {
          "internalType": "address",
          "name": "debt",
          "type": "address"
        },
        {
          "internalType": "bytes32",
          "name": "pos",
          "type": "bytes32"
        },
        {
          "internalType": "uint256",
          "name": "debtAmt",
          "type": "uint256"
        },
        {
          "components": [
            {
              "internalType": "bytes",
              "name": "hookData",
              "type": "bytes"
            },
            {
              "internalType": "bytes",
              "name": "interestRateData",
              "type": "bytes"
            }
          ],
          "internalType": "struct DataTypes.ExtraData",
          "name": "data",
          "type": "tuple"
        }
      ],
      "name": "liquidate",
      "outputs": [],
      "stateMutability": "nonpayable",
      "type": "function"
    },
    {
      "inputs": [
        {
          "internalType": "address",
          "name": "collat",
          "type": "address"
        },
        {
          "internalType": "address",
          "name": "debt",
          "type": "address"
        },
        {
          "internalType": "bytes32",
          "name": "pos",
          "type": "bytes32"
        },
        {
          "internalType": "uint256",
          "name": "debtAmt",
          "type": "uint256"
        }
      ],
      "name": "liquidateSimple",
      "outputs": [],
      "stateMutability": "nonpayable",
      "type": "function"
    },
    {
      "inputs": [
        {
          "internalType": "address",
          "name": "asset",
          "type": "address"
        }
      ],
      "name": "marketBalances",
      "outputs": [
        {
          "internalType": "uint256",
          "name": "",
          "type": "uint256"
        },
        {
          "internalType": "uint256",
          "name": "",
          "type": "uint256"
        },
        {
          "internalType": "uint256",
          "name": "",
          "type": "uint256"
        },
        {
          "internalType": "uint256",
          "name": "",
          "type": "uint256"
        }
      ],
      "stateMutability": "view",
      "type": "function"
    },
    {
      "inputs": [
        {
          "internalType": "address",
          "name": "asset",
          "type": "address"
        },
        {
          "internalType": "uint256",
          "name": "amount",
          "type": "uint256"
        },
        {
          "internalType": "uint256",
          "name": "index",
          "type": "uint256"
        },
        {
          "components": [
            {
              "internalType": "bytes",
              "name": "hookData",
              "type": "bytes"
            },
            {
              "internalType": "bytes",
              "name": "interestRateData",
              "type": "bytes"
            }
          ],
          "internalType": "struct DataTypes.ExtraData",
          "name": "data",
          "type": "tuple"
        }
      ],
      "name": "repay",
      "outputs": [
        {
          "components": [
            {
              "internalType": "uint256",
              "name": "shares",
              "type": "uint256"
            },
            {
              "internalType": "uint256",
              "name": "assets",
              "type": "uint256"
            }
          ],
          "internalType": "struct DataTypes.SharesType",
          "name": "",
          "type": "tuple"
        }
      ],
      "stateMutability": "nonpayable",
      "type": "function"
    },
    {
      "inputs": [
        {
          "internalType": "address",
          "name": "asset",
          "type": "address"
        },
        {
          "internalType": "uint256",
          "name": "amount",
          "type": "uint256"
        },
        {
          "internalType": "uint256",
          "name": "index",
          "type": "uint256"
        }
      ],
      "name": "repaySimple",
      "outputs": [
        {
          "components": [
            {
              "internalType": "uint256",
              "name": "shares",
              "type": "uint256"
            },
            {
              "internalType": "uint256",
              "name": "assets",
              "type": "uint256"
            }
          ],
          "internalType": "struct DataTypes.SharesType",
          "name": "",
          "type": "tuple"
        }
      ],
      "stateMutability": "nonpayable",
      "type": "function"
    },
    {
      "inputs": [],
      "name": "revision",
      "outputs": [
        {
          "internalType": "uint256",
          "name": "",
          "type": "uint256"
        }
      ],
      "stateMutability": "pure",
      "type": "function"
    },
    {
      "inputs": [
        {
          "internalType": "address",
          "name": "asset",
          "type": "address"
        },
        {
          "internalType": "address",
          "name": "rateStrategy",
          "type": "address"
        },
        {
          "internalType": "address",
          "name": "source",
          "type": "address"
        },
        {
          "components": [
            {
              "internalType": "uint256",
              "name": "data",
              "type": "uint256"
            }
          ],
          "internalType": "struct DataTypes.ReserveConfigurationMap",
          "name": "config",
          "type": "tuple"
        }
      ],
      "name": "setReserveConfiguration",
      "outputs": [],
      "stateMutability": "nonpayable",
      "type": "function"
    },
    {
      "inputs": [
        {
          "internalType": "address",
          "name": "asset",
          "type": "address"
        },
        {
          "internalType": "uint256",
          "name": "index",
          "type": "uint256"
        },
        {
          "internalType": "bool",
          "name": "useAsCollateral",
          "type": "bool"
        }
      ],
      "name": "setUserUseReserveAsCollateral",
      "outputs": [],
      "stateMutability": "nonpayable",
      "type": "function"
    },
    {
      "inputs": [
        {
          "internalType": "address",
          "name": "asset",
          "type": "address"
        },
        {
          "internalType": "address",
          "name": "to",
          "type": "address"
        },
        {
          "internalType": "uint256",
          "name": "amount",
          "type": "uint256"
        },
        {
          "internalType": "uint256",
          "name": "index",
          "type": "uint256"
        },
        {
          "components": [
            {
              "internalType": "bytes",
              "name": "hookData",
              "type": "bytes"
            },
            {
              "internalType": "bytes",
              "name": "interestRateData",
              "type": "bytes"
            }
          ],
          "internalType": "struct DataTypes.ExtraData",
          "name": "data",
          "type": "tuple"
        }
      ],
      "name": "supply",
      "outputs": [
        {
          "components": [
            {
              "internalType": "uint256",
              "name": "shares",
              "type": "uint256"
            },
            {
              "internalType": "uint256",
              "name": "assets",
              "type": "uint256"
            }
          ],
          "internalType": "struct DataTypes.SharesType",
          "name": "",
          "type": "tuple"
        }
      ],
      "stateMutability": "nonpayable",
      "type": "function"
    },
    {
      "inputs": [
        {
          "internalType": "address",
          "name": "asset",
          "type": "address"
        },
        {
          "internalType": "bytes32",
          "name": "positionId",
          "type": "bytes32"
        }
      ],
      "name": "supplyAssets",
      "outputs": [
        {
          "internalType": "uint256",
          "name": "",
          "type": "uint256"
        }
      ],
      "stateMutability": "view",
      "type": "function"
    },
    {
      "inputs": [
        {
          "internalType": "address",
          "name": "asset",
          "type": "address"
        },
        {
          "internalType": "bytes32",
          "name": "positionId",
          "type": "bytes32"
        }
      ],
      "name": "supplyShares",
      "outputs": [
        {
          "internalType": "uint256",
          "name": "shares",
          "type": "uint256"
        }
      ],
      "stateMutability": "view",
      "type": "function"
    },
    {
      "inputs": [
        {
          "internalType": "address",
          "name": "asset",
          "type": "address"
        },
        {
          "internalType": "address",
          "name": "to",
          "type": "address"
        },
        {
          "internalType": "uint256",
          "name": "amount",
          "type": "uint256"
        },
        {
          "internalType": "uint256",
          "name": "index",
          "type": "uint256"
        }
      ],
      "name": "supplySimple",
      "outputs": [
        {
          "components": [
            {
              "internalType": "uint256",
              "name": "shares",
              "type": "uint256"
            },
            {
              "internalType": "uint256",
              "name": "assets",
              "type": "uint256"
            }
          ],
          "internalType": "struct DataTypes.SharesType",
          "name": "",
          "type": "tuple"
        }
      ],
      "stateMutability": "nonpayable",
      "type": "function"
    },
    {
      "inputs": [
        {
          "internalType": "address",
          "name": "asset",
          "type": "address"
        }
      ],
      "name": "totalAssets",
      "outputs": [
        {
          "internalType": "uint256",
          "name": "balance",
          "type": "uint256"
        }
      ],
      "stateMutability": "view",
      "type": "function"
    },
    {
      "inputs": [
        {
          "internalType": "address",
          "name": "asset",
          "type": "address"
        }
      ],
      "name": "totalDebt",
      "outputs": [
        {
          "internalType": "uint256",
          "name": "balance",
          "type": "uint256"
        }
      ],
      "stateMutability": "view",
      "type": "function"
    },
    {
      "inputs": [
        {
          "internalType": "address",
          "name": "asset",
          "type": "address"
        },
        {
          "internalType": "address",
          "name": "to",
          "type": "address"
        },
        {
          "internalType": "uint256",
          "name": "amount",
          "type": "uint256"
        },
        {
          "internalType": "uint256",
          "name": "index",
          "type": "uint256"
        },
        {
          "components": [
            {
              "internalType": "bytes",
              "name": "hookData",
              "type": "bytes"
            },
            {
              "internalType": "bytes",
              "name": "interestRateData",
              "type": "bytes"
            }
          ],
          "internalType": "struct DataTypes.ExtraData",
          "name": "data",
          "type": "tuple"
        }
      ],
      "name": "withdraw",
      "outputs": [
        {
          "components": [
            {
              "internalType": "uint256",
              "name": "shares",
              "type": "uint256"
            },
            {
              "internalType": "uint256",
              "name": "assets",
              "type": "uint256"
            }
          ],
          "internalType": "struct DataTypes.SharesType",
          "name": "",
          "type": "tuple"
        }
      ],
      "stateMutability": "nonpayable",
      "type": "function"
    },
    {
      "inputs": [
        {
          "internalType": "address",
          "name": "asset",
          "type": "address"
        },
        {
          "internalType": "address",
          "name": "to",
          "type": "address"
        },
        {
          "internalType": "uint256",
          "name": "amount",
          "type": "uint256"
        },
        {
          "internalType": "uint256",
          "name": "index",
          "type": "uint256"
        }
      ],
      "name": "withdrawSimple",
      "outputs": [
        {
          "components": [
            {
              "internalType": "uint256",
              "name": "shares",
              "type": "uint256"
            },
            {
              "internalType": "uint256",
              "name": "assets",
              "type": "uint256"
            }
          ],
          "internalType": "struct DataTypes.SharesType",
          "name": "",
          "type": "tuple"
        }
      ],
      "stateMutability": "nonpayable",
      "type": "function"
    }
  ],
  "transactionHash": "0xe05e3ccf9b85ecd1dbecf0ba2838a72ddaf36233c02a7e0511193afdb1634e6b",
  "args": [],
  "numDeployments": 1,
  "solcInputHash": "95d84748b454ba387ab3866b78066cba",
  "bytecode": "0x608060405234801561001057600080fd5b5061420c806100206000396000f3fe608060405234801561001057600080fd5b506004361061027f5760003560e01c80639a62d6b71161015c578063c45a0155116100ce578063eba086e711610087578063eba086e714610465578063f3e0ffbf146106c9578063f7af06af146106dc578063fb4a8d4d146106ef578063fbabb91b14610702578063fdaeebd11461071557600080fd5b8063c45a015514610631578063c619fc1514610648578063d15e00531461065b578063d1946dbc1461066e578063d2fea38a14610683578063e80b5b5f1461069657600080fd5b8063b189b7c411610120578063b189b7c414610592578063b3596f07146105a5578063b36d5e8b146105b8578063b55bd84d146105cb578063bad6c24f146105dc578063c44b11f7146105ef57600080fd5b80639a62d6b71461052f5780639b7ae5ec14610551578063a0f7022a14610559578063a13701f51461056c578063a67c04c21461057f57600080fd5b806352751797116101f557806361e5f354116101b957806361e5f3541461047857806367060c2e1461048b57806368488ca5146104c95780636d2b42bd146104dc57806372218d041461051c5780637cc963801461052857600080fd5b806352751797146103fd578063598bf786146104425780635a7e41c81461044a5780635f558e531461045d5780636049a52d1461046557600080fd5b806335ea6a751161024757806335ea6a751461037e578063386497fd1461039e5780633c5d0ff2146103b157806343f6ee3c146103c457806344b8037d146103d757806349b16a7d146103ea57600080fd5b806305ee3a4a146102845780631ff517ff146102b757806322f78ad6146102d8578063279c1de8146102ed5780632fb8721c14610345575b600080fd5b6102976102923660046130f3565b610728565b604080518251815260209283015192810192909252015b60405180910390f35b6102ca6102c5366004613139565b610782565b6040519081526020016102ae565b6102eb6102e63660046132e6565b6107c0565b005b6103006102fb36600461335b565b6107d4565b6040516102ae919060006080820190506001600160801b0380845116835280602085015116602084015250604083015160408301526060830151606083015292915050565b6102ca61035336600461335b565b6001600160a01b03919091166000908152603560209081526040808320938352929052206002015490565b61039161038c366004613139565b610845565b6040516102ae9190613387565b6102ca6103ac366004613139565b610915565b6102976103bf36600461346d565b610936565b6102eb6103d2366004613641565b61095f565b6102976103e53660046132e6565b610cb3565b6102976103f836600461372a565b610ce7565b61042a61040b36600461375f565b61ffff166000908152603760205260409020546001600160a01b031690565b6040516001600160a01b0390911681526020016102ae565b6102eb610d41565b6102976104583660046132e6565b610d88565b6102ca610dba565b6102ca61047336600461335b565b610e38565b6102ca610486366004613783565b610e78565b61049e610499366004613139565b610ed3565b604080518251815260208084015190820152918101516001600160801b0316908201526060016102ae565b6102ca6104d736600461335b565b610f4b565b6104ef6104ea36600461335b565b610f8b565b604080519687526020870195909552938501929092526060840152608083015260a082015260c0016102ae565b60385461ffff166102ca565b60016102ca565b61054261053d36600461335b565b611090565b604051905181526020016102ae565b61042a6110db565b6102eb6105673660046137c4565b611154565b6102eb61057a366004613870565b6112af565b6102eb61058d366004613906565b6112c5565b6102ca6105a0366004613783565b6112d5565b6102ca6105b3366004613139565b611330565b6102eb6105c6366004613944565b6113ae565b6039546001600160a01b031661042a565b6102976105ea3660046130f3565b6113ee565b6105426105fd366004613139565b60408051602080820183526000918290526001600160a01b0393909316815260338352819020815192830190915254815290565b6038546201000090046001600160a01b031661042a565b6102eb6106563660046130f3565b611447565b6102ca610669366004613139565b61148c565b6106766114ad565b6040516102ae91906139b6565b6102976106913660046130f3565b61156d565b6106a96106a4366004613139565b6115be565b6040805194855260208501939093529183015260608201526080016102ae565b6102ca6106d7366004613139565b611645565b6102eb6106ea366004613870565b61167d565b6103006106fd366004613783565b611891565b6102976107103660046132e6565b61191b565b6102eb610723366004613139565b611945565b604080518082019091526000808252602082015261077985858561074c3387611983565b604080516060810182526000818301818152825282516020818101909452908152918101919091526119d8565b95945050505050565b6001600160a01b038116600090815260336020908152604080832060020154603690925282206107ba916001600160801b0316611cd9565b92915050565b6107cd8585858585611ce8565b5050505050565b6107dc613039565b506001600160a01b0382166000908152603560209081526040808320848452825291829020825160808101845281546001600160801b038082168352600160801b9091041692810192909252600181015492820192909252600290910154606082015292915050565b61084d613073565b506001600160a01b0390811660009081526033602090815260409182902082516101608101845281546101408201908152815260018201546001600160801b0380821694830194909452600160801b9081900484169482019490945260028201548084166060830152939093049091166080830152600381015464ffffffffff811660a084015261ffff6501000000000082041660c08401526701000000000000009004831660e0830152600481015490921661010082015260059091015461012082015290565b6001600160a01b03811660009081526033602052604081206107ba90611f49565b604080518082019091526000808252602082015261077985856109593387611983565b85611f9f565b600054610100900460ff161580801561097f5750600054600160ff909116105b806109995750303b158015610999575060005460ff166001145b610a015760405162461bcd60e51b815260206004820152602e60248201527f496e697469616c697a61626c653a20636f6e747261637420697320616c72656160448201526d191e481a5b9a5d1a585b1a5e995960921b60648201526084015b60405180910390fd5b6000805460ff191660011790558015610a24576000805461ff0019166101001790555b6038805462010000600160b01b0319163362010000021790558151603980546001600160a01b0319166001600160a01b0390921691909117905560005b826020015151811015610bdf57730B8DCBb7C7702B025Ec02aa629Eae613E30776D46369fc1bdf603360376040518060a0016040528088602001518781518110610aad57610aad613a03565b60200260200101516001600160a01b0316815260200188604001518781518110610ad957610ad9613a03565b60200260200101516001600160a01b0316815260200188606001518781518110610b0557610b05613a03565b60200260200101516001600160a01b0316815260200188608001518781518110610b3157610b31613a03565b602090810291909101810151825260385461ffff169101526040516001600160e01b031960e086901b168152610b6c93929190600401613a19565b60006040518083038186803b158015610b8457600080fd5b505af4158015610b98573d6000803e3d6000fd5b50506038805461ffff16925090506000610bb183613adc565b91906101000a81548161ffff021916908361ffff160217905550508080610bd790613afd565b915050610a61565b50610be861222e565b6039546001600160a01b031615610c6957603954604051630b45f76560e41b81523060048201526001600160a01b039091169063b45f7650906024016020604051808303816000875af1158015610c43573d6000803e3d6000fd5b505050506040513d601f19601f82011682018060405250810190610c679190613b16565b505b8015610caf576000805461ff0019169055604051600181527f7f26b83ff96e1f2b6a682f133852f6798a09c465da95921460cefb38474024989060200160405180910390a15b5050565b6040805180820190915260008082526020820152610cdd868686610cd73388611983565b86612311565b9695505050505050565b6040805180820190915260008082526020820152610d378484610d0a3386611983565b60408051606081018252600081830181815282528251602081810190945290815291810191909152611f9f565b90505b9392505050565b60005b60385461ffff16811015610d8557600081815260376020526040902054610d73906001600160a01b0316611945565b80610d7d81613afd565b915050610d44565b50565b6040805180820190915260008082526020820152610cdd8685610db46001600160a01b03891687611983565b8561259c565b6000603860029054906101000a90046001600160a01b03166001600160a01b0316634322b7146040518163ffffffff1660e01b8152600401602060405180830381865afa158015610e0f573d6000803e3d6000fd5b505050506040513d601f19601f82011682018060405250810190610e339190613b40565b905090565b6001600160a01b038216600090815260336020908152604080832060010154603583528184208585529092528220610d3a916001600160801b03166127e2565b600080610e8e6001600160a01b03851684611983565b6001600160a01b0386166000908152603360209081526040808320600101546035835281842085855290925290912091925061077991906001600160801b03166127e2565b610f006040518060600160405280600081526020016000815260200160006001600160801b031681525090565b506001600160a01b0316600090815260366020908152604091829020825160608101845281548152600182015492810192909252600201546001600160801b03169181019190915290565b6001600160a01b038216600090815260336020908152604080832060020154603583528184208585529092528220610d3a916001600160801b031661283a565b6000808080808080610fa66001600160a01b038a1689611983565b60408051606081018252308152602080820184815260008581526034835284902084519283018552548252828401918252925163f0dd5f0960e01b815260356004820152603360248201526037604482015291516001600160a01b031660648301529151608482015290515160a4820152909150730B8DCBb7C7702B025Ec02aa629Eae613E30776D49063f0dd5f099060c40160c060405180830381865af4158015611056573d6000803e3d6000fd5b505050506040513d601f19601f8201168201806040525081019061107a9190613b59565b949e939d50919b50995097509095509350505050565b604080516020810190915260008152603460006110b66001600160a01b03861685611983565b8152602080820192909252604090810160002081519283019091525481529392505050565b6000603860029054906101000a90046001600160a01b03166001600160a01b0316632b507df86040518163ffffffff1660e01b8152600401602060405180830381865afa158015611130573d6000803e3d6000fd5b505050506040513d601f19601f82011682018060405250810190610e339190613ba3565b603860029054906101000a90046001600160a01b03166001600160a01b0316632b507df86040518163ffffffff1660e01b8152600401602060405180830381865afa1580156111a7573d6000803e3d6000fd5b505050506040513d601f19601f820116820180604052508101906111cb9190613ba3565b6001600160a01b0316336001600160a01b03161461121f5760405162461bcd60e51b815260206004820152601160248201527037b7363c9031b7b73334b3bab930ba37b960791b60448201526064016109f8565b604051632472484560e21b8152603360048201526001600160a01b03808616602483015280851660448301528316606482015281356084820152730B8DCBb7C7702B025Ec02aa629Eae613E30776D4906391c921149060a4015b60006040518083038186803b15801561129157600080fd5b505af41580156112a5573d6000803e3d6000fd5b5050505050505050565b6112bd86868686868661167d565b505050505050565b6112d0838383612883565b505050565b6000806112eb6001600160a01b03851684611983565b6001600160a01b0386166000908152603360209081526040808320600201546035835281842085855290925290912091925061077991906001600160801b031661283a565b6001600160a01b03808216600090815260336020908152604080832060049081015482516350d25bcd60e01b81529251949516936350d25bcd93838301939092908290030181865afa15801561138a573d6000803e3d6000fd5b505050506040513d601f19601f820116820180604052508101906107ba9190613b40565b6107cd858585858560405180604001604052806040518060200160405280600081525081526020016040518060200160405280600081525081525061167d565b6040805180820190915260008082526020820152610779858461141a6001600160a01b03881686611983565b6040805160608101825260008183018181528252825160208181019094529081529181019190915261259c565b61148684848484604051806040016040528060405180602001604052806000815250815260200160405180602001604052806000815250815250611ce8565b50505050565b6001600160a01b03811660009081526033602052604081206107ba906129ba565b60385460609060009061ffff166001600160401b038111156114d1576114d1613156565b6040519080825280602002602001820160405280156114fa578160200160208202803683370190505b50905060005b60385461ffff168110156115675760008181526037602052604090205482516001600160a01b039091169083908390811061153d5761153d613a03565b6001600160a01b03909216602092830291909101909101528061155f81613afd565b915050611500565b50919050565b60408051808201909152600080825260208201526107798585856115913387611983565b60408051606081018252600081830181815282528251602081810190945290815291810191909152612311565b6001600160a01b03811660009081526036602090815260408083206033909252822060010154829182918291906115ff9082906001600160801b0316612a0a565b60018201546001600160a01b0388166000908152603360205260409020600201546116349084906001600160801b0316611cd9565b925491989097509195509350915050565b6001600160a01b038116600090815260336020908152604080832060010154603690925282206107ba916001600160801b0316612a0a565b600161168881612a1c565b60006040518060e00160405280886001600160a01b03168152602001896001600160a01b0316815260200186868080601f016020809104026020016040519081016040528093929190818152602001838380828437600092019190915250505090825250602080820186905260408083018a905260385481516309e8a6df60e01b81529151606090940193620100009091046001600160a01b0316926309e8a6df92600480820193918290030181865afa15801561174a573d6000803e3d6000fd5b505050506040513d601f19601f8201168201806040525081019061176e9190613b40565b8152602001603860029054906101000a90046001600160a01b03166001600160a01b0316634322b7146040518163ffffffff1660e01b8152600401602060405180830381865afa1580156117c6573d6000803e3d6000fd5b505050506040513d601f19601f820116820180604052508101906117ea9190613b40565b90526001600160a01b038816600090815260336020908152604080832060369092529182902091516356ae2b9f60e01b815292935073232D6d2140C6b5621cA9c684bdbe13E401f97D2C926356ae2b9f9261184e9230929091908790600401613c34565b60006040518083038186803b15801561186657600080fd5b505af415801561187a573d6000803e3d6000fd5b505050505061188881612ae9565b50505050505050565b611899613039565b60006118ae6001600160a01b03851684611983565b6001600160a01b038616600090815260356020908152604080832093835292815290829020825160808101845281546001600160801b038082168352600160801b909104169281019290925260018101549282019290925260029091015460608201529150509392505050565b6040805180820190915260008082526020820152610cdd86868661193f3388611983565b866119d8565b6001600160a01b038116600090815260336020908152604080832060369092528220909190611975908390612b00565b90506112d082600083612b95565b6040516bffffffffffffffffffffffff19606084901b166020820152640d2dcc8caf60db1b60348201526039810182905260009060590160405160208183030381529060405280519060200120905092915050565b604080518082019091526000808252602082015260006119f781612a1c565b60006040518060e00160405280896001600160a01b03168152602001886001600160a01b03168152602001306001600160a01b03168152602001868152602001858152602001878152602001603860029054906101000a90046001600160a01b03166001600160a01b0316634322b7146040518163ffffffff1660e01b8152600401602060405180830381865afa158015611a96573d6000803e3d6000fd5b505050506040513d601f19601f82011682018060405250810190611aba9190613b40565b90526039549091506001600160a01b031615611b335760395460405163f9ddebc360e01b81526001600160a01b039091169063f9ddebc390611b00908490600401613cd3565b600060405180830381600087803b158015611b1a57600080fd5b505af1158015611b2e573d6000803e3d6000fd5b505050505b60008581526034602090815260408083206001600160a01b038c16845260369092529182902091516366f9f34360e01b815273080c62172c5D7479144ad8227111708F03847C7f926366f9f34392611b9a9260339260379291603591908990600401613db1565b6040805180830381865af4158015611bb6573d6000803e3d6000fd5b505050506040513d601f19601f82011682018060405250810190611bda9190613dee565b604051633e4c478560e11b8152603360048201526001600160a01b038a166024820152909350730B8DCBb7C7702B025Ec02aa629Eae613E30776D490637c988f0a9060440160006040518083038186803b158015611c3757600080fd5b505af4158015611c4b573d6000803e3d6000fd5b50506039546001600160a01b0316159150611cc5905057603954604051636130372360e01b81526001600160a01b0390911690636130372390611c92908490600401613cd3565b600060405180830381600087803b158015611cac57600080fd5b505af1158015611cc0573d6000803e3d6000fd5b505050505b50611ccf81612ae9565b5095945050505050565b8154600090610d3a9083612be0565b6002611cf381612a1c565b6039546001600160a01b031615611d73576039548251604051637e505c0760e01b81526001600160a01b0390921691637e505c0791611d4091339189918c918c918b913091600401613e20565b600060405180830381600087803b158015611d5a57600080fd5b505af1158015611d6e573d6000803e3d6000fd5b505050505b735ea73c4C88f78FC9dd2F1b67dFACE2F1A25047D8639406fcf7603360376035603660346040518061010001604052808e6001600160a01b031681526020018d6001600160a01b03168152602001306001600160a01b031681526020018c81526020018a81526020018b8152602001603860029054906101000a90046001600160a01b03166001600160a01b0316634322b7146040518163ffffffff1660e01b8152600401602060405180830381865afa158015611e35573d6000803e3d6000fd5b505050506040513d601f19601f82011682018060405250810190611e599190613b40565b815260385461ffff166020909101526040516001600160e01b031960e089901b168152611e8e96959493929190600401613e77565b60006040518083038186803b158015611ea657600080fd5b505af4158015611eba573d6000803e3d6000fd5b50506039546001600160a01b0316159150611f409050576039548251604051630127e79f60e01b81526001600160a01b0390921691630127e79f91611f0d91339189918c918c918b913091600401613e20565b600060405180830381600087803b158015611f2757600080fd5b505af1158015611f3b573d6000803e3d6000fd5b505050505b6112bd81612ae9565b600381015460009064ffffffffff16428103611f71575050600201546001600160801b031690565b6002830154610d3a906001600160801b0380821691611f9991600160801b9091041684612c24565b90612be0565b60408051808201909152600080825260208201526000611fbe81612a1c565b6039546001600160a01b03161561203d5760395483516040516326e43d4160e21b81526001600160a01b0390921691639b90f5049161200a91339189918c9130918d9190600401613f2e565b600060405180830381600087803b15801561202457600080fd5b505af1158015612038573d6000803e3d6000fd5b505050505b6001600160a01b038087166000818152603360209081526040808320603583528184208a85528352818420858552603684528285208b86526034855294839020835160e08101855296875230878601523387850152606087018c9052608087018b905260a087018d905260385484516310c8adc560e21b81529451735CC3F8f5a18be034805B071D8b871642f68aceb299639ad153da9995989497949693959460c08601946201000090940490911692634322b71492600480830193928290030181865afa158015612113573d6000803e3d6000fd5b505050506040513d601f19601f820116820180604052508101906121379190613b40565b8152506040518663ffffffff1660e01b815260040161215a959493929190613f70565b6040805180830381865af4158015612176573d6000803e3d6000fd5b505050506040513d601f19601f8201168201806040525081019061219a9190613dee565b6039549092506001600160a01b03161561221c57603954835160405163714169ed60e11b81526001600160a01b039092169163e282d3da916121e991339189918c9130918d9190600401613f2e565b600060405180830381600087803b15801561220357600080fd5b505af1158015612217573d6000803e3d6000fd5b505050505b61222581612ae9565b50949350505050565b600054610100900460ff166122995760405162461bcd60e51b815260206004820152602b60248201527f496e697469616c697a61626c653a20636f6e7472616374206973206e6f74206960448201526a6e697469616c697a696e6760a81b60648201526084016109f8565b600160208190527fa6eef7e35abe7026729641147f7915573c7e97b47efa546f5f6e3230263bcb498190557fcc69885fda6bcc1a4ace058b4a62bf5e179ea78fd58a1ccd71c22cc9b688792f81905560026000527fd9d16d34ffb15ba3a3d852f0d403e2ce1d691fb54de27ac87cd2f993f3ec330f55565b6040805180820190915260008082526020820152600061233081612a1c565b6039546001600160a01b0316156123af576039548351604051632d1a6e7b60e11b81526001600160a01b0390921691635a34dcf69161237c91339189918d9130918d9190600401613f2e565b600060405180830381600087803b15801561239657600080fd5b505af11580156123aa573d6000803e3d6000fd5b505050505b60008481526034602090815260408083206001600160a01b03808c168086526036855294839020835161012081018552958652308686015233868501528b82166060870152608086018a905260a0860189905260c086018b905260385484516310c8adc560e21b81529451735CC3F8f5a18be034805B071D8b871642f68aceb29763a0d9d869976033976037979660359695939460e086019462010000900490911692634322b71492600480820193918290030181865afa158015612478573d6000803e3d6000fd5b505050506040513d601f19601f8201168201806040525081019061249c9190613b40565b815260385461ffff166020909101526040516001600160e01b031960e089901b1681526124d196959493929190600401613fbc565b6040805180830381865af41580156124ed573d6000803e3d6000fd5b505050506040513d601f19601f820116820180604052508101906125119190613dee565b6039549092506001600160a01b0316156125935760395483516040516304830bd560e11b81526001600160a01b039092169163090617aa9161256091339189918d9130918d9190600401613f2e565b600060405180830381600087803b15801561257a57600080fd5b505af115801561258e573d6000803e3d6000fd5b505050505b611ccf81612ae9565b604080518082019091526000808252602082015260006125bb81612a1c565b6039546001600160a01b03161561263a57603954835160405163b22e2bcb60e01b81526001600160a01b039092169163b22e2bcb9161260791339189918c9130918d9190600401613f2e565b600060405180830381600087803b15801561262157600080fd5b505af1158015612635573d6000803e3d6000fd5b505050505b6001600160a01b03808716600081815260336020908152604080832089845260348352818420858552603584528285208b865284528285208686526036855294839020835160c08101855296875230878601528684018c9052606087018b9052608087018d905260385484516310c8adc560e21b8152945173080c62172c5D7479144ad8227111708F03847C7f99630587fd889995989497949693959460a08601946201000090940490911692634322b71492600480830193928290030181865afa15801561270d573d6000803e3d6000fd5b505050506040513d601f19601f820116820180604052508101906127319190613b40565b8152506040518663ffffffff1660e01b81526004016127549594939291906140a2565b6040805180830381865af4158015612770573d6000803e3d6000fd5b505050506040513d601f19601f820116820180604052508101906127949190613dee565b6039549092506001600160a01b03161561221c57603954835160405162d3c97d60e21b81526001600160a01b039092169163034f25f4916121e991339189918c9130918d9190600401613f2e565b81546002830154600091829161280791600160801b90046001600160801b0316612be0565b60028501546128169085612be0565b6128209190614128565b9050808460020154612832919061413b565b949350505050565b815460018301546000918291612858916001600160801b0316612be0565b60018501546128679085612be0565b6128719190614128565b9050808460010154612832919061413b565b600061288f3384611983565b60008181526034602090815260408083206001600160a01b03808a1680865260368552838620845160e0810186529182523382870152308286015260608083018990528551908101865280860188815281528551808801875288815281880152608083015260a082019690965260385484516310c8adc560e21b8152945197985073080c62172c5D7479144ad8227111708F03847C7f9763c2b94c439760339760379760359692958e95909460c08601946201000090920490911692634322b71492600480820193918290030181865afa158015612971573d6000803e3d6000fd5b505050506040513d601f19601f820116820180604052508101906129959190613b40565b8152506040518863ffffffff1660e01b8152600401611279979695949392919061414e565b600381015460009064ffffffffff164281036129e2575050600101546001600160801b031690565b6001830154610d3a906001600160801b0380821691611f9991600160801b9091041684612c31565b6001820154600090610d3a9083612be0565b600260016000836002811115612a3457612a34613fa6565b6002811115612a4557612a45613fa6565b81526020019081526020016000205403612aac5760405162461bcd60e51b815260206004820152602260248201527f506f6f6c52656e7472616e637947756172643a207265656e7472616e742063616044820152611b1b60f21b60648201526084016109f8565b600260016000836002811115612ac457612ac4613fa6565b6002811115612ad557612ad5613fa6565b815260208101919091526040016000205550565b6001806000836002811115612ac457612ac4613fa6565b612b08613073565b612b10613073565b60018401546001600160801b0380821660808401819052604080850191909152600160801b92839004821660e085015260028701548083166060860181905260208087019190915293900490911660a08401528051918201905284548152815260039093015464ffffffffff166101208401525054610100820181905260c082015290565b600383015464ffffffffff428116911603612baf57505050565b612bb98382612c6e565b612bc4828483612d4c565b5050600301805464ffffffffff19164264ffffffffff16179055565b600081156b019d971e4fe8401e740000001983900484111517612c0257600080fd5b506b033b2e3c9fd0803ce800000091026b019d971e4fe8401e74000000010490565b6000610d3a838342612e3b565b600080612c4564ffffffffff841642614128565b612c4f9085614187565b6301e1338090049050612832816b033b2e3c9fd0803ce800000061413b565b60e081015115612cde576000612c8d8260e00151836101200151612c31565b9050612cb7612cb283604001516001600160801b031683612be090919063ffffffff16565b612f67565b6001600160801b0316608083018190526001840180546001600160801b0319169091179055505b60c081015115610caf576000612cfd8260a00151836101200151612c24565b9050612d22612cb283602001516001600160801b031683612be090919063ffffffff16565b6001600160801b0316606083018190526002840180546001600160801b0319169091179055505050565b82600003612d5957505050565b612d846040518060800160405280600081526020016000815260200160008152602001600081525090565b602082015160c0830151612da0916001600160801b0316612be0565b8152606082015160c0830151612dbe916001600160801b0316612be0565b602082018190528151612dd091614128565b60408201819052612de19085612fd4565b606082018190521561148657612e14612cb283608001516001600160801b03168360600151612ffa90919063ffffffff16565b6001600160801b0316836005016000828254612e30919061413b565b909155505050505050565b600080612e4f64ffffffffff851684614128565b905080600003612e6e576b033b2e3c9fd0803ce8000000915050610d3a565b60001981016000808060028511612e86576000612e8b565b600285035b925066038882915c4000612e9f8a80612be0565b81612eac57612eac61419e565b0491506301e13380612ebe838b612be0565b81612ecb57612ecb61419e565b049050600082612edb8688614187565b612ee59190614187565b60029004905060008285612ef9888a614187565b612f039190614187565b612f0d9190614187565b60069004905080826301e13380612f248a8f614187565b612f2e91906141b4565b612f44906b033b2e3c9fd0803ce800000061413b565b612f4e919061413b565b612f58919061413b565b9b9a5050505050505050505050565b60006001600160801b03821115612fd05760405162461bcd60e51b815260206004820152602760248201527f53616665436173743a2076616c756520646f65736e27742066697420696e20316044820152663238206269747360c81b60648201526084016109f8565b5090565b600081156113881983900484111517612fec57600080fd5b506127109102611388010490565b600081156b033b2e3c9fd0803ce80000006002840419048411171561301e57600080fd5b506b033b2e3c9fd0803ce80000009190910260028204010490565b604051806080016040528060006001600160801b0316815260200160006001600160801b0316815260200160008152602001600081525090565b604080516101608101825260006101408201818152825260208201819052918101829052606081018290526080810182905260a0810182905260c0810182905260e08101829052610100810182905261012081019190915290565b6001600160a01b0381168114610d8557600080fd5b80356130ee816130ce565b919050565b6000806000806080858703121561310957600080fd5b8435613114816130ce565b93506020850135613124816130ce565b93969395505050506040820135916060013590565b60006020828403121561314b57600080fd5b8135610d3a816130ce565b634e487b7160e01b600052604160045260246000fd5b604080519081016001600160401b038111828210171561318e5761318e613156565b60405290565b60405161010081016001600160401b038111828210171561318e5761318e613156565b60405160a081016001600160401b038111828210171561318e5761318e613156565b604051601f8201601f191681016001600160401b038111828210171561320157613201613156565b604052919050565b600082601f83011261321a57600080fd5b81356001600160401b0381111561323357613233613156565b613246601f8201601f19166020016131d9565b81815284602083860101111561325b57600080fd5b816020850160208301376000918101602001919091529392505050565b60006040828403121561328a57600080fd5b61329261316c565b905081356001600160401b03808211156132ab57600080fd5b6132b785838601613209565b835260208401359150808211156132cd57600080fd5b506132da84828501613209565b60208301525092915050565b600080600080600060a086880312156132fe57600080fd5b8535613309816130ce565b94506020860135613319816130ce565b9350604086013592506060860135915060808601356001600160401b0381111561334257600080fd5b61334e88828901613278565b9150509295509295909350565b6000806040838503121561336e57600080fd5b8235613379816130ce565b946020939093013593505050565b8151518152610140810160208301516133ab60208401826001600160801b03169052565b5060408301516133c660408401826001600160801b03169052565b5060608301516133e160608401826001600160801b03169052565b5060808301516133fc60808401826001600160801b03169052565b5060a083015161341560a084018264ffffffffff169052565b5060c083015161342b60c084018261ffff169052565b5060e083015161344660e08401826001600160a01b03169052565b50610100838101516001600160a01b03811684830152505061012092830151919092015290565b6000806000806080858703121561348357600080fd5b843561348e816130ce565b9350602085013592506040850135915060608501356001600160401b038111156134b757600080fd5b6134c387828801613278565b91505092959194509250565b60006001600160401b038211156134e8576134e8613156565b5060051b60200190565b600082601f83011261350357600080fd5b81356020613518613513836134cf565b6131d9565b82815260059290921b8401810191818101908684111561353757600080fd5b8286015b8481101561355b57803561354e816130ce565b835291830191830161353b565b509695505050505050565b803580151581146130ee57600080fd5b600082601f83011261358757600080fd5b81356020613597613513836134cf565b82815260089290921b840181019181810190868411156135b657600080fd5b8286015b8481101561355b5761010081890312156135d45760008081fd5b6135dc613194565b6135e582613566565b81526135f2858301613566565b8186015260408281013590820152606080830135908201526080808301359082015260a0808301359082015260c0808301359082015260e08083013590820152835291830191610100016135ba565b60006020828403121561365357600080fd5b81356001600160401b038082111561366a57600080fd5b9083019060a0828603121561367e57600080fd5b6136866131b7565b61368f836130e3565b81526020830135828111156136a357600080fd5b6136af878286016134f2565b6020830152506040830135828111156136c757600080fd5b6136d3878286016134f2565b6040830152506060830135828111156136eb57600080fd5b6136f7878286016134f2565b60608301525060808301358281111561370f57600080fd5b61371b87828601613576565b60808301525095945050505050565b60008060006060848603121561373f57600080fd5b833561374a816130ce565b95602085013595506040909401359392505050565b60006020828403121561377157600080fd5b813561ffff81168114610d3a57600080fd5b60008060006060848603121561379857600080fd5b83356137a3816130ce565b925060208401356137b3816130ce565b929592945050506040919091013590565b60008060008084860360808112156137db57600080fd5b85356137e6816130ce565b945060208601356137f6816130ce565b93506040860135613806816130ce565b92506020605f198201121561381a57600080fd5b509295919450926060019150565b60008083601f84011261383a57600080fd5b5081356001600160401b0381111561385157600080fd5b60208301915083602082850101111561386957600080fd5b9250929050565b60008060008060008060a0878903121561388957600080fd5b8635613894816130ce565b955060208701356138a4816130ce565b94506040870135935060608701356001600160401b03808211156138c757600080fd5b6138d38a838b01613828565b909550935060808901359150808211156138ec57600080fd5b506138f989828a01613278565b9150509295509295509295565b60008060006060848603121561391b57600080fd5b8335613926816130ce565b92506020840135915061393b60408501613566565b90509250925092565b60008060008060006080868803121561395c57600080fd5b8535613967816130ce565b94506020860135613977816130ce565b93506040860135925060608601356001600160401b0381111561399957600080fd5b6139a588828901613828565b969995985093965092949392505050565b6020808252825182820181905260009190848201906040850190845b818110156139f75783516001600160a01b0316835292840192918401916001016139d2565b50909695505050505050565b634e487b7160e01b600052603260045260246000fd5b60006101c08201905084825283602083015260018060a01b038084511660408401528060208501511660608401528060408501511660808401525060608301518051151560a08401526020810151151560c0840152604081015160e08401526060810151610100840152608081015161012084015260a081015161014084015260c081015161016084015260e08101516101808401525060808301516122256101a084018261ffff169052565b634e487b7160e01b600052601160045260246000fd5b600061ffff808316818103613af357613af3613ac6565b6001019392505050565b600060018201613b0f57613b0f613ac6565b5060010190565b600060208284031215613b2857600080fd5b81516001600160e01b031981168114610d3a57600080fd5b600060208284031215613b5257600080fd5b5051919050565b60008060008060008060c08789031215613b7257600080fd5b865195506020870151945060408701519350606087015192506080870151915060a087015190509295509295509295565b600060208284031215613bb557600080fd5b8151610d3a816130ce565b6000815180845260005b81811015613be657602081850181015186830182015201613bca565b506000602082860101526020601f19601f83011685010191505092915050565b6000815160408452613c1b6040850182613bc0565b9050602083015184820360208601526107798282613bc0565b600060018060a01b038087168352856020840152846040840152608060608401528084511660808401528060208501511660a084015250604083015160e060c0840152613c85610160840182613bc0565b90506060840151607f198483030160e0850152613ca28282613c06565b915050608084015161010084015260a084015161012084015260c08401516101408401528091505095945050505050565b60208152600060018060a01b038084511660208401528060208501511660408401528060408501511660608401525060608301516080830152608083015160e060a0840152613d26610100840182613c06565b905060a084015160c084015260c084015160e08401528091505092915050565b600060018060a01b038083511684528060208401511660208501528060408401511660408501525060608201516060840152608082015160e06080850152613d9160e0850182613c06565b905060a083015160a085015260c083015160c08501528091505092915050565b86815285602082015284604082015283606082015282608082015260c060a08201526000613de260c0830184613d46565b98975050505050505050565b600060408284031215613e0057600080fd5b613e0861316c565b82518152602083015160208201528091505092915050565b6001600160a01b038881168252602082018890528681166040830152858116606083015260808201859052831660a082015260e060c08201819052600090613e6a90830184613bc0565b9998505050505050505050565b86815285602082015284604082015283606082015282608082015260c060a0820152600060018060a01b038084511660c08401528060208501511660e0840152506040830151610100613ed4818501836001600160a01b03169052565b6060850151610120850152608085015191508061014085015250613efc6101c0840182613c06565b905060a084015161016084015260c084015161018084015260e08401516101a084015280915050979650505050505050565b6001600160a01b038781168252602082018790528581166040830152841660608201526080810183905260c060a08201819052600090613de290830184613bc0565b85815284602082015283604082015282606082015260a060808201526000613f9b60a0830184613d46565b979650505050505050565b634e487b7160e01b600052602160045260246000fd5b86815285602082015284604082015283606082015282608082015260c060a0820152613ff460c0820183516001600160a01b03169052565b6000602083015161401060e08401826001600160a01b03169052565b50604083015161010061402d818501836001600160a01b03169052565b6060850151915061012061404b818601846001600160a01b03169052565b608086015161014086015260a0860151925080610160860152506140736101e0850183613c06565b60c086015161018086015260e08601516101a08601529401516101c09093019290925250909695505050505050565b85815284602082015283604082015282606082015260a06080820152600060018060a01b038084511660a08401528060208501511660c084015250604083015160e0830152606083015160c0610100840152614102610160840182613c06565b9050608084015161012084015260a0840151610140840152809150509695505050505050565b818103818111156107ba576107ba613ac6565b808201808211156107ba576107ba613ac6565b87815286602082015285604082015284606082015283608082015282151560a082015260e060c08201526000613e6a60e0830184613d46565b80820281158282048414176107ba576107ba613ac6565b634e487b7160e01b600052601260045260246000fd5b6000826141d157634e487b7160e01b600052601260045260246000fd5b50049056fea2646970667358221220c66ca896437835854335e0d0bbf7fcec6fa50e2c32f89f0b9c38e457469a6ac664736f6c63430008130033",
  "deployedBytecode": "0x608060405234801561001057600080fd5b506004361061027f5760003560e01c80639a62d6b71161015c578063c45a0155116100ce578063eba086e711610087578063eba086e714610465578063f3e0ffbf146106c9578063f7af06af146106dc578063fb4a8d4d146106ef578063fbabb91b14610702578063fdaeebd11461071557600080fd5b8063c45a015514610631578063c619fc1514610648578063d15e00531461065b578063d1946dbc1461066e578063d2fea38a14610683578063e80b5b5f1461069657600080fd5b8063b189b7c411610120578063b189b7c414610592578063b3596f07146105a5578063b36d5e8b146105b8578063b55bd84d146105cb578063bad6c24f146105dc578063c44b11f7146105ef57600080fd5b80639a62d6b71461052f5780639b7ae5ec14610551578063a0f7022a14610559578063a13701f51461056c578063a67c04c21461057f57600080fd5b806352751797116101f557806361e5f354116101b957806361e5f3541461047857806367060c2e1461048b57806368488ca5146104c95780636d2b42bd146104dc57806372218d041461051c5780637cc963801461052857600080fd5b806352751797146103fd578063598bf786146104425780635a7e41c81461044a5780635f558e531461045d5780636049a52d1461046557600080fd5b806335ea6a751161024757806335ea6a751461037e578063386497fd1461039e5780633c5d0ff2146103b157806343f6ee3c146103c457806344b8037d146103d757806349b16a7d146103ea57600080fd5b806305ee3a4a146102845780631ff517ff146102b757806322f78ad6146102d8578063279c1de8146102ed5780632fb8721c14610345575b600080fd5b6102976102923660046130f3565b610728565b604080518251815260209283015192810192909252015b60405180910390f35b6102ca6102c5366004613139565b610782565b6040519081526020016102ae565b6102eb6102e63660046132e6565b6107c0565b005b6103006102fb36600461335b565b6107d4565b6040516102ae919060006080820190506001600160801b0380845116835280602085015116602084015250604083015160408301526060830151606083015292915050565b6102ca61035336600461335b565b6001600160a01b03919091166000908152603560209081526040808320938352929052206002015490565b61039161038c366004613139565b610845565b6040516102ae9190613387565b6102ca6103ac366004613139565b610915565b6102976103bf36600461346d565b610936565b6102eb6103d2366004613641565b61095f565b6102976103e53660046132e6565b610cb3565b6102976103f836600461372a565b610ce7565b61042a61040b36600461375f565b61ffff166000908152603760205260409020546001600160a01b031690565b6040516001600160a01b0390911681526020016102ae565b6102eb610d41565b6102976104583660046132e6565b610d88565b6102ca610dba565b6102ca61047336600461335b565b610e38565b6102ca610486366004613783565b610e78565b61049e610499366004613139565b610ed3565b604080518251815260208084015190820152918101516001600160801b0316908201526060016102ae565b6102ca6104d736600461335b565b610f4b565b6104ef6104ea36600461335b565b610f8b565b604080519687526020870195909552938501929092526060840152608083015260a082015260c0016102ae565b60385461ffff166102ca565b60016102ca565b61054261053d36600461335b565b611090565b604051905181526020016102ae565b61042a6110db565b6102eb6105673660046137c4565b611154565b6102eb61057a366004613870565b6112af565b6102eb61058d366004613906565b6112c5565b6102ca6105a0366004613783565b6112d5565b6102ca6105b3366004613139565b611330565b6102eb6105c6366004613944565b6113ae565b6039546001600160a01b031661042a565b6102976105ea3660046130f3565b6113ee565b6105426105fd366004613139565b60408051602080820183526000918290526001600160a01b0393909316815260338352819020815192830190915254815290565b6038546201000090046001600160a01b031661042a565b6102eb6106563660046130f3565b611447565b6102ca610669366004613139565b61148c565b6106766114ad565b6040516102ae91906139b6565b6102976106913660046130f3565b61156d565b6106a96106a4366004613139565b6115be565b6040805194855260208501939093529183015260608201526080016102ae565b6102ca6106d7366004613139565b611645565b6102eb6106ea366004613870565b61167d565b6103006106fd366004613783565b611891565b6102976107103660046132e6565b61191b565b6102eb610723366004613139565b611945565b604080518082019091526000808252602082015261077985858561074c3387611983565b604080516060810182526000818301818152825282516020818101909452908152918101919091526119d8565b95945050505050565b6001600160a01b038116600090815260336020908152604080832060020154603690925282206107ba916001600160801b0316611cd9565b92915050565b6107cd8585858585611ce8565b5050505050565b6107dc613039565b506001600160a01b0382166000908152603560209081526040808320848452825291829020825160808101845281546001600160801b038082168352600160801b9091041692810192909252600181015492820192909252600290910154606082015292915050565b61084d613073565b506001600160a01b0390811660009081526033602090815260409182902082516101608101845281546101408201908152815260018201546001600160801b0380821694830194909452600160801b9081900484169482019490945260028201548084166060830152939093049091166080830152600381015464ffffffffff811660a084015261ffff6501000000000082041660c08401526701000000000000009004831660e0830152600481015490921661010082015260059091015461012082015290565b6001600160a01b03811660009081526033602052604081206107ba90611f49565b604080518082019091526000808252602082015261077985856109593387611983565b85611f9f565b600054610100900460ff161580801561097f5750600054600160ff909116105b806109995750303b158015610999575060005460ff166001145b610a015760405162461bcd60e51b815260206004820152602e60248201527f496e697469616c697a61626c653a20636f6e747261637420697320616c72656160448201526d191e481a5b9a5d1a585b1a5e995960921b60648201526084015b60405180910390fd5b6000805460ff191660011790558015610a24576000805461ff0019166101001790555b6038805462010000600160b01b0319163362010000021790558151603980546001600160a01b0319166001600160a01b0390921691909117905560005b826020015151811015610bdf5773__$243a6cee9cb18965f5c0fe8cae0faec7ed$__6369fc1bdf603360376040518060a0016040528088602001518781518110610aad57610aad613a03565b60200260200101516001600160a01b0316815260200188604001518781518110610ad957610ad9613a03565b60200260200101516001600160a01b0316815260200188606001518781518110610b0557610b05613a03565b60200260200101516001600160a01b0316815260200188608001518781518110610b3157610b31613a03565b602090810291909101810151825260385461ffff169101526040516001600160e01b031960e086901b168152610b6c93929190600401613a19565b60006040518083038186803b158015610b8457600080fd5b505af4158015610b98573d6000803e3d6000fd5b50506038805461ffff16925090506000610bb183613adc565b91906101000a81548161ffff021916908361ffff160217905550508080610bd790613afd565b915050610a61565b50610be861222e565b6039546001600160a01b031615610c6957603954604051630b45f76560e41b81523060048201526001600160a01b039091169063b45f7650906024016020604051808303816000875af1158015610c43573d6000803e3d6000fd5b505050506040513d601f19601f82011682018060405250810190610c679190613b16565b505b8015610caf576000805461ff0019169055604051600181527f7f26b83ff96e1f2b6a682f133852f6798a09c465da95921460cefb38474024989060200160405180910390a15b5050565b6040805180820190915260008082526020820152610cdd868686610cd73388611983565b86612311565b9695505050505050565b6040805180820190915260008082526020820152610d378484610d0a3386611983565b60408051606081018252600081830181815282528251602081810190945290815291810191909152611f9f565b90505b9392505050565b60005b60385461ffff16811015610d8557600081815260376020526040902054610d73906001600160a01b0316611945565b80610d7d81613afd565b915050610d44565b50565b6040805180820190915260008082526020820152610cdd8685610db46001600160a01b03891687611983565b8561259c565b6000603860029054906101000a90046001600160a01b03166001600160a01b0316634322b7146040518163ffffffff1660e01b8152600401602060405180830381865afa158015610e0f573d6000803e3d6000fd5b505050506040513d601f19601f82011682018060405250810190610e339190613b40565b905090565b6001600160a01b038216600090815260336020908152604080832060010154603583528184208585529092528220610d3a916001600160801b03166127e2565b600080610e8e6001600160a01b03851684611983565b6001600160a01b0386166000908152603360209081526040808320600101546035835281842085855290925290912091925061077991906001600160801b03166127e2565b610f006040518060600160405280600081526020016000815260200160006001600160801b031681525090565b506001600160a01b0316600090815260366020908152604091829020825160608101845281548152600182015492810192909252600201546001600160801b03169181019190915290565b6001600160a01b038216600090815260336020908152604080832060020154603583528184208585529092528220610d3a916001600160801b031661283a565b6000808080808080610fa66001600160a01b038a1689611983565b60408051606081018252308152602080820184815260008581526034835284902084519283018552548252828401918252925163f0dd5f0960e01b815260356004820152603360248201526037604482015291516001600160a01b031660648301529151608482015290515160a482015290915073__$243a6cee9cb18965f5c0fe8cae0faec7ed$__9063f0dd5f099060c40160c060405180830381865af4158015611056573d6000803e3d6000fd5b505050506040513d601f19601f8201168201806040525081019061107a9190613b59565b949e939d50919b50995097509095509350505050565b604080516020810190915260008152603460006110b66001600160a01b03861685611983565b8152602080820192909252604090810160002081519283019091525481529392505050565b6000603860029054906101000a90046001600160a01b03166001600160a01b0316632b507df86040518163ffffffff1660e01b8152600401602060405180830381865afa158015611130573d6000803e3d6000fd5b505050506040513d601f19601f82011682018060405250810190610e339190613ba3565b603860029054906101000a90046001600160a01b03166001600160a01b0316632b507df86040518163ffffffff1660e01b8152600401602060405180830381865afa1580156111a7573d6000803e3d6000fd5b505050506040513d601f19601f820116820180604052508101906111cb9190613ba3565b6001600160a01b0316336001600160a01b03161461121f5760405162461bcd60e51b815260206004820152601160248201527037b7363c9031b7b73334b3bab930ba37b960791b60448201526064016109f8565b604051632472484560e21b8152603360048201526001600160a01b0380861660248301528085166044830152831660648201528135608482015273__$243a6cee9cb18965f5c0fe8cae0faec7ed$__906391c921149060a4015b60006040518083038186803b15801561129157600080fd5b505af41580156112a5573d6000803e3d6000fd5b5050505050505050565b6112bd86868686868661167d565b505050505050565b6112d0838383612883565b505050565b6000806112eb6001600160a01b03851684611983565b6001600160a01b0386166000908152603360209081526040808320600201546035835281842085855290925290912091925061077991906001600160801b031661283a565b6001600160a01b03808216600090815260336020908152604080832060049081015482516350d25bcd60e01b81529251949516936350d25bcd93838301939092908290030181865afa15801561138a573d6000803e3d6000fd5b505050506040513d601f19601f820116820180604052508101906107ba9190613b40565b6107cd858585858560405180604001604052806040518060200160405280600081525081526020016040518060200160405280600081525081525061167d565b6040805180820190915260008082526020820152610779858461141a6001600160a01b03881686611983565b6040805160608101825260008183018181528252825160208181019094529081529181019190915261259c565b61148684848484604051806040016040528060405180602001604052806000815250815260200160405180602001604052806000815250815250611ce8565b50505050565b6001600160a01b03811660009081526033602052604081206107ba906129ba565b60385460609060009061ffff166001600160401b038111156114d1576114d1613156565b6040519080825280602002602001820160405280156114fa578160200160208202803683370190505b50905060005b60385461ffff168110156115675760008181526037602052604090205482516001600160a01b039091169083908390811061153d5761153d613a03565b6001600160a01b03909216602092830291909101909101528061155f81613afd565b915050611500565b50919050565b60408051808201909152600080825260208201526107798585856115913387611983565b60408051606081018252600081830181815282528251602081810190945290815291810191909152612311565b6001600160a01b03811660009081526036602090815260408083206033909252822060010154829182918291906115ff9082906001600160801b0316612a0a565b60018201546001600160a01b0388166000908152603360205260409020600201546116349084906001600160801b0316611cd9565b925491989097509195509350915050565b6001600160a01b038116600090815260336020908152604080832060010154603690925282206107ba916001600160801b0316612a0a565b600161168881612a1c565b60006040518060e00160405280886001600160a01b03168152602001896001600160a01b0316815260200186868080601f016020809104026020016040519081016040528093929190818152602001838380828437600092019190915250505090825250602080820186905260408083018a905260385481516309e8a6df60e01b81529151606090940193620100009091046001600160a01b0316926309e8a6df92600480820193918290030181865afa15801561174a573d6000803e3d6000fd5b505050506040513d601f19601f8201168201806040525081019061176e9190613b40565b8152602001603860029054906101000a90046001600160a01b03166001600160a01b0316634322b7146040518163ffffffff1660e01b8152600401602060405180830381865afa1580156117c6573d6000803e3d6000fd5b505050506040513d601f19601f820116820180604052508101906117ea9190613b40565b90526001600160a01b038816600090815260336020908152604080832060369092529182902091516356ae2b9f60e01b815292935073__$f440defa7d9116432d51b4b8d8a7c97a4a$__926356ae2b9f9261184e9230929091908790600401613c34565b60006040518083038186803b15801561186657600080fd5b505af415801561187a573d6000803e3d6000fd5b505050505061188881612ae9565b50505050505050565b611899613039565b60006118ae6001600160a01b03851684611983565b6001600160a01b038616600090815260356020908152604080832093835292815290829020825160808101845281546001600160801b038082168352600160801b909104169281019290925260018101549282019290925260029091015460608201529150509392505050565b6040805180820190915260008082526020820152610cdd86868661193f3388611983565b866119d8565b6001600160a01b038116600090815260336020908152604080832060369092528220909190611975908390612b00565b90506112d082600083612b95565b6040516bffffffffffffffffffffffff19606084901b166020820152640d2dcc8caf60db1b60348201526039810182905260009060590160405160208183030381529060405280519060200120905092915050565b604080518082019091526000808252602082015260006119f781612a1c565b60006040518060e00160405280896001600160a01b03168152602001886001600160a01b03168152602001306001600160a01b03168152602001868152602001858152602001878152602001603860029054906101000a90046001600160a01b03166001600160a01b0316634322b7146040518163ffffffff1660e01b8152600401602060405180830381865afa158015611a96573d6000803e3d6000fd5b505050506040513d601f19601f82011682018060405250810190611aba9190613b40565b90526039549091506001600160a01b031615611b335760395460405163f9ddebc360e01b81526001600160a01b039091169063f9ddebc390611b00908490600401613cd3565b600060405180830381600087803b158015611b1a57600080fd5b505af1158015611b2e573d6000803e3d6000fd5b505050505b60008581526034602090815260408083206001600160a01b038c16845260369092529182902091516366f9f34360e01b815273__$6b8590065f9498378365994f3dbde8e7da$__926366f9f34392611b9a9260339260379291603591908990600401613db1565b6040805180830381865af4158015611bb6573d6000803e3d6000fd5b505050506040513d601f19601f82011682018060405250810190611bda9190613dee565b604051633e4c478560e11b8152603360048201526001600160a01b038a16602482015290935073__$243a6cee9cb18965f5c0fe8cae0faec7ed$__90637c988f0a9060440160006040518083038186803b158015611c3757600080fd5b505af4158015611c4b573d6000803e3d6000fd5b50506039546001600160a01b0316159150611cc5905057603954604051636130372360e01b81526001600160a01b0390911690636130372390611c92908490600401613cd3565b600060405180830381600087803b158015611cac57600080fd5b505af1158015611cc0573d6000803e3d6000fd5b505050505b50611ccf81612ae9565b5095945050505050565b8154600090610d3a9083612be0565b6002611cf381612a1c565b6039546001600160a01b031615611d73576039548251604051637e505c0760e01b81526001600160a01b0390921691637e505c0791611d4091339189918c918c918b913091600401613e20565b600060405180830381600087803b158015611d5a57600080fd5b505af1158015611d6e573d6000803e3d6000fd5b505050505b73__$321a6e15da61f94683499c6fc4078a6664$__639406fcf7603360376035603660346040518061010001604052808e6001600160a01b031681526020018d6001600160a01b03168152602001306001600160a01b031681526020018c81526020018a81526020018b8152602001603860029054906101000a90046001600160a01b03166001600160a01b0316634322b7146040518163ffffffff1660e01b8152600401602060405180830381865afa158015611e35573d6000803e3d6000fd5b505050506040513d601f19601f82011682018060405250810190611e599190613b40565b815260385461ffff166020909101526040516001600160e01b031960e089901b168152611e8e96959493929190600401613e77565b60006040518083038186803b158015611ea657600080fd5b505af4158015611eba573d6000803e3d6000fd5b50506039546001600160a01b0316159150611f409050576039548251604051630127e79f60e01b81526001600160a01b0390921691630127e79f91611f0d91339189918c918c918b913091600401613e20565b600060405180830381600087803b158015611f2757600080fd5b505af1158015611f3b573d6000803e3d6000fd5b505050505b6112bd81612ae9565b600381015460009064ffffffffff16428103611f71575050600201546001600160801b031690565b6002830154610d3a906001600160801b0380821691611f9991600160801b9091041684612c24565b90612be0565b60408051808201909152600080825260208201526000611fbe81612a1c565b6039546001600160a01b03161561203d5760395483516040516326e43d4160e21b81526001600160a01b0390921691639b90f5049161200a91339189918c9130918d9190600401613f2e565b600060405180830381600087803b15801561202457600080fd5b505af1158015612038573d6000803e3d6000fd5b505050505b6001600160a01b038087166000818152603360209081526040808320603583528184208a85528352818420858552603684528285208b86526034855294839020835160e08101855296875230878601523387850152606087018c9052608087018b905260a087018d905260385484516310c8adc560e21b8152945173__$0c85fc270047731e733974e5c7bb75d4b8$__99639ad153da9995989497949693959460c08601946201000090940490911692634322b71492600480830193928290030181865afa158015612113573d6000803e3d6000fd5b505050506040513d601f19601f820116820180604052508101906121379190613b40565b8152506040518663ffffffff1660e01b815260040161215a959493929190613f70565b6040805180830381865af4158015612176573d6000803e3d6000fd5b505050506040513d601f19601f8201168201806040525081019061219a9190613dee565b6039549092506001600160a01b03161561221c57603954835160405163714169ed60e11b81526001600160a01b039092169163e282d3da916121e991339189918c9130918d9190600401613f2e565b600060405180830381600087803b15801561220357600080fd5b505af1158015612217573d6000803e3d6000fd5b505050505b61222581612ae9565b50949350505050565b600054610100900460ff166122995760405162461bcd60e51b815260206004820152602b60248201527f496e697469616c697a61626c653a20636f6e7472616374206973206e6f74206960448201526a6e697469616c697a696e6760a81b60648201526084016109f8565b600160208190527fa6eef7e35abe7026729641147f7915573c7e97b47efa546f5f6e3230263bcb498190557fcc69885fda6bcc1a4ace058b4a62bf5e179ea78fd58a1ccd71c22cc9b688792f81905560026000527fd9d16d34ffb15ba3a3d852f0d403e2ce1d691fb54de27ac87cd2f993f3ec330f55565b6040805180820190915260008082526020820152600061233081612a1c565b6039546001600160a01b0316156123af576039548351604051632d1a6e7b60e11b81526001600160a01b0390921691635a34dcf69161237c91339189918d9130918d9190600401613f2e565b600060405180830381600087803b15801561239657600080fd5b505af11580156123aa573d6000803e3d6000fd5b505050505b60008481526034602090815260408083206001600160a01b03808c168086526036855294839020835161012081018552958652308686015233868501528b82166060870152608086018a905260a0860189905260c086018b905260385484516310c8adc560e21b8152945173__$0c85fc270047731e733974e5c7bb75d4b8$__9763a0d9d869976033976037979660359695939460e086019462010000900490911692634322b71492600480820193918290030181865afa158015612478573d6000803e3d6000fd5b505050506040513d601f19601f8201168201806040525081019061249c9190613b40565b815260385461ffff166020909101526040516001600160e01b031960e089901b1681526124d196959493929190600401613fbc565b6040805180830381865af41580156124ed573d6000803e3d6000fd5b505050506040513d601f19601f820116820180604052508101906125119190613dee565b6039549092506001600160a01b0316156125935760395483516040516304830bd560e11b81526001600160a01b039092169163090617aa9161256091339189918d9130918d9190600401613f2e565b600060405180830381600087803b15801561257a57600080fd5b505af115801561258e573d6000803e3d6000fd5b505050505b611ccf81612ae9565b604080518082019091526000808252602082015260006125bb81612a1c565b6039546001600160a01b03161561263a57603954835160405163b22e2bcb60e01b81526001600160a01b039092169163b22e2bcb9161260791339189918c9130918d9190600401613f2e565b600060405180830381600087803b15801561262157600080fd5b505af1158015612635573d6000803e3d6000fd5b505050505b6001600160a01b03808716600081815260336020908152604080832089845260348352818420858552603584528285208b865284528285208686526036855294839020835160c08101855296875230878601528684018c9052606087018b9052608087018d905260385484516310c8adc560e21b8152945173__$6b8590065f9498378365994f3dbde8e7da$__99630587fd889995989497949693959460a08601946201000090940490911692634322b71492600480830193928290030181865afa15801561270d573d6000803e3d6000fd5b505050506040513d601f19601f820116820180604052508101906127319190613b40565b8152506040518663ffffffff1660e01b81526004016127549594939291906140a2565b6040805180830381865af4158015612770573d6000803e3d6000fd5b505050506040513d601f19601f820116820180604052508101906127949190613dee565b6039549092506001600160a01b03161561221c57603954835160405162d3c97d60e21b81526001600160a01b039092169163034f25f4916121e991339189918c9130918d9190600401613f2e565b81546002830154600091829161280791600160801b90046001600160801b0316612be0565b60028501546128169085612be0565b6128209190614128565b9050808460020154612832919061413b565b949350505050565b815460018301546000918291612858916001600160801b0316612be0565b60018501546128679085612be0565b6128719190614128565b9050808460010154612832919061413b565b600061288f3384611983565b60008181526034602090815260408083206001600160a01b03808a1680865260368552838620845160e0810186529182523382870152308286015260608083018990528551908101865280860188815281528551808801875288815281880152608083015260a082019690965260385484516310c8adc560e21b8152945197985073__$6b8590065f9498378365994f3dbde8e7da$__9763c2b94c439760339760379760359692958e95909460c08601946201000090920490911692634322b71492600480820193918290030181865afa158015612971573d6000803e3d6000fd5b505050506040513d601f19601f820116820180604052508101906129959190613b40565b8152506040518863ffffffff1660e01b8152600401611279979695949392919061414e565b600381015460009064ffffffffff164281036129e2575050600101546001600160801b031690565b6001830154610d3a906001600160801b0380821691611f9991600160801b9091041684612c31565b6001820154600090610d3a9083612be0565b600260016000836002811115612a3457612a34613fa6565b6002811115612a4557612a45613fa6565b81526020019081526020016000205403612aac5760405162461bcd60e51b815260206004820152602260248201527f506f6f6c52656e7472616e637947756172643a207265656e7472616e742063616044820152611b1b60f21b60648201526084016109f8565b600260016000836002811115612ac457612ac4613fa6565b6002811115612ad557612ad5613fa6565b815260208101919091526040016000205550565b6001806000836002811115612ac457612ac4613fa6565b612b08613073565b612b10613073565b60018401546001600160801b0380821660808401819052604080850191909152600160801b92839004821660e085015260028701548083166060860181905260208087019190915293900490911660a08401528051918201905284548152815260039093015464ffffffffff166101208401525054610100820181905260c082015290565b600383015464ffffffffff428116911603612baf57505050565b612bb98382612c6e565b612bc4828483612d4c565b5050600301805464ffffffffff19164264ffffffffff16179055565b600081156b019d971e4fe8401e740000001983900484111517612c0257600080fd5b506b033b2e3c9fd0803ce800000091026b019d971e4fe8401e74000000010490565b6000610d3a838342612e3b565b600080612c4564ffffffffff841642614128565b612c4f9085614187565b6301e1338090049050612832816b033b2e3c9fd0803ce800000061413b565b60e081015115612cde576000612c8d8260e00151836101200151612c31565b9050612cb7612cb283604001516001600160801b031683612be090919063ffffffff16565b612f67565b6001600160801b0316608083018190526001840180546001600160801b0319169091179055505b60c081015115610caf576000612cfd8260a00151836101200151612c24565b9050612d22612cb283602001516001600160801b031683612be090919063ffffffff16565b6001600160801b0316606083018190526002840180546001600160801b0319169091179055505050565b82600003612d5957505050565b612d846040518060800160405280600081526020016000815260200160008152602001600081525090565b602082015160c0830151612da0916001600160801b0316612be0565b8152606082015160c0830151612dbe916001600160801b0316612be0565b602082018190528151612dd091614128565b60408201819052612de19085612fd4565b606082018190521561148657612e14612cb283608001516001600160801b03168360600151612ffa90919063ffffffff16565b6001600160801b0316836005016000828254612e30919061413b565b909155505050505050565b600080612e4f64ffffffffff851684614128565b905080600003612e6e576b033b2e3c9fd0803ce8000000915050610d3a565b60001981016000808060028511612e86576000612e8b565b600285035b925066038882915c4000612e9f8a80612be0565b81612eac57612eac61419e565b0491506301e13380612ebe838b612be0565b81612ecb57612ecb61419e565b049050600082612edb8688614187565b612ee59190614187565b60029004905060008285612ef9888a614187565b612f039190614187565b612f0d9190614187565b60069004905080826301e13380612f248a8f614187565b612f2e91906141b4565b612f44906b033b2e3c9fd0803ce800000061413b565b612f4e919061413b565b612f58919061413b565b9b9a5050505050505050505050565b60006001600160801b03821115612fd05760405162461bcd60e51b815260206004820152602760248201527f53616665436173743a2076616c756520646f65736e27742066697420696e20316044820152663238206269747360c81b60648201526084016109f8565b5090565b600081156113881983900484111517612fec57600080fd5b506127109102611388010490565b600081156b033b2e3c9fd0803ce80000006002840419048411171561301e57600080fd5b506b033b2e3c9fd0803ce80000009190910260028204010490565b604051806080016040528060006001600160801b0316815260200160006001600160801b0316815260200160008152602001600081525090565b604080516101608101825260006101408201818152825260208201819052918101829052606081018290526080810182905260a0810182905260c0810182905260e08101829052610100810182905261012081019190915290565b6001600160a01b0381168114610d8557600080fd5b80356130ee816130ce565b919050565b6000806000806080858703121561310957600080fd5b8435613114816130ce565b93506020850135613124816130ce565b93969395505050506040820135916060013590565b60006020828403121561314b57600080fd5b8135610d3a816130ce565b634e487b7160e01b600052604160045260246000fd5b604080519081016001600160401b038111828210171561318e5761318e613156565b60405290565b60405161010081016001600160401b038111828210171561318e5761318e613156565b60405160a081016001600160401b038111828210171561318e5761318e613156565b604051601f8201601f191681016001600160401b038111828210171561320157613201613156565b604052919050565b600082601f83011261321a57600080fd5b81356001600160401b0381111561323357613233613156565b613246601f8201601f19166020016131d9565b81815284602083860101111561325b57600080fd5b816020850160208301376000918101602001919091529392505050565b60006040828403121561328a57600080fd5b61329261316c565b905081356001600160401b03808211156132ab57600080fd5b6132b785838601613209565b835260208401359150808211156132cd57600080fd5b506132da84828501613209565b60208301525092915050565b600080600080600060a086880312156132fe57600080fd5b8535613309816130ce565b94506020860135613319816130ce565b9350604086013592506060860135915060808601356001600160401b0381111561334257600080fd5b61334e88828901613278565b9150509295509295909350565b6000806040838503121561336e57600080fd5b8235613379816130ce565b946020939093013593505050565b8151518152610140810160208301516133ab60208401826001600160801b03169052565b5060408301516133c660408401826001600160801b03169052565b5060608301516133e160608401826001600160801b03169052565b5060808301516133fc60808401826001600160801b03169052565b5060a083015161341560a084018264ffffffffff169052565b5060c083015161342b60c084018261ffff169052565b5060e083015161344660e08401826001600160a01b03169052565b50610100838101516001600160a01b03811684830152505061012092830151919092015290565b6000806000806080858703121561348357600080fd5b843561348e816130ce565b9350602085013592506040850135915060608501356001600160401b038111156134b757600080fd5b6134c387828801613278565b91505092959194509250565b60006001600160401b038211156134e8576134e8613156565b5060051b60200190565b600082601f83011261350357600080fd5b81356020613518613513836134cf565b6131d9565b82815260059290921b8401810191818101908684111561353757600080fd5b8286015b8481101561355b57803561354e816130ce565b835291830191830161353b565b509695505050505050565b803580151581146130ee57600080fd5b600082601f83011261358757600080fd5b81356020613597613513836134cf565b82815260089290921b840181019181810190868411156135b657600080fd5b8286015b8481101561355b5761010081890312156135d45760008081fd5b6135dc613194565b6135e582613566565b81526135f2858301613566565b8186015260408281013590820152606080830135908201526080808301359082015260a0808301359082015260c0808301359082015260e08083013590820152835291830191610100016135ba565b60006020828403121561365357600080fd5b81356001600160401b038082111561366a57600080fd5b9083019060a0828603121561367e57600080fd5b6136866131b7565b61368f836130e3565b81526020830135828111156136a357600080fd5b6136af878286016134f2565b6020830152506040830135828111156136c757600080fd5b6136d3878286016134f2565b6040830152506060830135828111156136eb57600080fd5b6136f7878286016134f2565b60608301525060808301358281111561370f57600080fd5b61371b87828601613576565b60808301525095945050505050565b60008060006060848603121561373f57600080fd5b833561374a816130ce565b95602085013595506040909401359392505050565b60006020828403121561377157600080fd5b813561ffff81168114610d3a57600080fd5b60008060006060848603121561379857600080fd5b83356137a3816130ce565b925060208401356137b3816130ce565b929592945050506040919091013590565b60008060008084860360808112156137db57600080fd5b85356137e6816130ce565b945060208601356137f6816130ce565b93506040860135613806816130ce565b92506020605f198201121561381a57600080fd5b509295919450926060019150565b60008083601f84011261383a57600080fd5b5081356001600160401b0381111561385157600080fd5b60208301915083602082850101111561386957600080fd5b9250929050565b60008060008060008060a0878903121561388957600080fd5b8635613894816130ce565b955060208701356138a4816130ce565b94506040870135935060608701356001600160401b03808211156138c757600080fd5b6138d38a838b01613828565b909550935060808901359150808211156138ec57600080fd5b506138f989828a01613278565b9150509295509295509295565b60008060006060848603121561391b57600080fd5b8335613926816130ce565b92506020840135915061393b60408501613566565b90509250925092565b60008060008060006080868803121561395c57600080fd5b8535613967816130ce565b94506020860135613977816130ce565b93506040860135925060608601356001600160401b0381111561399957600080fd5b6139a588828901613828565b969995985093965092949392505050565b6020808252825182820181905260009190848201906040850190845b818110156139f75783516001600160a01b0316835292840192918401916001016139d2565b50909695505050505050565b634e487b7160e01b600052603260045260246000fd5b60006101c08201905084825283602083015260018060a01b038084511660408401528060208501511660608401528060408501511660808401525060608301518051151560a08401526020810151151560c0840152604081015160e08401526060810151610100840152608081015161012084015260a081015161014084015260c081015161016084015260e08101516101808401525060808301516122256101a084018261ffff169052565b634e487b7160e01b600052601160045260246000fd5b600061ffff808316818103613af357613af3613ac6565b6001019392505050565b600060018201613b0f57613b0f613ac6565b5060010190565b600060208284031215613b2857600080fd5b81516001600160e01b031981168114610d3a57600080fd5b600060208284031215613b5257600080fd5b5051919050565b60008060008060008060c08789031215613b7257600080fd5b865195506020870151945060408701519350606087015192506080870151915060a087015190509295509295509295565b600060208284031215613bb557600080fd5b8151610d3a816130ce565b6000815180845260005b81811015613be657602081850181015186830182015201613bca565b506000602082860101526020601f19601f83011685010191505092915050565b6000815160408452613c1b6040850182613bc0565b9050602083015184820360208601526107798282613bc0565b600060018060a01b038087168352856020840152846040840152608060608401528084511660808401528060208501511660a084015250604083015160e060c0840152613c85610160840182613bc0565b90506060840151607f198483030160e0850152613ca28282613c06565b915050608084015161010084015260a084015161012084015260c08401516101408401528091505095945050505050565b60208152600060018060a01b038084511660208401528060208501511660408401528060408501511660608401525060608301516080830152608083015160e060a0840152613d26610100840182613c06565b905060a084015160c084015260c084015160e08401528091505092915050565b600060018060a01b038083511684528060208401511660208501528060408401511660408501525060608201516060840152608082015160e06080850152613d9160e0850182613c06565b905060a083015160a085015260c083015160c08501528091505092915050565b86815285602082015284604082015283606082015282608082015260c060a08201526000613de260c0830184613d46565b98975050505050505050565b600060408284031215613e0057600080fd5b613e0861316c565b82518152602083015160208201528091505092915050565b6001600160a01b038881168252602082018890528681166040830152858116606083015260808201859052831660a082015260e060c08201819052600090613e6a90830184613bc0565b9998505050505050505050565b86815285602082015284604082015283606082015282608082015260c060a0820152600060018060a01b038084511660c08401528060208501511660e0840152506040830151610100613ed4818501836001600160a01b03169052565b6060850151610120850152608085015191508061014085015250613efc6101c0840182613c06565b905060a084015161016084015260c084015161018084015260e08401516101a084015280915050979650505050505050565b6001600160a01b038781168252602082018790528581166040830152841660608201526080810183905260c060a08201819052600090613de290830184613bc0565b85815284602082015283604082015282606082015260a060808201526000613f9b60a0830184613d46565b979650505050505050565b634e487b7160e01b600052602160045260246000fd5b86815285602082015284604082015283606082015282608082015260c060a0820152613ff460c0820183516001600160a01b03169052565b6000602083015161401060e08401826001600160a01b03169052565b50604083015161010061402d818501836001600160a01b03169052565b6060850151915061012061404b818601846001600160a01b03169052565b608086015161014086015260a0860151925080610160860152506140736101e0850183613c06565b60c086015161018086015260e08601516101a08601529401516101c09093019290925250909695505050505050565b85815284602082015283604082015282606082015260a06080820152600060018060a01b038084511660a08401528060208501511660c084015250604083015160e0830152606083015160c0610100840152614102610160840182613c06565b9050608084015161012084015260a0840151610140840152809150509695505050505050565b818103818111156107ba576107ba613ac6565b808201808211156107ba576107ba613ac6565b87815286602082015285604082015284606082015283608082015282151560a082015260e060c08201526000613e6a60e0830184613d46565b80820281158282048414176107ba576107ba613ac6565b634e487b7160e01b600052601260045260246000fd5b6000826141d157634e487b7160e01b600052601260045260246000fd5b50049056fea2646970667358221220c66ca896437835854335e0d0bbf7fcec6fa50e2c32f89f0b9c38e457469a6ac664736f6c63430008130033",
  "libraries": {
    "LiquidationLogic": "0x5ea73c4C88f78FC9dd2F1b67dFACE2F1A25047D8",
    "SupplyLogic": "0x080c62172c5D7479144ad8227111708F03847C7f",
    "FlashLoanLogic": "0x232D6d2140C6b5621cA9c684bdbe13E401f97D2C",
    "BorrowLogic": "0x5CC3F8f5a18be034805B071D8b871642f68aceb2",
    "PoolLogic": "0x0B8DCBb7C7702B025Ec02aa629Eae613E30776D4"
  },
  "devdoc": {
    "events": {
      "Initialized(uint8)": {
        "details": "Triggered when the contract has been initialized or reinitialized."
      }
    },
    "kind": "dev",
    "methods": {
      "borrow(address,address,uint256,uint256,(bytes,bytes))": {
        "params": {
          "amount": "The amount to be borrowed",
          "asset": "The address of the underlying asset to borrow",
          "data": "Extra data that gets passed to the hook and to the interest rate strategy",
          "index": "The index of the user's position",
          "to": "The address to send the tokens to"
        },
        "returns": {
          "_0": "The amount of shares borrowed"
        }
      },
      "borrowSimple(address,address,uint256,uint256)": {
        "details": "See [borrow(...)](#borrow) for the full documentation. This call executes the same function with dummy data params"
      },
      "flashLoan(address,address,uint256,bytes,(bytes,bytes))": {
        "details": "IMPORTANT There are security concerns for developers of flashloan receiver contracts that must be kept into consideration.",
        "params": {
          "amount": "The amount of the asset being flash-borrowed",
          "asset": "The address of the asset being flash-borrowed",
          "data": "Extra data that gets passed to the hook and to the interest rate strategy",
          "params": "Variadic packed params to pass to the receiver as extra information",
          "receiverAddress": "The address of the contract receiving the funds, implementing IFlashLoanSimpleReceiver interface"
        }
      },
      "flashLoanSimple(address,address,uint256,bytes)": {
        "details": "See [flashLoan(...)](#flashLoan) for the full documentation. This call executes the same function with dummy data params"
      },
      "getAssetPrice(address)": {
        "params": {
          "asset": "The address of the asset"
        },
        "returns": {
          "_0": "The price of the asset"
        }
      },
      "getBalance(address,address,uint256)": {
        "params": {
          "asset": "The address of the asset.",
          "index": "The index of the user's position",
          "who": "The user to find the balance of"
        },
        "returns": {
          "balance": "The balance of the specified asset for the given user and position idnex."
        }
      },
      "getBalanceByPosition(address,bytes32)": {
        "params": {
          "asset": "The address of the asset.",
          "positionId": "The ID of the position."
        },
        "returns": {
          "balance": "The balance of the specified asset in the specified position."
        }
      },
      "getBalanceRaw(address,address,uint256)": {
        "params": {
          "asset": "The address of the asset",
          "index": "The index of the user's position",
          "who": "The address of the user"
        }
      },
      "getConfiguration(address)": {
        "params": {
          "asset": "The address of the underlying asset of the reserve"
        },
        "returns": {
          "_0": "The configuration of the reserve"
        }
      },
      "getConfigurator()": {
        "returns": {
          "_0": "The address of the Pool Configurator"
        }
      },
      "getDebt(address,address,uint256)": {
        "params": {
          "asset": "The address of the asset.",
          "index": "The index of the user's position",
          "who": "The user to find the debt of"
        },
        "returns": {
          "debt": "The debt of the specified asset for the given user and position idnex."
        }
      },
      "getDebtByPosition(address,bytes32)": {
        "params": {
          "asset": "The address of the asset.",
          "positionId": "The ID of the position."
        },
        "returns": {
          "debt": "The debt of the specified asset in the specified position."
        }
      },
      "getHook()": {
        "details": "The hook is immutable. Once it is set, it cannot be changed.",
        "returns": {
          "_0": "The hook for the pool, if set."
        }
      },
      "getReserveAddressById(uint16)": {
        "params": {
          "id": "The id of the reserve as stored in the DataTypes.ReserveData struct"
        },
        "returns": {
          "_0": "The address of the reserve associated with id"
        }
      },
      "getReserveData(address)": {
        "params": {
          "asset": "The address of the underlying asset of the reserve"
        },
        "returns": {
          "_0": "The state and configuration data of the reserve"
        }
      },
      "getReserveFactor()": {
        "details": "This parameter is immutable.",
        "returns": {
          "reseveFactor": "The amount of revenue that gets shared to governance."
        }
      },
      "getReserveNormalizedIncome(address)": {
        "params": {
          "asset": "The address of the underlying asset of the reserve"
        },
        "returns": {
          "_0": "The reserve's normalized income"
        }
      },
      "getReserveNormalizedVariableDebt(address)": {
        "details": "WARNING: This function is intended to be used primarily by the protocol itself to get a \"dynamic\" variable index based on time, current stored index and virtual rate at the current moment (approx. a borrower would get if opening a position). This means that is always used in combination with variable debt supply/balances. If using this function externally, consider that is possible to have an increasing normalized variable debt that is not equivalent to how the variable debt index would be updated in storage (e.g. only updates with non-zero variable debt supply)",
        "params": {
          "asset": "The address of the underlying asset of the reserve"
        },
        "returns": {
          "_0": "The reserve normalized variable debt"
        }
      },
      "getReservesCount()": {
        "returns": {
          "_0": "The count"
        }
      },
      "getReservesList()": {
        "returns": {
          "_0": "The addresses of the underlying assets of the initialized reserves"
        }
      },
      "getTotalSupplyRaw(address)": {
        "params": {
          "asset": "The address of the asset"
        },
        "returns": {
          "_0": "The reserve supply information of the given asset"
        }
      },
      "getUserAccountData(address,uint256)": {
        "params": {
          "index": "The index of the user's position",
          "user": "The address of the user"
        },
        "returns": {
          "_0": "The total collateral of the user in the base currency used by the price feed",
          "_1": "The total debt of the user in the base currency used by the price feed",
          "_2": "The borrowing power left of the user in the base currency used by the price feed",
          "_3": "The liquidation threshold of the user",
          "_4": "The loan to value of The user",
          "_5": "The current health factor of the user"
        }
      },
      "getUserConfiguration(address,uint256)": {
        "params": {
          "index": "The index of the user's position",
          "user": "The user address"
        },
        "returns": {
          "_0": "The configuration of the user"
        }
      },
      "initialize((address,address[],address[],address[],(bool,bool,uint256,uint256,uint256,uint256,uint256,uint256)[]))": {
        "details": "This function is invoked by the factory contract when the Pool is created"
      },
      "liquidate(address,address,bytes32,uint256,(bytes,bytes))": {
        "params": {
          "collateralAsset": "The address of the underlying asset used as collateral, to receive as result of the liquidation",
          "data": "Extra data that gets passed to the hook and to the interest rate strategy",
          "debtAsset": "The address of the underlying borrowed asset to be repaid with the liquidation",
          "debtToCover": "The debt amount of borrowed `asset` the liquidator wants to cover"
        }
      },
      "liquidateSimple(address,address,bytes32,uint256)": {
        "details": "See [liquidate(...)](#liquidate) for the full documentation. This call executes the same function with dummy data params"
      },
      "repay(address,uint256,uint256,(bytes,bytes))": {
        "params": {
          "amount": "The amount to repay - Send the value type(uint256).max in order to repay the whole debt for `asset` on the specific `debtMode`",
          "asset": "The address of the borrowed underlying asset previously borrowed",
          "data": "Extra data that gets passed to the hook and to the interest rate strategy",
          "index": "The index of the user's position"
        },
        "returns": {
          "_0": "The amount of shares repaid"
        }
      },
      "repaySimple(address,uint256,uint256)": {
        "details": "See [repay(...)](#repay) for the full documentation. This call executes the same function with dummy data params"
      },
      "revision()": {
        "returns": {
          "_0": "The version of this pool's implementation"
        }
      },
      "setReserveConfiguration(address,address,address,(uint256))": {
        "details": "Only callable by the PoolConfigurator contract",
        "params": {
          "asset": "The address of the underlying asset of the reserve",
          "configuration": "The new configuration bitmap",
          "rateStrategyAddress": "The address of the rate strategy for the reserve",
          "source": "The address of the oracle for the reserve"
        }
      },
      "setUserUseReserveAsCollateral(address,uint256,bool)": {
        "params": {
          "asset": "The address of the underlying asset supplied",
          "index": "The index of the user's position",
          "useAsCollateral": "True if the user wants to use the supply as collateral, false otherwise"
        }
      },
      "supply(address,address,uint256,uint256,(bytes,bytes))": {
        "params": {
          "amount": "The amount to be supplied",
          "asset": "The address of the underlying asset to supply",
          "data": "Extra data that gets passed to the hook and to the interest rate strategy",
          "index": "The index of the user's position",
          "to": "The address to supply for"
        },
        "returns": {
          "_0": "The amount of shares minted"
        }
      },
      "supplySimple(address,address,uint256,uint256)": {
        "details": "See [supply(...)](#supply) for the full documentation. This call executes the same function with dummy data params"
      },
      "withdraw(address,address,uint256,uint256,(bytes,bytes))": {
        "params": {
          "amount": "The underlying amount to be withdrawn   - Send the value type(uint256).max in order to withdraw the whole aToken balance",
          "asset": "The address of the underlying asset to withdraw",
          "data": "Extra data that gets passed to the hook and to the interest rate strategy",
          "index": "The index of the user's position",
          "to": "The address to send the tokens to"
        },
        "returns": {
          "_0": "The amount of shares burnt"
        }
      },
      "withdrawSimple(address,address,uint256,uint256)": {
        "details": "See [withdraw(...)](#withdraw) for the full documentation. This call executes the same function with dummy data params"
      }
    },
    "version": 1
  },
  "userdoc": {
    "kind": "user",
    "methods": {
      "borrow(address,address,uint256,uint256,(bytes,bytes))": {
        "notice": "Allows users to borrow a specific `amount` of the reserve underlying asset, provided that the borrower already supplied enough collateral, or he was given enough allowance by a credit delegator on the corresponding debt token (StableDebtToken or VariableDebtToken) - E.g. User borrows 100 USDC passing as `onBehalfOf` his own address, receiving the 100 USDC in his wallet   and 100 stable/variable debt tokens, depending on the `interestRateMode`"
      },
      "factory()": {
        "notice": "The factory contract that created this contract"
      },
      "flashLoan(address,address,uint256,bytes,(bytes,bytes))": {
        "notice": "Allows smartcontracts to access the liquidity of the pool within one transaction, as long as the amount taken plus a fee is returned."
      },
      "getAssetPrice(address)": {
        "notice": "Returns the asset price in the base currency"
      },
      "getBalance(address,address,uint256)": {
        "notice": "Get the balance of a specific asset for a user given a position index"
      },
      "getBalanceByPosition(address,bytes32)": {
        "notice": "Get the balance of a specific asset in a specific position."
      },
      "getBalanceRaw(address,address,uint256)": {
        "notice": "Gets the raw balance object for the asset for a given user and the position index."
      },
      "getBalanceRawByPositionId(address,bytes32)": {
        "notice": "Gets the raw balance object for the asset for a given position id"
      },
      "getConfiguration(address)": {
        "notice": "Returns the configuration of the reserve"
      },
      "getConfigurator()": {
        "notice": "Gets the Pool Configurator"
      },
      "getDebt(address,address,uint256)": {
        "notice": "Get the debt of a specific asset for a user given a position index"
      },
      "getDebtByPosition(address,bytes32)": {
        "notice": "Get the debt of a specific asset in a specific position."
      },
      "getHook()": {
        "notice": "Returns the current hook for the pool."
      },
      "getReserveAddressById(uint16)": {
        "notice": "Returns the address of the underlying asset of a reserve by the reserve id as stored in the DataTypes.ReserveData struct"
      },
      "getReserveData(address)": {
        "notice": "Returns the state and configuration of the reserve"
      },
      "getReserveFactor()": {
        "notice": "Gets the reserve factor that this pool charges. The reserve factory is the percentage of revenue that the pool shares with the governance."
      },
      "getReserveNormalizedIncome(address)": {
        "notice": "Returns the normalized income of the reserve"
      },
      "getReserveNormalizedVariableDebt(address)": {
        "notice": "Returns the normalized variable debt per unit of asset"
      },
      "getReservesCount()": {
        "notice": "Returns the number of initialized reserves"
      },
      "getReservesList()": {
        "notice": "Returns the list of the underlying assets of all the initialized reserves"
      },
      "getTotalSupplyRaw(address)": {
        "notice": "Gets the raw reserve supply object for a given asset."
      },
      "getUserAccountData(address,uint256)": {
        "notice": "Returns the user account data across all the reserves"
      },
      "getUserConfiguration(address,uint256)": {
        "notice": "Returns the configuration of the user across all the reserves"
      },
      "initialize((address,address[],address[],address[],(bool,bool,uint256,uint256,uint256,uint256,uint256,uint256)[]))": {
        "notice": "Initializes the Pool."
      },
      "liquidate(address,address,bytes32,uint256,(bytes,bytes))": {
        "notice": "Function to liquidate a non-healthy position collateral-wise, with Health Factor below 1 - The caller (liquidator) covers `debtToCover` amount of debt of the user getting liquidated, and receives   a proportionally amount of the `collateralAsset` plus a bonus to cover market risk"
      },
      "repay(address,uint256,uint256,(bytes,bytes))": {
        "notice": "Repays a borrowed `amount` on a specific reserve, burning the equivalent debt tokens owned - E.g. User repays 100 USDC, burning 100 variable/stable debt tokens of the `onBehalfOf` address"
      },
      "revision()": {
        "notice": "Returns the version of the pool implementation"
      },
      "setReserveConfiguration(address,address,address,(uint256))": {
        "notice": "Sets the configuration bitmap of the reserve as a whole"
      },
      "setUserUseReserveAsCollateral(address,uint256,bool)": {
        "notice": "Allows suppliers to enable/disable a specific supplied asset as collateral"
      },
      "supply(address,address,uint256,uint256,(bytes,bytes))": {
        "notice": "Supplies an `amount` of underlying asset into the reserve, receiving in return overlying aTokens. - E.g. User supplies 100 USDC and gets in return 100 aUSDC"
      },
      "withdraw(address,address,uint256,uint256,(bytes,bytes))": {
        "notice": "Withdraws an `amount` of underlying asset from the reserve, burning the equivalent aTokens owned E.g. User has 100 aUSDC, calls withdraw() and receives 100 USDC, burning the 100 aUSDC"
      }
    },
    "version": 1
  },
  "storageLayout": {
    "storage": [
      {
        "astId": 780,
        "contract": "contracts/core/pool/Pool.sol:Pool",
        "label": "_initialized",
        "offset": 0,
        "slot": "0",
        "type": "t_uint8"
      },
      {
        "astId": 783,
        "contract": "contracts/core/pool/Pool.sol:Pool",
        "label": "_initializing",
        "offset": 1,
        "slot": "0",
        "type": "t_bool"
      },
      {
        "astId": 23197,
        "contract": "contracts/core/pool/Pool.sol:Pool",
        "label": "_status",
        "offset": 0,
        "slot": "1",
        "type": "t_mapping(t_enum(RentrancyKind)23185,t_uint256)"
      },
      {
        "astId": 23280,
        "contract": "contracts/core/pool/Pool.sol:Pool",
        "label": "__gap",
        "offset": 0,
        "slot": "2",
        "type": "t_array(t_uint256)49_storage"
      },
      {
        "astId": 23961,
        "contract": "contracts/core/pool/Pool.sol:Pool",
        "label": "_reserves",
        "offset": 0,
        "slot": "51",
        "type": "t_mapping(t_address,t_struct(ReserveData)24022_storage)"
      },
      {
        "astId": 23967,
        "contract": "contracts/core/pool/Pool.sol:Pool",
        "label": "_usersConfig",
        "offset": 0,
        "slot": "52",
        "type": "t_mapping(t_bytes32,t_struct(UserConfigurationMap)24029_storage)"
      },
      {
        "astId": 23975,
        "contract": "contracts/core/pool/Pool.sol:Pool",
        "label": "_balances",
        "offset": 0,
        "slot": "53",
        "type": "t_mapping(t_address,t_mapping(t_bytes32,t_struct(PositionBalance)24060_storage))"
      },
      {
        "astId": 23981,
        "contract": "contracts/core/pool/Pool.sol:Pool",
        "label": "_totalSupplies",
        "offset": 0,
        "slot": "54",
        "type": "t_mapping(t_address,t_struct(ReserveSupplies)24067_storage)"
      },
      {
        "astId": 23986,
        "contract": "contracts/core/pool/Pool.sol:Pool",
        "label": "_reservesList",
        "offset": 0,
        "slot": "55",
        "type": "t_mapping(t_uint256,t_address)"
      },
      {
        "astId": 23989,
        "contract": "contracts/core/pool/Pool.sol:Pool",
        "label": "_reservesCount",
        "offset": 0,
        "slot": "56",
        "type": "t_uint16"
      },
      {
        "astId": 23993,
        "contract": "contracts/core/pool/Pool.sol:Pool",
        "label": "_factory",
        "offset": 2,
        "slot": "56",
        "type": "t_contract(IPoolFactory)39100"
      },
      {
        "astId": 23997,
        "contract": "contracts/core/pool/Pool.sol:Pool",
        "label": "_hook",
        "offset": 0,
        "slot": "57",
        "type": "t_contract(IHook)38338"
      }
    ],
    "types": {
      "t_address": {
        "encoding": "inplace",
        "label": "address",
        "numberOfBytes": "20"
      },
      "t_array(t_uint256)49_storage": {
        "base": "t_uint256",
        "encoding": "inplace",
        "label": "uint256[49]",
        "numberOfBytes": "1568"
      },
      "t_bool": {
        "encoding": "inplace",
        "label": "bool",
        "numberOfBytes": "1"
      },
      "t_bytes32": {
        "encoding": "inplace",
        "label": "bytes32",
        "numberOfBytes": "32"
      },
      "t_contract(IHook)38338": {
        "encoding": "inplace",
        "label": "contract IHook",
        "numberOfBytes": "20"
      },
      "t_contract(IPoolFactory)39100": {
        "encoding": "inplace",
        "label": "contract IPoolFactory",
        "numberOfBytes": "20"
      },
      "t_enum(RentrancyKind)23185": {
        "encoding": "inplace",
        "label": "enum PoolRentrancyGuard.RentrancyKind",
        "numberOfBytes": "1"
      },
      "t_mapping(t_address,t_mapping(t_bytes32,t_struct(PositionBalance)24060_storage))": {
        "encoding": "mapping",
        "key": "t_address",
        "label": "mapping(address => mapping(bytes32 => struct DataTypes.PositionBalance))",
        "numberOfBytes": "32",
        "value": "t_mapping(t_bytes32,t_struct(PositionBalance)24060_storage)"
      },
      "t_mapping(t_address,t_struct(ReserveData)24022_storage)": {
        "encoding": "mapping",
        "key": "t_address",
        "label": "mapping(address => struct DataTypes.ReserveData)",
        "numberOfBytes": "32",
        "value": "t_struct(ReserveData)24022_storage"
      },
      "t_mapping(t_address,t_struct(ReserveSupplies)24067_storage)": {
        "encoding": "mapping",
        "key": "t_address",
        "label": "mapping(address => struct DataTypes.ReserveSupplies)",
        "numberOfBytes": "32",
        "value": "t_struct(ReserveSupplies)24067_storage"
      },
      "t_mapping(t_bytes32,t_struct(PositionBalance)24060_storage)": {
        "encoding": "mapping",
        "key": "t_bytes32",
        "label": "mapping(bytes32 => struct DataTypes.PositionBalance)",
        "numberOfBytes": "32",
        "value": "t_struct(PositionBalance)24060_storage"
      },
      "t_mapping(t_bytes32,t_struct(UserConfigurationMap)24029_storage)": {
        "encoding": "mapping",
        "key": "t_bytes32",
        "label": "mapping(bytes32 => struct DataTypes.UserConfigurationMap)",
        "numberOfBytes": "32",
        "value": "t_struct(UserConfigurationMap)24029_storage"
      },
      "t_mapping(t_enum(RentrancyKind)23185,t_uint256)": {
        "encoding": "mapping",
        "key": "t_enum(RentrancyKind)23185",
        "label": "mapping(enum PoolRentrancyGuard.RentrancyKind => uint256)",
        "numberOfBytes": "32",
        "value": "t_uint256"
      },
      "t_mapping(t_uint256,t_address)": {
        "encoding": "mapping",
        "key": "t_uint256",
        "label": "mapping(uint256 => address)",
        "numberOfBytes": "32",
        "value": "t_address"
      },
      "t_struct(PositionBalance)24060_storage": {
        "encoding": "inplace",
        "label": "struct DataTypes.PositionBalance",
        "members": [
          {
            "astId": 24053,
            "contract": "contracts/core/pool/Pool.sol:Pool",
            "label": "lastDebtLiquidtyIndex",
            "offset": 0,
            "slot": "0",
            "type": "t_uint128"
          },
          {
            "astId": 24055,
            "contract": "contracts/core/pool/Pool.sol:Pool",
            "label": "lastSupplyLiquidtyIndex",
            "offset": 16,
            "slot": "0",
            "type": "t_uint128"
          },
          {
            "astId": 24057,
            "contract": "contracts/core/pool/Pool.sol:Pool",
            "label": "debtShares",
            "offset": 0,
            "slot": "1",
            "type": "t_uint256"
          },
          {
            "astId": 24059,
            "contract": "contracts/core/pool/Pool.sol:Pool",
            "label": "supplyShares",
            "offset": 0,
            "slot": "2",
            "type": "t_uint256"
          }
        ],
        "numberOfBytes": "96"
      },
      "t_struct(ReserveConfigurationMap)24025_storage": {
        "encoding": "inplace",
        "label": "struct DataTypes.ReserveConfigurationMap",
        "members": [
          {
            "astId": 24024,
            "contract": "contracts/core/pool/Pool.sol:Pool",
            "label": "data",
            "offset": 0,
            "slot": "0",
            "type": "t_uint256"
          }
        ],
        "numberOfBytes": "32"
      },
      "t_struct(ReserveData)24022_storage": {
        "encoding": "inplace",
        "label": "struct DataTypes.ReserveData",
        "members": [
          {
            "astId": 24003,
            "contract": "contracts/core/pool/Pool.sol:Pool",
            "label": "configuration",
            "offset": 0,
            "slot": "0",
            "type": "t_struct(ReserveConfigurationMap)24025_storage"
          },
          {
            "astId": 24005,
            "contract": "contracts/core/pool/Pool.sol:Pool",
            "label": "liquidityIndex",
            "offset": 0,
            "slot": "1",
            "type": "t_uint128"
          },
          {
            "astId": 24007,
            "contract": "contracts/core/pool/Pool.sol:Pool",
            "label": "liquidityRate",
            "offset": 16,
            "slot": "1",
            "type": "t_uint128"
          },
          {
            "astId": 24009,
            "contract": "contracts/core/pool/Pool.sol:Pool",
            "label": "borrowIndex",
            "offset": 0,
            "slot": "2",
            "type": "t_uint128"
          },
          {
            "astId": 24011,
            "contract": "contracts/core/pool/Pool.sol:Pool",
            "label": "borrowRate",
            "offset": 16,
            "slot": "2",
            "type": "t_uint128"
          },
          {
            "astId": 24013,
            "contract": "contracts/core/pool/Pool.sol:Pool",
            "label": "lastUpdateTimestamp",
            "offset": 0,
            "slot": "3",
            "type": "t_uint40"
          },
          {
            "astId": 24015,
            "contract": "contracts/core/pool/Pool.sol:Pool",
            "label": "id",
            "offset": 5,
            "slot": "3",
            "type": "t_uint16"
          },
          {
            "astId": 24017,
            "contract": "contracts/core/pool/Pool.sol:Pool",
            "label": "interestRateStrategyAddress",
            "offset": 7,
            "slot": "3",
            "type": "t_address"
          },
          {
            "astId": 24019,
            "contract": "contracts/core/pool/Pool.sol:Pool",
            "label": "oracle",
            "offset": 0,
            "slot": "4",
            "type": "t_address"
          },
          {
            "astId": 24021,
            "contract": "contracts/core/pool/Pool.sol:Pool",
            "label": "accruedToTreasuryShares",
            "offset": 0,
            "slot": "5",
            "type": "t_uint256"
          }
        ],
        "numberOfBytes": "192"
      },
      "t_struct(ReserveSupplies)24067_storage": {
        "encoding": "inplace",
        "label": "struct DataTypes.ReserveSupplies",
        "members": [
          {
            "astId": 24062,
            "contract": "contracts/core/pool/Pool.sol:Pool",
            "label": "debtShares",
            "offset": 0,
            "slot": "0",
            "type": "t_uint256"
          },
          {
            "astId": 24064,
            "contract": "contracts/core/pool/Pool.sol:Pool",
            "label": "supplyShares",
            "offset": 0,
            "slot": "1",
            "type": "t_uint256"
          },
          {
            "astId": 24066,
            "contract": "contracts/core/pool/Pool.sol:Pool",
            "label": "underlyingBalance",
            "offset": 0,
            "slot": "2",
            "type": "t_uint128"
          }
        ],
        "numberOfBytes": "96"
      },
      "t_struct(UserConfigurationMap)24029_storage": {
        "encoding": "inplace",
        "label": "struct DataTypes.UserConfigurationMap",
        "members": [
          {
            "astId": 24028,
            "contract": "contracts/core/pool/Pool.sol:Pool",
            "label": "data",
            "offset": 0,
            "slot": "0",
            "type": "t_uint256"
          }
        ],
        "numberOfBytes": "32"
      },
      "t_uint128": {
        "encoding": "inplace",
        "label": "uint128",
        "numberOfBytes": "16"
      },
      "t_uint16": {
        "encoding": "inplace",
        "label": "uint16",
        "numberOfBytes": "2"
      },
      "t_uint256": {
        "encoding": "inplace",
        "label": "uint256",
        "numberOfBytes": "32"
      },
      "t_uint40": {
        "encoding": "inplace",
        "label": "uint40",
        "numberOfBytes": "5"
      },
      "t_uint8": {
        "encoding": "inplace",
        "label": "uint8",
        "numberOfBytes": "1"
      }
    }
  }
}