{
  "address": "0x987C6DE7A8FEf9398ED89F9C0d0506e103d1c5F2",
  "abi": [
    {
      "inputs": [
        {
          "internalType": "address",
          "name": "_factory",
          "type": "address"
        },
        {
          "internalType": "address",
          "name": "_configurator",
          "type": "address"
        },
        {
          "internalType": "address",
          "name": "_manager",
          "type": "address"
        }
      ],
      "stateMutability": "nonpayable",
      "type": "constructor"
    },
    {
      "inputs": [],
      "name": "configurator",
      "outputs": [
        {
          "internalType": "contract IPoolConfigurator",
          "name": "",
          "type": "address"
        }
      ],
      "stateMutability": "view",
      "type": "function"
    },
    {
      "inputs": [],
      "name": "factory",
      "outputs": [
        {
          "internalType": "contract IPoolFactory",
          "name": "",
          "type": "address"
        }
      ],
      "stateMutability": "view",
      "type": "function"
    },
    {
      "inputs": [
        {
          "internalType": "contract IPool",
          "name": "_pool",
          "type": "address"
        },
        {
          "internalType": "contract IPoolConfigurator",
          "name": "_configurator",
          "type": "address"
        },
        {
          "internalType": "bytes32",
          "name": "role",
          "type": "bytes32"
        }
      ],
      "name": "getAllRoles",
      "outputs": [
        {
          "internalType": "address[]",
          "name": "users",
          "type": "address[]"
        }
      ],
      "stateMutability": "view",
      "type": "function"
    },
    {
      "inputs": [
        {
          "internalType": "address",
          "name": "user",
          "type": "address"
        },
        {
          "internalType": "address[]",
          "name": "tokens",
          "type": "address[]"
        }
      ],
      "name": "getBalances",
      "outputs": [
        {
          "internalType": "uint256[]",
          "name": "balances",
          "type": "uint256[]"
        }
      ],
      "stateMutability": "view",
      "type": "function"
    },
    {
      "inputs": [
        {
          "internalType": "uint256",
          "name": "tokenId",
          "type": "uint256"
        }
      ],
      "name": "getNftPosition",
      "outputs": [
        {
          "components": [
            {
              "internalType": "address",
              "name": "asset",
              "type": "address"
            },
            {
              "internalType": "uint256",
              "name": "balance",
              "type": "uint256"
            },
            {
              "internalType": "uint256",
              "name": "debt",
              "type": "uint256"
            }
          ],
          "internalType": "struct INFTPositionManager.Asset[]",
          "name": "assets",
          "type": "tuple[]"
        }
      ],
      "stateMutability": "view",
      "type": "function"
    },
    {
      "inputs": [
        {
          "internalType": "address",
          "name": "user",
          "type": "address"
        }
      ],
      "name": "getNftPositions",
      "outputs": [
        {
          "components": [
            {
              "internalType": "uint256",
              "name": "tokenId",
              "type": "uint256"
            },
            {
              "internalType": "address",
              "name": "pool",
              "type": "address"
            },
            {
              "internalType": "uint256",
              "name": "healthFactor",
              "type": "uint256"
            },
            {
              "components": [
                {
                  "internalType": "address",
                  "name": "asset",
                  "type": "address"
                },
                {
                  "internalType": "uint256",
                  "name": "balance",
                  "type": "uint256"
                },
                {
                  "internalType": "uint256",
                  "name": "debt",
                  "type": "uint256"
                }
              ],
              "internalType": "struct INFTPositionManager.Asset[]",
              "name": "assets",
              "type": "tuple[]"
            },
            {
              "internalType": "bool",
              "name": "isBurnAllowed",
              "type": "bool"
            }
          ],
          "internalType": "struct UIHelper.NftPositions[]",
          "name": "positions",
          "type": "tuple[]"
        }
      ],
      "stateMutability": "view",
      "type": "function"
    },
    {
      "inputs": [
        {
          "internalType": "contract IPool",
          "name": "pool",
          "type": "address"
        },
        {
          "internalType": "address",
          "name": "asset",
          "type": "address"
        }
      ],
      "name": "getPoolAssetConfig",
      "outputs": [
        {
          "components": [
            {
              "internalType": "address",
              "name": "asset",
              "type": "address"
            },
            {
              "internalType": "address",
              "name": "interestRateStrategy",
              "type": "address"
            },
            {
              "internalType": "address",
              "name": "oracle",
              "type": "address"
            },
            {
              "internalType": "bool",
              "name": "borrowable",
              "type": "bool"
            },
            {
              "internalType": "bool",
              "name": "collateral",
              "type": "bool"
            },
            {
              "internalType": "bool",
              "name": "frozen",
              "type": "bool"
            },
            {
              "internalType": "string",
              "name": "name",
              "type": "string"
            },
            {
              "internalType": "string",
              "name": "symbol",
              "type": "string"
            },
            {
              "internalType": "uint256",
              "name": "borrowCap",
              "type": "uint256"
            },
            {
              "internalType": "uint256",
              "name": "decimals",
              "type": "uint256"
            },
            {
              "internalType": "uint256",
              "name": "liquidationBonus",
              "type": "uint256"
            },
            {
              "internalType": "uint256",
              "name": "liquidationThreshold",
              "type": "uint256"
            },
            {
              "internalType": "uint256",
              "name": "ltv",
              "type": "uint256"
            },
            {
              "internalType": "uint256",
              "name": "supplyCap",
              "type": "uint256"
            },
            {
              "internalType": "uint256",
              "name": "balanceOnchain",
              "type": "uint256"
            },
            {
              "internalType": "uint256",
              "name": "totalSupplyOnchain",
              "type": "uint256"
            },
            {
              "internalType": "uint128",
              "name": "liquidityIndex",
              "type": "uint128"
            },
            {
              "internalType": "uint128",
              "name": "liquidityRate",
              "type": "uint128"
            },
            {
              "internalType": "uint128",
              "name": "borrowIndex",
              "type": "uint128"
            },
            {
              "internalType": "uint128",
              "name": "borrowRate",
              "type": "uint128"
            },
            {
              "internalType": "uint40",
              "name": "reserveLastUpdateTimestamp",
              "type": "uint40"
            },
            {
              "internalType": "uint256",
              "name": "debtShares",
              "type": "uint256"
            },
            {
              "internalType": "uint256",
              "name": "supplyShares",
              "type": "uint256"
            },
            {
              "internalType": "uint128",
              "name": "underlyingBalance",
              "type": "uint128"
            },
            {
              "internalType": "uint256",
              "name": "debtAssets",
              "type": "uint256"
            },
            {
              "internalType": "uint256",
              "name": "supplyAssets",
              "type": "uint256"
            },
            {
              "internalType": "uint256",
              "name": "latestPrice",
              "type": "uint256"
            }
          ],
          "internalType": "struct UIHelper.ReserveConfig",
          "name": "config",
          "type": "tuple"
        }
      ],
      "stateMutability": "view",
      "type": "function"
    },
    {
      "inputs": [
        {
          "internalType": "contract IPool",
          "name": "pool",
          "type": "address"
        }
      ],
      "name": "getPoolFullConfig",
      "outputs": [
        {
          "components": [
            {
              "internalType": "address",
              "name": "hook",
              "type": "address"
            },
            {
              "internalType": "address",
              "name": "proxyAdmin",
              "type": "address"
            },
            {
              "internalType": "address[]",
              "name": "emergencyAdmins",
              "type": "address[]"
            },
            {
              "internalType": "address[]",
              "name": "poolAdmins",
              "type": "address[]"
            },
            {
              "internalType": "address[]",
              "name": "riskAdmins",
              "type": "address[]"
            },
            {
              "internalType": "bool",
              "name": "proxyRevoked",
              "type": "bool"
            },
            {
              "components": [
                {
                  "internalType": "address",
                  "name": "asset",
                  "type": "address"
                },
                {
                  "internalType": "address",
                  "name": "interestRateStrategy",
                  "type": "address"
                },
                {
                  "internalType": "address",
                  "name": "oracle",
                  "type": "address"
                },
                {
                  "internalType": "bool",
                  "name": "borrowable",
                  "type": "bool"
                },
                {
                  "internalType": "bool",
                  "name": "collateral",
                  "type": "bool"
                },
                {
                  "internalType": "bool",
                  "name": "frozen",
                  "type": "bool"
                },
                {
                  "internalType": "string",
                  "name": "name",
                  "type": "string"
                },
                {
                  "internalType": "string",
                  "name": "symbol",
                  "type": "string"
                },
                {
                  "internalType": "uint256",
                  "name": "borrowCap",
                  "type": "uint256"
                },
                {
                  "internalType": "uint256",
                  "name": "decimals",
                  "type": "uint256"
                },
                {
                  "internalType": "uint256",
                  "name": "liquidationBonus",
                  "type": "uint256"
                },
                {
                  "internalType": "uint256",
                  "name": "liquidationThreshold",
                  "type": "uint256"
                },
                {
                  "internalType": "uint256",
                  "name": "ltv",
                  "type": "uint256"
                },
                {
                  "internalType": "uint256",
                  "name": "supplyCap",
                  "type": "uint256"
                },
                {
                  "internalType": "uint256",
                  "name": "balanceOnchain",
                  "type": "uint256"
                },
                {
                  "internalType": "uint256",
                  "name": "totalSupplyOnchain",
                  "type": "uint256"
                },
                {
                  "internalType": "uint128",
                  "name": "liquidityIndex",
                  "type": "uint128"
                },
                {
                  "internalType": "uint128",
                  "name": "liquidityRate",
                  "type": "uint128"
                },
                {
                  "internalType": "uint128",
                  "name": "borrowIndex",
                  "type": "uint128"
                },
                {
                  "internalType": "uint128",
                  "name": "borrowRate",
                  "type": "uint128"
                },
                {
                  "internalType": "uint40",
                  "name": "reserveLastUpdateTimestamp",
                  "type": "uint40"
                },
                {
                  "internalType": "uint256",
                  "name": "debtShares",
                  "type": "uint256"
                },
                {
                  "internalType": "uint256",
                  "name": "supplyShares",
                  "type": "uint256"
                },
                {
                  "internalType": "uint128",
                  "name": "underlyingBalance",
                  "type": "uint128"
                },
                {
                  "internalType": "uint256",
                  "name": "debtAssets",
                  "type": "uint256"
                },
                {
                  "internalType": "uint256",
                  "name": "supplyAssets",
                  "type": "uint256"
                },
                {
                  "internalType": "uint256",
                  "name": "latestPrice",
                  "type": "uint256"
                }
              ],
              "internalType": "struct UIHelper.ReserveConfig[]",
              "name": "reserves",
              "type": "tuple[]"
            },
            {
              "internalType": "uint16",
              "name": "reservesCount",
              "type": "uint16"
            }
          ],
          "internalType": "struct UIHelper.PoolConfig",
          "name": "config",
          "type": "tuple"
        }
      ],
      "stateMutability": "view",
      "type": "function"
    },
    {
      "inputs": [
        {
          "internalType": "uint256",
          "name": "start",
          "type": "uint256"
        },
        {
          "internalType": "uint256",
          "name": "end",
          "type": "uint256"
        }
      ],
      "name": "getPoolFullConfigByIndex",
      "outputs": [
        {
          "components": [
            {
              "internalType": "address",
              "name": "hook",
              "type": "address"
            },
            {
              "internalType": "address",
              "name": "proxyAdmin",
              "type": "address"
            },
            {
              "internalType": "address[]",
              "name": "emergencyAdmins",
              "type": "address[]"
            },
            {
              "internalType": "address[]",
              "name": "poolAdmins",
              "type": "address[]"
            },
            {
              "internalType": "address[]",
              "name": "riskAdmins",
              "type": "address[]"
            },
            {
              "internalType": "bool",
              "name": "proxyRevoked",
              "type": "bool"
            },
            {
              "components": [
                {
                  "internalType": "address",
                  "name": "asset",
                  "type": "address"
                },
                {
                  "internalType": "address",
                  "name": "interestRateStrategy",
                  "type": "address"
                },
                {
                  "internalType": "address",
                  "name": "oracle",
                  "type": "address"
                },
                {
                  "internalType": "bool",
                  "name": "borrowable",
                  "type": "bool"
                },
                {
                  "internalType": "bool",
                  "name": "collateral",
                  "type": "bool"
                },
                {
                  "internalType": "bool",
                  "name": "frozen",
                  "type": "bool"
                },
                {
                  "internalType": "string",
                  "name": "name",
                  "type": "string"
                },
                {
                  "internalType": "string",
                  "name": "symbol",
                  "type": "string"
                },
                {
                  "internalType": "uint256",
                  "name": "borrowCap",
                  "type": "uint256"
                },
                {
                  "internalType": "uint256",
                  "name": "decimals",
                  "type": "uint256"
                },
                {
                  "internalType": "uint256",
                  "name": "liquidationBonus",
                  "type": "uint256"
                },
                {
                  "internalType": "uint256",
                  "name": "liquidationThreshold",
                  "type": "uint256"
                },
                {
                  "internalType": "uint256",
                  "name": "ltv",
                  "type": "uint256"
                },
                {
                  "internalType": "uint256",
                  "name": "supplyCap",
                  "type": "uint256"
                },
                {
                  "internalType": "uint256",
                  "name": "balanceOnchain",
                  "type": "uint256"
                },
                {
                  "internalType": "uint256",
                  "name": "totalSupplyOnchain",
                  "type": "uint256"
                },
                {
                  "internalType": "uint128",
                  "name": "liquidityIndex",
                  "type": "uint128"
                },
                {
                  "internalType": "uint128",
                  "name": "liquidityRate",
                  "type": "uint128"
                },
                {
                  "internalType": "uint128",
                  "name": "borrowIndex",
                  "type": "uint128"
                },
                {
                  "internalType": "uint128",
                  "name": "borrowRate",
                  "type": "uint128"
                },
                {
                  "internalType": "uint40",
                  "name": "reserveLastUpdateTimestamp",
                  "type": "uint40"
                },
                {
                  "internalType": "uint256",
                  "name": "debtShares",
                  "type": "uint256"
                },
                {
                  "internalType": "uint256",
                  "name": "supplyShares",
                  "type": "uint256"
                },
                {
                  "internalType": "uint128",
                  "name": "underlyingBalance",
                  "type": "uint128"
                },
                {
                  "internalType": "uint256",
                  "name": "debtAssets",
                  "type": "uint256"
                },
                {
                  "internalType": "uint256",
                  "name": "supplyAssets",
                  "type": "uint256"
                },
                {
                  "internalType": "uint256",
                  "name": "latestPrice",
                  "type": "uint256"
                }
              ],
              "internalType": "struct UIHelper.ReserveConfig[]",
              "name": "reserves",
              "type": "tuple[]"
            },
            {
              "internalType": "uint16",
              "name": "reservesCount",
              "type": "uint16"
            }
          ],
          "internalType": "struct UIHelper.PoolConfig[]",
          "name": "configs",
          "type": "tuple[]"
        }
      ],
      "stateMutability": "view",
      "type": "function"
    },
    {
      "inputs": [],
      "name": "manager",
      "outputs": [
        {
          "internalType": "contract INFTPositionManager",
          "name": "",
          "type": "address"
        }
      ],
      "stateMutability": "view",
      "type": "function"
    }
  ],
  "transactionHash": "0xb4801722e2e08c0da04b6f75534cc64a8eecb6878c7ce472f42c545d90b9282d",
  "args": [
    "0x368eEBB67577Ec504F62FC41888b1578d2ef7B71",
    "0x81D61F4530fdC0b2788E298d640dB5981e6Fe0EF",
    "0xB2D87B03c1046BD988801C12D78eE348cD564B1D"
  ],
  "numDeployments": 1,
  "solcInputHash": "95d84748b454ba387ab3866b78066cba",
  "bytecode": "0x60806040523480156200001157600080fd5b506040516200243738038062002437833981016040819052620000349162000094565b600080546001600160a01b039485166001600160a01b031991821617909155600280549385169382169390931790925560018054919093169116179055620000de565b80516001600160a01b03811681146200008f57600080fd5b919050565b600080600060608486031215620000aa57600080fd5b620000b58462000077565b9250620000c56020850162000077565b9150620000d56040850162000077565b90509250925092565b61234980620000ee6000396000f3fe608060405234801561001057600080fd5b506004361061009e5760003560e01c80639f44e015116100665780639f44e0151461014a578063c082b3171461016a578063c45a01551461018a578063cda5d2491461019d578063e05c7379146101bd57600080fd5b806307b7039e146100a35780631475a64a146100cc5780632b507df8146100ec578063481c6a75146101175780636a385ae91461012a575b600080fd5b6100b66100b1366004611775565b6101dd565b6040516100c391906119ae565b60405180910390f35b6100df6100da3660046119c1565b610765565b6040516100c391906119da565b6002546100ff906001600160a01b031681565b6040516001600160a01b0390911681526020016100c3565b6001546100ff906001600160a01b031681565b61013d610138366004611ad1565b610a63565b6040516100c39190611b84565b61015d610158366004611bbc565b610bd7565b6040516100c39190611d38565b61017d610178366004611d4b565b610f98565b6040516100c39190611d8c565b6000546100ff906001600160a01b031681565b6101b06101ab366004611bbc565b611185565b6040516100c39190611d9f565b6101d06101cb366004611e87565b61140c565b6040516100c39190611ea9565b6101e56115e1565b60405163c44b11f760e01b81526001600160a01b0383811660048301526000919085169063c44b11f790602401602060405180830381865afa15801561022f573d6000803e3d6000fd5b505050506040513d601f19601f820116820180604052508101906102539190611f4c565b6040516335ea6a7560e01b81526001600160a01b0385811660048301529192506000918616906335ea6a759060240161014060405180830381865afa1580156102a0573d6000803e3d6000fd5b505050506040513d601f19601f820116820180604052508101906102c49190611fb6565b604051633383061760e11b81526001600160a01b0386811660048301529192506000918716906367060c2e90602401606060405180830381865afa158015610310573d6000803e3d6000fd5b505050506040513d601f19601f82011682018060405250810190610334919061207a565b905061034a835167040000000000000016151590565b151560608501528251600160391b161515151560a0850152825160501c640fffffffff16610100850152825160301c60ff16610120850152825160201c61ffff16610140850152825160101c61ffff166101608501526103a9836115ba565b610180850152825160741c640fffffffff166101a085015261018084015115156080850152604080516306fdde0360e01b815290516001600160a01b038716916306fdde039160048083019260009291908290030181865afa158015610413573d6000803e3d6000fd5b505050506040513d6000823e601f3d908101601f1916820160405261043b91908101906120d9565b8460c00181905250846001600160a01b03166395d89b416040518163ffffffff1660e01b8152600401600060405180830381865afa158015610481573d6000803e3d6000fd5b505050506040513d6000823e601f3d908101601f191682016040526104a991908101906120d9565b60e08501526040516370a0823160e01b81526001600160a01b0387811660048301528616906370a0823190602401602060405180830381865afa1580156104f4573d6000803e3d6000fd5b505050506040513d601f19601f82011682018060405250810190610518919061216c565b846101c0018181525050846001600160a01b03166318160ddd6040518163ffffffff1660e01b8152600401602060405180830381865afa158015610560573d6000803e3d6000fd5b505050506040513d601f19601f82011682018060405250810190610584919061216c565b6101e085015260208201516001600160801b03908116610200860152604080840151821661022087015260608401518216610240870152608084015190911661026086015281516102a086015251631ff517ff60e01b81526001600160a01b038681166004830152871690631ff517ff90602401602060405180830381865afa158015610615573d6000803e3d6000fd5b505050506040513d601f19601f82011682018060405250810190610639919061216c565b61030085015260208101516102c085015260405163f3e0ffbf60e01b81526001600160a01b03868116600483015287169063f3e0ffbf90602401602060405180830381865afa158015610690573d6000803e3d6000fd5b505050506040513d601f19601f820116820180604052508101906106b4919061216c565b6103208501526040808201516001600160801b03166102e08601526001600160a01b03808716865260e08401518116602080880191909152610100850180518316848901525183516350d25bcd60e01b815293519216926350d25bcd92600480830193928290030181865afa158015610731573d6000803e3d6000fd5b505050506040513d601f19601f82011682018060405250810190610755919061216c565b6103408501525091949350505050565b60015460405163133f757160e31b8152600481018390526060916000916001600160a01b03909116906399fbab88906024016040805180830381865afa1580156107b3573d6000803e3d6000fd5b505050506040513d601f19601f820116820180604052508101906107d79190612185565b90506000816000015190506000816001600160a01b031663d1946dbc6040518163ffffffff1660e01b8152600401600060405180830381865afa158015610822573d6000803e3d6000fd5b505050506040513d6000823e601f3d908101601f1916820160405261084a91908101906121e3565b8051909150806001600160401b0381111561086757610867611a3f565b6040519080825280602002602001820160405280156108c557816020015b6108b2604051806060016040528060006001600160a01b0316815260200160008152602001600081525090565b8152602001906001900390816108855790505b50945060005b81811015610a595760008382815181106108e7576108e761227c565b60200260200101518783815181106109015761090161227c565b60209081029190910101516001600160a01b03918216908190526001546040516318797cd560e21b8152600481018390529083166024820152604481018b9052909250908616906361e5f35490606401602060405180830381865afa15801561096e573d6000803e3d6000fd5b505050506040513d601f19601f82011682018060405250810190610992919061216c565b8783815181106109a4576109a461227c565b6020908102919091018101510152600154604051632c626df160e21b81526001600160a01b0383811660048301529182166024820152604481018a90529086169063b189b7c490606401602060405180830381865afa158015610a0b573d6000803e3d6000fd5b505050506040513d601f19601f82011682018060405250810190610a2f919061216c565b878381518110610a4157610a4161227c565b602090810291909101015160400152506001016108cb565b5050505050919050565b606081516001600160401b03811115610a7e57610a7e611a3f565b604051908082528060200260200182016040528015610aa7578160200160208202803683370190505b50905060005b8251811015610bd05760006001600160a01b0316838281518110610ad357610ad361227c565b60200260200101516001600160a01b031603610b1757836001600160a01b031631828281518110610b0657610b0661227c565b602002602001018181525050610bbe565b828181518110610b2957610b2961227c565b60209081029190910101516040516370a0823160e01b81526001600160a01b038681166004830152909116906370a0823190602401602060405180830381865afa158015610b7b573d6000803e3d6000fd5b505050506040513d601f19601f82011682018060405250810190610b9f919061216c565b828281518110610bb157610bb161227c565b6020026020010181815250505b80610bc8816122a8565b915050610aad565b5092915050565b610bdf611700565b6000826001600160a01b031663d1946dbc6040518163ffffffff1660e01b8152600401600060405180830381865afa158015610c1f573d6000803e3d6000fd5b505050506040513d6000823e601f3d908101601f19168201604052610c4791908101906121e3565b90506000839050836001600160a01b031663b55bd84d6040518163ffffffff1660e01b8152600401602060405180830381865afa158015610c8c573d6000803e3d6000fd5b505050506040513d601f19601f82011682018060405250810190610cb091906122c1565b6001600160a01b03168352815161ffff1660e084015281516001600160401b03811115610cdf57610cdf611a3f565b604051908082528060200260200182016040528015610d1857816020015b610d056115e1565b815260200190600190039081610cfd5790505b5060c084015260005b8251811015610d8157610d4d85848381518110610d4057610d4061227c565b60200260200101516101dd565b8460c001518281518110610d6357610d6361227c565b60200260200101819052508080610d79906122a8565b915050610d21565b50806001600160a01b031663f851a4406040518163ffffffff1660e01b8152600401602060405180830381865afa158015610dc0573d6000803e3d6000fd5b505050506040513d601f19601f82011682018060405250810190610de491906122c1565b83602001906001600160a01b031690816001600160a01b031681525050806001600160a01b0316633dae9a9f6040518163ffffffff1660e01b8152600401602060405180830381865afa158015610e3f573d6000803e3d6000fd5b505050506040513d601f19601f82011682018060405250810190610e6391906122de565b151560a08401526002546040805163b8f6dba760e01b81529051610edf9287926001600160a01b0390911691829163b8f6dba79160048083019260209291908290030181865afa158015610ebb573d6000803e3d6000fd5b505050506040513d601f19601f82011682018060405250810190610178919061216c565b606084015260025460408051636e76fc8f60e01b81529051610f359287926001600160a01b03909116918291636e76fc8f9160048083019260209291908290030181865afa158015610ebb573d6000803e3d6000fd5b6040808501919091526002548151634f16b42560e01b81529151610f8b9287926001600160a01b0316918291634f16b4259160048083019260209291908290030181865afa158015610ebb573d6000803e3d6000fd5b6080840152509092915050565b60405163b75a1fa160e01b81526001600160a01b0384811660048301526024820183905260609160009185169063b75a1fa190604401602060405180830381865afa158015610feb573d6000803e3d6000fd5b505050506040513d601f19601f8201168201806040525081019061100f919061216c565b60405163ca15c87360e01b8152600481018290529091506000906001600160a01b0386169063ca15c87390602401602060405180830381865afa15801561105a573d6000803e3d6000fd5b505050506040513d601f19601f8201168201806040525081019061107e919061216c565b9050806001600160401b0381111561109857611098611a3f565b6040519080825280602002602001820160405280156110c1578160200160208202803683370190505b50925060005b8181101561117b57604051632404341f60e21b815260048101849052602481018290526001600160a01b03871690639010d07c90604401602060405180830381865afa15801561111b573d6000803e3d6000fd5b505050506040513d601f19601f8201168201806040525081019061113f91906122c1565b8482815181106111515761115161227c565b6001600160a01b039092166020928302919091019091015280611173816122a8565b9150506110c7565b5050509392505050565b6001546040516370a0823160e01b81526001600160a01b0383811660048301526060926000929116906370a0823190602401602060405180830381865afa1580156111d4573d6000803e3d6000fd5b505050506040513d601f19601f820116820180604052508101906111f8919061216c565b9050806001600160401b0381111561121257611212611a3f565b60405190808252806020026020018201604052801561126a57816020015b6040805160a08101825260008082526020808301829052928201819052606080830152608082015282526000199092019101816112305790505b50915060005b8181101561140557600154604051632f745c5960e01b81526001600160a01b038681166004830152602482018490526000921690632f745c5990604401602060405180830381865afa1580156112ca573d6000803e3d6000fd5b505050506040513d601f19601f820116820180604052508101906112ee919061216c565b60015460405163133f757160e31b8152600481018390529192506000916001600160a01b03909116906399fbab88906024016040805180830381865afa15801561133c573d6000803e3d6000fd5b505050506040513d601f19601f820116820180604052508101906113609190612185565b9050600061136d83610765565b905081600001518685815181106113865761138661227c565b6020026020010151602001906001600160a01b031690816001600160a01b031681525050828685815181106113bd576113bd61227c565b60200260200101516000018181525050808685815181106113e0576113e061227c565b60200260200101516060018190525050505080806113fd906122a8565b915050611270565b5050919050565b600080546040805163138b573360e11b81529051606093926001600160a01b031691632716ae669160048083019260209291908290030181865afa158015611458573d6000803e3d6000fd5b505050506040513d601f19601f8201168201806040525081019061147c919061216c565b90508083111561148a578092505b82841061149757506115b4565b6114a18484612300565b6001600160401b038111156114b8576114b8611a3f565b6040519080825280602002602001820160405280156114f157816020015b6114de611700565b8152602001906001900390816114d65790505b509150835b838110156115b157600080546040516315895f4760e31b8152600481018490526001600160a01b039091169063ac4afa3890602401602060405180830381865afa158015611548573d6000803e3d6000fd5b505050506040513d601f19601f8201168201806040525081019061156c91906122c1565b905061157781610bd7565b846115828885612300565b815181106115925761159261227c565b60200260200101819052505080806115a9906122a8565b9150506114f6565b50505b92915050565b8051600090600160391b161515806115d757825161ffff166115da565b60005b9392505050565b60405180610360016040528060006001600160a01b0316815260200160006001600160a01b0316815260200160006001600160a01b031681526020016000151581526020016000151581526020016000151581526020016060815260200160608152602001600081526020016000815260200160008152602001600081526020016000815260200160008152602001600081526020016000815260200160006001600160801b0316815260200160006001600160801b0316815260200160006001600160801b0316815260200160006001600160801b03168152602001600064ffffffffff168152602001600081526020016000815260200160006001600160801b031681526020016000815260200160008152602001600081525090565b60405180610100016040528060006001600160a01b0316815260200160006001600160a01b0316815260200160608152602001606081526020016060815260200160001515815260200160608152602001600061ffff1681525090565b6001600160a01b038116811461177257600080fd5b50565b6000806040838503121561178857600080fd5b82356117938161175d565b915060208301356117a38161175d565b809150509250929050565b60005b838110156117c95781810151838201526020016117b1565b50506000910152565b600081518084526117ea8160208601602086016117ae565b601f01601f19169290920160200192915050565b80516001600160a01b031682526000610360602083015161182a60208601826001600160a01b03169052565b50604083015161184560408601826001600160a01b03169052565b506060830151611859606086018215159052565b50608083015161186d608086018215159052565b5060a083015161188160a086018215159052565b5060c08301518160c0860152611899828601826117d2565b91505060e083015184820360e08601526118b382826117d2565b610100858101519087015261012080860151908701526101408086015190870152610160808601519087015261018080860151908701526101a080860151908701526101c080860151908701526101e08086015190870152610200808601516001600160801b03908116918801919091526102208087015182169088015261024080870151821690880152610260808701518216908801526102808087015164ffffffffff16908801526102a080870151908801526102c080870151908801526102e0808701519091169087015261030080860151908701526103208086015190870152610340948501519490950193909352509192915050565b6020815260006115da60208301846117fe565b6000602082840312156119d357600080fd5b5035919050565b6020808252825182820181905260009190848201906040850190845b81811015611a3357835180516001600160a01b031684526020808201519085015260409081015190840152606083019385019392506001016119f6565b50909695505050505050565b634e487b7160e01b600052604160045260246000fd5b60405161014081016001600160401b0381118282101715611a7857611a78611a3f565b60405290565b604051601f8201601f191681016001600160401b0381118282101715611aa657611aa6611a3f565b604052919050565b60006001600160401b03821115611ac757611ac7611a3f565b5060051b60200190565b60008060408385031215611ae457600080fd5b8235611aef8161175d565b91506020838101356001600160401b03811115611b0b57600080fd5b8401601f81018613611b1c57600080fd5b8035611b2f611b2a82611aae565b611a7e565b81815260059190911b82018301908381019088831115611b4e57600080fd5b928401925b82841015611b75578335611b668161175d565b82529284019290840190611b53565b80955050505050509250929050565b6020808252825182820181905260009190848201906040850190845b81811015611a3357835183529284019291840191600101611ba0565b600060208284031215611bce57600080fd5b81356115da8161175d565b600081518084526020808501945080840160005b83811015611c125781516001600160a01b031687529582019590820190600101611bed565b509495945050505050565b600081518084526020808501808196508360051b8101915082860160005b85811015611c65578284038952611c538483516117fe565b98850198935090840190600101611c3b565b5091979650505050505050565b80516001600160a01b0316825260006101006020830151611c9e60208601826001600160a01b03169052565b506040830151816040860152611cb682860182611bd9565b91505060608301518482036060860152611cd08282611bd9565b91505060808301518482036080860152611cea8282611bd9565b91505060a0830151611d0060a086018215159052565b5060c083015184820360c0860152611d188282611c1d565b91505060e0830151611d3060e086018261ffff169052565b509392505050565b6020815260006115da6020830184611c72565b600080600060608486031215611d6057600080fd5b8335611d6b8161175d565b92506020840135611d7b8161175d565b929592945050506040919091013590565b6020815260006115da6020830184611bd9565b60006020808301818452808551808352604092508286019150828160051b8701018488016000805b84811015611e7857898403603f19018652825180518552888101516001600160a01b031689860152878101518886015260608082015160a0918701829052805191870182905260c0870191908b0190855b81811015611e5557825180516001600160a01b031685526020808201519086015260409081015190850152606084019350918c0191600101611e18565b505050608091820151151595909101949094529487019491870191600101611dc7565b50919998505050505050505050565b60008060408385031215611e9a57600080fd5b50508035926020909101359150565b6000602080830181845280855180835260408601915060408160051b870101925083870160005b82811015611efe57603f19888603018452611eec858351611c72565b94509285019290850190600101611ed0565b5092979650505050505050565b600060208284031215611f1d57600080fd5b604051602081018181106001600160401b0382111715611f3f57611f3f611a3f565b6040529151825250919050565b600060208284031215611f5e57600080fd5b6115da8383611f0b565b80516001600160801b0381168114611f7f57600080fd5b919050565b805164ffffffffff81168114611f7f57600080fd5b805161ffff81168114611f7f57600080fd5b8051611f7f8161175d565b60006101408284031215611fc957600080fd5b611fd1611a55565b611fdb8484611f0b565b8152611fe960208401611f68565b6020820152611ffa60408401611f68565b604082015261200b60608401611f68565b606082015261201c60808401611f68565b608082015261202d60a08401611f84565b60a082015261203e60c08401611f99565b60c082015261204f60e08401611fab565b60e0820152610100612062818501611fab565b90820152610120928301519281019290925250919050565b60006060828403121561208c57600080fd5b604051606081018181106001600160401b03821117156120ae576120ae611a3f565b806040525082518152602083015160208201526120cd60408401611f68565b60408201529392505050565b6000602082840312156120eb57600080fd5b81516001600160401b038082111561210257600080fd5b818401915084601f83011261211657600080fd5b81518181111561212857612128611a3f565b61213b601f8201601f1916602001611a7e565b915080825285602082850101111561215257600080fd5b6121638160208401602086016117ae565b50949350505050565b60006020828403121561217e57600080fd5b5051919050565b60006040828403121561219757600080fd5b604051604081018181106001600160401b03821117156121b9576121b9611a3f565b60405282516121c78161175d565b815260208301516121d78161175d565b60208201529392505050565b600060208083850312156121f657600080fd5b82516001600160401b0381111561220c57600080fd5b8301601f8101851361221d57600080fd5b805161222b611b2a82611aae565b81815260059190911b8201830190838101908783111561224a57600080fd5b928401925b828410156122715783516122628161175d565b8252928401929084019061224f565b979650505050505050565b634e487b7160e01b600052603260045260246000fd5b634e487b7160e01b600052601160045260246000fd5b6000600182016122ba576122ba612292565b5060010190565b6000602082840312156122d357600080fd5b81516115da8161175d565b6000602082840312156122f057600080fd5b815180151581146115da57600080fd5b818103818111156115b4576115b461229256fea2646970667358221220092cc8d09f4a34b782ee50fefcb49c779d054f8d1463bba6383e769961b4a72564736f6c63430008130033",
  "devdoc": {
    "kind": "dev",
    "methods": {
      "getBalances(address,address[])": {
        "details": "If the token address is 0x0, it will return the balance of the user in ETH",
        "params": {
          "tokens": "The tokens to get the balances for",
          "user": "The user to get the balances for"
        }
      }
    },
    "version": 1
  },
  "userdoc": {
    "kind": "user",
    "methods": {
      "getBalances(address,address[])": {
        "notice": "Returns the balances of the user for the given tokens"
      }
    },
    "version": 1
  },
  "storageLayout": {
    "storage": [
      {
        "astId": 42841,
        "contract": "contracts/periphery/ui-helpers/UIHelper.sol:UIHelper",
        "label": "factory",
        "offset": 0,
        "slot": "0",
        "type": "t_contract(IPoolFactory)39100"
      },
      {
        "astId": 42844,
        "contract": "contracts/periphery/ui-helpers/UIHelper.sol:UIHelper",
        "label": "manager",
        "offset": 0,
        "slot": "1",
        "type": "t_contract(INFTPositionManager)38548"
      },
      {
        "astId": 42847,
        "contract": "contracts/periphery/ui-helpers/UIHelper.sol:UIHelper",
        "label": "configurator",
        "offset": 0,
        "slot": "2",
        "type": "t_contract(IPoolConfigurator)38824"
      }
    ],
    "types": {
      "t_contract(INFTPositionManager)38548": {
        "encoding": "inplace",
        "label": "contract INFTPositionManager",
        "numberOfBytes": "20"
      },
      "t_contract(IPoolConfigurator)38824": {
        "encoding": "inplace",
        "label": "contract IPoolConfigurator",
        "numberOfBytes": "20"
      },
      "t_contract(IPoolFactory)39100": {
        "encoding": "inplace",
        "label": "contract IPoolFactory",
        "numberOfBytes": "20"
      }
    }
  }
}