{
  "address": "0x179F0B499D21488f32B361671F5a01a4EEFC30d7",
  "abi": [
    {
      "anonymous": false,
      "inputs": [
        {
          "indexed": false,
          "internalType": "address",
          "name": "addr",
          "type": "address"
        },
        {
          "indexed": false,
          "internalType": "uint256",
          "name": "salt",
          "type": "uint256"
        }
      ],
      "name": "Deployed",
      "type": "event"
    },
    {
      "inputs": [
        {
          "internalType": "bytes",
          "name": "code",
          "type": "bytes"
        },
        {
          "internalType": "uint256",
          "name": "salt",
          "type": "uint256"
        }
      ],
      "name": "deploy",
      "outputs": [],
      "stateMutability": "nonpayable",
      "type": "function"
    }
  ],
  "transactionHash": "0xb81c1cd57fcf4ef5d701a33c55cd4e058ab330716a3fa83d8cdbd8558cd5d4e1",
  "args": [],
  "numDeployments": 1,
  "solcInputHash": "c62d112decf97d8f913a1737220a9b57",
  "bytecode": "0x608060405234801561001057600080fd5b506101a6806100206000396000f3fe608060405234801561001057600080fd5b506004361061002b5760003560e01c80639c4ae2d014610030575b600080fd5b61004361003e3660046100bb565b610045565b005b6000818351602085016000f59050803b61005e57600080fd5b604080516001600160a01b0383168152602081018490527fb03c53b28e78a88e31607a27e1fa48234dce28d5d9d9ec7b295aeb02e674a1e1910160405180910390a1505050565b634e487b7160e01b600052604160045260246000fd5b600080604083850312156100ce57600080fd5b823567ffffffffffffffff808211156100e657600080fd5b818501915085601f8301126100fa57600080fd5b81358181111561010c5761010c6100a5565b604051601f8201601f19908116603f01168101908382118183101715610134576101346100a5565b8160405282815288602084870101111561014d57600080fd5b82602086016020830137600060209382018401529896909101359650505050505056fea2646970667358221220fa1b62f37c632a7916213ec654e721f9542edad321573c96e589258c8a5005eb64736f6c63430008130033",
  "devdoc": {
    "kind": "dev",
    "methods": {},
    "version": 1
  },
  "userdoc": {
    "kind": "user",
    "methods": {},
    "version": 1
  },
  "storageLayout": {
    "storage": [],
    "types": null
  }
}